:020000040800F2
:1000000000800120AD22020801230208012302081A
:100010000123020801230208012302080000000056
:1000200000000000000000000000000001230208A2
:100030000123020800000000453E000801230208D9
:10004000E94B0008012302080123020801230208EA
:1000500001230208012302080123020801230208E8
:1000600001230208012302080123020801230208D8
:1000700001230208012302080123020801230208C8
:1000800001230208012302080123020801230208B8
:1000900001230208012302080123020801230208A8
:1000A0000123020801230208012302080123020898
:1000B0000123020801230208012302080123020888
:1000C0000123020801230208012302080123020878
:1000D0000123020801230208012302080123020868
:1000E0000123020801230208012302080123020858
:1000F00001230208C13A0008012302080123020873
:100100000123020801230208012302080123020837
:100110000123020801230208F1350008F53D00081B
:100120000123020801230208012302080123020817
:100130000123020801230208012302080123020807
:1001400001230208012302080123020801230208F7
:1001500001230208012302080123020801230208E7
:1001600001230208012302080123020801230208D7
:1001700001230208012302080123020800000000F5
:10018000012302080123020810B5054C237833B976
:10019000044B13B10448AFF300800123237010BD5A
:1001A0009002002000000000C46B030808B5064B55
:1001B0001BB106480649AFF300800648036813B137
:1001C000054B03B1984708BD00000000C46B03084D
:1001D000940200208C0200200000000070B56248EC
:1001E000624D2DED028B01F06FF800215E4801F0A9
:1001F000C3F85F4801F068F800215D4801F0BCF8E1
:10020000AC2023F08BF8044601F0F0F85421286864
:1002100002F074FC064618F0BBFF3146204601F0A0
:1002200093FE0821286802F069FC064617F01EFCC0
:100230003146204601F088FE1421286802F05EFC59
:10024000064617F023FD3146204601F07DFE1021C1
:10025000286802F053FC06461AF098FB3146204607
:1002600001F072FE012023F059F8064612F000FE5C
:10027000304602F05FFD012023F050F8064615F0ED
:10028000F9F9304602F056FD4421286802F036FCA8
:1002900006460EF0EDFA2046314601F055FE1821D3
:1002A000286802F02BFC054616F052FA2946204633
:1002B00001F04AFE282023F031F80021054617F00E
:1002C0004BFF2046294601F03FFE002213464DF227
:1002D000BD11606900F006FBB2EE040A00F0B8FF41
:1002E00000F032FFDFED237AB4EEE70AF1EE10FA08
:1002F000B0EE408A31DD042023F010F8DFED1E7AE5
:1003000028EE278A0546BCEEC88A002218EE101A8D
:1003100004F098FC2046294601F016FE606900F0C2
:100320009BFA94F8A830DB0703D50F48012101F0B0
:1003300023F8124C2368DA68986992F89C1107F048
:100340008DFB2368986A03F0C9FABDEC028B236821
:10035000BDE87040586A03F0E7B860680849036870
:100360009B689847DAE700BFAC0200201803002022
:10037000AE020020CDCCCC3D00247449C802002040
:10038000D0090308F8B50F4CFFF728FF00252746D2
:1003900010E06E1CC5F30031B6B200F0EDFF386816
:1003A000354600210A4601F0D5FD206803210022D0
:1003B00001F0D0FD2368044893F8A820D207E8D4C0
:1003C0001846EEE7C8020020AC02002010B5054C2C
:1003D0004C21204600F06CFFA01C4D21BDE81040D0
:1003E00000F066BFAC02002000487047F009030827
:1003F00000487047000A03080D4B0F2810B41B6813
:1004000013DC03EB4002C1F30B01B2F8044104EB2F
:10041000C000013403EB4003A4B2072CA2F804414E
:10042000998084BF0023A2F804315DF8044B704723
:10043000B002002038B5094B04461C201C6022F095
:100440006DFF082205464FF47A7104F06DFC2846D2
:100450002560034904F068FD204638BDB002002045
:10046000F903000810B54879097920F05FF90649C9
:10047000044621F0B5FE4FF6FF73B0F1FF3F14BF05
:100480002046184600B210BDE45F030870B504466C
:10049000FFF7E8FF012201460646206804F0DAFC77
:1004A0000F28054600D970BD04EB001080350021EF
:1004B000102204EB4505043027F022FA00233146D0
:1004C0002068AB80012204F011FD20680121BDE805
:1004D000704004F063BD00BF88422DE9F8438046B8
:1004E000894629D0821C914226D0064636F8025F02
:1004F000B8F80030AB42144602F102070FD836F8C4
:10050000023C9D421AD2023A2380144632F8023D40
:100510009D42F9D34F4525800ED03A46E6E7C8EB19
:1005200006035B1004D05A00B81A414627F0CDF9F3
:100530004F45A8F80050F0D1BDE8F8831446E9E72C
:100540002DE9F00102F1FF3808EBD8784FEA68088E
:100550004145B8BF0C464CDA651C6C0004F10046FE
:10056000013E30F8257030F816C02646BC450644DA
:1005700000EB850504D9013C00EB440530F814700C
:10058000444526F8027CE7DBD60705D4023A02EBA5
:10059000D272B4EB620F20D0621E02EBD2728C4298
:1005A0004FEA620215DD30F81260B34206D810E05F
:1005B00030F81560B3420AD914462A46551E05EB99
:1005C000D575914220F814604FEA6505F0DB00EB29
:1005D00042052B80BDE8F00170470134640004F14E
:1005E0000042013A013C30F812202A8000EB440519
:1005F000D2E700EB41050C46C6E700BF2DE9F84FF6
:100600000B1A212B8246934640F39380002A6BD02D
:1006100000F102099B10BAF802403AF8132031F8B1
:10062000020C94420BF1FF3B44D2824246D38442F7
:1006300051D2BAF80050AAF8000021F8025CBAF8CA
:100640000260BAF80040A6420F464B461DD2023364
:10065000984633F8026BA642FAD3A542A7F10203EB
:1006600018D93B1F1F4633F80259A542FAD8B8459E
:1006700013D2434623F8025B3E80B8F80260BAF812
:10068000004037F8025CA642E1D3A5429846A7F1A4
:100690000203E6D81F46B845EBD340465A46FFF75B
:1006A000ADFFCAEB0803212B41DDBBF1000F1CD0CD
:1006B0004146AFE784420ED38242BAD3BAF8000073
:1006C000AAF800202AF81300BAF8026031F8025C98
:1006D000BAF80040B7E7BAF80060AAF80260AAF8D2
:1006E000004031F8025CAEE788465E10B41E64102C
:1006F000651C0AEB450500E0013C504621463246A8
:1007000035F8023DFFF71CFF002CF5D1BAF80020A8
:1007100038F8023C28F8022DCAEB08046210504653
:100720000021FFF70DFF032CF0DCBDE8F88FBDE8DA
:10073000F88FBDE8F88F00BF10B584B00446FFF70E
:1007400091FE0146206804F075FB72B604EB0013BD
:100750006C4653F8040F59689A68DB680FC462B698
:100760000622684604A9FFF749FF684604A9FFF777
:10077000B3FEBDF80410BDF80630BDF80820BDF882
:100780000A000B4413441844800804B010BD00BF95
:1007900001207047002070470120704710B5054BBD
:1007A0000360044640681FF0B9FE034B23602046F7
:1007B00010BD00BF280A03080011030810B5064B3E
:1007C0000360044640681FF0A9FE044B23602046E6
:1007D00002F0B0FA204610BD280A030800110308F1
:1007E00038B540680D460A4926F05CFC044670B1F5
:1007F000284627F046FC012102462346284626F0DB
:1008000093FF0546204626F0ABF9284638BD38BD93
:10081000180A030810B503680A4A0446A3F10C003D
:10082000904282B002D1204602B010BD53F8042C91
:10083000511E002A43F8041CF5DC01A923F0BEF880
:10084000F1E700BF980500200B460068114647F20B
:10085000693200F017BB00BF38B5046805462CB1FB
:10086000204600F0E1F9204602F064FA00232B60F4
:1008700038BD00BFF8B50C460546FFF7EDFF0C206C
:1008800022F04CFD074600F093F92F606CB16C68C4
:10089000AE68B44209D0394600E0296854F8040B28
:1008A00003689B689847A642F7D1F8BD10B5046865
:1008B0004CB1204600F0E2F900B110BD064800F04E
:1008C00023FC0548F9E7054B05491B685868036890
:1008D0005B699847204610BDB4020020C802002082
:1008E000480A030800B583B0ADF800106946ADF8BA
:1008F0000220ADF80430FFF7D9FF03B05DF804FB28
:10090000F8B542680368D31A9B1004460F4605D019
:100910005A00934226D96FF0030600E004263046C1
:1009200022F0FCFC054694E809001B1A9B109A0073
:100930003968AF1807D045F8231094E809001B1A4E
:100940009B109A00AF1823B10146284626F0BDFF40
:100950002068043708B102F0EDF92E44A66084E85F
:10096000A000F8BDB2F1804FD5D2DE00D7E700BFBE
:1009700038B543688468A342024606D009680BB1C3
:10098000196043680433536038BDFFF7B9FF38BDC1
:100990002DE9F0410646002384B043608360C360C4
:1009A000054646F8043B102022F0B8FC04AC804613
:1009B0006E496F4F05F00AF944F8048D3046214620
:1009C000FFF7D6FF01AA6B49204623F091FA204693
:1009D00003F0A6FC039BA3F10C02BA42804640F050
:1009E000B7802046B8F1000F5ED0624901AA23F01B
:1009F0007FFA102022F092FC21465F4A804604F0E4
:100A0000C1FB039BA3F10C00B84277D1B8F1000FF2
:100A100005D030462146CDF80C80FFF7A9FF01AA8A
:100A20005649204623F064FA204603F079FC039BE4
:100A3000A3F10C02BA42804649D1B8F1000F1ED092
:100A40004E4901AA204623F053FA102022F066FCFA
:100A500021464B4A804604F095FB039BA3F10C0012
:100A6000B84240D1B8F1000F05D030462146CDF84C
:100A70000C80FFF77DFF284604B0BDE8F08101AA95
:100A80004049204623F034FA204603F049FC039BFA
:100A9000A3F10C02BA4280464BD1B8F1000FEAD064
:100AA00001AA20463749CEE701AA374923F020FAA8
:100AB000204603F035FC039BA3F10C02BA428046AA
:100AC00027D1B8F1000FAAD020462F498EE753F85E
:100AD000041C481E002943F8040CAEDC104602A991
:100AE00022F06CFFA9E753F8042C511E002A43F8AA
:100AF000041CB7DC02A922F061FFB3E753F8042C11
:100B0000511E002A43F8041C80DC02A922F056FF83
:100B10007CE753F8041C481E002943F8040CD0DC81
:100B2000104602A922F04AFFB8F1000F3FF477AF58
:100B3000CAE753F8041C481E002943F8040CACDC37
:100B4000104602A922F03AFFB8F1000F93D0A7E7B0
:100B500053F8041C481E002943F8040C3FF741AF2A
:100B6000104602A922F02AFF3BE700BF840A0308CF
:100B7000980500208C0A03089C0A0308B80A030899
:100B8000C40A0308C80A0308A40A030810B5054CE0
:100B9000204600F0A3FA20460349044ABDE810406D
:100BA00022F0E1BBB40200201508000888010020F3
:100BB0000022026042608260704700BF2DE9F04170
:100BC00090E86000B54282B080461CD0154F55F8C1
:100BD000044B3CB12368A3F10C02BA4215D1204664
:100BE00002F0A8F8AE42F2D1D8F800000023C8F80D
:100BF0000030C8F80430C8F8083008B102F09AF89C
:100C000002B0BDE8F0812846F0E753F8041C481E06
:100C1000002943F8040CE2DC104601A922F0CEFEC4
:100C2000DDE700BF9805002010B50446FFF7C6FFBA
:100C3000206808B102F07EF8204610BD10B5436868
:100C400053F8044D436082B044B123680A4AA3F1CB
:100C50000C00904204D1204602F06CF802B010BDA6
:100C600053F8042C511E002A43F8041CF3DC01A99C
:100C700022F0A4FEEFE700BF98050020F8B590E849
:100C80005000B4420F4602D10DE0A6420BD054F8FA
:100C9000045B384605F10C01062226F0FEFD002813
:100CA000F3D12846F8BD00252846F8BD2DE9F047C8
:100CB00090E8200145458AB00F4622D0012655F81C
:100CC000044BD7F80090E389B4F80CA00093238A72
:100CD000019322680292A37C0393E37C0493A068AF
:100CE00023F0FEFACDE906016268089253463246C7
:100CF000D9F8084004493846A047A84506F101063E
:100D0000DDD10AB0BDE8F087D80A0308F8B542681B
:100D10000368D31A9B1004460F4605D05A0093422D
:100D200026D96FF0030600E00426304622F0F6FADA
:100D3000054694E809001B1A9B109A003968AF1801
:100D400007D045F8231094E809001B1A9B109A005D
:100D5000AF1823B10146284626F0B7FD20680437B6
:100D600008B101F0E7FF2E44A66084E8A000F8BDBA
:100D7000B2F1804FD5D2DE00D7E700BF2DE9F047B2
:100D800090E8A00084B0BD428146019124D08A46FB
:100D900001F10C0801E0AF421ED02E684046062249
:100DA00006F10C012C46043526F077FD0028F2D11F
:100DB00056B13368184AA3F10C00904220D1304656
:100DC00001F0B8FFDDF804A0C4F800A0134826F035
:100DD000FDFE04B0BDE8F087D9F808309F420AD084
:100DE000019B17B13B60D9F804700437C9F804704F
:100DF00004B0BDE8F087484601A9FFF787FFE8E7A0
:100E000053F8042C511E002A43F8041CD7DC03A914
:100E100022F0D4FDD3E700BF98050020340B03086F
:100E2000F8B542680368D31A5B1004460F4605D034
:100E30005A00934221D96FF0010600E002263046A5
:100E400022F06CFA054694E809001B1A5B105A0060
:100E50003988AF1818BF25F8131043B9023708B105
:100E600001F068FF2E44A66084E8A000F8BD0146AA
:100E7000284626F02AFD2068F0E7B2F1004FDAD2CA
:100E80009E00DCE72DE9F04190E89000BC4282B082
:100E9000884602D114E0A74212D054F8045B2E8A8F
:100EA0009642F8D1AE894645F5D159689868814295
:100EB00009D0881CED8901B10D80A7425860ECD1A2
:100EC00002B0BDE8F081184605F10E0101920093D1
:100ED000FFF7A6FF009B019ADDE700BF014B03600F
:100EE000704700BF680B030810B5034B036004464E
:100EF00001F020FF204610BD680B0308F0B50B6819
:100F00001A78232A87B00C4671D053F80C3C022B78
:100F10006DD9084600224749022322F0C6FC461C30
:100F2000054664D023681B5C232B60D00223204637
:100F300040492A4622F084FC431C074653D03D49D1
:100F400020463A46022322F0B0FC064601302168D2
:100F500050D08B5D232B4DD051F80C2C9542C5EB16
:100F600007034DD82A46214602A822F07DFF02A998
:100F700004A803F031F8142022F0D0F9054600F05F
:100F8000ADF8BDF81010BDF81220BDF81430A981DD
:100F90000120A874EA812B82721C05232046264971
:100FA00022F04EFC421C226852F80C2C14BFC6EBF7
:100FB00000030346964223D82146324603A822F076
:100FC00053FF284603A922F0E4FB039B1B4CA3F12B
:100FD0000C00A04217D1029BA3F10C00A0421DD12E
:100FE000284607B0F0BD2168154826F03BFD0020DB
:100FF00007B0F0BD134826F035FD002007B0F0BD66
:10100000114823F002F853F8042C511E002A43F82B
:10101000041CE0DC01A922F0D1FCDCE753F8042C2D
:10102000511E002A43F8041CDADC03A922F0C6FC96
:10103000D6E700BF880B0308E80B030898050020DB
:101040008C0B0308F00B0308D00B030838B51546CA
:10105000FFF754FF044618B128462146FFF78EFEDD
:10106000204638BDF0B583B014460F4601AA194991
:101070001E46054622F03CFF21463846FFF73EFF5C
:10108000044660B1828933889A420BD02368124AA1
:10109000A3F10C00904212D1204601F04BFE2846ED
:1010A00003B0F0BDC28973889A42EFD1B388028A37
:1010B0009A42EBD12846214622F099FEE6E753F802
:1010C000042C511E002A43F8041CE5DC01A922F07F
:1010D00075FCE1E7403F03089805002010B50022A9
:1010E000074B03600021044681608274C2748281D0
:1010F000C28102824260034922F00CFD204610BDED
:10110000A4050020403F0308002282600022044919
:101110008274C2748281C2810282426022F0FABC6F
:10112000403F0308837C10B5044633B9044B05499E
:101130001B68586803689B689847204610BD00BF2D
:10114000C80200201C0C0308F0B52DED028B837C37
:1011500087B004460BB9C37C23BB0023214605A8F6
:10116000039322F038FE04A805A903F017F8059BA5
:10117000214DA3F10C00A84233D1049E03A93046AF
:1011800027F026FE039BB342B0EE408A10D9049BA1
:10119000A3F10C00A84219D1B0EE480A07B0BDEC8B
:1011A000028BF0BD90ED020A07B0BDEC028BF0BDE2
:1011B000124BE7891B68268A586822680168A38950
:1011C000009701968C680E49A047E0E753F8042C7D
:1011D000511E002A43F8041CDEDC05A922F0EEFBB8
:1011E000DAE753F8042C511E002A43F8041CC4DC2F
:1011F00002A922F0E3FBC0E798050020C802002006
:10120000780C030810B5044622F0E5FD204610BD19
:1012100008B5837C0BB9C37C43B90749002203237B
:1012200022F00EFB013018BF012008BD40680030DD
:1012300018BF012008BD00BF940D030807EE101A67
:10124000F8EEC77A0122C0ED027A4160C27470479D
:10125000012280ED020AC274704700BF837C10B582
:1012600004461BB90123C37422F0C1FD204610BD02
:1012700038B5044600781FF05FF922780B4B61788F
:1012800053F822200125506805FA01F120EA0101F6
:1012900051602178627853F82130AA40D968032040
:1012A00000FA02F221EA0202DA6038BD980D030862
:1012B00010B5C1F3031301F00F0104460370417030
:1012C000FFF7D6FF204610BD10B4094B01784278D5
:1012D00053F8213052001C6803219140012024EA78
:1012E000010100FA02F20A431A605DF8044B7047EC
:1012F000980D03080278124BF0B453F8222044787A
:10130000176864000326A640012527EA060605FAA9
:1013100004F43443146051B90178427853F8213011
:101320004FF4803101FA02F29A61F0BC7047017803
:10133000427853F8213095409D61F0BC704700BF62
:10134000980D03080178044B427853F821300121AD
:1013500001FA02F29A617047980D03080178054B73
:10136000427853F821304FF4803101FA02F29A6149
:10137000704700BF980D030810B40B4B04784278F7
:1013800053F8243041B94FF4803000FA02F29A61E8
:1013900008465DF8044B7047012000FA02F29A619A
:1013A00008465DF8044B7047980D03080022026060
:1013B00042608260C2607047F8B5046900F10806B7
:1013C000B4420F464FF000050DD02069036839463E
:1013D0005B6998478542B8BF0546204622F03EF833
:1013E000B0420446F1D12846F8BD00BF2DE9F041D6
:1013F0002DED028BC64B0363436384B0044600F1BA
:10140000480300F1B401002243F80C2C43F8082CE7
:1014100043F8042C0C338B42F6D1BE4A94F8A83022
:10142000556F03F0D50343F04003AF0184F8A830B3
:1014300000F1D4816E0100F1CA81280100F1C08160
:10144000E90000F1B681AA0000F1AC816B0000F167
:101450009981002DC0F29F81AE4B5B6F13F000634A
:1014600005D194F8A82063F3861284F8A820A94A2D
:10147000A94B4FF08071516703A821211C60FFF731
:1014800017FF012103A8FFF735FF102021F046FFC9
:1014900006460025FFF77CFA012130466661FFF71A
:1014A000E9F925601C2021F039FF9C4901600346C1
:1014B00000F10802026142610572C56085619849C8
:1014C0006360012204F1300022F024FB954A606938
:1014D000D1684FF6FF030B4043F0BF6343F4003382
:1014E000D36046F20F612A462B46FFF7FBF92946E7
:1014F000FFF7A4FEFFF728FEBCEEC00A2A4610EE56
:10150000103A4CF6DF1184F8A93060692B46FFF7DA
:10151000E9F92946FFF792FEFFF77AFE94F8A83022
:1015200080F0010060F300032A4684F8A83048F2F6
:10153000AE012B466069FFF7D5F92946FFF77EFE1D
:10154000FFF766FE94F8A83060F382032A4684F819
:10155000A83043F666212B466069FFF7C3F994F87B
:10156000A810C1F38001FFF769FEFFF751FE94F860
:10157000A83060F345132A4684F8A83045F68B312D
:101580002B466069FFF7AEF90121FFF757FEFFF721
:101590003FFE94F8A83094F8A92060F30413012AC0
:1015A00084F8A83000F06B81C0F01F81022A00F09F
:1015B000C380206803689B689847282021F0AEFE0E
:1015C000054601F069FF2B6865629B6828469847CD
:1015D000442021F0A3FE054602F0DAF9A5624FF49B
:1015E000927021F09BFE4F4D0646FEF723FFE968FF
:1015F0004D4BE6624FF6FF020A4042F0BF624FF0E9
:10160000200C4FF0400E60211026502042F4003292
:101610003027EA6083F837C3002283F82D6383F80C
:1016200036E385F8227083F8006383F8120383F8A9
:101630004D0383F8251383F8261383F83A1383F8B0
:1016400010136069134645F29E51FFF74BF9374975
:10165000FFF7F4FDFFF778FDBCEEC00A0022134649
:1016600084ED0E0A60694AF25D51FFF73BF90121F2
:10167000FFF7E4FDFFF768FDD4ED0E7AA06AB0EE47
:10168000408AB8EE670A02F043F9B0EE480AA06A51
:1016900002F062F9282021F041FE054606F0BCF96F
:1016A0002B68A5619B6828469847182021F036FED4
:1016B000054605F025FB2B68A5609B6828469847E2
:1016C0004FF4D07021F02AFE054609F099F82B68F6
:1016D000E5609B6828469847042021F01FFE0546D8
:1016E00001F0E2FB124B2B602846256219F094FBB7
:1016F000282021F013FE054606F06CFB2561012031
:1017000021F00CFEE061204604B0BDEC028B11E03C
:10171000A405002000380240C8020020C80D0308BC
:10172000500E030800ED00E000E100E0A08601009B
:10173000A84E0308BDE8F0812B4642F6AA2244F2E7
:10174000ED116069FFF7CEF84FF4E131FFF776FD58
:10175000FFF7FAFC5C4B4FF406711868B0EE408A54
:1017600001F0CCF9BDEEC88A4FF0FF330546009377
:101770008DED018A09210A22352305F0CFFB256072
:10178000284617E704F134005049102222F0B0FA3D
:10179000002DBFF661AE04F134004D490A2222F05B
:1017A000A7FA59E604F134004A49152222F0A0FABA
:1017B0004CE604F1340048490F2222F099FA42E63F
:1017C00004F134004549092222F092FA38E604F186
:1017D00034004349042222F08BFA2EE604F134004F
:1017E00040490A2222F084FA24E62B4642F6AA2235
:1017F0006069354F44F2ED11FFF774F84FF4E131B1
:10180000FFF71CFDFFF7A0FC38684FF40671B0EE3F
:10181000408A01F073F9BDEEC88A4FF0FF3680466A
:101820008DED018A009609210A22352305F076FB09
:101830002B4642F6AA22C4F80080606944F2ED11FA
:10184000FFF750F84FF4E131FFF7F8FCFFF77CFCAD
:1018500038684FF40671B0EE408A01F04FF9BDEEE2
:10186000C88A0546334600968DED018A3521362219
:1018700005F054FB2B6828469B68984799E62B4651
:1018800042F6AA2244F2ED116069FFF72BF84FF4FB
:10189000E131FFF7D3FCFFF757FC0B4B4FF4067118
:1018A0001868B0EE408A01F029F9BDEEC88A0B2312
:1018B000054600938DED018A09210A220C2305F0CB
:1018C0002DFB2560284675E618030020300E03081E
:1018D000440E0308180E0308080E0308FC0D030845
:1018E000F40D0308E80D03082DE9F04F2DED048BEE
:1018F000BC4B0360B3B0074688464FF44C4044F6F7
:101900008A5100220DF1230301F078FC08B98DF80B
:1019100023003846B449012222F0EAF998F8A830A9
:101920009C0700F158819DF82320002A40F0768121
:10193000180740F1FF803846AC49042222F0D8F95C
:10194000D8F80C3093ED448A8DED0C8AD3ED438AA0
:10195000CDED0D8AD3ED427ACDED0E7A93F8343089
:10196000DB0740F12B819FEDA29AC7EE897AC8EE82
:10197000898A88EE098A17EE900A22F0B1FC0446A3
:1019800018EE900A0D4622F0ABFC02460B4618EE0C
:10199000100ACDE90223CDE9004522F0A1FC12AEE8
:1019A000CDE90401934A8021304626F073FA92492A
:1019B00004460622384622F09BF93146802C34BF7B
:1019C0002246802222F094F9D8F80C1091F89C312C
:1019D000032B2EDD9FED868A03248B6891F834203B
:1019E00053F82430D3ED0B7A93ED087AF8EEE77ACA
:1019F000D007C7EE877A04F1010448BFC7EE887AA2
:101A000017EE900A22F06CFC7C4ACDE9000180219F
:101A1000304626F03FFA3146802834BF0246802205
:101A2000384622F065F9D8F80C1091F89C31A342A1
:101A3000D3DC0DF13C0948460CAA06F0E9FCD8F8C5
:101A40000C30DDED117A93F83430D90740F1A880DD
:101A50009FED678AC7EE887A17EE900A22F040FC65
:101A6000DDED107AC7EE887A04460D4617EE900A2F
:101A700022F036FCDDED0F7A87EE888A82468B46AF
:101A8000CDE90045CDE902AB18EE100A22F028FCA2
:101A9000584ACDE904018021304626F0FBF9584927
:101AA00004460622384622F023F9802C34BF224611
:101AB0008022314622F01CF9D8F80C40204606F06E
:101AC0004DFD94F83430DA0744BFDFED497A80EEFB
:101AD000270A10EE100A22F003FCCDE90001D8F825
:101AE0000C309FED487AD3ED567AC7EE277A17EE81
:101AF000900A22F0F5FB444ACDE9020180213046EC
:101B000026F0C8F93146802834BF02468022384684
:101B100022F0EEF898F8A840C4F38004BCB138462F
:101B20003A49022222F0E4F8384633B0BDEC048B87
:101B3000BDE8F08FD8F8180005F0A0FF002800F0ED
:101B4000C58138463249042222F0D2F8F8E64B46E5
:101B500022464AF616404BF2D3110F94109411947A
:101B600001F04CFB002840F06681DDF840800F9DBD
:101B7000454500F0BF81274A2C4605F11009631B3B
:101B8000143459F80330A3F10C00904240F0CC819A
:101B90004445F4D10F980028C1D001F0CBF8BEE73E
:101BA00017EE900A22F09CFB044610980D4622F096
:101BB00097FB9DED0F8A82468B4661E717EE900AF0
:101BC00022F08EFB044618EE900A0D4622F088FBA8
:101BD00002460B46DBE638460F49052222F088F81C
:101BE000AEE600BFA4050020540E0308680E0308EB
:101BF0003333CB417C0E0308900E0308980E030884
:101C0000A00E03080080BB45C00E0308E00E0308C9
:101C1000700E030898050020580E03083846B7498F
:101C2000042222F065F8D8F80C0009A906F0BEFBE2
:101C3000D8F80C00C36933B1036A09A91430012232
:101C40009847D8F80C0090F83430DDED097AD907C0
:101C500000F1238117EE900A22F042FB04460A9815
:101C60000D4622F03DFB9DED0B8A02460B4618EE19
:101C7000100ACDE90223CDE9004522F031FB12AE76
:101C8000CDE904019E4A8021304626F003F99D49A2
:101C900004460622384622F02BF83146802C34BF09
:101CA0002246802222F024F8D8F80C1091F89C31BA
:101CB000032B2EDD9FED948A03248B6891F834204A
:101CC00053F8243093ED0B7AD3ED087AB8EEC77A47
:101CD000D207C7EE277A04F1010448BFC7EE887A1D
:101CE00017EE900A22F0FCFA884ACDE90001802123
:101CF000304626F0CFF83146802834BF0246802295
:101D0000384621F0F5FFD8F80C1091F89C31A34229
:101D1000D3DC0B98099B0A9C0F900DF13C094A46B5
:101D20000CA81193109406F073FBD8F80C30DDED7D
:101D30000E7A93F83430DB0740F1CE809FED728A43
:101D4000C7EE887A17EE900A22F0CAFADDED0D7A16
:101D5000C7EE887A04460D4617EE900A22F0C0FAC4
:101D6000DDED0C7A87EE888A02460B46CDE9022328
:101D7000CDE9004518EE100A22F0B2FA604ACDE92A
:101D800004013046802126F085F861490446062288
:101D9000384621F0ADFF802C34BF224680223146E8
:101DA00021F0A6FFD8F80C40D8F81830DFED597AAA
:101DB000D3ED088A94F83430DD0768EEA78A48BF6F
:101DC000DFED517A204648BFC8EEA78A06F0C6FB71
:101DD00094F83430DC0744BF9FED4B8A80EE088ACC
:101DE00018EE900A58BFB0EE408A22F079FACDE999
:101DF000000118EE100A22F073FACDE90201D8F8BA
:101E00000C309FED457AD3ED567AC7EE277A17EE60
:101E1000900A22F065FA414ACDE90401304680215A
:101E200026F038F83146802834BF024680223846F2
:101E300021F05EFF6EE6DDF83CA0DDF84080C24593
:101E40005AD00AF1140455460AF1100BCAEB0503E7
:101E500054F8140C5BF8039022F042FACDE900012B
:101E600054F8100C22F03CFA4B46CDE902012C4A02
:101E70002021304626F00EF81435202834BF0246C3
:101E800020223146384621F033FFA84504F11404DE
:101E9000DCD10F9DDDF840806AE69FED1B8AC7EE1E
:101EA000887A17EE900A22F01BFADDED0A7AC7EE67
:101EB000887A04460D4617EE900A22F011FADDEDFD
:101EC0000B7A02460B4687EE888AD0E638461549DB
:101ED000032221F00DFFA6E617EE900A22F000FA89
:101EE00004460D980D4622F0FBF99DED0C8A024642
:101EF0000B463BE728464EE6454639E6600E0308AA
:101F00007C0E0308900E03083333CB41980E030870
:101F1000A00E0308000070420080BB45A80E030815
:101F2000D00E0308780E030853F8041C01F1FF3E9D
:101F3000002943F804EC3FF72BAE3146079221F01D
:101F40003DFD079A24E600BF08B50B6808469B686C
:101F5000984708BD2DE9F04F072983B08B4682468C
:101F600090463CD0012301930BEB4B0292000AF107
:101F70003C0188188C584668B4421CD0244F07EBAB
:101F8000CB02556805F001096D1006E0284457F8AA
:101F90003B2041469047A6420DD054F8040BB9F1BE
:101FA000000FF3D0415957F83B2028448A58414646
:101FB0009047A642F1D1BBF1070F02D003B0BDE8B4
:101FC000F08F9AF8A8309B0702D5019B002BF5D122
:101FD000DAF80C0003B0BDE8F04F06F019BD90F838
:101FE000A810D2F1010238BF002262F3410180F84B
:101FF000A81032B9C9B2080744BF62F3C3018AF816
:10200000A810DAF8180005F039FD0190ACE700BF20
:10201000980F030801EB410138B53C308B00C5181F
:10202000C0586C68A0420DD00368934218BF031DCE
:1020300003D108E00168914205D0A342184603F19C
:102040000403F7D138BD011D8C4206D0631A9A10E3
:1020500003D0920025F039FC6C68043C6C6038BDFC
:1020600070B50C46064609B90AE02C463046E168D0
:10207000FFF7F6FFA568204600F05CFE002DF4D1C6
:1020800070BD00BF10B5054B044640F8043BE16845
:10209000FFF7E6FF024B2360204610BDC80D030882
:1020A00000110308074B10B5044640F8043BE168F3
:1020B000FFF7D6FF044B2360204600F03BFE20468E
:1020C00010BD00BFC80D030800110308F8B5426831
:1020D0000368D31A9B1004460F4605D05A0093425A
:1020E00026D96FF0030600E00426304621F016F9E9
:1020F000054694E809001B1A9B109A003968AF182E
:1021000007D045F8231094E809001B1A9B109A0089
:10211000AF1823B10146284625F0D7FB20680437C5
:1021200008B100F007FE2E44A66084E8A000F8BDC8
:10213000B2F1804FD5D2DE00D7E700BF00B501EB8A
:1021400041013C3000EB810083B04368816801921B
:102150008B4207D00BB11A6043680433436003B06D
:102160005DF804FB01A9FFF7B1FFF8E730B4074AB7
:10217000074D084C0849C264002205654465816525
:1021800002704264826430BC704700BF012345671F
:1021900089ABCDEFFEDCBA9876543210F0B492B130
:1021A0000C460023A57894F801C0CF5CE6782D0496
:1021B00045EA0C253D4345EA0665C55004339A427D
:1021C00004F10404EED8F0BC704700BF30B492B103
:1021D000034600240D68055551F8045B2D0A5D7017
:1021E00031F8025C9D70043411F8015CDD70A2428C
:1021F00003F10403EED830BC704700BF2DE9F04F67
:10220000834695B004A840220BF1500494E83001B5
:10221000DBF84C90DFF8E0A3DB4FDC4EFFF7BEFFAE
:10222000DB4A0192DB4A0292049ADB4BDFF8CCC313
:10223000DFF8CCE3D948DA4991444B4428EA040258
:1022400005EA040942EA09094B4404EB736325EAF1
:1022500003020392059A9044039A03EA040942EAAE
:102260000909C244069ACA4403EB3A5A24EA0A0905
:102270000AEA0308154449EA0808AC44079AC4442A
:102280000AEBFC3C23EA0C080CEA0A051444A644B9
:1022900048EA0505089C0A9A75440CEBB5252AEA1C
:1022A000050E274405EA0C044EEA04043B4423448B
:1022B000099F05EB736303EA05043E442CEA030718
:1022C00056443C4306EB040E03EB3E5E25EA0E0645
:1022D00010440EEA0304344384440CEB04000B9CCA
:1022E0000D9FDDF838A00EEBF03023EA0006214404
:1022F00000EA0E04344329440C9E019D35440195A7
:10230000214400EBB121019AA64C2EEA010601EA14
:10231000000535431A442A44029BA34EA34D01EB0A
:1023200072621F4420EA020902EA0103BE4449EA3C
:102330000309F14402EB3959AAF5244E21EA090CAC
:1023400009EA0208AEF14F0E70444CEA08080F9FEC
:10235000974B804409EBF83822EA080E3B4408EA20
:1023600009004EEA0000194401441098059F08EB4B
:10237000B12C06440CEA080129EA0C00014332445E
:102380000A4411990CEB72630C4403EA0C0228EA2C
:1023900003010A43A144914403EB395E129A6FEAA8
:1023A0000E0404EA0C0115440EEA03020A43A84491
:1023B00090440EEBF836139D7E4A7F496FEA06087B
:1023C00006EA0E002A4408EA0305944405436544DE
:1023D00006EBB52505EA0E02394434400B4414439C
:1023E0000A987649764ADFF81CC21C44754B05EB07
:1023F000F46404EA0607034405EA080847EA080803
:102400009E440EEB08000F9B099F04EBF05000EA7E
:10241000050E194424EA05034EEA03030E44F1189D
:10242000049E00EBB14120EA0403324401EA0406B1
:10243000154446EA0302644B644E2A4401EB3232EF
:102440003B4402EA000E1C4421EA00034EEA030367
:10245000234402EBF36303EA0108D44422EA0104B3
:1024600048EA04046044204403EBF05E1398584D9E
:102470000D9FDFF894810EEA0204064423EA02006D
:10248000204331440E180899524C0EEBB64606EA2A
:1024900003000D442EEA03012A4440EA01051544D5
:1024A00006EB35353C4405EA0E0C234426EA0E04BF
:1024B0004CEA04041C444848129B079F4749484A79
:1024C00005EBF46404EA060C184425EA06034CEA1A
:1024D000030386440EEB030004EBF05000EA050E04
:1024E000394424EA05034EEA03030E44F1180C9B19
:1024F000119FDFF818C100EBB14101EA04061A444C
:1025000020EA0403154446EA0302364B364E2A44B9
:1025100001EB32323B4402EA000E1C4421EA000384
:102520004EEA03032344314D069C0B9F02EBF363F9
:1025300003EA010E254422EA01044EEA0404284479
:10254000051903EBF55505EA020EBC4423EA020027
:102550004EEA00006144014410980C9F05EBB14421
:10256000064425EA030104EA0300014332440A4415
:1025700009991F481F4EA1F5B82E04EB323284EAA8
:10258000050CAEF2BE6E43E0AF0F7CF52AC687475E
:10259000D8988069AFF7448B78A46AD7134630A8DF
:1025A000019546FD937198FD2211906B8E4379A69B
:1025B000BED75C892108B44962251EF6515A5E26B1
:1025C000AAC7B6E940B340C05D102FD681E6A1D8B6
:1025D000C8FBD3E7E6CDE121D60737C3870DD5F495
:1025E000ED145A4505E9E3A98A4C2A8DF8A3EFFCBE
:1025F00022619D6D44EABEA456B7C7E8DB70202473
:10260000EECEBDC15314440297FF2A43D9026F672F
:102610008CEA020C7344DFF838E3BA49634402EBF6
:102620003373BE4482EA040C8CEA030C754405EB58
:102630000C0E0F9D129F03EB7E5E284483EA020579
:1026400085EA0E05044460190EEB304039448EEAE9
:10265000030444400A441119059A089FAA4DAB4C43
:1026600000EB7121164480EA0E0C8CEA010C334415
:10267000A74EA84A634401EB33733E4481EA000C41
:102680000B9F8CEA030CB6440EEB0C0603EB76565C
:102690003A4483EA010E8EEA060E104400EB0E0265
:1026A00006EB3242554486EA0300504029440D1897
:1026B0001198049FDFF89CE2974902EB752582EAA6
:1026C000060C04448CEA050C1C44644405EB347489
:1026D000BE4485EA020C8CEA040C764406EB0C0E30
:1026E0008E48079E0A9F8E4B04EB7E5E304484EA40
:1026F000050686EA0E06024490190EEB3040394476
:102700008EEA040242400D44A9180D9A109F854E8E
:10271000854D00EB712180EA0E0C13448CEA010C0C
:102720002344634401EB33733E4481EA000C139F5E
:102730007E4A7F4C8CEA030CB6440EEB0C0603EB8E
:1027400076563A4483EA010E8EEA060E104400EBF8
:102750000E0206980B9FDFF800C2DFF800E206EBDE
:102760003242054486EA0300504029440D1804997A
:10277000704802EB75250C4465EA060151401C4483
:102780000C4405EBB464B84464EA020989EA05091B
:102790004644129F6849694BDFF8C4814E4404EBFC
:1027A000B656BC4466EA05076740624402EB070C74
:1027B000099A109FDFF8AC9106EB7C4C96446CEACA
:1027C00004027240754415440CEBF525384465EA63
:1027D000060282EA0C020444A018079C584F05EB3D
:1027E000B06060EA0C0221446A403144114400EBBD
:1027F000B151AAF5801A61EA0504AAF6833A444069
:10280000E244059EDFF860C1A24401EB7A4262EA2D
:10281000000433442B444C401E194A4B0293DFF80A
:102820004CA1494D494C02EBF6230C9E63EA010E84
:10283000B2448EEA020E5044139E704403EBB06023
:10284000B14460EA020A8AEA030A49440A9E5144F2
:1028500000EBB151B04461EA030989EA000942443E
:10286000119E4A4401EB7242B44462EA000888EACD
:1028700001086344089E434402EBF323374463EAB0
:10288000010C8CEA020C07EB000EE6440F98029F45
:10289000069E03EBBE6E07446EEA020058403944C0
:1028A00001440EEBB151354461EA030080EA0E00A9
:1028B0002A440D9FDBF84C60DBF85450024401EBD6
:1028C000724262EA0E003C44DBF8507048402344F8
:1028D000DBF8584003441744764407EBF3271544CC
:1028E0000C4404A8CBF84C60CBF85070CBF8545093
:1028F000CBF858400021402225F002F815B0BDE881
:10290000F08F00BF0C38E5FD70BCBFBEC67E9B28B3
:10291000A9CFDE4B604BBBF6051D88048530EFD494
:1029200039D0D4D9E599DBE66556ACC4F87CA21F52
:10293000442229F4C3595B6592CC0C8FD15D848508
:10294000827E53F735F23ABDBBD2D72A91D386EBBC
:1029500081F67187FA27A1EAA72394AB39A093FCEB
:10296000144301A3E0E62CFEA111084E4F7EA86F90
:102970002DE9F843446C1746D20013199A42436478
:10298000836CC4F3C50488BF0133C4F1400603EB74
:102990005773B74205468846836409D20444601CD5
:1029A000002408EB04013A1BBDE8F84324F084BF7F
:1029B00020443246013005F1010924F07DFFC4F1C5
:1029C000800449462846FFF719FCA74202D212E0CC
:1029D00026461C4608EB06012846FFF70FFC04F1CB
:1029E00040039F42F4D2484608EB04013A1BBDE87D
:1029F000F84324F061BF48463446D2E730B5037847
:102A000083B00446B3BB00F144052946684608225A
:102A1000FFF7DCFB626C1949C2F3C502372A94BF89
:102A2000C2F13802C2F178022046FFF7A1FF20462A
:102A300069460822FFF79CFF04F15C0004F14C0199
:102A40001022FFF7C3FB00214022601C24F058FF36
:102A5000AB1C002284F844206A7003F8012B03F8B1
:102A6000012B03F8012B03F8012B03F8012B0121A3
:102A70001A702170204603B030BD00BF8C010020C9
:102A8000F0B50B788BB00746C3B10D4601AC09AE6B
:102A9000204695F85C200D49023425F02DFAB44209
:102AA00005F10105F4D1002301A938466A468DF8E5
:102AB000243021F01DFA38460BB0F0BD044901AABC
:102AC00021F016FA38460BB0F0BD00BFE40E030843
:102AD000403F0308F0B4084C41602568028100279C
:102AE0004FEA122C8F70CF7081F801C00A70056018
:102AF0002060F0BC704700BFCC0200208B0718BFDD
:102B000021F003012DE9F00118BF0431456801F1FE
:102B1000040C1FFA8CFC2B4610E093F801809A7885
:102B200041EA082141EA024141EA046161450A465D
:102B30001EDA018913446A18934215D8DA78197895
:102B4000D70902F07F041646E7D05E789C7841EA08
:102B5000062141EA044102F07F0241EA0262018952
:102B600013446A189342E9D90020BDE8F001704788
:102B700046F080068C45DE7027DA03EB0C02CCEBC6
:102B80000101D47803F80C1067F3C714C1F306668B
:102B900004F08004C1F307253443C1F307415570A5
:102BA0009170D470DC782CF0004C04F0800400218B
:102BB0004FEA1C2583F800C05D70DC709970446892
:102BC0000189121B8A4200DB00BE181DBDE8F0011E
:102BD000704700BF2DE9F00311F8013C11F8042CF7
:102BE00011F8034C11F8025C6FF3C71342EA042496
:102BF00044EA054403F07F020F1F44EA02643A19D5
:102C000001F8013CD378DD0926D145680689551BBA
:102C1000B54200F38D8017F804C092F801809678D1
:102C200011F8015C4CEA082242EA064203F07F03F5
:102C300042EA03631C44C4F3066325F07F051D4389
:102C4000C4F30722C4F3074301F8044C01F8015C04
:102C500001F8032C01F8023C45682B786E78AA78BD
:102C6000EC7843EA062343EA024304F07F0443EA94
:102C700004642A4615E00289964205EB020C54DAF8
:102C80001A7893F801809E78DC7842EA082242EABA
:102C9000064204F07F0452EA046446D0634544D2FD
:102CA0001A461319561BBB422644E4D1D378DE09D9
:102CB000C3F3C01539D111F8046C11F8039C11F855
:102CC000028C11F801CC46EA092646EA08460CF0C7
:102CD0007F0C46EA0C66344423F07F08C4F3066C8C
:102CE000C4F30726C4F307432E432B432C4348EA7F
:102CF0000C0C82F803C056709370147011F8042CF9
:102D000011F8036C11F8025C11F8014C4168038959
:102D100042EA062242EA054204F07F0042EA0062EB
:102D20007F1A3A449A4200DB00BEBDE8F0037047C8
:102D300000BE70E7094B1B68014613B90BE01B6826
:102D40004BB15A689142FAD3188902449142F6D2A3
:102D50001846FFF73FBF08461DF0E0BBCC0200203D
:102D60002DE9F04F0B68446802899D68DFF8ACB02C
:102D700080460F4683B02549234638464FF0000968
:102D8000A847CA46D8F8046002E0042D34D92C4480
:102D90003B68E2789D681E4B1E49D20908BF5B461E
:102DA0000093237894F801E0A078E27843EA0E23B8
:102DB00043EA004302F07F0243EA02620192A31B4E
:102DC00022463846A84721786578E378A278D8F873
:102DD000046041EA052545EA024503F07F0245EA21
:102DE0000265DB09C6EB0402B8F808302A4408BFC4
:102DF000A9449A42AA44C8DB3B6807499C685246EA
:102E00004B463846A04703B0BDE8F08FFC0E0308E0
:102E1000EC0E03081C0F0308400F0308F40E030810
:102E20000246F0B45368158900201C4602E0042ACB
:102E300014D91344D9785F789E78CA091A7842EA7F
:102E4000072201F07F0142EA064242EA0162C4EB36
:102E50000301114408BF8018A942E8DBF0BC7047A9
:102E6000704700BF704700BF704700BF704700BF8A
:102E7000704700BF704700BF704700BF704700BF7A
:102E8000704700BF704700BF014B0360704700BF31
:102E9000680F030810B5034B03600446FFF74AFFB1
:102EA000204610BD680F0308014B0360704700BF48
:102EB000680F0308024B02461868FFF73FB900BFCE
:102EC000C8020020082810B40AD80F2908D8064BD9
:102ED000012453F8202004FA01F10A4343F820208A
:102EE0005DF8044B704700BFF4020020082810B4BE
:102EF0000AD80F2908D8064B012453F8202004FAD9
:102F000001F10A4343F820205DF8044B704700BFED
:102F1000D002002010B4084B4179027953F82130D7
:102F20000324D968520004FA02F221EA0202DA60AC
:102F30005DF8044B704700BFE00F03088279102151
:102F400002F0FE0201716FF3410200218271016003
:102F5000704700BF70B50D4682B004462C49284624
:102F600020F0BCFC30B9A37960F34103A371204683
:102F700002B070BD02AEA3792D68002246F8042D80
:102F800043F00203A371314628460A2225F0BCFF14
:102F9000019BC0B2AB42607108D9082806D81D4A0F
:102FA00052F8202022601A782E2A0ED0A2791A4BCD
:102FB000236002F0FD02002363F30002102120468B
:102FC000A2716371217102B070BD5D1C0A2231468D
:102FD0002846019525F098FF019AC0B295422071CC
:102FE000E4D20F28E2D8107850B9C0E7A37943F0B3
:102FF0000103A37113460132019258780028B6D01C
:103000002128F3D001F09EF80028B0D0019AF1E712
:1030100004100308E00F03080000024038B583796C
:103020009B0704460CD54179064B027953F82130B1
:103030000125596805FA02F20A435A60FFF76AFF50
:10304000204638BDE00F03082DE9F0410D4682B05F
:1030500004465049284620F041FC38B9A37960F372
:103060004103A371204602B0BDE8F08102AEA3790E
:103070002D68002246F8042D43F00203A371314667
:1030800028460A2225F040FF019BC0B2AB42607186
:103090000CD908280AD81DF04FFA3F4D6279019BE0
:1030A00055F8222022601A782E2A0FD0A2793B4BA5
:1030B000236002F0FD02002363F30002102120468A
:1030C000A2716371217102B0BDE8F0815F1C3146CD
:1030D00038460A22019725F017FF019BC0B29F4294
:1030E0002071E3D20F28E1D818780028BAD003263F
:1030F0004FF00208012710E06F281DD0762837D046
:103100005E2823D001F01EF80028ABD0019B1A46A0
:103110000133019350780028A4D04028F7D0EBD891
:1031200021280ED02D28EDD1A2799207EFD5204687
:10313000FFF7F0FE019BEAE72046FFF76FFF019BD8
:10314000E5E7A27942F00102A271E0E7A2799007D7
:10315000DDD56279217955F822204900D06806FA38
:1031600001FC20EA0C0007FA01F10143D160CEE72F
:10317000A2799107CBD56279217955F822204900AF
:10318000D06806FA01FC20EA0C0008FA01F10143BC
:10319000D160BCE704100308E00F03080000024000
:1031A00038B50346407919791DF0C0FA084904463C
:1031B0001FF016F8013008D0142020F0AFF8214697
:1031C00005461DF0C1FB284638BD002038BD00BFB4
:1031D000A05B0308024A02600022C260704700BF81
:1031E0001010030810B5044B036000230446C360AD
:1031F000FFF7A0FD204610BD1010030870B586B083
:10320000114E9DF81440ADF8080004F0FE041D4670
:10321000ADF80A10ADF80C2030680C4B049501AAEB
:103220006FF3410405218DF814400193FEF792FEDF
:103230009DF8142012F0010003D0930744BF049BB3
:103240002B6006B070BD00BFC8020020101003083C
:1032500030B587B00E4C9DF81450ADF8080005F05D
:10326000FE05ADF80A10ADF80C202068094C049357
:1032700045F00205062101AA8DF814500194FEF7CD
:1032800069FE9DF8140000F0010007B030BD00BFDA
:10329000C80200201010030810B5034B0360044659
:1032A000FFF7F2FD204610BD2010030810B5054BB6
:1032B00003600446FFF7E8FD2046FFF73BFD20468C
:1032C00010BD00BF2010030810B50446FFF7ECFD49
:1032D000201DFFF733FE064B2360FF2100234FF034
:1032E000FF32E160226123766361204610BD00BF9A
:1032F00020100308002905DBC3689942A8BF1946BE
:103300000161704700210161704700BF036981F3CB
:103310000801002BC16004DB9942B8BF0B46036172
:103320007047002303617047C0687047837A4FF08D
:10333000FF3202619A070FD503F001038B42027A34
:10334000436804D0012101FA02F29A6170474FF4F8
:10335000803101FA02F29A61704700BF0269FF2AC8
:1033600030B4034621D86AB3FF2A3ED040691C7EA0
:10337000B0F5007FA8BF4FF400706FF0FF05A842C2
:10338000B8BF284658619CB902447F2A5A6129DC9B
:103390009A7A900709D502F00102A2421A7A5B6874
:1033A00018D0012000FA02F29A61084630BC70473A
:1033B000A2F5807210440028D8BF00245861D8BFFD
:1033C0001C76E5E7827A9507EFD512F0010F436886
:1033D000027AE6D14FF4803000FA02F29A61084690
:1033E00030BC704701241C76D2E7827A9407DCD582
:1033F00012F0010F4368027AD3D0EBE70321FFF705
:1034000059BD00BF10B504464068054B236008B1A4
:10341000FFF790FC2046FFF737FD204610BD00BFA8
:103420005810030838B5104D2B6893F8A830DB0707
:10343000044608D50D4B0E4819884A1CC1F30031CB
:103440001A80FDF799FF72B6636A53B1636A013B54
:10345000636262B6042128680022BDE83840FEF7A6
:1034600079BD62B638BD00BFC80200202403002029
:10347000AE02002010B504464068064B236008B138
:10348000FFF758FC2046FFF7FFFC2046FFF752FCF1
:10349000204610BD58100308F0B583B00446FFF76E
:1034A00003FD194B194E002584E82800A560E5604E
:1034B00004F11800FFF742FD154A0195176C154BF2
:1034C00015481C6047F010071764126C134B144921
:1034D000DFF850C002F0100201920422019F1A602E
:1034E00032688068920BA1FB0261C0F818C189089C
:1034F000052741F6FF762046276161619E62D96209
:103500002262656203B0F0BD58100308D0010020AC
:10351000003802402003002000ED00E000100040D1
:10352000CDCCCCCCF1350008054B064A01204FF438
:103530008001D86051601A6802431A60704700BF6A
:103540000010004000E100E0074A084B1268920BAF
:1035500010B4B2FBF1F141F6FF7441619C62D96293
:103560005DF8044B02627047D0010020001000405B
:10357000F8B5446885684169AC42064602D112E05C
:10358000A54210D054F8043B5A69521A002A5A61D5
:10359000F6DA18691F6802445A6197B10020B847EB
:1035A000A5427169EED1336A591A0029316207DAEE
:1035B0000E4A736A1268013301EB92313162736211
:1035C000F8BD5A68002ADBD09F68D8683FB1C307AE
:1035D00007D402EB60000021B8477169D0E7C30748
:1035E000CED54310D018D358DF59F4E7D0010020CE
:1035F000034A044B6FF0010111611868FFF7B8BF6F
:10360000001000402003002038B5094D094B03602D
:103610000446024607212868FEF7FCFC286822467B
:103620000821FEF7F7FC2046FFF72EFC204638BDA8
:10363000C80200209010030810B50446FFF7E4FF0D
:103640002046FFF777FB204610BD00BF012916D0AA
:1036500041B1CB0720D490F83830022202FA03F3AC
:10366000194219D0837E9A0716D513F0010F027EF6
:1036700043690CD1012101FA02F29A617047837EFD
:103680009A0709D513F0010F027E436905D14FF463
:10369000803101FA02F29A61704791409961704756
:1036A00001B17047837E9A070AD513F0010F027E9D
:1036B00043690CBF01214FF4803101FA02F29A6193
:1036C000038F6FF349230387704700BF2DE9F04153
:1036D000044625461E4617468846FFF7E5FB354B50
:1036E00045F8043B98E8030085E8030097E80300E9
:1036F00004F10C0383E8030096E8030004F11403CB
:1037000083E80300B3799F0703D570793179FFF718
:10371000D9FB0023E362228FA17E274E2748236333
:1037200063F34922228794F839206662002542F02B
:10373000040263F3C30265634FF07E538D0784F880
:103740003920A062236209D5227E6369C80754BF6D
:1037500001214FF4803101FA02F29A61A37A9907AC
:103760000AD513F0010F227A636814BF01214FF4C8
:10377000803101FA02F29A61A37C9A070AD513F00C
:10378000010F227CE36814BF01214FF4803101FA5C
:1037900002F29A61238F6FF30823238720460721C3
:1037A000FFF788FB20460821FFF784FB2046BDE891
:1037B000F08100BF90100308000048420000C07F65
:1037C000D0ED0D7A10B580ED080A20EE270A0446E8
:1037D00021F048FB2063E06210BD00BFD0ED087A05
:1037E00010B580ED0D0A20EE270A044621F03AFBC1
:1037F0002063E06210BD00BF036B80ED0D0A194429
:1038000001637047D0ED087A10B520EE270A044610
:1038100021F028FB236BC01A10BD00BF38B5837E92
:103820009A0704460D460FD54269017E1069C840CB
:1038300003F0010300F00100984205D0002B47D0AF
:10384000012303FA01F1916194F8393003F0010387
:10385000AB4215D0238FA27C65F308239007238702
:103860000BD502F00102AA42227CE36814BF0121B9
:103870004FF4803101FA02F29A6101201EF004FD3A
:10388000A37A99070AD513F0010F227A63680CBF57
:1038900001214FF4803101FA02F29A6103201EF0F7
:1038A000F3FCA37A9A070AD513F0010F227A636812
:1038B00014BF01214FF4803101FA02F29A61E26AE9
:1038C000002D0CBF01234FF0FF331344E36238BDDA
:1038D0004FF4803303FA01F19161B5E7F0B4094B7D
:1038E000094A0A4F01214FF400064FF40055002405
:1038F000D960F96056605560C4631A680A431A605B
:10390000F0BC70470014004000E100E000200040DF
:103910000E4B0F4A1B6880ED040A5B08A2FB0313E1
:10392000DB0807EE103AF8EEC77A10B587EE800A8A
:10393000044621F025FA074B0E21BCEEC00A84EDA7
:10394000050A996283ED0B0A10BD00BFD00100206B
:103950008988888800140040DFED0A7AC0EE277A53
:1039600008B5094B1B685B0807EE103AB8EE470A2A
:1039700020EE270A21F004FA044BBCEEC00A83EDC6
:103980000B0A08BD00247449D0010020002000402B
:103990002DE9F04383B00025294B2A4A0095456361
:1039A000C56310601A6C856042F020021A64D3F877
:1039B0004080DFF8A8E0244ADFF8A4C0234F244E5B
:1039C00024499FED250A08F02008CDF800804FF02B
:1039D0000408DDF80090CEF80080D2F808E00195E8
:1039E000CEF81CC1D3F840E04EF4807EC3F840E02E
:1039F0001B6C03F4807301930C23DDF804E03B603F
:103A00009368C3F8F460936804469963FFF780FFF6
:103A10002046B1EE040AFFF79FFF94F8403065633B
:103A200065F3440384F8403094F84030A56365F3AF
:103A30000003204684F8403003B0BDE8F08300BFA7
:103A4000003802402803002000ED00E00020004084
:103A5000C13A0008453E00080050C347001400402A
:103A6000F53D000870B490F84050C5F3430515B318
:103A7000002301244FF4803602E00133AB421ADA0E
:103A8000426B04FA03F11142F7D000F1180252F828
:103A90002320917A11F0020FEFD011F0010F117A6B
:103AA000526803F1010314BF04FA01F106FA01F1AF
:103AB000AB429161E4DB0023436370BC704700BFFD
:103AC000034A044B6FF0010111611868FFF7CABF88
:103AD00000200040280300202DE9F843856B002DCD
:103AE00053D090F84010C1F34301002947D0002380
:103AF0006C6D1E4601274FF4803C03E00133DBB2BE
:103B00008B4236DAC3EBC30204EBC202926A002A8C
:103B1000F4D000EB83022E6D926903F01F0992F836
:103B2000128007FA09F919EA060F0CBF4FF00009D5
:103B30004FF0010918F0020F08F001060BD092F8BF
:103B400010804E4514BF07FA08F60CFA08F6D2F8B2
:103B50000C80C8F81860168F69F308261687168F30
:103B60000133DBB246F400768B4216874FF0010634
:103B7000C8DB0023C3631EB10120BDE8F883C16325
:103B8000034B1B68986904F0C9F80020BDE8F8836E
:103B9000C80200202DE9F04F90F84030914D0646C4
:103BA000D80785B040F1E1802968039191F8A80019
:103BB000C0F34000002858D196F84080C8F343086D
:103BC000B8F1000F00F00781D6F838B0D6F83CA065
:103BD000DBF854900295074622E0DDE90023012A34
:103BE00073F100034DDBDCE90245DDE90023121926
:103BF00043EB05034FF0FF346FF0404594429D4185
:103C0000CCE9022344DB06EB80039C6994F839304D
:103C100013F0020F18BF01270130C0B240457CDA13
:103C2000C0EBC00C09EBCC0CDCF82830002BF3D037
:103C3000DCE90045DCE90423DCF83010121943EB21
:103C400005035145CDE90023CCE90023C5D1DBF8BC
:103C500044105145DBF8481000F09E805145BCD11E
:103C6000DCE90645CCE90445B7E796F84020002397
:103C70006FF3000286F84020F363B36305B0BDE83C
:103C8000F08F00220023CCE9002300224FF0804374
:103C9000003243F14043CCE90223DCF82C1006EB60
:103CA000800301319C69CCF82C10A37A9A070CD5BB
:103CB00013F0010F227A63680BBF01254FF48031A6
:103CC00005FA02F201FA02F29A6194F83930E26AD6
:103CD00013F0010F0CBF01234FF0FF331344E362D5
:103CE00094F839200628C2F3400278D8736B00F0AC
:103CF0001F01012505FA01F10B4373632AB1DCF8BA
:103D00002C20DCF828309A4280D10021CCF82810F1
:103D1000238F6FF34923238778E7029D736B0AF1A2
:103D20000102F26323B1304B1A6842F001021A60BB
:103D3000002FA3D1039AF763906903F0EFFF2B687C
:103D400006F13801986903F09FFF002839D196F8F1
:103D50004030B76367F3000386F84030234B4FF0E1
:103D600080525A6005B0BDE8F08F2B6806F138012B
:103D7000986903F089FF002880D03046FFF7ACFE39
:103D800096F8403060F3000386F8403096F84030F3
:103D9000D9073FF509AF71E7DBF84C40002200235B
:103DA000A142CCE90423BFF459AF5145CCF83010FF
:103DB0003FF456AFDCE90845CDE90045CCE90045C4
:103DC0000BE73046FFF788FE96F8403060F30003BB
:103DD00086F84030C2E74746D6F83CA09EE7044844
:103DE00020F013F9C80200200020004000ED00E0A0
:103DF000C0100308034A044B6FF0010111611868F9
:103E0000FFF7C8BE001400402803002010B490F84B
:103E10004020C2F34304631C03F00F0300EB84044F
:103E200063F3440280F84020581EA1615DF8044B02
:103E3000704700BF826808B512B1C368984708BDD3
:103E400020F0E6F808B5034B186883680BB1FFF75C
:103E5000F1FF08BD28030020014B0360704700BF3D
:103E6000001103080EB4002003B07047014B03603B
:103E7000704700BF0011030810B5034B03600446F0
:103E8000FEF758FF204610BD0011030810B5034B84
:103E900003600446FEF74EFF204610BD00110308E4
:103EA000084624F0EEB800BF0EB42DE9F04392B0FE
:103EB00019AB02AE53F8049B019305464A463046BF
:103EC000402126F0CFFC471C3F2F04460ADC2B681C
:103ED00031465B6928469847204612B0BDE8F0435A
:103EE00003B0704738461FF017FA39464A46019B1F
:103EF000804626F0B7FC2B6841465B692846984708
:103F0000B045E9D0B8F1000FE6D040461FF030FAD6
:103F1000E2E700BF0348044B0449054A03601FF071
:103F200022BA00BF2C030020D81003086D3E000801
:103F30008801002070B405682878F8B10024104E7C
:103F40002146084480FB0623C118C317C3EBE111C7
:103F5000C1EB0121411A0C4484FB0623E218E3174C
:103F6000C3EBE213C3EB032315F8010FE31A89B285
:103F70009CB20028E5D141EA042080B270BC7047B1
:103F80008180808070B402780AB30024114E2146EB
:103F90008D1885FB0623E918EB17C3EBE111C1EB84
:103FA0000121691A0C4484FB0623E218E317C3EBD2
:103FB000E213C3EB032310F8012FE31A89B29CB27A
:103FC000002AE5D141EA0424A0B270BC7047104633
:103FD000FBE700BF818080802DE9F04F0B6887B040
:103FE00053F80C3C01900027884607804780878063
:103FF000002B63D04E4CBA46012340464D495246F1
:104000001FF01EFC4C4B0493431C05465DD0D8F8B2
:10401000003053F80C2C9245CAEB050379D805AE55
:104020005246304641461FF01FFF04A831461FF09C
:10403000B0FB059BDFF80891A3F10C0048455DD16A
:10404000DDF810C09CF8003043B34FF0000B594628
:10405000604601EB030A8AFB04230AEB03014FEAE3
:10406000EA73C3EBE111C1EB0121C1EB0A018B44FF
:104070008BFB04230BEB03024FEAEB73C3EBE2125F
:10408000C2EB022210F8013FC2EB0B0289B21FFA09
:1040900082FB002BDDD141EA0B218BB2019AD35375
:1040A0006A1CACF10C001CD0484505F1010A33D163
:1040B000D8F8003053F80C3C9A4502D307B0BDE85D
:1040C000F08F0237062FF9D096E7D8F8003053F872
:1040D0000C3C53451DD305AE5246304641462B4657
:1040E000A1E74845EAD05CF8043C5A1E002B4CF886
:1040F000042CE3DC31461FF061FCDFE753F8042CAD
:10410000511E002A43F8041C9ADC03A91FF056FC38
:1041100096E70A481FF079FF5CF8043C5A1E002B12
:104120004CF8042CC4DC31461FF048FCC0E700BF4B
:104130008180808020110308A4050020D00B030893
:1041400098050020202804D0B0F1090358425841B6
:1041500070470120704700BFF0B50F4E06600C6835
:1041600054F80C7C2744BC4283B0054601D10FE0D3
:104170002E6814F8010B25F04DFAC0B256F80C1C4D
:1041800000900022284601231FF096FCA742EFD1A1
:10419000284603B0F0BD00BFA405002070B584B070
:1041A0000C4602AA1C49064603A81FF0A1FE03996B
:1041B0000022204651F80C3C1FF077FB421C18BF30
:1041C00000250FD001460122144B009520461FF018
:1041D000B1FE0399204651F80C3C00221FF065FB0C
:1041E000431CEFD10E4B039A21683160A2F10C0001
:1041F000A3F10C018842236002D1304604B070BDA7
:1042000052F8043C591E002B42F8041CF5DC02A9AC
:104210001FF0D4FBF1E700BF24110308403F03085F
:10422000A405002070B50C46012384B00546214941
:10423000204600221FF004FB431C06461ED000222D
:10424000334602A821461FF00FFE236853F80C3CAA
:10425000721C9A4220D8214603A81FF005FE204672
:1042600003A91FF096FA039B134AA3F10C00904296
:1042700015D1029B2B60284604B070BD214603A8CF
:104280001FF0A9FD20460D4900221FF043FC039BAF
:104290002B60284604B070BD09481FF0B6FE53F8E5
:1042A000042C511E002A43F8041CE2DC01A91FF073
:1042B00085FBDEE76012030898050020403F0308F5
:1042C000D00B030830B50D46012383B004461149D5
:1042D000284600221FF0B4FA431C0FD02B6853F875
:1042E0000C1C421C4B1C8A42C0EB03030ED829460F
:1042F00020461FF0B9FD204603B030BD20460649D8
:1043000001AA1FF0F5FD204603B030BD03481FF0A1
:104310007CFE00BF60120308403F0308D00B030877
:1043200000207047BFF34F8F054A064BD16801F458
:10433000E0610B43D360BFF34F8F00BFFDE700BFC9
:1043400000ED00E00400FA05F0B5A14D2B6885B042
:104350000C46074603F1300102A81FF03CFD23681C
:1043600053F80C2C002A00F09A8053F8042C002AF1
:1043700003DB20461FF088FB23681A782F2A00F001
:10438000CB80944D00220323214603A81FF06CFD2F
:1043900003A891491FF0A2FA039BA3F10C02AA42C1
:1043A000064640F0C780002E37D1236853F80C3CF6
:1043B000022B40F2CC804FF0FF332146032203A8AA
:1043C0001FF052FD204603A91FF0E3F9039BA3F160
:1043D0000C00A84240F0BE8080494FF0FF3201231C
:1043E00002A81FF047FA02A90346002203A81FF003
:1043F0003BFD02A803A91FF0CCF9039BA3F10C001D
:10440000A842BFD053F8042C511E002A43F8041CC4
:10441000B8DC01A91FF0D2FAB4E70022022321463A
:1044200003A81FF021FD03A86D491FF057FA039B55
:10443000A3F10C02AA42064640F0BA80002E35D005
:10444000029B53F8042C53F80C1C002A01F1FF3690
:1044500003DB02A81FF018FB029B9B5D2F2B02A918
:1044600060D003A81FF0B7FC2F22012103A81FF082
:1044700079FC03A821461FF012FC5A4A03683B60EE
:104480000260039BA3F10C00A84240F08580029BD0
:10449000A3F10C00A84269D1384605B0F0BD2968E7
:1044A0004C4D303138461FF096FCF0E7236853F846
:1044B0000C3C012B4BD94FF0FF332146022203A8BD
:1044C0001FF0D2FC204603A91FF063F9039BA3F160
:1044D0000C00A84255D141494FF0FF32012302A8F8
:1044E0001FF0C8F902A90346002203A81FF0BCFC74
:1044F00002A803A91FF04DF9039BA3F10C00A842E9
:104500009ED053F8042C511E002A43F8041C97DC5B
:1045100001A91FF053FA93E7324A3B60A2F10C0560
:104520002260B4E738461FF056FC384621461FF09B
:10453000B6FBACE753F8041C481E002943F8040CF2
:104540003FF731AF104601A91FF038FA2BE7264894
:104550001FF05BFD53F8042C511E002A43F8041C85
:104560003FF73AAF01A91FF029FA35E753F8042CB9
:10457000511E002A43F8041C8EDC03A91FF01EFA0A
:104580008AE753F8042C511E002A43F8041CA2DCCD
:1045900001A91FF013FA9EE753F8042C511E002ABC
:1045A00043F8041C3FF773AF01A91FF007FA6EE749
:1045B00053F8041C481E002943F8040C3FF73EAF93
:1045C000104601A91FF0FAF9002E7FF439AF6DE70C
:1045D000C80200209805002044110308500E03086B
:1045E00048110308A4050020D00B03082DE9F04171
:1045F00091E81001444582B00746164621D012B317
:104600000834002301E09E4217D914F8082CFA540C
:1046100054F8040C5D1C1FF063FE731B07EB050EC2
:10462000CDE90001094A1946704623F033FCA04544
:1046300000EB050304F10804E5D1184602B0BDE81B
:10464000F0810020FAE71046F8E700BF4C1103089C
:1046500030B585B00D46044603AA17491FF048FC43
:10466000052D23680CDC3435EDB253F80C1C009595
:104670002046002201231FF01FFA204605B030BD5E
:1046800053F80C1C392300932046012300221FF00D
:1046900013FA2046094901221FF02AFB2B35036833
:1046A000EDB253F80C1C0095002201231FF004FA10
:1046B000204605B030BD00BF541103082011030887
:1046C00070B505461CF02CFE074E044602E030682B
:1046D000FDF740FC1CF024FE001BA8424FF0030134
:1046E0004FF00002F3D370BDC80200204FF47A737C
:1046F00003FB00F0FFF7E4BFF8B542680368D31A84
:104700009B1004460F4605D05A00934220D96FF003
:10471000030600E0042630461EF000FE054694E83D
:1047200009001B1A9B109A003968AF1818BF39602E
:1047300043B9043708B1FEF7FDFA2E44A66084E8B9
:10474000A000F8BD0146284623F0BFF82068F0E736
:10475000B2F1804FDBD2DE00DDE700BFF8B5426882
:104760000368D31A9B1004460F4605D05A009342A3
:1047700021D96FF0030600E0042630461EF0CEFD7E
:10478000054694E809001B1A9B109A003968AF1877
:1047900018BF45F8231043B9043708B1FEF7CAFA29
:1047A0002E44A66084E8A000F8BD0146284623F008
:1047B0008CF82068F0E7B2F1804FDAD2DE00DCE757
:1047C0002DE9F04742680368C3EB02095FEAA909D3
:1047D00082B007460E4648D04FEA4903994555D95D
:1047E0006FF0030948461EF099FD97E83000291B39
:1047F000891000EB8103804600F1040A23B133687D
:10480000254A40F821303260AC4231D0231DC3EB41
:10481000050C4FEA9C0C04F108061F4806EB8C06B9
:10482000424622B153F8041C116043F8040C0433CF
:10483000B34202F10402F4D108EB8C0C174E0CF1D8
:10484000080A54F8043BA3F10C02B24212D1A5426B
:10485000F7D1386808B1FEF76DFA08EB0903BB60C1
:1048600087E8000502B0BDE8F0874FF00409B9E71A
:104870002046EFE753F8041C481E002943F8040CB7
:10488000E5DC104601A91FF099F8E0E7B3F1804F8D
:10489000A6D24FEAC909A5E7A40500209805002083
:1048A0002DE9F04FDFF80C81002385B082460F46DA
:1048B0001646036043608360A8F10C093B78B3425D
:1048C0004FD0002B4DD07B1C00E024B11D4613F8C7
:1048D000014BB442F9D1AF4254D0002F3CD0C7EBCA
:1048E000050B5846002101AA1FF018F8BBF1010F73
:1048F000044600F10C0328D13A7822734C452C4F22
:1049000044D1DAF80420DAF8081003938A4233D04D
:104910001AB11360274BCDF80C800432CAF804207A
:10492000A3F10C00B84238D12B786F1C002BC5D1F5
:10493000504605B0BDE8F08F2846294601AA1EF072
:10494000EDFFAB46044600F10C03184639465A46C3
:1049500022F0B2FF0346D1E7002DEDD016481FF03C
:104960004EFBDAF80420DAF80810124B03938A425F
:104970003D46A3F10C07CBD1504603A9FFF720FF1A
:10498000039BCDE70B4BA3F10C07BAE70022C4F859
:1049900000B0A26003F80B20B3E753F8042C511EBB
:1049A000002A43F8041CBFDC02A91FF007F8BBE78C
:1049B00098050020A405002058110308F0B585B023
:1049C00004462C2201A8FFF76BFF019D029E0023E5
:1049D000B54223606360A3602BD055F8040B00211F
:1049E00024F0F6F96368A2688DED000A93421BD0AB
:1049F0001A1D0BB183ED000A6260AE42EDD1019841
:104A0000029E86420AD0114F054655F8043BA3F199
:104A10000C00B8420FD1AE42F7D1019808B1FEF7B1
:104A200089F9204605B0F0BD20466946FFF764FECF
:104A3000E3E72846F2E753F8042C511E002A43F816
:104A4000041CE8DC69461EF0B9FFE4E79805002085
:104A5000F0B585B00446174601A82C22FFF720FFC9
:104A6000019D029E0023B54223606360A3602AD0AB
:104A7000002155F8040B3A4624F046FA6368A16811
:104A800000908B421AD0191D03B118606160AE42CC
:104A9000EED10198029E86420AD0114F054655F884
:104AA000043BA3F10C00B8420FD1AE42F7D10198FC
:104AB00008B1FEF73FF9204605B0F0BD2046694633
:104AC000FFF74CFEE3E72846F2E753F8042C511EAB
:104AD000002A43F8041CE8DC69461EF06FFFE4E797
:104AE0009805002002299ABF00EB810191ED000A90
:104AF0009FED010A704700BF0000C07F90ED015A92
:104B0000D1ED007AD1ED025A90ED027A91ED016A71
:104B1000D0ED006A27EEC51A26EE470A66EEE50AD2
:104B2000A5EE250A88B0A6EE261AE7EE270A08B0F9
:104B3000704700BF90ED010AD1ED015A90ED006A77
:104B4000D1ED006A90ED027AD1ED027A20EE250ACD
:104B5000A6EE260AA7EE270A704700BF90ED010ACD
:104B600090ED007AD0ED027A20EE000AA7EE070A57
:104B7000A7EEA70A704700BFD0ED010AD1ED016A88
:104B800090ED021A91ED027A90ED000AD1ED007AD3
:104B900070EEE60A31EE471A30EE670A88B008B0C8
:104BA000704700BFD0ED010A90ED021AD0ED007AF7
:104BB00060EE200A20EE011A27EE800A88B008B0C5
:104BC000704700BF01481DF0A7BA00BF30030020A6
:104BD00008B50321FEF76EF90248BDE808401DF054
:104BE0009BBA00BF3003002008B5074B1B6893F841
:104BF000A830DB0703D505480021FCF7BDFB0448BE
:104C00001DF092FA00BE08BDC8020020AC020020D0
:104C10003003002010B5034B03600446FEF734F95F
:104C2000204610BD9011030810B5054B03600446E3
:104C3000FEF72AF92046FEF77DF8204610BD00BF9A
:104C40009011030870B5054682B0214C1646FEF758
:104C50002BF9204B20492B604FF4C0727F2384E84E
:104C60000E00E360EEB91D4B01961A6C42F400622F
:104C70001A641B6C03F40063019320464FF4007325
:104C8000019A23611DF034FA20461DF045FA144ABA
:104C9000144B926814491164284601221A6002B02C
:104CA00070BD00220D4B0192196C226141F400622B
:104CB0001A641B6C03F4006301932046019B1DF0F2
:104CC00017FA20461DF028FA284602B070BD00BF32
:104CD0003003002090110308002C004000380240EF
:104CE00000ED00E000E100E0E94B00080D4B10B4DE
:104CF0001C680246E00610D4947C507CA04207D089
:104D00005474DA6A013C22F4700242EA0454DC6210
:104D1000044B9A6842F080429A6008465DF8044B62
:104D2000704700BF002001402DE9F04F04460025E8
:104D300083B0A5746574E574FF2100F8015B10224F
:104D400022F0DEFD1A4A0195D2F8449019491A4B17
:104D5000DFF87480DFF874C0184F194E194849F411
:104D60008079C2F84490526C02F480720192019AE8
:104D70004A686FF0784A42F4403B6FF0404940F295
:104D80000142C1F804B0C3F80CA0C3F81090C3F8F6
:104D900004809A60DCF808204FF48023C2F8880071
:104DA00020463B60A561346003B0BDE8F08F00BFD2
:104DB00000380240002301400020014000E100E0F3
:104DC00044030020294E00082001000400ED00E00B
:104DD00038B5144BD96C1A689206044615D4836909
:104DE000C07C23B1626901258540154215D101308F
:104DF000637CC0B28342E07406D80A4B1968002273
:104E000021F010011960E27438BD1968002221F008
:104E100032011960C27400BE38BD89B29847E07C87
:104E2000E5E700BF00200140014B1868FFF7D0BF45
:104E30004403002010B50446084605491DF0FAF960
:104E4000431C1DBFC0F3C323E4186078FF2010BDCE
:104E5000E45F0308F8B50C460646084621491546A6
:104E60001DF0E8F907460DB9FF20F8BDB37C0F2B04
:104E7000FAD8431CF8D0C4F303101BF05DFB04F018
:104E80000F04026864000323A34013430360B07C53
:104E9000C7F3C327F219411C0528B174507007D815
:104EA000114A00EB8003516B9F400F435763F8BDDD
:104EB0000B2809D80C4A811F136B01EB810107FAFB
:104EC00001F119431163F8BD0F28CED8064AA0F1AD
:104ED0000C01D36A01EB810107FA01F11943D16298
:104EE000F8BD00BFE45F03080020014038B5044668
:104EF00008460C4915461DF09DF9431C0DD0C0F322
:104F0000C320204443780F2B07DC0121626901FA9A
:104F100003F31DB922EA0302626138BD1A436261DC
:104F200038BD00BFE45F030881617047F8B542688F
:104F30000368D31A9B1004460F4605D05A009342CB
:104F400026D96FF0030600E0042630461EF0E6F98D
:104F5000054694E809001B1A9B109A003968AF189F
:104F600007D045F8231094E809001B1A9B109A00FB
:104F7000AF1823B10146284622F0A7FC2068043769
:104F800008B1FDF7D7FE2E44A66084E8A000F8BD66
:104F9000B2F1804FD5D2DE00D7E700BFF0B50446AE
:104FA00085B009B106780EB105B0F0BD234B1B6882
:104FB00018205D6A1EF0B2F90746FCF7F7F9204B9E
:104FC000204A1B6801979B0BA2FB03139B0900EE71
:104FD000103AB8EEC00A1FF0D3FE1B4B02930396A3
:104FE00004AB13E90300BDEEC00A07F108037C60BF
:104FF00087ED040A83E8030087ED050A72B62B6982
:10500000B3F57A7F0ED3AB68EA68934211D0019A68
:105010000BB11A60AB680433AB6062B60123237036
:1050200005B0F0BD4FF47A7129612846FEF78CFA7D
:10503000E9E7281D01A9FFF779FFEEE7C802002084
:10504000D0010020D34D6210ED4C00084FF0FF302E
:10505000704700BF704700BF014B0360704700BF3F
:10506000C811030810B5034B03600446FDF762FE48
:10507000204610BDC81103088088431A5842584181
:10508000704700BF10B583680C4A0D4901600446A3
:10509000A3F10C00904282B004D10A4B2360204659
:1050A00002B010BD53F8042C511E002A43F8041C12
:1050B000F3DC01A91EF082FCEFE700BF9805002099
:1050C000F0110308680B030810B583680D4A0E49F8
:1050D00001600446A3F10C00904282B007D10B4B53
:1050E00023602046FDF726FE204602B010BD53F88F
:1050F000042C511E002A43F8041CF0DC01A91EF008
:105100005DFCECE798050020F0110308680B03082C
:1051100070B584B000F10801044602A81EF05BFEE1
:1051200002A903A81EF057FE03A8FFF7F9F8039B96
:10513000134DA3F10C02AA4206460AD10EB1012377
:105140002373029BA3F10C00A8420ED1207B04B074
:1051500070BD53F8041C481E002943F8040CEDDC14
:10516000104601A91EF02AFCE8E753F8042C511E52
:10517000002A43F8041CE9DC03A91EF01FFCE5E744
:105180009805002038B50446084B0948A360206004
:1051900010460D46FEF7F6FE2946A08004F10800F1
:1051A0001EF025FE00232373204638BDA4050020F1
:1051B000F0110308F0B5A3B007460E46144601A847
:1051C0001A4683211D4621F05FFE30B322F059FFBD
:1051D00022AB184410F8853C0A2B07D08CB928461E
:1051E00021F0D6FD0A2801D00130F8D101A822F023
:1051F00048FF01A9024630461EF08CFC012023B076
:10520000F0BD01A8232122F00AFF0028E7D12146A2
:10521000BA68034822F026FCE1E723B0F0BD00BFE6
:105220001012030830B50B7B83B00D46044673B9EA
:105230000846FFF76DFF50B9094822F0C7FC204629
:10524000084901AA1EF054FE204603B030BD05F106
:10525000080120461EF0BFFD204603B030BD00BF50
:1052600030120308403F03082DE9F043037B8BB065
:10527000054688469146002B76D008A84146FEF7A1
:10528000ABFE07A82946FFF7CDFF07987D497E4E64
:1052900021F008FF079B0446A3F10C00B04240F048
:1052A000E480A3899A062BD4784F05A92046049759
:1052B00021F080FD04A9284600222346FFF77AFF4B
:1052C00006A9002859D0204621F074FD2B6807A8B4
:1052D000D3F81CC004AA08AB2946E0470798034648
:1052E00053F80C2DB34240F09880002A55D1049B0E
:1052F000A3F10C00B04240F0A080A3899B06D4D556
:10530000204621F02DFC07A82946FFF78BFF0798C0
:105310005F4921F0C7FE079B0446A3F10C00B04291
:1053200040F0978021460A2021F0EAFE2146D8F875
:10533000000021F043FF234609220121554822F0B5
:10534000F3F92146D9F8000021F038FF2346012166
:105350001122514822F0E8F9204621F001FC0124F5
:1053600020460BB0BDE8F083FFF7D2FE04460028CC
:1053700083D120460BB0BDE8F083049BA3F10C0061
:10538000B042BDD053F8042C511E002A43F8041C2F
:10539000B6DC07A91EF012FBB2E7D8F80020D9F856
:1053A000003052F80C0C059953F80C2C069B024463
:1053B0005B1A0332043B9342204612D221F0D0FB09
:1053C0000024049BA3F10C00B042C9D053F8042C74
:1053D000511E002A43F8041CC2DC07A91EF0EEFA95
:1053E000BEE7002222F00AF82146D8F8000021F09A
:1053F000E5FE2146202021F083FE2146D9F8000059
:1054000021F0DCFE234601210222244822F08CF9FF
:10541000204621F0A5FB0124D3E750F8041C01F13C
:10542000FF3E002940F804EC3FF75FAF184603A9A0
:1054300001921EF0C3FA019A57E753F8042C511E4B
:10544000002A43F8041C3FF758AF07A91EF0B6FA2C
:1054500053E753F8042C511E002A43F8041C3FF76D
:1054600061AF06A91EF0AAFA5CE753F8042C511E9E
:10547000002A43F8041C3FF714AF06A91EF09EFA59
:105480000FE700BF5012030898050020A405002074
:10549000180A030858120308641203085412030878
:1054A0002DE9F0470C4684B09146434903AA0546CE
:1054B0001EF01EFD237B002B48D003A82146FFF7DA
:1054C000B1FE03983D493E4E21F0ECFD039B804622
:1054D000A3F10C00B04263D1B8F80C309A062ED478
:1054E000DFF8E0A019E0276803A8FF69B84728465D
:1054F00003A91EF04EF90399A1F10C00B0422ED180
:105500002B6853F80C3CABB9029BA3F10C00B042E2
:1055100030D1B8F80C309B0611D402A900224346C2
:105520002046CDF808A0FFF745FE02AA4B462146CB
:105530000028D8D1029BA3F10C00B04225D14046EF
:1055400021F00EFB284604B0BDE8F0872046FFF7A7
:10555000DFFD0028B1D1284604B0BDE8F08751F83E
:10556000043C5A1E002B41F8042CC9DC01A91EF092
:1055700025FAC5E753F8042C511E002A43F8041CF1
:10558000C7DC03A91EF01AFAC3E753F8042C511E16
:10559000002A43F8041CD2DC03A91EF00FFACEE760
:1055A00053F8042C511E002A43F8041C94DC02A971
:1055B0001EF004FA90E700BF403F0308184E0308AE
:1055C00098050020A4050020F8B5044608461546B5
:1055D0000E4622F056FD0A4B23602B6853F80C1C34
:1055E0000746394420461EF03AFB31463A462046EB
:1055F0001EF07EFB204629461EF051FB2046F8BDDA
:10560000A40500202DE9F04F89B093460546894650
:1056100007A8114605AA1EF06BFC07A8FEF780FE3E
:10562000079BDFF8F882A3F10C024245044640F0E4
:10563000378114B909B0BDE8F08F5846B149DFF899
:10564000E0A221F02FFD0126074605E0049BA3F10F
:105650000C00404540F03181BB899B0600F103817D
:1056600008AC324644F810AD284621463B46013688
:10567000FFF7A0FD002800F0E7802B6821469B691A
:1056800028464A4698470028E0D082894AF6E61321
:105690009A42DBD107AA016805A81EF029FC4846FA
:1056A000FBF7CCFA05A907A81EF095FB07A8FEF7A3
:1056B00037FE079BA3F10C024245044640F01581DA
:1056C000002C40F08480059B53F8042C002A03DB57
:1056D00005A81EF0D9F9059B1B782F2B0ED007A823
:1056E000894905AAFFF770FF05A807A91EF051F820
:1056F000079BA3F10C00404540F03C8106AC5946A5
:1057000007AA20461EF0F4FB2F214FF0FF3220465F
:105710001EF080F821460346002207A81EF0A4FBD5
:10572000204607A91EF035F8079BA3F10C00404561
:1057300040F0CF80214607A81EF04DFB05A907A821
:105740001EF0ADFA07A8FEF7EBFD079BA3F10C02D4
:105750004245844640F02881BCF1000F16D105AACD
:1057600007A86A49FFF730FF07A8FEF7D9FD079B96
:10577000A3F10C024245044640F0E38007A8002C48
:105780007CD0624905AAFFF71FFF07E0214607A862
:105790001EF021FB07A805A91EF081FA05A807A99C
:1057A0001DF0F7FF079BA3F10C00404540F0D680A9
:1057B000069BA3F10C00404509D053F8042C511E60
:1057C000002A43F8041C02DC07A91EF0F7F805A91B
:1057D00007A81EF000FB07A8FEF7A2FD079BA3F198
:1057E0000C024245044640F0D280002C41D005997D
:1057F000474822F037F907A9384621F0DBFA41493A
:1058000005983A4621F0EAFD28464946059AFFF7F1
:10581000F9FE3C4958463A4621F0E0FD384607A9D2
:1058200021F092FE059BA3F10C0040453FF40EAF22
:1058300053F8042C511E002A43F8041C3FF706AF0E
:1058400007A91EF0BBF801E7049BA3F10C0040453B
:1058500009D053F8042C511E002A43F8041C02DC22
:1058600007A91EF0ABF8384621F07AF909B0BDE877
:10587000F08F0599274822F0F5F8D3E705AA2649C5
:10588000FFF7A2FE07A8FEF74BFD079BA3F10C0252
:105890004245044646D1002C8AD007A81E4971E72C
:1058A00053F8041C481E002943F8040C3FF7C1AE0E
:1058B000104606A91EF082F8BBE653F8042C511ED0
:1058C000002A43F8041C3FF7C7AE07A91EF076F87C
:1058D000C2E653F8042C511E002A43F8041C3FF77B
:1058E00029AF03A91EF06AF824E753F8041C481EE8
:1058F000002943F8040C3FF7E3AE104606A91EF05A
:105900005DF8DDE6184E0308500E03087812030810
:1059100084120308A01203087C12030898050020D3
:10592000A405002053F8041C481E002943F8040C69
:10593000B1DC104603A91EF041F8002C3FF438AF4B
:10594000ABE753F8041C481E002943F8040C3FF74A
:1059500015AF104603A91EF031F80FE753F8042CD9
:10596000511E002A43F8041C3FF722AF03A91EF082
:1059700025F81DE753F8042C511E002A43F8041C97
:1059800006AC3FF7BCAE21461EF018F8B7E653F858
:10599000041C481E002943F8040C3FF726AF1046AC
:1059A00006A91EF00BF820E753F8041C481E002936
:1059B00043F8040C3FF7D0AE104603A9CDF804C05D
:1059C0001DF0FCFFDDF804C0BCF1000F3FF4C7AED2
:1059D000DCE600BF30B5037B83B004460D4683B1DF
:1059E00001A82146FFF71EFC2046019A2946FFF731
:1059F00009FE019B0B4AA3F10C00904207D103B0B2
:105A000030BDFFF785FB0028EAD103B030BD53F865
:105A1000042C511E002A43F8041CF0DC69461DF0DA
:105A2000CDFFECE7980500208088431A5842584182
:105A3000704700BF00207047014B0360704700BFF4
:105A4000680B030810B5034B03600446FDF772F9B9
:105A5000204610BD680B03082DE9F0410F46C568CC
:105A60008168A94282B006462AD2A942DFF86C803A
:105A700023D20B780A2B01F1010408BF012204D1C3
:105A800006E014F8013B0A2B01D0AC42F9D1621AAE
:105A90006B4601A81EF041FA336830469B6901A9A4
:105AA0003A469847019BA3F10C0040450BD1F5689D
:105AB000AC4205D22146A942DBD30C460022E7E7DF
:105AC00002B0BDE8F08153F8042C511E002A43F8BF
:105AD000041CECDC69461DF071FFE8E79805002026
