:020000040800F2
:1000000000800120ADDB010801DC010801DC0108F2
:1000100001DC010801DC010801DC0108000000002E
:1000200000000000000000000000000001DC0108EA
:1000300001DC010800000000913A000801DC010821
:100040003548000801DC010801DC010801DC010879
:1000500001DC010801DC010801DC010801DC010808
:1000600001DC010801DC010801DC010801DC0108F8
:1000700001DC010801DC010801DC010801DC0108E8
:1000800001DC010801DC010801DC010801DC0108D8
:1000900001DC010801DC010801DC010801DC0108C8
:1000A00001DC010801DC010801DC010801DC0108B8
:1000B00001DC010801DC010801DC010801DC0108A8
:1000C00001DC010801DC010801DC010801DC010898
:1000D00001DC010801DC010801DC010801DC010888
:1000E00001DC010801DC010801DC010801DC010878
:1000F00001DC01080D37000801DC010801DC010802
:1001000001DC010801DC010801DC010801DC010857
:1001100001DC010801DC01083D320008413A000819
:1001200001DC010801DC010801DC010801DC010837
:1001300001DC010801DC010801DC010801DC010827
:1001400001DC010801DC010801DC010801DC010817
:1001500001DC010801DC010801DC010801DC010807
:1001600001DC010801DC010801DC010801DC0108F7
:1001700001DC010801DC010801DC010800000000CD
:1001800001DC010801DC010810B5054C237833B906
:10019000044B13B10448AFF300800123237010BD5A
:1001A0009002002000000000EC07030808B5064B91
:1001B0001BB106480649AFF300800648036813B137
:1001C000054B03B1984708BD00000000EC07030889
:1001D000940200208C0200200000000070B55848F6
:1001E000584D2DED028B00F0B3FE0021544800F075
:1001F00007FF554800F0ACFE0021534800F000FF17
:10020000AC201EF00BFD044600F034FF542128689A
:1002100002F09AFA064614F081FD3146204601F0BC
:10022000B9FC0821286802F08FFA064613F0E4F9B9
:100230003146204601F0AEFC1421286802F084FA11
:10024000064613F0E9FA3146204601F0A3FC1021DE
:10025000286802F079FA064616F064F9314620461D
:1002600001F098FC01201EF0D9FC064612F02EFB8E
:10027000304602F085FB4421286802F065FA054605
:100280000EF042F82946204601F084FC28201EF09A
:10029000C5FC0021054613F025FD2046294601F046
:1002A00079FC002213464DF2BD11606900F070F92F
:1002B000B2EE040A00F010FE00F08AFDDFED237AB2
:1002C000B4EEE70AF1EE10FAB0EE408A31DD042018
:1002D0001EF0A4FCDFED1E7A28EE278A0546BCEE50
:1002E000C88A002218EE101A04F0D2FA20462946D5
:1002F00001F050FC606900F005F994F8A830DB07C4
:1003000003D50F48012100F07BFE124C2368DA6808
:10031000986992F89C1107F0D5F82368986A03F061
:1003200003F9BDEC028B2368BDE87040586A02F007
:1003300021BF6068084903689B689847DAE700BFF7
:10034000AC02002018030020AE020020CDCCCC3D32
:1003500000247449C8020020A4B40208F8B50F4C68
:10036000FFF73CFF0025274610E06E1CC5F3003167
:10037000B6B200F045FE3868354600210A4601F065
:100380000FFC20680321002201F00AFC23680448C6
:1003900093F8A820D207E8D41846EEE7C802002058
:1003A000AC02002010B5054C4C21204600F0C4FDE5
:1003B000A01C4D21BDE8104000F0BEBDAC020020E5
:1003C00000487047C4B4020800487047D4B402081B
:1003D0000D4B0F2810B41B6813DC03EB4002C1F374
:1003E0000B01B2F8044104EBC000013403EB4003FD
:1003F000A4B2072CA2F80441998084BF0023A2F87C
:1004000004315DF8044B7047B002002038B5094B49
:1004100004461C201C601EF001FC082205464FF417
:100420007A7104F089FA28462560034904F00AFB32
:10043000204638BDB0020020D103000801207047DB
:10044000002070470120704710B5054B036004463B
:1004500040681BF03BFD034B2360204610BD00BFEE
:10046000F8B40208D0BB020810B5064B036004467E
:1004700040681BF02BFD044B2360204602F080FAFD
:10048000204610BDF8B40208D0BB020838B5406859
:100490000D460A4921F0D6FB044670B1284622F0E9
:1004A000C0FB012102462346284621F00DFF0546E8
:1004B000204621F025F9284638BD38BDECB40208A5
:1004C00010B503680A4A0446A3F10C00904282B0BA
:1004D00002D1204602B010BD53F8042C511E002A50
:1004E00043F8041CF5DC01A91EF0E8FEF1E700BFAB
:1004F000940500200B460068114647F2693200F06F
:1005000017BB00BF38B5046805462CB1204600F083
:10051000E1F9204602F034FA00232B6038BD00BF19
:10052000F8B50C460546FFF7EDFF0C201EF076FBF4
:10053000074600F093F92F606CB16C68AE68B44266
:1005400009D0394600E0296854F8040B03689B6819
:100550009847A642F7D1F8BD10B504684CB12046C3
:1005600000F0E2F900B110BD064800F023FC054898
:10057000F9E7054B05491B68586803689B6898476D
:10058000204610BDB4020020C802002018B50208A1
:1005900000B583B0ADF800106946ADF80220ADF8A3
:1005A0000430FFF7D9FF03B05DF804FBF8B54268EB
:1005B0000368D31A9B1004460F4605D05A00934295
:1005C00026D96FF0030600E0042630461EF026FB15
:1005D000054694E809001B1A9B109A003968AF1869
:1005E00007D045F8231094E809001B1A9B109A00C5
:1005F000AF1823B10146284621F037FF20680437A1
:1006000008B102F0BDF92E44A66084E8A000F8BD50
:10061000B2F1804FD5D2DE00D7E700BF38B54368CE
:100620008468A342024606D009680BB1196043688A
:100630000433536038BDFFF7B9FF38BD2DE9F041F1
:100640000646002384B043608360C360054646F8D5
:10065000043B10201EF0E2FA04AC80466E496F4F56
:1006600004F0EAFF44F8048D30462146FFF7D6FF38
:1006700001AA6B4920461FF0BBF8204603F076FC28
:10068000039BA3F10C02BA42804640F0B78020469B
:10069000B8F1000F5ED0624901AA1FF0A9F810203E
:1006A0001EF0BCFA21465F4A804604F0A1FA039B83
:1006B000A3F10C00B84277D1B8F1000F05D0304655
:1006C0002146CDF80C80FFF7A9FF01AA5649204624
:1006D0001FF08EF8204603F049FC039BA3F10C02A7
:1006E000BA42804649D1B8F1000F1ED04E4901AA46
:1006F00020461FF07DF810201EF090FA21464B4A4C
:10070000804604F075FA039BA3F10C00B84240D177
:10071000B8F1000F05D030462146CDF80C80FFF728
:100720007DFF284604B0BDE8F08101AA404920467B
:100730001FF05EF8204603F019FC039BA3F10C02A6
:10074000BA4280464BD1B8F1000FEAD001AA204648
:100750003749CEE701AA37491FF04AF8204603F08F
:1007600005FC039BA3F10C02BA42804627D1B8F1E5
:10077000000FAAD020462F498EE753F8041C481ECC
:10078000002943F8040CAEDC104602A91EF096FDC9
:10079000A9E753F8042C511E002A43F8041CB7DCC7
:1007A00002A91EF08BFDB3E753F8042C511E002A5A
:1007B00043F8041C80DC02A91EF080FD7CE753F89E
:1007C000041C481E002943F8040CD0DC104602A982
:1007D0001EF074FDB8F1000F3FF477AFCAE753F88D
:1007E000041C481E002943F8040CACDC104602A986
:1007F0001EF064FDB8F1000F93D0A7E753F8041C76
:10080000481E002943F8040C3FF741AF104602A9E7
:100810001EF054FD3BE700BF54B5020894050020CC
:100820005CB502086CB5020888B5020894B50208E8
:1008300098B5020874B5020810B5054C204600F0C2
:10084000A3FA20460349044ABDE810401EF00BBA43
:10085000B4020020C10400088801002000220260C8
:1008600042608260704700BF2DE9F04190E860006F
:10087000B54282B080461CD0154F55F8044B3CB1B0
:100880002368A3F10C02BA4215D1204602F078F891
:10089000AE42F2D1D8F800000023C8F80030C8F802
:1008A0000430C8F8083008B102F06AF802B0BDE8B8
:1008B000F0812846F0E753F8041C481E002943F84D
:1008C000040CE2DC104601A91EF0F8FCDDE700BFD5
:1008D0009405002010B50446FFF7C6FF206808B154
:1008E00002F04EF8204610BD10B5436853F8044D91
:1008F000436082B044B123680A4AA3F10C009042DD
:1009000004D1204602F03CF802B010BD53F8042C8C
:10091000511E002A43F8041CF3DC01A91EF0CEFC92
:10092000EFE700BF94050020F8B590E85000B4420E
:100930000F4602D10DE0A6420BD054F8045B3846B6
:1009400005F10C01062221F078FD0028F3D128469C
:10095000F8BD00252846F8BD2DE9F04790E82001B4
:1009600045458AB00F4622D0012655F8044BD7F8EA
:100970000090E389B4F80CA00093238A01932268C5
:100980000292A37C0393E37C0493A0681FF028F9F0
:10099000CDE906016268089253463246D9F808400C
:1009A00004493846A047A84506F10106DDD10AB042
:1009B000BDE8F087A8B50208F8B542680368D31A05
:1009C0009B1004460F4605D05A00934226D96FF07B
:1009D000030600E0042630461EF020F9054694E8A0
:1009E00009001B1A9B109A003968AF1807D045F808
:1009F000231094E809001B1A9B109A00AF1823B12A
:100A00000146284621F031FD2068043708B101F085
:100A1000B7FF2E44A66084E8A000F8BDB2F1804F75
:100A2000D5D2DE00D7E700BF2DE9F04790E8A0005F
:100A300084B0BD428146019124D08A4601F10C0860
:100A400001E0AF421ED02E684046062206F10C019E
:100A50002C46043521F0F1FC0028F2D156B1336860
:100A6000184AA3F10C00904220D1304601F088FFD3
:100A7000DDF804A0C4F800A0134821F077FE04B00C
:100A8000BDE8F087D9F808309F420AD0019B17B122
:100A90003B60D9F804700437C9F8047004B0BDE8AD
:100AA000F087484601A9FFF787FFE8E753F8042CD1
:100AB000511E002A43F8041CD7DC03A91EF0FEFBDC
:100AC000D3E700BF9405002004B60208F8B54268D9
:100AD0000368D31A5B1004460F4605D05A009342B0
:100AE00021D96FF0010600E0022630461EF096F88C
:100AF000054694E809001B1A5B105A003988AF18A4
:100B000018BF25F8131043B9023708B101F038FFB8
:100B10002E44A66084E8A000F8BD0146284621F0D6
:100B2000A4FC2068F0E7B2F1004FDAD29E00DCE7C7
:100B30002DE9F04190E89000BC4282B0884602D195
:100B400014E0A74212D054F8045B2E8A9642F8D1E2
:100B5000AE894645F5D159689868814209D0881C0C
:100B6000ED8901B10D80A7425860ECD102B0BDE81B
:100B7000F081184605F10E0101920093FFF7A6FFE0
:100B8000009B019ADDE700BF014B0360704700BF87
:100B900038B6020810B5034B0360044601F0F0FEBE
:100BA000204610BD38B60208F0B50B681A78232A23
:100BB00087B00C4671D053F80C3C022B6DD9084617
:100BC0000022474902231EF0F0FA461C054664D075
:100BD00023681B5C232B60D00223204640492A4611
:100BE0001EF0AEFA431C074653D03D4920463A4614
:100BF00002231EF0DAFA06460130216850D08B5DE0
:100C0000232B4DD051F80C2C9542C5EB07034DD842
:100C10002A46214602A81EF0A7FD02A904A803F057
:100C200001F814201DF0FAFF054600F0ADF8BDF8FC
:100C30001010BDF81220BDF81430A9810120A8744D
:100C4000EA812B82721C0523204626491EF078FA81
:100C5000421C226852F80C2C14BFC6EB000303465A
:100C6000964223D82146324603A81EF07DFD284631
:100C700003A91EF00EFA039B1B4CA3F10C00A0422B
:100C800017D1029BA3F10C00A0421DD1284607B04A
:100C9000F0BD2168154821F0B5FC002007B0F0BD7B
:100CA000134821F0AFFC002007B0F0BD11481EF042
:100CB0002CFE53F8042C511E002A43F8041CE0DCDF
:100CC00001A91EF0FBFADCE753F8042C511E002AA0
:100CD00043F8041CDADC03A91EF0F0FAD6E700BFE3
:100CE00058B60208B8B60208940500205CB602089F
:100CF000C0B60208A0B6020838B51546FFF754FF83
:100D0000044618B128462146FFF78EFE204638BD1E
:100D1000F0B583B014460F4601AA19491E46054690
:100D20001EF066FD21463846FFF73EFF044660B1DF
:100D3000828933889A420BD02368124AA3F10C00AF
:100D4000904212D1204601F01BFE284603B0F0BDB0
:100D5000C28973889A42EFD1B388028A9A42EBD152
:100D6000284621461EF0C3FCE6E753F8042C511E2A
:100D7000002A43F8041CE5DC01A91EF09FFAE1E714
:100D80001CBF02089405002010B50022074B036029
:100D90000021044681608274C2748281C281028211
:100DA000426003491EF036FB204610BDA00500201E
:100DB0001CBF020800228260002204498274C274AF
:100DC0008281C281028242601EF024BB1CBF0208E5
:100DD000F0B52DED028B837C87B004460BB9C37C44
:100DE00023BB0023214605A803931EF074FC04A82E
:100DF00005A902F0F9FF059B214DA3F10C00A842C3
:100E000033D1049E03A9304622F0B2FD039BB342C6
:100E1000B0EE408A10D9049BA3F10C00A84219D16E
:100E2000B0EE480A07B0BDEC028BF0BD90ED020AAF
:100E300007B0BDEC028BF0BD124BE7891B68268A18
:100E4000586822680168A389009701968C680E494A
:100E5000A047E0E753F8042C511E002A43F8041C75
:100E6000DEDC05A91EF02AFADAE753F8042C511E3D
:100E7000002A43F8041CC4DC02A91EF01FFAC0E7D4
:100E800094050020C802002048B7020810B50446A7
:100E90001EF021FC204610BD08B5837C0BB9C37C35
:100EA00043B90749002203231EF04AF9013018BF55
:100EB000012008BD4068003018BF012008BD00BFF8
:100EC00064B8020807EE101AF8EEC77A0122C0EDE6
:100ED000027A4160C2747047012280ED020AC27436
:100EE000704700BF837C10B504461BB90123C3744F
:100EF0001EF0FDFB204610BD38B5044600781AF000
:100F0000F3FF22780B4B617853F8222001255068BB
:100F100005FA01F120EA010151602178627853F865
:100F20002130AA40D968032000FA02F221EA020225
:100F3000DA6038BD68B8020810B5C1F3031301F0D8
:100F40000F01044603704170FFF7D6FF204610BD25
:100F500010B4094B0178427853F8213052001C68D4
:100F600003219140012024EA010100FA02F20A4320
:100F70001A605DF8044B704768B802080278124B9B
:100F8000F0B453F822204478176864000326A64082
:100F9000012527EA060605FA04F43443146051B922
:100FA0000178427853F821304FF4803101FA02F28F
:100FB0009A61F0BC70470178427853F8213095402F
:100FC0009D61F0BC704700BF68B802080178044B0F
:100FD000427853F82130012101FA02F29A617047F8
:100FE00068B802080178054B427853F821304FF475
:100FF000803101FA02F29A61704700BF68B80208B6
:1010000010B40B4B0478427853F8243041B94FF4B4
:10101000803000FA02F29A6108465DF8044B70478E
:10102000012000FA02F29A6108465DF8044B70470D
:1010300068B802080022026042608260C2607047A5
:10104000F8B5046900F10806B4420F464FF00005F8
:101050000DD02069036839465B6998478542B8BF5F
:10106000054620461DF07AFEB0420446F1D12846DE
:10107000F8BD00BFF0B52DED028BCA4B036343638F
:1010800085B0044600F1480300F1B401002243F8A2
:101090000C2C43F8082C43F8042C0C338B42F6D16B
:1010A000C14A94F8A830556F03F0D50343F080038C
:1010B000AF0184F8A83000F1A5816E0100F1AB8189
:1010C000280100F1B181E90000F1B781AA0000F127
:1010D000BD816B0000F1C381002DC0F2C981B24B0C
:1010E0005B6F13F0006305D194F8A82063F3C71277
:1010F00084F8A820AC4AAD4B4FF08071516703A82B
:1011000021211C60FFF718FF012103A8FFF736FF1C
:1011100010201DF083FD05460026FFF78FFA2846B4
:1011200001216561FFF7FCF926601C201DF076FDAA
:101130009F4A026000F1080305460361436106729D
:10114000C66086619B496560012204F130001EF093
:1011500061F9994A6069D1684FF6FF030B4043F08B
:10116000BF6343F40033D36046F20F613246334627
:10117000FFF70EFA3146FFF7A5FEFFF78DFE94F854
:10118000A820236860F3861284F8A820002B00F0C2
:1011900076818A4D0022134660694CF6DF11FFF715
:1011A000F7F90021FFF78EFEFFF776FE94F8A830DE
:1011B00080F00100002260F3000384F8A830606929
:1011C000134648F2AE01FFF7E3F90021FFF77AFE7C
:1011D000FFF762FE94F8A830002260F3820384F8DF
:1011E000A8306069134643F66621FFF7D1F994F8F9
:1011F000A810C1F38001FFF765FEFFF74DFE94F8DC
:10120000A830002260F3451384F8A83060691346C3
:1012100045F68B31FFF7BCF90121FFF753FEFFF7CD
:101220003BFE236894F8A820196860F3041284F840
:10123000A82018468A68904742F6AA2200236069CF
:1012400044F2ED11FFF7A4F94FF4E131FFF73AFE54
:10125000FFF7BEFD28684FF40671B0EE408A01F03A
:1012600073FABDEEC88A05464FF0FF3335213622AA
:101270008DED018A009305F08BFB2B6828469B6857
:10128000984728201DF0CAFC054601F02BFF2B686B
:1012900065629B682846984744201DF0BFFC0546C0
:1012A00002F09CF9A5624FF492701DF0B7FC424D1C
:1012B0000646FFF7ABF8E968414BE6624FF6FF02DE
:1012C0000A4042F0BF624FF0200C4FF0400E602108
:1012D0001026502042F400323027EA6083F837C3EA
:1012E000002283F82D6383F836E385F8227083F8B3
:1012F000006383F8120383F84D0383F8251383F802
:10130000261383F8271383F8341383F83A1360699C
:10131000134645F29E51FFF73BF92A49FFF7D2FDEC
:10132000FFF756FDBCEEC00A0022134684ED0E0AFC
:1013300060694AF25D51FFF72BF90121FFF7C2FD09
:10134000FFF746FDD4ED0E7AA06AB0EE408AB8EE03
:10135000670A02F003F9B0EE480AA06A02F022F927
:1013600028201DF05BFC054606F08AF82B68A56175
:101370009B682846984718201DF050FC054605F04C
:10138000F9F92B68A5609B68284698474FF4D07000
:101390001DF044FC054608F067FF2B68E5609B687C
:1013A00012E000BFA005002000380240C802002063
:1013B00098B8020820B9020800ED00E018030020E8
:1013C00000E100E0A08601002846984704201DF0B7
:1013D00025FC054601F08EFB4D4B2B60284625620F
:1013E00015F0EAFA28201DF019FC054606F026FA49
:1013F000256101201DF012FCE061204605B0BDEC26
:10140000028BF0BD04F1340042490A221EF0F0F8CC
:101410006E017FF555AE04F134003F4904221EF001
:10142000E7F828017FF54FAE3C4904F1340009226A
:101430001EF0DEF8E9007FF549AE0F2204F134001A
:1014400037491EF0D5F8AA007FF543AE04F1340009
:10145000344915221EF0CCF86B007FF53DAE04F147
:101460003400314910221EF0C3F8002DBFF637AE0C
:1014700004F134002D490A221EF0BAF82FE618BBF9
:10148000034642F6AA2244F2ED116069284DFFF7A7
:101490007FF84FF4E131FFF715FDFFF799FC4FF4AA
:1014A00006712868B0EE408A01F04EF9BDEEC88A98
:1014B0004FF0FF3306468DED018A009309210A2281
:1014C00005F066FA266065E642F6AA2244F2ED11BE
:1014D0006069174DFFF75CF84FF4E131FFF7F2FC5C
:1014E000FFF776FC4FF406712868B0EE408A01F0F1
:1014F0002BF9BDEEC88A0B23064600938DED018AB9
:1015000009210A220C2305F043FA266042E600BFB7
:10151000D8EB0208B8B80208C4B80208CCB8020870
:10152000D8B80208E8B8020800B9020814B90208DD
:10153000180300202DE9F04F2DED048BBC4B036008
:10154000B3B0074688464FF44C4044F68A51002217
:101550000DF1230301F078FC08B98DF8230038461B
:10156000B44901221EF044F898F8A8309C0700F115
:1015700058819DF82320002A40F07681180740F119
:10158000FF803846AC4904221EF032F8D8F80C30FF
:1015900093ED448A8DED0C8AD3ED438ACDED0D8A0F
:1015A000D3ED427ACDED0E7A93F83430DB0740F17B
:1015B0002B819FEDA29AC7EE897AC8EE898A88EEC0
:1015C000098A17EE900A1EF00BFB044618EE900AEB
:1015D0000D461EF005FB02460B4618EE100ACDE93B
:1015E0000223CDE900451EF0FBFA12AECDE904015D
:1015F000934A8021304621F01DFA92490446062282
:1016000038461DF0F5FF3146802C34BF224680223B
:101610001DF0EEFFD8F80C1091F89C31032B2EDD55
:101620009FED868A03248B6891F8342053F8243088
:10163000D3ED0B7A93ED087AF8EEE77AD007C7EE90
:10164000877A04F1010448BFC7EE887A17EE900A42
:101650001EF0C6FA7C4ACDE900018021304621F017
:10166000E9F93146802834BF0246802238461DF011
:10167000BFFFD8F80C1091F89C31A342D3DC0DF1D8
:101680003C0948460CAA06F0F7FBD8F80C30DDED13
:10169000117A93F83430D90740F1A8809FED678A1A
:1016A000C7EE887A17EE900A1EF09AFADDED107AEE
:1016B000C7EE887A04460D4617EE900A1EF090FA9F
:1016C000DDED0F7A87EE888A82468B46CDE90045AC
:1016D000CDE902AB18EE100A1EF082FA584ACDE9A5
:1016E00004018021304621F0A5F95849044606221C
:1016F00038461DF07DFF802C34BF224680223146C3
:101700001DF076FFD8F80C40204606F05BFC94F8FC
:101710003430DA0744BFDFED497A80EE270A10EE55
:10172000100A1EF05DFACDE90001D8F80C309FEDEB
:10173000487AD3ED567AC7EE277A17EE900A1EF054
:101740004FFA444ACDE902018021304621F072F976
:101750003146802834BF0246802238461DF048FFBB
:1017600098F8A840C4F38004BCB138463A49022234
:101770001DF03EFF384633B0BDEC048BBDE8F08F62
:10178000D8F8180005F0AEFE002800F0C5813846F4
:10179000324904221DF02CFFF8E64B4622464AF659
:1017A00016404BF2D3110F941094119401F04CFB9E
:1017B000002840F06681DDF840800F9D454500F02F
:1017C000BF81274A2C4605F11009631B143459F8D0
:1017D0000330A3F10C00904240F0CC814445F4D199
:1017E0000F980028C1D001F0CBF8BEE717EE900AA1
:1017F0001EF0F6F9044610980D461EF0F1F99DED25
:101800000F8A82468B4661E717EE900A1EF0E8F9D0
:10181000044618EE900A0D461EF0E2F902460B4609
:10182000DBE638460F4905221DF0E2FEAEE600BFBA
:10183000A005002024B9020838B902083333CB418F
:101840004CB9020860B9020868B9020870B9020808
:101850000080BB4590B90208B0B9020840B902083F
:101860009405002028B902083846B74904221DF023
:10187000BFFED8F80C0009A906F0CCFAD8F80C0085
:10188000C36933B1036A09A9143001229847D8F813
:101890000C0090F83430DDED097AD90700F123818E
:1018A00017EE900A1EF09CF904460A980D461EF0A9
:1018B00097F99DED0B8A02460B4618EE100ACDE90A
:1018C0000223CDE900451EF08BF912AECDE90401EB
:1018D0009E4A8021304621F0ADF89D4904460622FB
:1018E00038461DF085FE3146802C34BF22468022CA
:1018F0001DF07EFED8F80C1091F89C31032B2EDDE4
:101900009FED948A03248B6891F8342053F8243097
:1019100093ED0B7AD3ED087AB8EEC77AD207C7EE0B
:10192000277A04F1010448BFC7EE887A17EE900ABF
:101930001EF056F9884ACDE900018021304621F099
:1019400079F83146802834BF0246802238461DF09F
:101950004FFED8F80C1091F89C31A342D3DC0B98C1
:10196000099B0A9C0F900DF13C094A460CA8119363
:10197000109406F081FAD8F80C30DDED0E7A93F869
:101980003430DB0740F1CE809FED728AC7EE887A53
:1019900017EE900A1EF024F9DDED0D7AC7EE887A75
:1019A00004460D4617EE900A1EF01AF9DDED0C7A8A
:1019B00087EE888A02460B46CDE90223CDE9004531
:1019C00018EE100A1EF00CF9604ACDE90401304609
:1019D000802121F02FF861490446062238461DF087
:1019E00007FE802C34BF2246802231461DF000FEC7
:1019F000D8F80C40D8F81830DFED597AD3ED088AC2
:101A000094F83430DD0768EEA78A48BFDFED517ADD
:101A1000204648BFC8EEA78A06F0D4FA94F83430BE
:101A2000DC0744BF9FED4B8A80EE088A18EE900ACF
:101A300058BFB0EE408A1EF0D3F8CDE9000118EE91
:101A4000100A1EF0CDF8CDE90201D8F80C309FED58
:101A5000457AD3ED567AC7EE277A17EE900A1EF034
:101A6000BFF8414ACDE904013046802120F0E2FF71
:101A70003146802834BF0246802238461DF0B8FD2A
:101A80006EE6DDF83CA0DDF84080C2455AD00AF190
:101A9000140455460AF1100BCAEB050354F8140C54
:101AA0005BF803901EF09CF8CDE9000154F8100C8F
:101AB0001EF096F84B46CDE902012C4A2021304613
:101AC00020F0B8FF1435202834BF024620223146CA
:101AD00038461DF08DFDA84504F11404DCD10F9D9E
:101AE000DDF840806AE69FED1B8AC7EE887A17EE24
:101AF000900A1EF075F8DDED0A7AC7EE887A044682
:101B00000D4617EE900A1EF06BF8DDED0B7A0246DB
:101B10000B4687EE888AD0E63846154903221DF029
:101B200067FDA6E617EE900A1EF05AF804460D98D7
:101B30000D461EF055F89DED0C8A02460B463BE71C
:101B400028464EE6454639E630B902084CB9020847
:101B500060B902083333CB4168B9020870B9020892
:101B6000000070420080BB4578B90208A0B90208A5
:101B700048B9020853F8041C01F1FF3E002943F85C
:101B800004EC3FF72BAE314607921DF097FB079A06
:101B900024E600BF08B50B6808469B68984708BD57
:101BA0002DE9F04F072983B08B46824690463CD002
:101BB000012301930BEB4B0292000AF13C018818C0
:101BC0008C584668B4421CD0244F07EBCB025568B2
:101BD00005F001096D1006E0284457F83B20414606
:101BE0009047A6420DD054F8040BB9F1000FF3D082
:101BF000415957F83B2028448A5841469047A6420D
:101C0000F1D1BBF1070F02D003B0BDE8F08F9AF815
:101C1000A8309B0702D5019B002BF5D1DAF80C0008
:101C200003B0BDE8F04F06F027BC90F8A810D2F141
:101C3000010238BF002262F3410180F8A81032B9D6
:101C4000C9B2080744BF62F3C3018AF8A810DAF8E2
:101C5000180005F047FC0190ACE700BF68BA020825
:101C600001EB410138B53C308B00C518C0586C6899
:101C7000A0420DD00368934218BF031D03D108E0B2
:101C80000168914205D0A342184603F10403F7D13D
:101C900038BD011D8C4206D0631A9A1003D0920001
:101CA00020F0E3FB6C68043C6C6038BD70B50C46FA
:101CB000064609B90AE02C463046E168FFF7F6FF10
:101CC000A568204600F05CFE002DF4D170BD00BF79
:101CD00010B5054B044640F8043BE168FFF7E6FF0A
:101CE000024B2360204610BD98B80208D0BB020802
:101CF000074B10B5044640F8043BE168FFF7D6FFF8
:101D0000044B2360204600F03BFE204610BD00BF80
:101D100098B80208D0BB0208F8B542680368D31A25
:101D20009B1004460F4605D05A00934226D96FF007
:101D3000030600E0042630461CF070FF054694E8D8
:101D400009001B1A9B109A003968AF1807D045F894
:101D5000231094E809001B1A9B109A00AF1823B1B6
:101D60000146284620F081FB2068043708B100F0C6
:101D700007FE2E44A66084E8A000F8BDB2F1804FB3
:101D8000D5D2DE00D7E700BF00B501EB41013C3002
:101D900000EB810083B04368816801928B4207D0D9
:101DA0000BB11A6043680433436003B05DF804FB71
:101DB00001A9FFF7B1FFF8E730B4074A074D084C17
:101DC0000849C26400220565446581650270426469
:101DD000826430BC704700BF0123456789ABCDEFFB
:101DE000FEDCBA9876543210F0B492B10C4600235F
:101DF000A57894F801C0CF5CE6782D0445EA0C255F
:101E00003D4345EA0665C55004339A4204F1040493
:101E1000EED8F0BC704700BF30B492B10346002446
:101E20000D68055551F8045B2D0A5D7031F8025CB0
:101E30009D70043411F8015CDD70A24203F10403CB
:101E4000EED830BC704700BF2DE9F04F834695B007
:101E500004A840220BF1500494E83001DBF84C90C8
:101E6000DFF8E0A3DB4FDC4EFFF7BEFFDB4A019259
:101E7000DB4A0292049ADB4BDFF8CCC3DFF8CCE3F9
:101E8000D948DA4991444B4428EA040205EA040996
:101E900042EA09094B4404EB736325EA0302039207
:101EA000059A9044039A03EA040942EA0909C244E4
:101EB000069ACA4403EB3A5A24EA0A090AEA0308D2
:101EC000154449EA0808AC44079AC4440AEBFC3CB0
:101ED00023EA0C080CEA0A051444A64448EA05055E
:101EE000089C0A9A75440CEBB5252AEA050E27448E
:101EF00005EA0C044EEA04043B442344099F05EB25
:101F0000736303EA05043E442CEA030756443C434A
:101F100006EB040E03EB3E5E25EA0E0610440EEAC5
:101F20000304344384440CEB04000B9C0D9FDDF848
:101F300038A00EEBF03023EA0006214400EA0E043C
:101F4000344329440C9E019D35440195214400EB06
:101F5000B121019AA64C2EEA010601EA000535439B
:101F60001A442A44029BA34EA34D01EB72621F4404
:101F700020EA020902EA0103BE4449EA0309F144E6
:101F800002EB3959AAF5244E21EA090C09EA0208A4
:101F9000AEF14F0E70444CEA08080F9F974B8044F7
:101FA00009EBF83822EA080E3B4408EA09004EEA39
:101FB0000000194401441098059F08EBB12C064419
:101FC0000CEA080129EA0C00014332440A44119941
:101FD0000CEB72630C4403EA0C0228EA03010A4387
:101FE000A144914403EB395E129A6FEA0E0404EAAD
:101FF0000C0115440EEA03020A43A84490440EEB78
:10200000F836139D7E4A7F496FEA060806EA0E00FD
:102010002A4408EA030594440543654406EBB525C4
:1020200005EA0E02394434400B4414430A987649B9
:10203000764ADFF81CC21C44754B05EBF46404EAD5
:102040000607034405EA080847EA08089E440EEB21
:1020500008000F9B099F04EBF05000EA050E19449D
:1020600024EA05034EEA03030E44F118049E00EB34
:10207000B14120EA0403324401EA0406154446EA69
:102080000302644B644E2A4401EB32323B4402EAC1
:10209000000E1C4421EA00034EEA0303234402EB32
:1020A000F36303EA0108D44422EA010448EA040481
:1020B0006044204403EBF05E1398584D0D9FDFF809
:1020C00094810EEA0204064423EA020020433144CC
:1020D0000E180899524C0EEBB64606EA03000D4462
:1020E0002EEA03012A4440EA0105154406EB353582
:1020F0003C4405EA0E0C234426EA0E044CEA040490
:102100001C444848129B079F4749484A05EBF46422
:1021100004EA060C184425EA06034CEA0303864445
:102120000EEB030004EBF05000EA050E394424EAFC
:1021300005034EEA03030E44F1180C9B119FDFF8D0
:1021400018C100EBB14101EA04061A4420EA040375
:10215000154446EA0302364B364E2A4401EB32322E
:102160003B4402EA000E1C4421EA00034EEA03034A
:102170002344314D069C0B9F02EBF36303EA010EEF
:10218000254422EA01044EEA04042844051903EB1D
:10219000F55505EA020EBC4423EA02004EEA0000AF
:1021A0006144014410980C9F05EBB144064425EAB4
:1021B000030104EA0300014332440A4409991F4819
:1021C0001F4EA1F5B82E04EB323284EA050CAEF2B4
:1021D000BE6E43E0AF0F7CF52AC68747D89880696A
:1021E000AFF7448B78A46AD7134630A8019546FD13
:1021F000937198FD2211906B8E4379A6BED75C89AE
:102200002108B44962251EF6515A5E26AAC7B6E9CE
:1022100040B340C05D102FD681E6A1D8C8FBD3E7FC
:10222000E6CDE121D60737C3870DD5F4ED145A4525
:1022300005E9E3A98A4C2A8DF8A3EFFC22619D6D84
:1022400044EABEA456B7C7E8DB702024EECEBDC179
:102250005314440297FF2A43D9026F678CEA020C99
:102260007344DFF838E3BA49634402EB3373BE4486
:1022700082EA040C8CEA030C754405EB0C0E0F9DEE
:10228000129F03EB7E5E284483EA020585EA0E0571
:10229000044460190EEB304039448EEA0304444094
:1022A0000A441119059A089FAA4DAB4C00EB712105
:1022B000164480EA0E0C8CEA010C3344A74EA84A5F
:1022C000634401EB33733E4481EA000C0B9F8CEABC
:1022D000030CB6440EEB0C0603EB76563A4483EA45
:1022E000010E8EEA060E104400EB0E0206EB32429F
:1022F000554486EA0300504029440D181198049F64
:10230000DFF89CE2974902EB752582EA060C04444B
:102310008CEA050C1C44644405EB3474BE4485EA25
:10232000020C8CEA040C764406EB0C0E8E48079ED9
:102330000A9F8E4B04EB7E5E304484EA050686EAF3
:102340000E06024490190EEB304039448EEA040226
:1023500042400D44A9180D9A109F854E854D00EB03
:10236000712180EA0E0C13448CEA010C234463446F
:1023700001EB33733E4481EA000C139F7E4A7F4C8D
:102380008CEA030CB6440EEB0C0603EB76563A448B
:1023900083EA010E8EEA060E104400EB0E02069848
:1023A0000B9FDFF800C2DFF800E206EB3242054483
:1023B00086EA0300504029440D180499704802EB46
:1023C00075250C4465EA060151401C440C4405EB9C
:1023D000B464B84464EA020989EA05094644129FD4
:1023E0006849694BDFF8C4814E4404EBB656BC44DF
:1023F00066EA05076740624402EB070C099A109FE2
:10240000DFF8AC9106EB7C4C96446CEA0402724017
:10241000754415440CEBF525384465EA060282EA5A
:102420000C020444A018079C584F05EBB06060EA0A
:102430000C0221446A403144114400EBB151AAF529
:10244000801A61EA0504AAF6833A4440E244059EF4
:10245000DFF860C1A24401EB7A4262EA000433442F
:102460002B444C401E194A4B0293DFF84CA1494DB6
:10247000494C02EBF6230C9E63EA010EB2448EEA4D
:10248000020E5044139E704403EBB060B14460EA06
:10249000020A8AEA030A49440A9E514400EBB151F8
:1024A000B04461EA030989EA00094244119E4A44A2
:1024B00001EB7242B44462EA000888EA010863440E
:1024C000089E434402EBF323374463EA010C8CEA91
:1024D000020C07EB000EE6440F98029F069E03EBEA
:1024E000BE6E07446EEA02005840394401440EEBC8
:1024F000B151354461EA030080EA0E002A440D9F81
:10250000DBF84C60DBF85450024401EB724262EAA3
:102510000E003C44DBF8507048402344DBF8584040
:1025200003441744764407EBF32715440C4404A8EE
:10253000CBF84C60CBF85070CBF85450CBF85840E7
:10254000002140221FF0ACFF15B0BDE8F08F00BFA6
:102550000C38E5FD70BCBFBEC67E9B28A9CFDE4B04
:10256000604BBBF6051D88048530EFD439D0D4D933
:10257000E599DBE66556ACC4F87CA21F442229F439
:10258000C3595B6592CC0C8FD15D8485827E53F7F5
:1025900035F23ABDBBD2D72A91D386EB81F671874B
:1025A000FA27A1EAA72394AB39A093FC144301A313
:1025B000E0E62CFEA111084E4F7EA86F2DE9F843EE
:1025C000446C1746D20013199A424364836CC4F3D7
:1025D000C50488BF0133C4F1400603EB5773B7420B
:1025E00005468846836409D20444601C002408EB35
:1025F00004013A1BBDE8F8431FF02EBF20443246C9
:10260000013005F101091FF027FFC4F1800449469C
:102610002846FFF719FCA74202D212E026461C46C4
:1026200008EB06012846FFF70FFC04F140039F4228
:10263000F4D2484608EB04013A1BBDE8F8431FF00A
:102640000BBF48463446D2E730B5037883B0044622
:10265000B3BB00F14405294668460822FFF7DCFBBE
:10266000626C1949C2F3C502372A94BFC2F138021D
:10267000C2F178022046FFF7A1FF204669460822F2
:10268000FFF79CFF04F15C0004F14C011022FFF7FE
:10269000C3FB00214022601C1FF002FFAB1C002284
:1026A00084F844206A7003F8012B03F8012B03F827
:1026B000012B03F8012B03F8012B01211A70217063
:1026C000204603B030BD00BF8C010020F0B50B7870
:1026D0008BB00746C3B10D4601AC09AE204695F854
:1026E0005C200D49023420F0D7F9B44205F1010510
:1026F000F4D1002301A938466A468DF824301DF034
:1027000077F838460BB0F0BD044901AA1DF070F807
:1027100038460BB0F0BD00BFB4B902081CBF0208B8
:10272000F0B4084C41602568028100274FEA122C62
:102730008F70CF7081F801C00A7005602060F0BC16
:10274000704700BFCC0200208B0718BF21F00301A7
:102750002DE9F00118BF0431456801F1040C1FFA9E
:102760008CFC2B4610E093F801809A7841EA08210E
:1027700041EA024141EA046161450A461EDA0189E3
:1027800013446A18934215D8DA781978D70902F0F9
:102790007F041646E7D05E789C7841EA062141EA3C
:1027A000044102F07F0241EA0262018913446A187F
:1027B0009342E9D90020BDE8F001704746F0800659
:1027C0008C45DE7027DA03EB0C02CCEB0101D478E8
:1027D00003F80C1067F3C714C1F3066604F0800415
:1027E000C1F307253443C1F3074155709170D4708C
:1027F000DC782CF0004C04F0800400214FEA1C250A
:1028000083F800C05D70DC70997044680189121B08
:102810008A4200DB00BE181DBDE8F001704700BF12
:102820002DE9F00311F8013C11F8042C11F8034CC8
:1028300011F8025C6FF3C71342EA042444EA05442A
:1028400003F07F020F1F44EA02643A1901F8013CC9
:10285000D378DD0926D145680689551BB54200F3BA
:102860008D8017F804C092F80180967811F8015C09
:102870004CEA082242EA064203F07F0342EA03637D
:102880001C44C4F3066325F07F051D43C4F30722EF
:10289000C4F3074301F8044C01F8015C01F8032C70
:1028A00001F8023C45682B786E78AA78EC7843EA08
:1028B000062343EA024304F07F0443EA04642A4601
:1028C00015E00289964205EB020C54DA1A7893F867
:1028D00001809E78DC7842EA082242EA064204F04F
:1028E0007F0452EA046446D0634544D21A46131961
:1028F000561BBB422644E4D1D378DE09C3F3C0158E
:1029000039D111F8046C11F8039C11F8028C11F8FC
:1029100001CC46EA092646EA08460CF07F0C46EA56
:102920000C66344423F07F08C4F3066CC4F3072616
:10293000C4F307432E432B432C4348EA0C0C82F884
:1029400003C056709370147011F8042C11F8036CC6
:1029500011F8025C11F8014C4168038942EA062231
:1029600042EA054204F07F0042EA00627F1A3A44DC
:102970009A4200DB00BEBDE8F003704700BE70E77E
:10298000094B1B68014613B90BE01B684BB15A6831
:102990009142FAD3188902449142F6D21846FFF7C1
:1029A0003FBF084619F092BACC0200202DE9F04F43
:1029B0000B68446802899D68DFF8ACB080460F461A
:1029C00083B02549234638464FF00009A847CA4638
:1029D000D8F8046002E0042D34D92C443B68E27836
:1029E0009D681E4B1E49D20908BF5B4600932378A1
:1029F00094F801E0A078E27843EA0E2343EA00432A
:102A000002F07F0243EA02620192A31B224638468B
:102A1000A84721786578E378A278D8F8046041EA7D
:102A2000052545EA024503F07F0245EA0265DB0918
:102A3000C6EB0402B8F808302A4408BFA9449A42F9
:102A4000AA44C8DB3B6807499C6852464B46384657
:102A5000A04703B0BDE8F08FCCB90208BCB90208AA
:102A6000ECB9020810BA0208C4B902080246F0B470
:102A70005368158900201C4602E0042A14D9134427
:102A8000D9785F789E78CA091A7842EA072201F05D
:102A90007F0142EA064242EA0162C4EB03011144AB
:102AA00008BF8018A942E8DBF0BC7047704700BF40
:102AB000704700BF704700BF704700BF704700BF3E
:102AC000704700BF704700BF704700BF704700BF2E
:102AD000704700BF014B0360704700BF38BA02085F
:102AE00010B5034B03600446FFF74AFF204610BDB4
:102AF00038BA0208014B0360704700BF38BA0208B9
:102B0000024B02461868FFF73FB900BFC802002019
:102B1000082810B40AD80F2908D8064B012453F806
:102B2000202004FA01F10A4343F820205DF8044B09
:102B3000704700BFF4020020082810B40AD80F29FB
:102B400008D8064B012453F8202004FA01F10A4367
:102B500043F820205DF8044B704700BFD0020020EE
:102B600010B4084B4179027953F821300324D96815
:102B7000520004FA02F221EA0202DA605DF8044B24
:102B8000704700BFB0BA02088279102102F0FE023D
:102B900001716FF34102002182710160704700BF33
:102BA00070B50D4682B004462C4928461CF016FB31
:102BB00030B9A37960F34103A371204602B070BD20
:102BC00002AEA3792D68002246F8042D43F00203DB
:102BD000A371314628460A2220F066FF019BC0B24D
:102BE000AB42607108D9082806D81D4A52F8202047
:102BF00022601A782E2A0ED0A2791A4B236002F096
:102C0000FD02002363F3000210212046A2716371CC
:102C1000217102B070BD5D1C0A2231462846019523
:102C200020F042FF019AC0B295422071E4D20F28F1
:102C3000E2D8107850B9C0E7A37943F00103A3713B
:102C400013460132019258780028B6D02128F3D0DB
:102C500001F09EF80028B0D0019AF1E7D4BA02083A
:102C6000B0BA02080000024038B583799B070446D9
:102C70000CD54179064B027953F82130012559686A
:102C800005FA02F20A435A60FFF76AFF204638BD90
:102C9000B0BA02082DE9F0410D4682B00446504911
:102CA00028461CF09BFA38B9A37960F34103A3715D
:102CB000204602B0BDE8F08102AEA3792D68002263
:102CC00046F8042D43F00203A371314628460A2238
:102CD00020F0EAFE019BC0B2AB4260710CD908281B
:102CE0000AD819F001F93F4D6279019B55F822206D
:102CF00022601A782E2A0FD0A2793B4B236002F073
:102D0000FD02002363F3000210212046A2716371CB
:102D1000217102B0BDE8F0815F1C314638460A22BD
:102D2000019720F0C1FE019BC0B29F422071E3D207
:102D30000F28E1D818780028BAD003264FF00208EF
:102D4000012710E06F281DD0762837D05E2823D0C9
:102D500001F01EF80028ABD0019B1A460133019305
:102D600050780028A4D04028F7D0EBD821280ED0E6
:102D70002D28EDD1A2799207EFD52046FFF7F0FE7E
:102D8000019BEAE72046FFF76FFF019BE5E7A27989
:102D900042F00102A271E0E7A2799007DDD56279E5
:102DA000217955F822204900D06806FA01FC20EA72
:102DB0000C0007FA01F10143D160CEE7A279910737
:102DC000CBD56279217955F822204900D06806FADE
:102DD00001FC20EA0C0008FA01F10143D160BCE7D4
:102DE000D4BA0208B0BA02080000024038B503465F
:102DF0004079197919F072F9084904461AF080FEF1
:102E0000013008D014201BF009FF2146054619F0B7
:102E100073FA284638BD002038BD00BFD0F802083C
:102E2000024A02600022C260704700BFE0BA020896
:102E300010B5044B036000230446C360FFF7A0FDF8
:102E4000204610BDE0BA020870B586B0114E9DF85C
:102E50001440ADF8080004F0FE041D46ADF80A1059
:102E6000ADF80C2030680C4B049501AA6FF34104B7
:102E700005218DF814400193FEF792FE9DF8142071
:102E800012F0010003D0930744BF049B2B6006B0EF
:102E900070BD00BFC8020020E0BA020830B587B09C
:102EA0000E4C9DF81450ADF8080005F0FE05ADF885
:102EB0000A10ADF80C202068094C049345F0020577
:102EC000062101AA8DF814500194FEF769FE9DF8C1
:102ED000140000F0010007B030BD00BFC8020020A0
:102EE000E0BA020810B5034B03600446FFF7F2FD99
:102EF000204610BDF0BA020810B5054B0360044629
:102F0000FFF7E8FD2046FFF73BFD204610BD00BF60
:102F1000F0BA020810B50446FFF7ECFD201DFFF7DC
:102F200033FE064B2360FF2100234FF0FF32E160A8
:102F3000226123766361204610BD00BFF0BA02080B
:102F4000002905DBC3689942A8BF19460161704793
:102F500000210161704700BF036981F30801002B64
:102F6000C16004DB9942B8BF0B4603617047002380
:102F700003617047C0687047837A4FF0FF32026187
:102F80009A070FD503F001038B42027A436804D0FD
:102F9000012101FA02F29A6170474FF4803101FA7F
:102FA00002F29A61704700BF0269FF2A30B40346FB
:102FB00021D86AB3FF2A3ED040691C7EB0F5007F5D
:102FC000A8BF4FF400706FF0FF05A842B8BF2846B5
:102FD00058619CB902447F2A5A6129DC9A7A900789
:102FE00009D502F00102A2421A7A5B6818D00120CA
:102FF00000FA02F29A61084630BC7047A2F580726E
:1030000010440028D8BF00245861D8BF1C76E5E7DB
:10301000827A9507EFD512F0010F4368027AE6D164
:103020004FF4803000FA02F29A61084630BC7047D3
:1030300001241C76D2E7827A9407DCD512F0010FC6
:103040004368027AD3D0EBE70321FFF759BD00BFF5
:1030500010B504464068054B236008B1FFF790FCAB
:103060002046FFF737FD204610BD00BF28BB0208F1
:1030700038B5104D2B6893F8A830DB07044608D507
:103080000D4B0E4819884A1CC1F300311A80FDF718
:10309000B7FF72B6636A53B1636A013B636262B69B
:1030A000042128680022BDE83840FEF779BD62B6E9
:1030B00038BD00BFC802002024030020AE0200205B
:1030C00010B504464068064B236008B1FFF758FC72
:1030D0002046FFF7FFFC2046FFF752FC204610BDBC
:1030E00028BB0208F0B583B00446FFF703FD194B77
:1030F000194E002584E82800A560E56004F1180059
:10310000FFF742FD154A0195176C154B15481C60D9
:1031100047F010071764126C134B1449DFF850C0C6
:1031200002F0100201920422019F1A603268806846
:10313000920BA1FB0261C0F818C18908052741F66E
:10314000FF762046276161619E62D96222626562D4
:1031500003B0F0BD28BB0208D001002000380240B7
:103160002003002000ED00E000100040CDCCCCCCCE
:103170003D320008054B064A01204FF48001D8601B
:1031800051601A6802431A60704700BF0010004087
:1031900000E100E0074A084B1268920B10B4B2FB42
:1031A000F1F141F6FF7441619C62D9625DF8044B14
:1031B00002627047D001002000100040F8B544685A
:1031C00085684169AC42064602D112E0A54210D0A2
:1031D00054F8043B5A69521A002A5A61F6DA1869FF
:1031E0001F6802445A6197B10020B847A54271692F
:1031F000EED1336A591A0029316207DA0E4A736A2E
:103200001268013301EB923131627362F8BD5A6882
:10321000002ADBD09F68D8683FB1C30707D402EB10
:1032200060000021B8477169D0E7C307CED54310CD
:10323000D018D358DF59F4E7D0010020034A044BDB
:103240006FF0010111611868FFF7B8BF001000406E
:103250002003002038B5094D094B0360044602469F
:1032600007212868FEF7FCFC286822460821FEF7A3
:10327000F7FC2046FFF72EFC204638BDC802002090
:1032800060BB020810B50446FFF7E4FF2046FFF7D5
:1032900077FB204610BD00BF012916D041B1CB07F6
:1032A00020D490F83830022202FA03F3194219D0E0
:1032B000837E9A0716D513F0010F027E43690CD165
:1032C000012101FA02F29A617047837E9A0709D5BB
:1032D00013F0010F027E436905D14FF4803101FAEA
:1032E00002F29A61704791409961704701B170474D
:1032F000837E9A070AD513F0010F027E43690CBF43
:1033000001214FF4803101FA02F29A61038F6FF3C9
:1033100049230387704700BF2DE9F0410446254645
:103320001E4617468846FFF7E5FB354B45F8043B3C
:1033300098E8030085E8030097E8030004F10C0314
:1033400083E8030096E8030004F1140383E8030014
:10335000B3799F0703D570793179FFF7D9FB002343
:10336000E362228FA17E274E2748236363F349221D
:10337000228794F839206662002542F0040263F344
:10338000C30265634FF07E538D0784F83920A06235
:10339000236209D5227E6369C80754BF01214FF417
:1033A000803101FA02F29A61A37A99070AD513F0E3
:1033B000010F227A636814BF01214FF4803101FAB2
:1033C00002F29A61A37C9A070AD513F0010F227CBE
:1033D000E36814BF01214FF4803101FA02F29A61CF
:1033E000238F6FF30823238720460721FFF788FBED
:1033F00020460821FFF784FB2046BDE8F08100BF8E
:1034000060BB0208000048420000C07FD0ED0D7A8A
:1034100010B580ED080A20EE270A04461DF080F959
:103420002063E06210BD00BFD0ED087A10B580EDDA
:103430000D0A20EE270A04461DF072F92063E062AF
:1034400010BD00BF036B80ED0D0A19440163704786
:10345000D0ED087A10B520EE270A04461DF060F979
:10346000236BC01A10BD00BF38B5837E9A0704468F
:103470000D460FD54269017E1069C84003F0010373
:1034800000F00100984205D0002B47D0012303FA39
:1034900001F1916194F8393003F00103AB4215D08A
:1034A000238FA27C65F30823900723870BD502F0B6
:1034B0000102AA42227CE36814BF01214FF480314B
:1034C00001FA02F29A6101201AF05EFBA37A9907D1
:1034D0000AD513F0010F227A63680CBF01214FF463
:1034E000803101FA02F29A6103201AF04DFBA37AAF
:1034F0009A070AD513F0010F227A636814BF0121DD
:103500004FF4803101FA02F29A61E26A002D0CBF99
:1035100001234FF0FF331344E36238BD4FF480338F
:1035200003FA01F19161B5E7F0B4094B094A0A4F7A
:1035300001214FF400064FF400550024D960F960D2
:1035400056605560C4631A680A431A60F0BC70473D
:103550000014004000E100E0002000400E4B0F4A44
:103560001B6880ED040A5B08A2FB0313DB0807EE6F
:10357000103AF8EEC77A10B587EE800A04461DF0BF
:103580007FF8074B0E21BCEEC00A84ED050A996254
:1035900083ED0B0A10BD00BFD00100208988888808
:1035A00000140040DFED0A7AC0EE277A08B5094B17
:1035B0001B685B0807EE103AB8EE470A20EE270AB0
:1035C0001DF05EF8044BBCEEC00A83ED0B0A08BD8B
:1035D00000247449D0010020002000402DE9F04370
:1035E00083B00025294B2A4A00954563C5631060C6
:1035F0001A6C856042F020021A64D3F84080DFF82C
:10360000A8E0244ADFF8A4C0234F244E24499FEDAC
:10361000250A08F02008CDF800804FF00408DDF8F6
:103620000090CEF80080D2F808E00195CEF81CC1D9
:10363000D3F840E04EF4807EC3F840E01B6C03F406
:10364000807301930C23DDF804E03B609368C3F8BA
:10365000F460936804469963FFF780FF2046B1EE5B
:10366000040AFFF79FFF94F84030656365F3440355
:1036700084F8403094F84030A56365F30003204699
:1036800084F8403003B0BDE8F08300BF003802404A
:103690002803002000ED00E0002000400D37000866
:1036A000913A00080050C34700140040413A000816
:1036B00070B490F84050C5F3430515B300230124BE
:1036C0004FF4803602E00133AB421ADA426B04FA5F
:1036D00003F11142F7D000F1180252F82320917A39
:1036E00011F0020FEFD011F0010F117A526803F1BF
:1036F000010314BF04FA01F106FA01F1AB42916132
:10370000E4DB0023436370BC704700BF034A044BF3
:103710006FF0010111611868FFF7CABF0020004077
:10372000280300202DE9F843856B002D53D090F835
:103730004010C1F34301002947D000236C6D1E46A1
:1037400001274FF4803C03E00133DBB28B4236DAD1
:10375000C3EBC30204EBC202926A002AF4D000EB6E
:1037600083022E6D926903F01F0992F8128007FA06
:1037700009F919EA060F0CBF4FF000094FF00109D3
:1037800018F0020F08F001060BD092F810804E4599
:1037900014BF07FA08F60CFA08F6D2F80C80C8F83D
:1037A0001860168F69F308261687168F0133DBB26F
:1037B00046F400768B4216874FF00106C8DB0023E3
:1037C000C3631EB10120BDE8F883C163034B1B68CE
:1037D000986903F0D7FF0020BDE8F883C8020020F5
:1037E0002DE9F04F90F84030914D0646D80785B04E
:1037F00040F1E1802968039191F8A800C0F34000EE
:10380000002858D196F84080C8F34308B8F1000F5B
:1038100000F00781D6F838B0D6F83CA0DBF8549019
:103820000295074622E0DDE90023012A73F1000337
:103830004DDBDCE90245DDE90023121943EB05030A
:103840004FF0FF346FF0404594429D41CCE9022394
:1038500044DB06EB80039C6994F8393013F0020FC7
:1038600018BF01270130C0B240457CDAC0EBC00C64
:1038700009EBCC0CDCF82830002BF3D0DCE9004558
:10388000DCE90423DCF83010121943EB0503514541
:10389000CDE90023CCE90023C5D1DBF84410514524
:1038A000DBF8481000F09E805145BCD1DCE90645AC
:1038B000CCE90445B7E796F8402000236FF30002F7
:1038C00086F84020F363B36305B0BDE8F08F0022B3
:1038D0000023CCE9002300224FF08043003243F163
:1038E0004043CCE90223DCF82C1006EB80030131C5
:1038F0009C69CCF82C10A37A9A070CD513F0010F11
:10390000227A63680BBF01254FF4803105FA02F279
:1039100001FA02F29A6194F83930E26A13F0010F69
:103920000CBF01234FF0FF331344E36294F83920B6
:103930000628C2F3400278D8736B00F01F010125FE
:1039400005FA01F10B4373632AB1DCF82C20DCF893
:1039500028309A4280D10021CCF82810238F6FF3B1
:103960004923238778E7029D736B0AF10102F26312
:1039700023B1304B1A6842F001021A60002FA3D124
:10398000039AF763906903F0FDFE2B6806F1380196
:10399000986903F0ADFE002839D196F84030B7633E
:1039A00067F3000386F84030234B4FF080525A6093
:1039B00005B0BDE8F08F2B6806F13801986903F077
:1039C00097FE002880D03046FFF7ACFE96F84030D6
:1039D00060F3000386F8403096F84030D9073FF591
:1039E00009AF71E7DBF84C4000220023A142CCE98B
:1039F0000423BFF459AF5145CCF830103FF456AF13
:103A0000DCE90845CDE90045CCE900450BE7304647
:103A1000FFF788FE96F8403060F3000386F84030E8
:103A2000C2E74746D6F83CA09EE704481BF06DFF6E
:103A3000C80200200020004000ED00E090BB02081A
:103A4000034A044B6FF0010111611868FFF7C8BE0B
:103A5000001400402803002010B490F84020C2F366
:103A60004304631C03F00F0300EB840463F344027C
:103A700080F84020581EA1615DF8044B704700BFDC
:103A8000826808B512B1C368984708BD1BF040FFB3
:103A900008B5034B186883680BB1FFF7F1FF08BD49
:103AA00028030020014B0360704700BFD0BB020811
:103AB0000EB4002003B07047014B0360704700BF95
:103AC000D0BB020810B5034B03600446FEF758FF55
:103AD000204610BDD0BB020810B5034B036004465E
:103AE000FEF74EFF204610BDD0BB020808461FF06F
:103AF00098B800BF0EB42DE9F04392B019AB02AEF6
:103B000053F8049B019305464A463046402121F074
:103B100079FC471C3F2F04460ADC2B6831465B6961
:103B200028469847204612B0BDE8F04303B07047DE
:103B300038461BF071F839464A46019B804621F011
:103B400061FC2B6841465B6928469847B045E9D03F
:103B5000B8F1000FE6D040461BF08AF8E2E700BF5C
:103B60000348044B0449054A03601BF07CB800BFBE
:103B70002C030020A8BB0208B93A000888010020E5
:103B800070B405682878F8B10024104E2146084426
:103B900080FB0623C118C317C3EBE111C1EB012160
:103BA000411A0C4484FB0623E218E317C3EBE2132B
:103BB000C3EB032315F8010FE31A89B29CB2002866
:103BC000E5D141EA042080B270BC704781808080DA
:103BD00070B402780AB30024114E21468D1885FB7B
:103BE0000623E918EB17C3EBE111C1EB0121691AB8
:103BF0000C4484FB0623E218E317C3EBE213C3EB88
:103C0000032310F8012FE31A89B29CB2002AE5D1F0
:103C100041EA0424A0B270BC70471046FBE700BF25
:103C2000818080802DE9F04F0B6887B053F80C3C01
:103C3000019000278846078047808780002B63D04B
:103C40004E4CBA46012340464D4952461BF078FA85
:103C50004C4B0493431C05465DD0D8F8003053F814
:103C60000C2C9245CAEB050379D805AE5246304676
:103C700041461BF079FD04A831461BF00AFA059B6A
:103C8000DFF80891A3F10C0048455DD1DDF810C0C4
:103C90009CF8003043B34FF0000B5946604601EBEF
:103CA000030A8AFB04230AEB03014FEAEA73C3EB1E
:103CB000E111C1EB0121C1EB0A018B448BFB042311
:103CC0000BEB03024FEAEB73C3EBE212C2EB0222EF
:103CD00010F8013FC2EB0B0289B21FFA82FB002BE6
:103CE000DDD141EA0B218BB2019AD3536A1CACF1AE
:103CF0000C001CD0484505F1010A33D1D8F800303A
:103D000053F80C3C9A4502D307B0BDE8F08F023758
:103D1000062FF9D096E7D8F8003053F80C3C5345FD
:103D20001DD305AE5246304641462B46A1E74845D5
:103D3000EAD05CF8043C5A1E002B4CF8042CE3DC5F
:103D400031461BF0BBFADFE753F8042C511E002A62
:103D500043F8041C9ADC03A91BF0B0FA96E70A4862
:103D60001BF0D3FD5CF8043C5A1E002B4CF8042CCD
:103D7000C4DC31461BF0A2FAC0E700BF818080801E
:103D8000F0BB0208A0050020A0B6020894050020A0
:103D9000202804D0B0F1090358425841704701204F
:103DA000704700BFF0B50F4E06600C6854F80C7CED
:103DB0002744BC4283B0054601D10FE02E6814F8B9
:103DC000010B20F0F7F9C0B256F80C1C009000224D
:103DD000284601231BF0F0FAA742EFD1284603B092
:103DE000F0BD00BFA005002070B584B00C4602AA4B
:103DF0001C49064603A81BF0FBFC03990022204641
:103E000051F80C3C1BF0D1F9421C18BF00250FD013
:103E100001460122144B009520461BF00BFD03992F
:103E2000204651F80C3C00221BF0BFF9431CEFD197
:103E30000E4B039A21683160A2F10C00A3F10C0132
:103E40008842236002D1304604B070BD52F8043C71
:103E5000591E002B42F8041CF5DC02A91BF02EFAB7
:103E6000F1E700BFF4BB02081CBF0208A005002058
:103E700070B50C46012384B0054621492046002236
:103E80001BF05EF9431C06461ED00022334602A8F2
:103E900021461BF069FC236853F80C3C721C9A42C3
:103EA00020D8214603A81BF05FFC204603A91BF085
:103EB000F0F8039B134AA3F10C00904215D1029B2A
:103EC0002B60284604B070BD214603A81BF003FCFC
:103ED00020460D4900221BF09DFA039B2B602846CB
:103EE00004B070BD09481BF010FD53F8042C511E9E
:103EF000002A43F8041CE2DC01A91BF0DFF9DEE72D
:103F000030BD0208940500201CBF0208A0B60208BC
:103F100030B50D46012383B00446114928460022DE
:103F20001BF00EF9431C0FD02B6853F80C1C421CDD
:103F30004B1C8A42C0EB03030ED8294620461BF0D7
:103F400013FC204603B030BD2046064901AA1BF0F1
:103F50004FFC204603B030BD03481BF0D6FC00BF29
:103F600030BD02081CBF0208A0B60208002070473E
:103F7000BFF34F8F054A064BD16801F4E0610B4354
:103F8000D360BFF34F8F00BFFDE700BF00ED00E03F
:103F90000400FA05F0B5A14D2B6885B00C46074624
:103FA00003F1300102A81BF096FB236853F80C2C98
:103FB000002A00F09A8053F8042C002A03DB2046E4
:103FC0001BF0E2F923681A782F2A00F0CB80944D79
:103FD00000220323214603A81BF0C6FB03A8914936
:103FE0001BF0FCF8039BA3F10C02AA42064640F02A
:103FF000C780002E37D1236853F80C3C022B40F2C7
:10400000CC804FF0FF332146032203A81BF0ACFB0A
:10401000204603A91BF03DF8039BA3F10C00A84226
:1040200040F0BE8080494FF0FF32012302A81BF010
:10403000A1F802A90346002203A81BF095FB02A8E1
:1040400003A91BF026F8039BA3F10C00A842BFD0E4
:1040500053F8042C511E002A43F8041CB8DC01A9B3
:104060001BF02CF9B4E700220223214603A81BF021
:104070007BFB03A86D491BF0B1F8039BA3F10C0275
:10408000AA42064640F0BA80002E35D0029B53F873
:10409000042C53F80C1C002A01F1FF3603DB02A8A4
:1040A0001BF072F9029B9B5D2F2B02A960D003A825
:1040B0001BF011FB2F22012103A81BF0D3FA03A848
:1040C00021461BF06CFA5A4A03683B600260039B6E
:1040D000A3F10C00A84240F08580029BA3F10C00E4
:1040E000A84269D1384605B0F0BD29684C4D303141
:1040F00038461BF0F0FAF0E7236853F80C3C012B2C
:104100004BD94FF0FF332146022203A81BF02CFBB2
:10411000204603A91AF0BDFF039BA3F10C00A8429F
:1041200055D141494FF0FF32012302A81BF022F87C
:1041300002A90346002203A81BF016FB02A803A94C
:104140001AF0A7FF039BA3F10C00A8429ED053F8DE
:10415000042C511E002A43F8041C97DC01A91BF013
:10416000ADF893E7324A3B60A2F10C052260B4E758
:1041700038461BF0B0FA384621461BF010FAACE77F
:1041800053F8041C481E002943F8040C3FF731AFD4
:10419000104601A91BF092F82BE726481BF0B5FB4F
:1041A00053F8042C511E002A43F8041C3FF73AAF81
:1041B00001A91BF083F835E753F8042C511E002A9F
:1041C00043F8041C8EDC03A91BF078F88AE753F847
:1041D000042C511E002A43F8041CA2DC01A91BF088
:1041E0006DF89EE753F8042C511E002A43F8041C76
:1041F0003FF773AF01A91BF061F86EE753F8041C99
:10420000481E002943F8040C3FF73EAF104601A9B1
:104210001BF054F8002E7FF439AF6DE7C802002080
:104220009405002014BC020820B9020818BC02083A
:10423000A0050020A0B602082DE9F04191E8100188
:10424000444582B00746164621D012B308340023F5
:1042500001E09E4217D914F8082CFA5454F8040CC3
:104260005D1C1BF0BDFC731B07EB050ECDE90001C7
:10427000094A194670461EF0DDFBA04500EB050318
:1042800004F10804E5D1184602B0BDE8F081002031
:10429000FAE71046F8E700BF1CBC020830B585B04D
:1042A0000D46044603AA17491BF0A2FA052D236800
:1042B0000CDC3435EDB253F80C1C0095204600227E
:1042C00001231BF079F8204605B030BD53F80C1CD3
:1042D000392300932046012300221BF06DF820466D
:1042E000094901221BF084F92B350368EDB253F81C
:1042F0000C1C0095002201231BF05EF8204605B03F
:1043000030BD00BF24BC0208F0BB020870B50546F2
:1043100018F096FC074E044602E03068FDF740FCBA
:1043200018F08EFC001BA8424FF003014FF0000272
:10433000F3D370BDC80200204FF47A7303FB00F082
:10434000FFF7E4BFF8B542680368D31A9B10044630
:104350000F4605D05A00934220D96FF0030600E0C3
:10436000042630461AF05AFC054694E809001B1A48
:104370009B109A003968AF1818BF396043B90437E9
:1043800008B1FEF7FDFA2E44A66084E8A000F8BD4F
:10439000014628461EF069F82068F0E7B2F1804F28
:1043A000DBD2DE00DDE700BFF8B542680368D31A50
:1043B0009B1004460F4605D05A00934221D96FF056
:1043C000030600E0042630461AF028FC054694E86F
:1043D00009001B1A9B109A003968AF1818BF45F8DE
:1043E000231043B9043708B1FEF7CAFA2E44A66079
:1043F00084E8A000F8BD014628461EF036F8206883
:10440000F0E7B2F1804FDAD2DE00DCE72DE9F047C9
:1044100042680368C3EB02095FEAA90982B0074654
:104420000E4648D04FEA4903994555D96FF0030924
:1044300048461AF0F3FB97E83000291B891000EB7F
:104440008103804600F1040A23B13368254A40F80D
:1044500021303260AC4231D0231DC3EB050C4FEA52
:104460009C0C04F108061F4806EB8C06424622B15C
:1044700053F8041C116043F8040C0433B34202F1F6
:104480000402F4D108EB8C0C174E0CF1080A54F816
:10449000043BA3F10C02B24212D1A542F7D1386815
:1044A00008B1FEF76DFA08EB0903BB6087E8000569
:1044B00002B0BDE8F0874FF00409B9E72046EFE706
:1044C00053F8041C481E002943F8040CE5DC104690
:1044D00001A91AF0F3FEE0E7B3F1804FA6D24FEA4C
:1044E000C909A5E7A0050020940500202DE9F04F9B
:1044F000DFF80C81002385B082460F461646036024
:1045000043608360A8F10C093B78B3424FD0002B85
:104510004DD07B1C00E024B11D4613F8014BB44282
:10452000F9D1AF4254D0002F3CD0C7EB050B584611
:10453000002101AA1AF072FEBBF1010F044600F13E
:104540000C0328D13A7822734C452C4F44D1DAF829
:104550000420DAF8081003938A4233D01AB11360AA
:10456000274BCDF80C800432CAF80420A3F10C00CC
:10457000B84238D12B786F1C002BC5D1504605B0FE
:10458000BDE8F08F2846294601AA1AF047FEAB463F
:10459000044600F10C03184639465A461DF05CFFEC
:1045A0000346D1E7002DEDD016481BF0A8F9DAF844
:1045B0000420DAF80810124B03938A423D46A3F117
:1045C0000C07CBD1504603A9FFF720FF039BCDE793
:1045D0000B4BA3F10C07BAE70022C4F800B0A260AD
:1045E00003F80B20B3E753F8042C511E002A43F8BC
:1045F000041CBFDC02A91AF061FEBBE79405002091
:10460000A005002028BC0208F0B585B004462C2285
:1046100001A8FFF76BFF019D029E0023B5422360B6
:104620006360A3602BD055F8040B00211FF0A0F9A4
:104630006368A2688DED000A93421BD01A1D0BB16E
:1046400083ED000A6260AE42EDD10198029E86427F
:104650000AD0114F054655F8043BA3F10C00B842AF
:104660000FD1AE42F7D1019808B1FEF789F9204683
:1046700005B0F0BD20466946FFF764FEE3E7284633
:10468000F2E753F8042C511E002A43F8041CE8DC1E
:1046900069461AF013FEE4E794050020F0B585B0F2
:1046A0000446174601A82C22FFF720FF019D029E19
:1046B0000023B54223606360A3602AD0002155F82F
:1046C000040B3A461FF0F0F96368A16800908B4232
:1046D0001AD0191D03B118606160AE42EED1019885
:1046E000029E86420AD0114F054655F8043BA3F1BD
:1046F0000C00B8420FD1AE42F7D1019808B1FEF7D5
:104700003FF9204605B0F0BD20466946FFF74CFE54
:10471000E3E72846F2E753F8042C511E002A43F839
:10472000041CE8DC69461AF0C9FDE4E794050020A2
:1047300002299ABF00EB810191ED000A9FED010A69
:10474000704700BF0000C07F90ED015AD1ED007AA4
:10475000D1ED025A90ED027A91ED016AD0ED006A36
:1047600027EEC51A26EE470A66EEE50AA5EE250AEB
:1047700088B0A6EE261AE7EE270A08B0704700BFF9
:1047800090ED010AD1ED015A90ED006AD1ED006A79
:1047900090ED027AD1ED027A20EE250AA6EE260AE5
:1047A000A7EE270A704700BF90ED010A90ED007A4E
:1047B000D0ED027A20EE000AA7EE070AA7EEA70ABC
:1047C000704700BFD0ED010AD1ED016A90ED021AE9
:1047D00091ED027A90ED000AD1ED007A70EEE60AD2
:1047E00031EE471A30EE670A88B008B0704700BF54
:1047F000D0ED010A90ED021AD0ED007A60EE200AA9
:1048000020EE011A27EE800A88B008B0704700BF7A
:10481000014819F011B900BF3003002008B5032189
:10482000FEF76EF90248BDE8084019F005B900BF6F
:104830003003002008B5074B1B6893F8A830DB074E
:1048400003D505480021FCF7DBFB044819F0FCF810
:1048500000BE08BDC8020020AC02002030030020CA
:1048600010B5034B03600446FEF734F9204610BD33
:1048700060BC020810B5054B03600446FEF72AF938
:104880002046FEF77DF8204610BD00BF60BC020840
:1048900070B5054682B0214C1646FEF72BF9204B29
:1048A00020492B604FF4C0727F2384E80E00E36040
:1048B000EEB91D4B01961A6C42F400621A641B6C2F
:1048C00003F40063019320464FF40073019A2361BF
:1048D00019F09EF8204619F0AFF8144A144B92686C
:1048E00014491164284601221A6002B070BD0022EA
:1048F0000D4B0192196C226141F400621A641B6C29
:1049000003F4006301932046019B19F081F82046CF
:1049100019F092F8284602B070BD00BF30030020A5
:1049200060BC0208002C00400038024000ED00E0AE
:1049300000E100E0354800082DE9F04F044600256D
:1049400083B0A5746574E574FF2100F8015B102243
:104950001DF0A6FD1A4A0195D2F8449019491A4B48
:10496000DFF87480DFF874C0184F194E194849F405
:104970008079C2F84490526C02F480720192019ADC
:104980004A686FF0784A42F4403B6FF0404940F289
:104990000142C1F804B0C3F80CA0C3F81090C3F8EA
:1049A00004809A60DCF808204FF48023C2F8880065
:1049B00020463B60A561346003B0BDE8F08F00BFC6
:1049C00000380240002301400020014000E100E0E7
:1049D00044030020394A00082001000400ED00E0F3
:1049E00038B5144BD96C1A689206044615D48369FD
:1049F000C07C23B1626901258540154215D1013083
:104A0000637CC0B28342E07406D80A4B1968002266
:104A100021F010011960E27438BD1968002221F0FC
:104A200032011960C27400BE38BD89B29847E07C7B
:104A3000E5E700BF00200140014B1868FFF7D0BF39
:104A40004403002081617047F8B542680368D31AB7
:104A50009B1004460F4605D05A00934226D96FF0AA
:104A6000030600E0042630461AF0D8F8054694E81C
:104A700009001B1A9B109A003968AF1807D045F837
:104A8000231094E809001B1A9B109A00AF1823B159
:104A9000014628461DF0E9FC2068043708B1FDF7FF
:104AA0006FFF2E44A66084E8A000F8BDB2F1804FED
:104AB000D5D2DE00D7E700BF4FF0FF30704700BF10
:104AC000704700BF014B0360704700BF98BC0208ED
:104AD00010B5034B03600446FDF752FF204610BD9E
:104AE00098BC02088088431A58425841704700BF5A
:104AF00010B583680C4A0D4901600446A3F10C000F
:104B0000904282B004D10A4B2360204602B010BD0F
:104B100053F8042C511E002A43F8041CF3DC01A9AD
:104B20001AF0CCFBEFE700BF94050020C0BC0208E0
:104B300038B6020810B583680D4A0E490160044674
:104B4000A3F10C00904282B007D10B4B23602046AA
:104B5000FDF716FF204602B010BD53F8042C511E7D
:104B6000002A43F8041CF0DC01A91AF0A7FBECE7CB
:104B700094050020C0BC020838B6020870B584B0A5
:104B800000F10801044602A81AF0A5FD02A903A835
:104B90001AF0A1FD03A8FFF7E9F9039B134DA3F158
:104BA0000C02AA4206460AD10EB101232373029BCE
:104BB000A3F10C00A8420ED1207B04B070BD53F8C5
:104BC000041C481E002943F8040CEDDC104601A922
:104BD0001AF074FBE8E753F8042C511E002A43F83E
:104BE000041CE9DC03A91AF069FBE5E79405002041
:104BF00038B50446084B0948A360206010460D46AE
:104C0000FEF7E6FF2946A08004F108001AF06FFDC8
:104C100000232373204638BDA0050020C0BC020835
:104C2000F0B5A3B007460E46144601A81A468321E4
:104C30001D461CF0F9FE30B31DF0F3FF22AB184403
:104C400010F8853C0A2B07D08CB928461CF070FE62
:104C50000A2801D00130F8D101A81DF0E2FF01A916
:104C6000024630461AF0D6FB012023B0F0BD01A861
:104C700023211DF0A4FF0028E7D12146BA6803488C
:104C80001DF0C0FCE1E723B0F0BD00BFE0BC0208AE
:104C900030B50B7B83B00D46044673B90846FFF769
:104CA0006DFF50B909481DF061FD2046084901AA71
:104CB0001AF09EFD204603B030BD05F108012046E4
:104CC0001AF009FD204603B030BD00BF00BD020848
:104CD0001CBF02082DE9F043037B8BB005468846D4
:104CE0009146002B76D008A84146FEF79BFF07A807
:104CF0002946FFF7CDFF07987D497E4E1CF0A2FFA5
:104D0000079B0446A3F10C00B04240F0E480A38965
:104D10009A062BD4784F05A9204604971CF01AFE5A
:104D200004A9284600222346FFF77AFF06A9002897
:104D300059D020461CF00EFE2B6807A8D3F81CC0E3
:104D400004AA08AB2946E0470798034653F80C2D00
:104D5000B34240F09880002A55D1049BA3F10C0087
:104D6000B04240F0A080A3899B06D4D520461CF019
:104D7000C7FC07A82946FFF78BFF07985F491CF07F
:104D800061FF079B0446A3F10C00B04240F09780FE
:104D900021460A201CF084FF2146D8F800001CF0B0
:104DA000DDFF23460922012155481DF08DFA2146D9
:104DB000D9F800001CF0D2FF2346012111225148EE
:104DC0001DF082FA20461CF09BFC012420460BB00B
:104DD000BDE8F083FFF7D2FE0446002883D12046C9
:104DE0000BB0BDE8F083049BA3F10C00B042BDD032
:104DF00053F8042C511E002A43F8041CB6DC07A902
:104E00001AF05CFAB2E7D8F80020D9F8003052F86E
:104E10000C0C059953F80C2C069B02445B1A0332C8
:104E2000043B9342204612D21CF06AFC0024049BEF
:104E3000A3F10C00B042C9D053F8042C511E002A33
:104E400043F8041CC2DC07A91AF038FABEE70022B6
:104E50001DF0A4F82146D8F800001CF07FFF214681
:104E600020201CF01DFF2146D9F800001CF076FF21
:104E700023460121022224481DF026FA20461CF078
:104E80003FFC0124D3E750F8041C01F1FF3E002948
:104E900040F804EC3FF75FAF184603A901921AF0FF
:104EA0000DFA019A57E753F8042C511E002A43F8D3
:104EB000041C3FF758AF07A91AF000FA53E753F85C
:104EC000042C511E002A43F8041C3FF761AF06A9C9
:104ED0001AF0F4F95CE753F8042C511E002A43F849
:104EE000041C3FF714AF06A91AF0E8F90FE700BF5A
:104EF00020BD020894050020A0050020ECB40208A3
:104F000028BD020834BD020824BD02082DE9F0477F
:104F10000C4684B09146434903AA05461AF068FC42
:104F2000237B002B48D003A82146FFF7B1FE03984E
:104F30003D493E4E1CF086FE039B8046A3F10C00CB
:104F4000B04263D1B8F80C309A062ED4DFF8E0A056
:104F500019E0276803A8FF69B847284603A91AF093
:104F600098F80399A1F10C00B0422ED12B6853F8A8
:104F70000C3CABB9029BA3F10C00B04230D1B8F8A5
:104F80000C309B0611D402A9002243462046CDF8DE
:104F900008A0FFF745FE02AA4B4621460028D8D1BB
:104FA000029BA3F10C00B04225D140461CF0A8FBA7
:104FB000284604B0BDE8F0872046FFF7DFFD002853
:104FC000B1D1284604B0BDE8F08751F8043C5A1E20
:104FD000002B41F8042CC9DC01A91AF06FF9C5E7D0
:104FE00053F8042C511E002A43F8041CC7DC03A903
:104FF0001AF064F9C3E753F8042C511E002A43F851
:10500000041CD2DC03A91AF059F9CEE753F8042C9A
:10501000511E002A43F8041C94DC02A91AF04EF930
:1050200090E700BF1CBF020844EB02089405002073
:10503000A0050020F8B50446084615460E461DF0AA
:10504000F0FD0A4B23602B6853F80C1C07463944CB
:1050500020461AF084FA31463A4620461AF0C8FA39
:10506000204629461AF09BFA2046F8BDA0050020EC
:105070002DE9F04F89B093460546894607A81146A9
:1050800005AA1AF0B5FB07A8FEF770FF079BDFF82B
:10509000F882A3F10C024245044640F0378114B96E
:1050A00009B0BDE8F08F5846B149DFF8E0A21CF026
:1050B000C9FD0126074605E0049BA3F10C0040450D
:1050C00040F03181BB899B0600F1038108AC324678
:1050D00044F810AD284621463B460136FFF7A0FDB7
:1050E000002800F0E7802B6821469B6928464A4645
:1050F00098470028E0D082894AF6E6139A42DBD12D
:1051000007AA016805A81AF073FB4846FBF7ECFBF9
:1051100005A907A81AF0DFFA07A8FEF727FF079BE3
:10512000A3F10C024245044640F01581002C40F0EA
:105130008480059B53F8042C002A03DB05A81AF091
:1051400023F9059B1B782F2B0ED007A8894905AAA8
:10515000FFF770FF05A807A919F09BFF079BA3F1B4
:105160000C00404540F03C8106AC594607AA204659
:105170001AF03EFB2F214FF0FF32204619F0CAFFF4
:1051800021460346002207A81AF0EEFA204607A996
:1051900019F07FFF079BA3F10C00404540F0CF8042
:1051A000214607A81AF097FA05A907A81AF0F7F9F7
:1051B00007A8FEF7DBFE079BA3F10C0242458446DD
:1051C00040F02881BCF1000F16D105AA07A86A4952
:1051D000FFF730FF07A8FEF7C9FE079BA3F10C02FB
:1051E0004245044640F0E38007A8002C7CD0624989
:1051F00005AAFFF71FFF07E0214607A81AF06BFA80
:1052000007A805A91AF0CBF905A807A919F041FFCD
:10521000079BA3F10C00404540F0D680069BA3F10C
:105220000C00404509D053F8042C511E002A43F8C5
:10523000041C02DC07A91AF041F805A907A81AF016
:105240004AFA07A8FEF792FE079BA3F10C0242451B
:10525000044640F0D280002C41D0059947481DF00B
:10526000D1F907A938461CF075FB414905983A4623
:105270001CF084FE28464946059AFFF7F9FE3C4992
:1052800058463A461CF07AFE384607A91CF02CFF17
:10529000059BA3F10C0040453FF40EAF53F8042CDE
:1052A000511E002A43F8041C3FF706AF07A91AF065
:1052B00005F801E7049BA3F10C00404509D053F821
:1052C000042C511E002A43F8041C02DC07A919F023
:1052D000F5FF38461CF014FA09B0BDE8F08F0599C7
:1052E00027481DF08FF9D3E705AA2649FFF7A2FE4C
:1052F00007A8FEF73BFE079BA3F10C0242450446BC
:1053000046D1002C8AD007A81E4971E753F8041C27
:10531000481E002943F8040C3FF7C1AE104606A909
:1053200019F0CCFFBBE653F8042C511E002A43F8B9
:10533000041C3FF7C7AE07A919F0C0FFC2E653F837
:10534000042C511E002A43F8041C3FF729AF03A97F
:1053500019F0B4FF24E753F8041C481E002943F851
:10536000040C3FF7E3AE104606A919F0A7FFDDE6EF
:1053700044EB020820B9020848BD020854BD0208E7
:1053800070BD02084CBD020894050020A005002055
:1053900053F8041C481E002943F8040CB1DC1046E5
:1053A00003A919F08BFF002C3FF438AFABE753F89B
:1053B000041C481E002943F8040C3FF715AF1046A3
:1053C00003A919F07BFF0FE753F8042C511E002AA4
:1053D00043F8041C3FF722AF03A919F06FFF1DE744
:1053E00053F8042C511E002A43F8041C06AC3FF766
:1053F000BCAE214619F062FFB7E653F8041C481E04
:10540000002943F8040C3FF726AF104606A919F00F
:1054100055FF20E753F8041C481E002943F8040CEC
:105420003FF7D0AE104603A9CDF804C019F046FFEF
:10543000DDF804C0BCF1000F3FF4C7AEDCE600BFEE
:1054400030B5037B83B004460D4683B101A82146E5
:10545000FFF71EFC2046019A2946FFF709FE019B33
:105460000B4AA3F10C00904207D103B030BDFFF707
:1054700085FB0028EAD103B030BD53F8042C511E3F
:10548000002A43F8041CF0DC694619F017FFECE72A
:10549000940500208088431A58425841704700BF45
:1054A00000207047014B0360704700BF38B6020808
:1054B00010B5034B03600446FDF762FA204610BDA9
:1054C00038B602082DE9F0410F46C5688168A94247
:1054D00082B006462AD2A942DFF86C8023D20B782C
:1054E0000A2B01F1010408BF012204D106E014F8DF
:1054F000013B0A2B01D0AC42F9D1621A6B4601A8DC
:105500001AF08BF9336830469B6901A93A469847EF
:10551000019BA3F10C0040450BD1F568AC4205D2CC
:105520002146A942DBD30C460022E7E702B0BDE8E2
:10553000F08153F8042C511E002A43F8041CECDCC3
:10554000694619F0BBFEE8E7940500202DE9F04715
:105550000F4684B03649924603AA80461AF048F9AD
:10556000B968FE68B14248D2B142DFF8C89032D281
:105570000B780A2B01F1010408BF012204D106E0D7
:1055800014F8015B0A2D01D0B442F9D1621A03ABC1
:1055900002A81AF042F93B6803A8DD693946534670
:1055A00002AAA847404603A919F073FD039BA3F183
:1055B0000C00484525D1D8F8003053F80C3C6BB9A5
:1055C000029BA3F10C00484526D1FE68B44214D2D8
:1055D0002146B142CCD30C460022D8E7029BA3F16E
:1055E0000C00484509D053F8042C511E002A43F8FA
:1055F000041C02DC03A919F061FE404604B0BDE8BA
:10560000F08753F8042C511E002A43F8041CD2DC06
:1056100001A919F053FECEE753F8042C511E002ABD
:1056200043F8041CD1DC03A919F048FECDE700BF04
:105630001CBF02089405002010B5064B0360044609
:105640000846FEF7C5FA044A044BA080A260E36056
:10565000204610BDA8BD02084C730208A4B402087D
:1056600010B504464068054B236008B11CF048F8AB
:105670000022034B62602360204610BDD0BD0208AB
:10568000D0BB020810B504464068074B236008B140
:105690001CF036F80022054B626020462360FDF7BF
:1056A0006FF9204610BD00BFD0BD0208D0BB020874
:1056B00070B544680D4654B108461DF0B2FA234651
:1056C000024601212846BDE870401CF0FDBD204681
:1056D00070BD00BF0121FDF713BA00BF10B583688C
:1056E0000C4A0D4901600446A3F10C00904282B0BF
:1056F00005D12046FDF7EEF9204602B010BD53F863
:10570000042C511E002A43F8041CF2DC01A919F0F4
:10571000D5FDEEE794050020A0C2020810B583680D
:105720000E4A0F4901600446A3F10C00904282B07A
:1057300008D12046FDF7CEF92046FDF721F9204695
:1057400002B010BD53F8042C511E002A43F8041C6B
:10575000EFDC01A919F0B2FDEBE700BF94050020D2
:10576000A0C202082DE9F04F9DB051F8043B7C4CDB
:105770000E9305460FA819F0AEFF0FA90AA819F05D
:10578000AAFF216891F8A830DA0918D198077ED5C8
:10579000DFF8F0B191F8A8300A9E43F0800381F859
:1057A000A830A6F10C00584540F0CE800F9BA3F125
:1057B0000C00584540F073861DB0BDE8F08F0A9E7E
:1057C00056F80C3C002B59D056F8043C002B03DB58
:1057D0000AA819F0D9FD0A9E3778242F00F0B1806D
:1057E00038461CF0B1FD8046002840F0AA80472FC3
:1057F00073D04D2F71D0542F6FD0532F6DD04E2FAB
:1058000000F026823B2F00F09580282F00F0928038
:105810000A2F00F08F800D2F00F08C800AA85149CC
:105820000022042319F08CFCB8B1202F13D00E985D
:105830004D4903689B6898470A9BDFF848B1A3F17C
:105840000C005845B2D053F8042C511E002A43F8DE
:10585000041CABDC80E00130E9D00621434A2B7DFB
:1058600016A81DF0E7F816A81DF0DBF916AA0346E6
:1058700000210AA819F006FE0A9EA5E70E983C49E9
:105880000368DFF800B19B6898470A9E89E73431C6
:1058900010A819F020FF0E9D21682B68DFF8E4B0F6
:1058A0009F6816AE3431304619F015FF284631494D
:1058B000169AB847169BA3F10C00584540F0408655
:1058C000206807210022FCF76BF9109BA3F10C0064
:1058D000584540F0FF8621685CE76B684FF0000890
:1058E00003F1010902230AA82349002219F028FC28
:1058F000431C11D003460AA9002216A819F034FF50
:105900000AA816A919F0C5FB169BDFF878B0A3F119
:105910000C00584540F0EB866A680132B8F1000F80
:1059200001D1914530D00E98144903689B6898477F
:105930000A9B82E70E98124903689B6898470A9B66
:105940007BE7DFF840B02CE756F8043C5A1E002BEA
:1059500046F8042C3FF72AAF16A919F0AFFC25E74B
:10596000C802002078C2020880C2020890C2020861
:1059700074BF020858BE0208B4BE02086CC2020816
:10598000B0EA0208940500204E2F4FF00003DFF824
:10599000B08208BFC5F8049007930A9B53F80C2CFB
:1059A000002A3FF44AAF022213460AA89A49DFF8B8
:1059B00094A219F0C5FB461C0746CDF82CA000F0B8
:1059C000458216AE3B460AA9002230460DF12C094D
:1059D00019F0CAFE4846314619F05BFB169BAAF146
:1059E0000C0BA3F10C00584540F0B4860A9B53F809
:1059F0000C3C9F4200F2EE854FF0FF333A460AA975
:105A0000304619F0B1FE0AA8314619F042FB169B48
:105A1000A3F10C00584540F0D0856B7DD80704D524
:105A20002A690E9B9A4200F04A84182019F0F6F871
:105A3000494601230E9A074606F024FA20683E7A6A
:105A400090F8A830990729D5B207396804D540F2F3
:105A5000E733994200F04785704B53F8042F914289
:105A60001CD04345F9D190F8A8305B0740F134854C
:105A70000E986B4903689B6898472FB1384606F02B
:105A8000F9F83846FCF77CFFDFF8BCB10B9BA3F1BB
:105A90000C00584540F084850A9E82E6730709D5BC
:105AA0007B68352B00F0FA81012B00F0A582032BD7
:105AB00040F206823B7A98076FD53B68752B00F061
:105AC000BD8300F23B811E2B00F0888300F2FA8137
:105AD000022B00F09E821C2B5FD12FB1384606F0BE
