:020000040800F2
:1000000000800120F15E02083D5F02083D5F0208AA
:100010003D5F02083D5F02083D5F020800000000EE
:100020000000000000000000000000003D5F02082A
:100030003D5F020800000000953C00083D5F02089B
:10004000755300083D5F02083D5F02083D5F0208EE
:100050003D5F02083D5F02083D5F02083D5F020808
:100060003D5F02083D5F02083D5F02083D5F0208F8
:100070003D5F02083D5F02083D5F02083D5F0208E8
:100080003D5F02083D5F02083D5F02083D5F0208D8
:100090003D5F02083D5F02083D5F02083D5F0208C8
:1000A0003D5F02083D5F02083D5F02083D5F0208B8
:1000B000C19A01083D5F02083D5F02083D5F0208EA
:1000C0003D5F02083D5F02083D5F02083D5F020898
:1000D0003D5F02083D5F02083D5F02083D5F020888
:1000E0003D5F02083D5F02083D5F02083D5F020878
:1000F0003D5F0208D93E00083D5F02083D5F0208EF
:100100003D5F02083D5F0208559A01083D5F020805
:100110003D5F02083D5F02086D3900081542000886
:100120003D5F02083D5F02083D5F02083D5F020837
:100130003D5F02083D5F02083D5F02083D5F020827
:100140003D5F02083D5F02083D5F02083D5F020817
:100150003D5F02083D5F02083D5F02083D5F020807
:100160003D5F02083D5F02083D5F02083D5F0208F7
:100170003D5F02083D5F02083D5F0208000000008D
:100180003D5F02083D5F02080348044B834202D0F2
:10019000034B03B118477047B4030020B403002099
:1001A000000000000548064B1B1AD90F01EBA30104
:1001B000491002D0034B03B118477047B403002025
:1001C000B40300200000000010B5064C237843B9AA
:1001D000FFF7DAFF044B13B10448AFF300800123AB
:1001E000237010BDB803002000000000F8AC030825
:1001F00008B5054B1BB105490548AFF30080BDE8C4
:100200000840FFF7CFBF00BF00000000BC03002084
:10021000F8AC030830B56948694D83B001F07CF94A
:100220000021664801F0CAF9664801F075F900211D
:10023000644801F0C3F9D42026F0B2FE044601F070
:10024000EBFEA421286802F045FE01901CF098F80E
:100250000199204601F0F6FD0821286802F03AFED7
:10026000019019F065F90199204601F0EBFD142188
:10027000286802F02FFE01901AF04EFB01992046EB
:1002800001F0E0FD4FF4C761286802F023FE019001
:1002900019F04CFC0199204601F0D4FD102128688A
:1002A00002F018FE01901DF02FFA0199204601F08E
:1002B000C9FD012026F074FE019014F057F9019851
:1002C00008B102F01FFF012026F06AFE019016F02F
:1002D0005DFF019808B102F015FF4421286802F083
:1002E000F9FD019010F0CCF80199204601F0AAFD2B
:1002F0001821286802F0EEFD054618F063F829463B
:10030000204601F09FFD282026F04AFE00210546E8
:100310001AF0BEFC2946204601F094FD00231A463F
:100320004DF2BD11606900F001FBB2EE040A01F06C
:100330003BF801F07DF8DFED247AB4EEE70AF1EE48
:1003400010FA1EDC6068214903689B689847606961
:1003500000F0D8FA94F8D030DB072AD41C4C23687C
:10036000DA68986992F89C1108F07AFB2368986A19
:1003700003F022FD2368586A03B0BDE8304003F063
:1003800091BA04208DED010A26F00AFE9DED010AC6
:10039000DFED107A20EE270A0546FCEEC07A002237
:1003A00017EE901A05F01AF82946204601F04AFD8A
:1003B000CDE70121014801F001F9CFE7D403002086
:1003C00058040020D6030020CDCCCC3DC444030803
:1003D0000404002000247449F8B5FFF71BFF0E4CFD
:1003E0000127002623680D4893F8D020D207314614
:1003F000BDB205D501F0E2F823686F1CC5F30036E5
:1004000000221146184601F07DFD206800220321DC
:1004100001F078FDE6E700BF04040020D4030020CB
:1004200008B54C21044801F055F8BDE808400348E0
:100430004D2101F04FB800BFD4030020D6030020A7
:1004400000487047E444030800487047F444030838
:100450000F2816DC0B4B1A6802EB400CC1F30B01A2
:10046000BCF8043103EBC00001339BB2072B02EB55
:100470004002ACF8043188BF0023918088BFACF8FB
:1004800004317047D80300202DE9F0431646013AA5
:1004900002EBD272B1EB620F1C4606F0010955DA8D
:1004A00057108C466FF000480CF101034FEA430CE3
:1004B0000CEB080530F8232030F81550954200EB7E
:1004C0000C0E00EB830305D90CF1FF3C00EB4C0351
:1004D00030F81C202EF8022CBC45E5DBB9F1000FEA
:1004E0001ED00CF1FF3E0EEBDE7E8C454FEA6E0E09
:1004F00007DC12E0714520F81C50F44622DA4FEA7E
:10050000620E30F81E500EF1FF32AC4200EB4E0688
:1005100000EB4C0302EBD272ECD81C80BDE8F083F8
:10052000023EBCEB660FDCD10CF1010C00EB8C023F
:100530004FEA4C0C32F8022C1A800CF1FF3C00EB15
:100540004C03CEE733461C80BDE8F08300EB41034B
:10055000B9F1000FE1D1023EB1EB660FDDD18C465F
:10056000E2E700BF88422BD0F8B5851CA94223D012
:100570000F4606460CE0821BC2EBC2730233022A0E
:1005800018441ADD31462DF08DFABD42348013D067
:100590003188284635F8024B8C42ECD335F8042CD0
:1005A000944206D2831E5A80184633F8022D944294
:1005B000F9D3BD420480EBD1F8BD08BF0180E4E768
:1005C000704700BF0B1A202B7FDD2DE9F041174645
:1005D0004FEA630805460E469B10002F41D06888FD
:1005E00035F8132036F8021CB5F800C0904207F128
:1005F000FF3705F1020452D28A4258D388425DD2B5
:10060000298026F802CCB5F802C02888324601E0DD
:1006100034F802CF8445FBD332F802EC8645A2F1D0
:10062000020303D933F802ED8645FBD89C420AD277
:1006300021461A4621F802EBA3F800C0B4F802C024
:1006400028880C46E6E73A4631462046FFF7BAFFCF
:10065000631B202B21DD4FEA630826469B10002FE9
:10066000BDD1591E05EB430400E0013934F8023DC9
:1006700042462846FFF708FF0029F6D1731B022BDC
:100680000BDD36F8023D2A883280741B621000218F
:100690002846FFF7F9FE022CF3DCBDE8F081884222
:1006A00003D22880A5F802C0B0E78A42A8D32A80E6
:1006B00025F813C0B5F802C02888A7E7002360F327
:1006C0000F036CF31F432B60A0E7704738B5094B4D
:1006D00004461C201C6026F063FC082205464FF4EB
:1006E0007A7104F009FF28460349256005F04CF8AB
:1006F000204638BDD80300205104000830B50B4611
:1007000083B009790446587923F0E0FC1649054680
:1007100025F076FB013014BF29464FF0FF312068E9
:100720000191012204F042FF0F28019901D903B081
:1007300030BD02010432002304EB020CA35004EB91
:100740004000CCF80430CCF80830CCF80C30012252
:10075000A0F80431206804F0FBFF2068012103B0F9
:10076000BDE8304004F074BF9CA1030830B50B46CF
:1007700085B004460979587923F0A8FC1749054645
:1007800025F03EFB013018BF2946206808BF4FF016
:10079000FF3104F0FBFE72B600010430231820582C
:1007A00059689A68DB68EC46ACE80F0062B606222E
:1007B00061466846FFF706FF04A96846FFF7D2FEC8
:1007C000BDF80620BDF80410BDF80830BDF80A00D9
:1007D0000A4413441844800805B030BD9CA10308A6
:1007E00001207047002070470120704738B54068ED
:1007F0000D460B492BF0ACFB044670B128462DF09A
:1008000015FB23460246012128462CF0A3FE05468F
:1008100020462AF011FF284638BD0546284638BD37
:100820000C45030810B50446406823F053FB2046EE
:1008300010BD00BF10B50446406823F04BFB2046B6
:1008400002F060FC204610BDF8B5046900F108070D
:10085000BC4211D00E4600252069036831465B6911
:1008600098478542B8BF0546204626F002FCB842AC
:100870000446F1D12846F8BD00252846F8BD00BF42
:100880000346024653F8080B984208D000B583B0DF
:10089000019202F037FC019A104603B000BD1046E9
:1008A000704700BF0B460068114647F2693200F0FE
:1008B00087BA00BF70B5046882B005460E462CB1F9
:1008C000204600F041FA204602F01CFC00232B6079
:1008D0000C2026F065FB019000F00EFA01992960CA
:1008E0001EB1D5E90146A64202D102B070BD296809
:1008F00054F8040B03689B689847B442F7D102B0E0
:1009000070BD00BF036873B100B583B00190184695
:10091000009300F019FA009802F0F4FB019A00230A
:10092000136003B000BD00230360704770B5046816
:1009300082B0ADF80010ADF80220ADF8043044B13B
:100940002046694600F024FA0446F0B1204602B081
:1009500070BD134B134A1B68586803685B69934268
:100960001AD1056900F108039D421E46EED02869A0
:100970000D4903685B699847284626F07AFB864252
:100980000546F4D1204602B070BD0848074C00F07F
:1009900087FC204602B070BD03499847D6E700BFE8
:1009A000040400204908000810450308DC03002067
:1009B00070B5046834B1204600F0EAF90446E0B1AD
:1009C000204670BD114B124A1B68586803685B696A
:1009D000934218D1056900F108039D421E46EFD0ED
:1009E00028690C4903685B699847284626F041FB53
:1009F00086420546F4D1204670BD074C064800F0FB
:100A00004FFC204670BD03499847D9E704040020F5
:100A10004908000810450308DC030020D0E9012341
:100A20009A4204D00B6842F8043B4260704770B5AC
:100A300003686FF0604CD21ABCEBA20F064682B07E
:100A40001C464FEAA20028D001282CBF0018013014
:100A5000604528BF604685008000CDE9002126F072
:100A60009FFA0199009A0968815003462AB12146EC
:100A700001902DF0CDF9DDE9002304321A4420461F
:100A80002CB1CDE9002302F03DFBDDE9002358192C
:100A9000C6E90032B06002B070BD014826F030FCFB
:100AA0004C4503082DE9F043002789B00546C0E90D
:100AB0000077C0E90277102026F072FA7E4E7F4957
:100AC000044605F051FD02A9281D0294FFF7A6FF78
:100AD00096E80F0004ACA4460294ACE807004FF07F
:100AE0000D0E8CF8003002A8CDF80CE08DF81D70CA
:100AF00003F03EFE81460298A04201D002F002FBC4
:100B0000B9F1000F00F08E80242026F049FA074644
:100B100096E80F00A4460294ACE807004FF00D09D8
:100B20004FF0000E8CF80030CDF80C908DF81DE0E1
:100B3000634A02A9384604F07FFE0298A04201D021
:100B400002F0E0FA27B102A9281D0297FFF766FF1D
:100B50005C4E029496E80700234603C34FF00A0C4C
:100B60001A80002702A88DF81A70CDF80CC003F087
:100B7000FFFD07460298A04201D002F0C3FA2FB34E
:100B8000242026F00DFA074696E807002346029433
:100B900003C34FF00A0E4FF0000C1A80CDF80CE0A2
:100BA0008DF81AC0484A02A9384604F045FE02985A
:100BB000A04201D002F0A6FA27B102A9281D02978F
:100BC000FFF72CFF284609B0BDE8F083DFF800915D
:100BD000029499E80F00264607C64FF00E0C3380AA
:100BE00002A8CDF80CC08DF81E7003F0C1FD0646BA
:100BF0000298A04201D002F085FA002EE2D0242013
:100C000026F0CEF9074699E80F002646029407C65B
:100C10004FF00E0E4FF0000C3380CDF80CE08DF845
:100C20001EC0BFE711234A4601A902A801930294FE
:100C300026F08EFB254E019B0290049307460FCEB3
:100C4000FB60337838607960BA603B74019B029A2C
:100C5000039302A802F8039003F08AFD0646029867
:100C6000A04201D002F04EFA002E3FF471AF2420D2
:100C700026F096F9112301A90022074602A8019344
:100C8000029426F065FB114E019B0290049384466A
:100C90000FCECCF80C303378CCF80000CCF8041030
:100CA000CCF808208CF81030019B029A03934FF087
:100CB000000E02F803E03BE77045030868450308AF
:100CC000804503089C450308A84503088845030898
:100CD000AC45030808B5054800F0CAFABDE808406D
:100CE000034A0449014826F043B900BFDC03002051
:100CF00088010020810800080023C0E900338360D8
:100D0000704700BFF8B5074600687E68864210D07D
:100D1000044654F8045B2B4645B153F8080B98423F
:100D200001D002F0EFF9284602F0ECF9A642F0D12A
:100D300038680023C7E90033BB6018B1BDE8F8404C
:100D400002F0E0B9F8BD00BF10B50446FFF7DAFFC6
:100D5000206808B102F0D6F9204610BD436853F868
:100D6000042D436082B1134653F8080B98420CD00F
:100D700000B583B0019202F0C5F9019A104603B0A4
:100D80005DF804EB02F0BEB97047104602F0BAB944
:100D9000F8B5D0E90047A7420FD00E4602E0043470
:100DA000A7420AD02568062205F1200130462CF022
:100DB00069FE0028F3D12846F8BD00252846F8BD75
:100DC0002DE9F047D0E900C5654584B019D01F462C
:100DD00014460E46634602E004339D4211D01A6861
:100DE000908CA042F8D1118CB142F5D1D7E9011015
:100DF000814209D0528C21F8022B04339D42796044
:100E0000EDD104B0BDE8F0873868091A81466FF06B
:100E10004040B0EB610F01914FEA610C2FD0BCF163
:100E2000010F2CBF0CEB0C010CF10101814228BF1A
:100E300001464800CDE902234FEA410A26F0B0F806
:100E4000029A019B528CC2521A468046039B22B1E1
:100E5000494602932CF0DCFF029B019A484602327D
:100E6000424428B1CDE9012302F04CF9DDE9012328
:100E70007A6008EB0A02C7F80080BA60ACE7014864
:100E800026F03EFA4C4503082DE9F04FD0E9006BFF
:100E9000B3458BB025D08846012756F8044BA3698B
:100EA000B4F820A00893E069D8F8009026F092FEEC
:100EB000CDE9060194F82710049194F826100391C7
:100EC00021680291A18C0191618C00913A46D9F878
:100ED0000840054953464046A0475E4507F10107D3
:100EE000DBD10BB0BDE8F08FBC450308F0B5D0E90D
:100EF00000746FF06043E41BB3EBA40F83B026D003
:100F00000646A01001282CBF00180130984228BFC7
:100F1000184685002846019126F042F801990A6892
:100F2000025103462CB12246394601902CF070FF45
:100F3000019B04341C4427B13846019302F0E2F8C7
:100F4000019B1D44C6E90034B56003B0F0BD014803
:100F500026F0D6F94C4503082DE9F043D0E90046C8
:100F600083B0A6428046019122D0894601F1200734
:100F700002E00434A6421BD02568062205F12001B8
:100F800038462CF07FFD0028F3D14DB12B4653F8A5
:100F9000080B984201D002F0B5F8284602F0B2F8EA
:100FA0000C48C4F800902CF0CDFC03B0BDE8F083F1
:100FB000D8F808309E4207D0019B46F8043BC8F899
:100FC000046003B0BDE8F08301A94046FFF78EFF3F
:100FD000EBE700BF18460308F0B50B681B78232B1E
:100FE00093B000F09A804B68022B40F296800C463A
:100FF000022378490022204626F017FC431C0746AE
:1010000000F08B8023681B5C232B00F08680024657
:1010100070490223204626F0D6FB461C054600F008
:10102000C3806C4902460223204626F0FEFB06469A
:10103000701C21686ED08B5D232B6BD0EA1B65681A
:10104000AF4200F2BC80ED1B954228BF154608ABAD
:101050000F2D06930C9501EB07037DD8012D60D170
:10106000CB5D8DF8203008AA002306A9079504A8B7
:10107000535503F0BFF9282025F092FF054600F0F4
:10108000F7F8012385F82630049B2B62BDF8143055
:10109000AB84721C05235049204626F094FB421C69
:1010A000636800D0801B9E4200F28F8022689C1BE8
:1010B000844228BF04460EAF0F2C03940C9702EB1A
:1010C000060338D8012C31D0002C72D13A460023C7
:1010D0000D9413552B46DDE90C1253F8080B98427A
:1010E0004BD0B94253D00E9BAB60C5E9001200282B
:1010F00049D00C90002303700C98B84201D002F044
:1011000001F8069808AB984208D001F0FBFF28468A
:1011100013B0F0BD31482CF079FB0025284613B000
:10112000F0BD08AA002D9FD008A81FE0935D8DF8A0
:1011300038303A46CBE700220CA803A9019326F0E9
:1011400007F9039A019B0C900E92224619462CF047
:101150005FFE039C0C9ABAE700220CA906A8019333
:1011600026F0F6F80C9A019B069008922A4619463A
:101170002CF04EFE0C9D069A76E7B94207D00E9BE6
:101180002960C5E901230C970EAF3846B2E732B1AA
:10119000012A10D039462CF03BFE0D9A28686A606F
:1011A000002383540C98A5E721680D482CF02EFBF2
:1011B000B3E73846C9E79DF838300370EDE70949D1
:1011C00009482B463A4626F0A1F806490648324619
:1011D00026F09CF840460308D8460308E04603087A
:1011E0004446030888460308A046030810B582B0A9
:1011F0001446FFF7F1FE014620B101902046FFF7AB
:10120000ABFE0199084602B010BD00BF10B5044600
:10121000084604F1080182B021600021616021725A
:1012200011460193FFF7D8FE88B1019B01461A8849
:10123000008C90420ED00B4653F8080B984203D016
:10124000019101F05FFF0199084601F05BFF204624
:1012500002B010BD488C5A889042ECD18A8C9B8891
:101260009A42E8D12046019126F0F7F80199E2E789
:1012700010B582B0002200F108030021C0E9082265
:101280000360426002728261C161044B00921146A8
:10129000044626F0E5F9204602B010BD547003085C
:1012A00000B583B000210022C0E908118161C2614C
:1012B000034B4268009126F0D3F903B000BD00BF94
:1012C0005470030890F826206AB900B5064A074909
:1012D000126883B001905068026892689047019B41
:1012E000184603B000BD7047040400200C470308F3
:1012F00010B500F1080C84B0C0F800C00A68496855
:1013000003910F290346144614D84A1C51B12146B3
:10131000604601932CF07CFD019B039A5A601846AD
:1013200004B010BD22788CF80020039A5A60184649
:1013300004B010BD002203A9019026F009F803991A
:10134000019B8446186099604A1C0029EAD0002A53
:10135000DDD14FF0FF3218465A6004B010BD00BF17
:1013600008B590F8263013B990F8273043B90749EB
:101370000323002226F027FA013018BF012008BD00
:101380008069003818BF012008BD00BF6847030806
:1013900007EE901AF8EEE77A012380F82730816192
:1013A000C0ED077A704700BF012380F8273080ED39
:1013B000070A704790F8262002B1704700B5012255
:1013C00083B080F82720019026F047F8019B18464B
:1013D00003B000BD10B582B00F2A019203460C463F
:1013E00012D80068511C4AB10A46214600932CF0DD
:1013F0000FFDDDE900325A6002B010BD22780270A4
:10140000019A5A6002B010BD002201A9009025F097
:101410009FFFDDE9003218609A60511C002AEDD070
:101420000029E1D14FF0FF325A6002B010BD00BF79
:1014300030B590F8263093B0002B44D190F8274077
:10144000002C3CD10EABD0E90012059404460CA848
:101450000C930393FFF7BEFF06A80CA903F0E8F86E
:101460000C98039B984201D001F04CFE0698039023
:1014700005A92BF0A3FC059B039883420BD9069882
:1014800008AB984205D08DED030A01F03BFE9DEDBF
:10149000030A13B030BD0D4B618C1B68B4F824C037
:1014A0005868238C02688DED030ACDE9001C926810
:1014B000074915462268A8479DED030ADFE790ED2E
:1014C000070A13B030BD0024BCE700BF04040020AD
:1014D0006C47030810B50446C1F3031001F00F0177
:1014E0006170207022F004FD21780A4B627853F875
:1014F000213001205968904021EA00015960D968E3
:101500000320520000FA02F221EA0202DA602046C9
:1015100010BD00BF909003080178094B427853F842
:1015200021C05200DCF8003003209040012123EA62
:10153000000301FA02F21343CCF80030704700BFF9
:101540009090030800B5104B027890F801E053F832
:1015500022004FF0030C03684FEA4E020CFA02FC23
:1015600023EA0C034FF0010C0CFA02F21343036060
:1015700019B10CFA0EF3836100BD4FF4803303FA06
:101580000EF3836100BD00BF90900308044B027806
:10159000417853F8222001238B409361704700BFAC
:1015A00090900308044B0278417853F822204FF4BE
:1015B00080338B4093617047909003080278084B0A
:1015C000407853F8223021B1012282409A610846C6
:1015D00070474FF4803282409A610846704700BFDE
:1015E000909003080023C0E90033C0E9023370473C
:1015F00000286AD02DE9F04F074683B0D7F80C8059
:10160000B8F1000F58D0D8F80C90B9F1000F4BD0BA
:10161000D9F80CA0BAF1000F3ED0DAF80C40002C3B
:1016200032D0D4F80CB0BBF1000F27D0DBF80C603F
:10163000E6B1F568A5B1EB6863B1D8680193FFF72F
:10164000D7FF019B18469B68019301F05BFD019B4E
:10165000002BF2D12846AD6801F054FD002DEAD1EF
:101660003046B66801F04EFD002EE2D1DBF808509E
:10167000584601F047FD0DB1AB46D7E72046A468B8
:1016800001F040FD002CCCD1DAF80840504601F0C2
:1016900039FD0CB1A246C0E7D9F80840484601F030
:1016A00031FD0CB1A146B3E7D8F80840404601F03F
:1016B00029FD0CB1A046A6E73846BF6801F022FD1F
:1016C000002F9BD103B0BDE8F08F704738B5C468D8
:1016D000054644B1E068FFF78BFF2046A46801F09F
:1016E00011FD002CF6D1284638BD00BF38B5C468BE
:1016F000054644B1E068FFF77BFF2046A46801F08F
:1017000001FD002CF6D1284601F0FCFC284638BD2E
:101710002DE9F04F2DED028B0022EDB000F1080312
:10172000C0E90032027204460D460DF1270344F66B
:101730008A514FF44C4001F01FFF626808B98DF8E0
:101740002700AD4B9A4200F07483AC490122204639
:1017500025F0D6FF95F8D0309F0700F1E4829DF880
:101760002720002A40F0A8801E0740F1E882636825
:1017700003F100430533032B40F25B83A0490422AD
:10178000204625F0BDFFEB6893ED447AD3ED437A14
:1017900093ED428A93F834308DED147ADE07CDED67
:1017A000157A8DED168A40F1D381DFED9A6ACDED81
:1017B000077AC7EE267A4CAFCDED066A17EE900A8F
:1017C00026F008FADDED066ADDED077AC7EEA67AA7
:1017D000CDE9040117EE900A26F0FCF9DDED066A6A
:1017E000C8EE267ACDE9020117EE900A26F0F2F94A
:1017F000844ACDE90001802138462AF03DF863682B
:1018000003F10043802803F1070328BF8020052B44
:10181000814640F20E837C49774E0622204625F011
:101820006FFF4368F31A994500F2038339464A462D
:1018300025F066FFE96891F89C31032B40F2EC80BB
:101840009FED748A4FF0030924E0C7EE087A17EE83
:10185000900A26F0BFF90B460246CDE9002380210D
:101860006A4A38462AF008F8636880280246A6EBE0
:10187000030328BF80229A4200F2DB8239462046C9
:1018800025F03EFFE96891F89C3109F101094B45CB
:1018900040F3C2808B6891F8342053F82930D3ED9F
:1018A0000B7AD3ED086AF8EEE77AD00787EEA67ACE
:1018B000CBD417EE100ACCE7636803F1004305337D
:1018C000032B40F2B68252490422204625F018FF2D
:1018D0000DF13808E868414608F046F8E868C36941
:1018E0002CAE4BB1012333701430C368CDF8308176
:1018F00032464CA99847E86890F83430D8ED016A30
:1019000098ED008AD8ED027AD807F0EE668A00F1E9
:10191000508217EE900A26F05DF9CDE9040118EE29
:10192000900A26F057F9CDE9020118EE100A26F0C8
:1019300051F9344ACDE900018021304629F09CFF5D
:10194000636803F10043802803F1070328BF802068
:10195000052B814640F26D822B49274F06222046F7
:1019600025F0CEFE4368FB1A994500F262823146AB
:101970004A4625F0C5FEE96891F89C31032B40F2F8
:10198000FD809FED248A4FF0030922E0C6EE887A9D
:1019900017EE900A26F01EF91C4ACDE900018021BD
:1019A000304629F069FF636880280246A7EB0303ED
:1019B00028BF80229A4200F23C823146204625F020
:1019C0009FFEE96891F89C3109F101094B4540F30C
:1019D000D5808B6891F8342053F82930D3ED0B7AF9
:1019E00093ED087AF8EEE77AD107C7EE876ACDD48F
:1019F00016EE900ACEE700BFFEFFFF7F14480308F3
:101A0000284803083C48030850480308584803087E
:101A1000204803083333CB4114AA17A808F006FA6C
:101A2000EB68DDED186A93F834309DED198ADDED31
:101A3000177AD907F0EE668A09D51FED0A7AC6EE45
:101A4000876A88EE078AC7EE877AF0EE668A17EE15
:101A5000900A26F0BFF8CDE9040118EE900A26F0AE
:101A6000B9F8CDE9020118EE100A26F0B3F8C04A21
:101A7000CDE900018021384629F0FEFE636803F1BC
:101A80000043802803F1070328BF8020052B06466A
:101A900040F2CF810622B749204625F031FEB64BF1
:101AA00042689B1A9E4200F2C4813246394625F0B4
:101AB00027FEEE68304608F09BFFEB689FEDAF7A9B
:101AC000D3ED567AC7EE277AB0EE408A17EE900A29
:101AD00026F080F896F83430DA074AD5DFEDAE7A92
:101AE000C8EE277ACDE9020117EE900A26F072F8C7
:101AF000A34ACDE900018021384629F0BDFE616886
:101B00009D4B80280246A3EB010328BF80229A4206
:101B100000F28F813946204625F0F2FD95F8D0304D
:101B2000C3F380015B070A4640F1CB80636803F191
:101B300000430333012B40F27C819249022220466C
:101B400025F0DEFD20466DB0BDEC028BBDE8F08FC8
:101B500017EE100ACDED067A26F03CF8CDE9040127
:101B6000069826F037F84CAFCDE9020118EE100ABE
:101B70003CE6CDE9020118EE100AB7E7D8F80830C4
:101B80004C9311AFD8F804304D934CAAD8F80030DC
:101B90004E93384608F04AF9EB68DDED126A93F887
:101BA00034309DED138ADDED117ADA07F0EE668AA6
:101BB00000F1F48017EE900A26F00CF8CDE904014C
:101BC00018EE900A26F006F8CDE9020118EE100A88
:101BD00026F000F8664ACDE900018021304629F060
:101BE0004BFE636803F10043802803F1070328BF1D
:101BF0008020052B074640F21C8106225D492046C5
:101C000025F07EFD5C4B42689B1A9F4200F21181D9
:101C10003A46314625F074FDEF68AB69DFED5A7A3C
:101C200093ED088A97F83430DB0728EE278A48BFFF
:101C3000DFED597A384648BF88EE278A08F0D8FE8B
:101C4000EB689FED4E7AD3ED567AC7EE277AF0EE29
:101C5000408A17EE900A25F0BDFF824618EE100A62
:101C60008B4625F0B7FF97F834304BEC17ABDF0706
:101C70008DED047B8046894672D418EE900A25F0DB
:101C8000A9FF424ACDE90201CDE900898021304611
:101C900029F0F2FD6168384B80280246A3EB01036E
:101CA00028BF80229A4200F2C4803146204625F0A7
:101CB00027FD95F8D030C3F380015B070A463FF556
:101CC00035AF28ABCDE926310DF128088DF8A010ED
:101CD0000020C8F808100021CDE90A0143464BF264
:101CE000D3114AF6164001F047FCD8E90056002807
:101CF0006AD1B5420BD0286905F11803984201D08A
:101D000001F000FA2835B542F5D1D8F8006016B1D7
:101D1000304601F0F7F9269828AB98423FF406AF19
:101D200001F0F0F902E7636803F100430633042B86
:101D30007FD917490522204625F0E2FC23E5A86952
:101D400006F09EFE636803F10043002868D0053367
:101D5000032B6ED90F490422204625F0D1FC12E551
:101D6000DFED0D7AC8EEA77A17EE900A87E700BF7D
:101D70003C48030860480308FEFFFF7F0080BB4526
:101D800080480308A0480308000070426848030820
:101D900018480308304803083333CB411FED027A5B
:101DA000C6EE876A88EE078AC7EE877AF0EE668A03
:101DB00000E71FED077AC6EE876A88EE078AC7EE4E
:101DC000877AF0EE668AA4E5AE42A0D068682F69F3
:101DD00025F000FFCDE90201286825F0FBFE164A38
:101DE000CDE900013B4620211AA829F045FD636892
:101DF000C3F1FF4303F5FF03202803F5FF43024629
:101E000003F17E0328BF20229A4212D81AA9204645
:101E1000283525F075FCB542D8D1D8E9005668E7D9
:101E20000433022B05D905490322204625F068FC1E
:101E30004EE5034825F064FA904803083848030843
:101E4000FC4703080B6808469B6818472DE9F041DA
:101E500001EB41044FEA840C00EB8404D4E91A3509
:101E6000AB4284B005D043F8042BA36604B0BDE8B0
:101E7000F0810CF1640C904600EB0C0207460E4614
:101E800050F80C1050686FF0604C401ABCEBA00F7B
:101E90004FEAA00231D0012A2CBF921801326245CC
:101EA00028BF624690005A1ACDE90121054625F067
:101EB00077F8019A029940F80280002A034607DD6C
:101EC000CDE9022001912BF0A3FFDDE90223019966
:101ED00004321A4431B10846CDE9012301F012F968
:101EE000DDE9012306EB460107EB8100C4E9193265
:101EF0002B44C36604B0BDE8F081014825F000FA28
:101F00004C4503082DE9F04F072983B089468246E6
:101F1000904625D001EB41039B006433C218C3589F
:101F20005768BB4219D0012201929B46214B03EB1B
:101F3000C90253F839505668741006F001065BF870
:101F4000042B2B4610190EB113595B594146984783
:101F50005F45F4D1B9F1070F1ED003B0BDE8F08F93
:101F600090F8D030B2FA82F2520962F3410380F85D
:101F7000D030B8F1000F06D0DBB21A0744BF23F00F
:101F8000080380F8D030DAF8180006F079FDDAE9B5
:101F90002E379F420190C8D19AF8D0309B0702D5C6
:101FA000019B002BD9D1DAF80C0003B0BDE8F04F4B
:101FB00008F06ABC1091030810B501EB41018C00D8
:101FC00004F1640300EB030CC158DCF804C082B0D8
:101FD00005E00B6893428E4601F1040103D0614590
:101FE000F7D102B010BD6145034608D0ACEB010249
:101FF000042A0ADD019070462BF054FD019B18194C
:10200000836E043B836602B010BD04BFDEF804207B
:10201000CEF80020F3E700BF2DE9F0412DED028B53
:10202000002200F1380100F1500386B00446C0E9F7
:102030000C12C0E9123280F8382080F8502000F1EC
:10204000640300F1C401C3E90022C3E90222C3E929
:10205000042218338B42F6D1BF4994F8D0304D6F2B
:10206000C4F8CC2023F06A0343F04003A80184F8AD
:10207000D030C4E9312205F0806300F11882002BD2
:1020800040F009822B0100F1F481EA0000F1DF81C8
:10209000A90000F1CA81680000F1B581002DC0F2ED
:1020A0005C82AD4B5B6F13F0006305D194F8D020D8
:1020B00063F3861284F8D020A74AA84B4FF08071B2
:1020C000516705A821211C60FFF704FA012105A82A
:1020D000FFF738FA102024F063FF0546FEF7E2FC14
:1020E0000121284665610025FEF7E4FB1C202560E0
:1020F00024F056FF0126856100F10803984A02602A
:10210000C0E9035343610572626B6060954B0096B2
:10211000294604F1300025F0A3FA934A6069D36898
:102120004FF6FF010B4043F0BF6343F40033D3602D
:1021300046F20F612B462A46FEF7F8FB2946FFF7C9
:1021400027F9FFF775F9FCEEC07A2B4617EE902AB7
:102150004CF6DF1184F8D12060692A46FEF7E6FBD1
:102160002946FFF715F9FFF7FBF894F8D0307040D7
:1021700060F300032A4684F8D03048F2AE012B46C3
:102180006069FEF7D3FB2946FFF702F9FFF7E8F88D
:1021900094F8D03060F382032A4684F8D03043F6B6
:1021A00066212B466069FEF7C1FB94F8D010C1F39D
:1021B0008001FFF7EDF8FFF7D3F894F8D03060F323
:1021C00045132A4684F8D03045F68B312B4660699A
:1021D000FEF7ACFB3146FFF7DBF8FFF7C1F894F8E8
:1021E000D03094F8D16060F30413012E84F8D0301D
:1021F00000F07281022E00F09281002E00F0BC806F
:1022000025682B6828469B689847282024F0C8FE3C
:10221000054601F0FFFA6562284601F0A9FA44205C
:1022200024F0BEFE054601F03FFDA5624FF492701A
:1022300024F0B6FE0546FEF749FA4B49CB68E56245
:102240004FF6FF02134043F0BF63484A43F40033A4
:102250002020CB6082F837031023402082F82D33F2
:1022600082F83603302081F822006021502082F865
:10227000003382F81203002382F84D0382F82513FD
:1022800082F8261382F83A1382F8101360691A460E
:1022900045F29E51FEF74AFB3549FFF779F8FFF703
:1022A000C7F8BCEEC00A00231A4684ED180A60691C
:1022B0004AF25D51FEF73AFB0121FFF769F8FFF79B
:1022C000B7F8D4ED187AA06AB0EE408AB8EE670A83
:1022D00001F08EFDB0EE480AA06A01F0B1FD2820A1
:1022E00024F05EFE054606F093FBA561284606F045
:1022F0003FFB2C2024F054FE054604F0DBF9A560DA
:10230000284604F045F94FF4D07024F049FE054604
:1023100007F012FAE560284608F05AFA042024F083
:102320003FFE054600F0A2FF124B2B6028462562B7
:102330001BF07CFC282024F033FE054606F090FDBF
:102340002561012024F02CFEE061204606B0BDECA2
:10235000028BBDE8F08100BF003802400404002079
:10236000BC9003080C49030800ED00E000E100E028
:10237000A0860100289A03087F4F4FF40671386841
:1023800000F0A8FD3346804642F6AA22606944F276
:10239000ED11FEF7CBFA4FF4E131FEF7F9FFFFF74D
:1023A00047F8BDEEC00A4FF0FF358DED010A352329
:1023B0000A2200950921404605F07EFE3868C4F8DF
:1023C00000804FF4067100F085FD3346074642F663
:1023D000AA22606944F2ED11FEF7A8FA4FF4E13148
:1023E000FEF7D6FFFFF724F8BDEEC00A36220095AF
:1023F0008DED010A2B463521384605F05DFE384645
:1024000005F08AFCFCE6E36C04F1480603F10043A6
:1024100011330F2B5DD959491022304625F070F940
:10242000002DBFF63EAEE36C9AE0E36C04F1480683
:1024300003F100431633142B4BD951491522304672
:1024400025F05EF96F007FF529AEE36CDEE7E36C03
:1024500004F1480603F1004310330E2B39D94949E2
:102460000F22304625F04CF9AB007FF514AEE36C3B
:10247000DEE7E36C04F1480603F100430A33082B5E
:1024800027D909224049304625F03AF9EA007FF57C
:10249000FFADE36CDEE704F148063C490422304618
:1024A00025F02EF929017FF5F0ADE36CE4E704F1A6
:1024B0004806374903930A22304625F021F9039B49
:1024C000002B3FF4DFADE36C03F100430533032B36
:1024D000E3D8304824F014FF274B4FF406711868F6
:1024E00000F0F8FC2B4642F6AA2244F2ED11054614
:1024F0006069FEF71BFA4FF4E131FEF749FFFEF782
:1025000097FFBDEEC00A0B2300938DED010A0C234B
:102510000A220921284605F0CFFD256071E6164BF9
:102520004FF40671186800F0D5FC2B4642F6AA223B
:1025300044F2ED1105466069FEF7F8F94FF4E13118
:10254000FEF726FFFEF774FFBDEEC00A4FF0FF3323
:1025500000938DED010A3523DAE7E36C04F14806B8
:1025600003F100430B33092BB3D90B490A22304640
:1025700025F0C6F895E500BF58040020EC48030894
:10258000D4480308C4480308B8480308B0480308FF
:10259000A4480308FC4703080049030830B5531A50
:1025A00085B00F2B0D460393044611D8012B00680C
:1025B00008D10B780370039B206863600022C2542B
:1025C00005B030BD6BB900226360C25405B030BDA8
:1025D000002203A9019324F0BBFE039A019B206013
:1025E000A2601A4629462BF013FC039B2068636007
:1025F0000022C25405B030BD064A0749C264002318
:10260000064A0370C0E91133054B8365C0E9141213
:10261000704700BF0123456789ABCDEFFEDCBA9858
:1026200076543210C2B170B51446A0F1040E8B7806
:102630004E780D78CA781B040EF1080C43EA062385
:102640002B43ACEB000C43EA026364454EF8043FB5
:1026500001F10401EBD870BD704700BFDAB110B5CD
:102660000B1F144603F1080C53F8042F02701A686C
:102670004FEA122E80F801E0B3F802E080F802E0A1
:10268000ACEB010C93F803E080F803E0644500F143
:102690000400E7D810BD70472DE9F04F044691B013
:1026A000D0E91385466DA76DDFF8C4B368464022B4
:1026B000FFF7B8FFDDF800A0DB49DC4A0298DDF83F
:1026C0001C90DDF828E0DFF8ACC386EA070351442C
:1026D0002B4041447B400B440199DDF8388005EBE9
:1026E00073638A1885EA060119403A44714011441F
:1026F000CF4A0C9F03EB3151821885EA0300084052
:1027000032446840039E1044CA4AB21801EBF030CC
:10271000154481EA030202405A40049E2A44C64DF1
:10272000751900EBB2221D4480EA010313404B40AF
:10273000059E2B44C14D751902EB73630D4482EA6B
:10274000000119404140069E2944BD4D751903EB17
:102750003151284483EA02050D4055400544B948EB
:10276000089E484401EBF535104481EA03022A40F3
:102770005A400244B448301805EBB222184485EAA6
:10278000010313404B40099E0344B048301802EB4C
:102790007363084482EA050119406940014403EB70
:1027A000315183EA0200AEF5244608404F3E2E44E4
:1027B00050403044A64D0B9E751901EBF030154486
:1027C00081EA030202405A402A44A24DA24E7D19DA
:1027D00000EBB2221D4480EA010313404B402B441E
:1027E0000D9DAE1902EB73630E4482EA000119409D
:1027F00041403144994E019D464403EB315106441A
:1028000083EA02000840504030440F9EB44401EB7C
:10281000F030944481EA030202405A406244DFF8F7
:1028200058C200EBB222AC449C4482EA00030B4045
:102830004340069D6344DFF844C202EBF363AC44BB
:102840008C4483EA0201014051400B9D6144DFF852
:1028500030C203EBF151AC44844481EA03001040E0
:1028600058406044DFF81CC2059D01EBB040D444E1
:10287000944480EA01021A404A406244DFF808C2E8
:1028800000EB3232AC449C4482EA00030B404340EC
:102890006344DFF8F8C1049D02EBF363F4448C4415
:1028A00083EA0201014051406144DFF8E4C103EBD7
:1028B000F151B444844481EA03001040584060441C
:1028C000DFF8D0C101EBB040AC44944480EA01028F
:1028D0001A404A40099D6244DFF8BCC100EB323225
:1028E000AC449C4482EA00030B4043406344DFF85D
:1028F000ACC1039D02EBF363C4448C4483EA020140
:10290000014051406144DFF898C103EBF151AC4400
:10291000844481EA030010405840089D6044DFF879
:1029200084C101EBB040AC44944480EA01021A40F7
:102930004A400D9D6244DFF870C100EB3232AC4476
:102940009C4482EA00030B404340029D6344DFF84D
:102950005CC102EBF363AC448C4483EA02010140A6
:1029600051406144DFF848C1089D03EBF151CC446C
:10297000844481EA030010405840604401EBB040B9
:10298000BB44934480EA010202EA030C8CEA010C86
:10299000DC4400EB3C3C82EA0C0B059AA2F5B82221
:1029A000A2F2BE621A442E4B5A44EB180CEB327260
:1029B00019448CEA000353400B9D0B4429496918C4
:1029C00002EB7353014482EA0C0058400844264944
:1029D000019D414403EB30408C4483EA02014140B5
:1029E0006144DFF8D0C0AC4400EB7121944480EA2C
:1029F00003024A40049D6244DFF8BCC0AC4401EBD2
:102A00003272634481EA000C8CEA020C9C44174B3E
:102A10000D9D4B4402EB7C5C184482EA010383EA7F
:102A20000C0303444AE000BF78A46AD756B7C7E84E
:102A3000DB702024EECEBDC1AF0F7CF52AC68747E0
:102A4000134630A8019546FDD8988069AFF7448BAE
:102A5000BED75C892211906B937198FD8E4379A645
:102A600081F6718722619D6D0C38E5FD604BBBF6E8
:102A70008A4C2A8D2108B44962251EF640B340C015
:102A8000515A5E26AAC7B6E95D102FD653144402E8
:102A900081E6A1D8C8FBD3E7E6CDE121D60737C34D
:102AA000870DD5F4ED145A4505E9E3A9F8A3EFFC29
:102AB000D9026F6744EABEA4A9CFDE4B86487044B2
:102AC0000CEB334301448CEA02005840084483492C
:102AD000691803EB7020114483EA0C0242400A4457
:102AE0007F49039D514400EB32728C4480EA03011C
:102AF00051406144DFF824C2AC4402EB71519C4464
:102B000082EA00034B40069D6344DFF814C2AC44E4
:102B100001EB3343844481EA02005840099D60443C
:102B2000DFF800C2AC4403EB7020944483EA010256
:102B300042406244DFF8F0C1029DBC4400EB3272B7
:102B40008C4480EA030151406144DFF8E0C1B444A1
:102B500002EB7151634482EA000C8CEA010C9C4444
:102B6000604BEB1801EB3C4C184481EA020383EA0A
:102B70000C0303445C48059D0CEB73235044104444
:102B800063EA010282EA0C020244584803EBB26293
:102B90004844084462EA0C0159400144544802EB9D
:102BA000B1514044604461EA030C8CEA020C604479
:102BB000DFF87CC101EB7040AC449C4460EA020346
:102BC0004B406344DFF86CC1039D00EBF323BC442E
:102BD000944463EA010242406244464FAEF5801ECF
:102BE00003EBB262AEF6833E86442F4462EA0000F5
:102BF0000F445840384402EBB05060EA0301019D95
:102C00003D4F5140714400EB71412F441F4461EA34
:102C100002034340089D3B44384F01EBF3232F440C
:102C20003A4463EA00074F401744354A069D03EBD8
:102C3000B767B218024467EA010058401044314AAD
:102C40000B9E07EBB050AA180A4460EA03017940D2
:102C50000D9D11442C4A00EB7141AA18134461EAFE
:102C6000070242401A44294D049B01EBF2225D19F0
:102C700062EA00033D444B402B44254D02EBB36315
:102C80007519054463EA01005040029E2844214D15
:102C900003EBB05075190D4460EA02015940294414
:102CA0001D4E099D00EB7141AE19164461EA030502
:102CB000226D45400A44354402EBF5222265626DDF
:102CC0001144A26D61650244A265E26C1A44E2649B
:102CD00011B0BDE8F08F00BF70BCBFBEC67E9B28A0
:102CE000FA27A1EA6556ACC4442229F497FF2A4387
:102CF000A72394AB92CC0C8FD15D84854F7EA86FB7
:102D0000E0E62CFE144301A3A111084E827E53F786
:102D100035F23ABDBBD2D72A91D386EB8530EFD4BA
:102D2000051D880439D0D4D9E599DBE6F87CA21FCB
:102D300039A093FCC3595B652DE9F043436C1546FC
:102D4000D200C3F3C5079B1883B04364836CC7F1FB
:102D5000400228BF013303EB557307F10109954287
:102D600088468364814407D22A464146484603B0D8
:102D7000BDE8F0432BF04CB80646484606F1010981
:102D80000192C7F180042BF043F849463046FFF723
:102D900083FCA542019A0DD34244803F1744391960
:102DA0003046FFF779FC23464034AC42F7D99844CB
:102DB000ED1AD9E7403F90443D44D5E730B504468D
:102DC00083B000F1440108226846FFF747FC626CBB
:102DD0001149C2F3C502372A94BFC2F13802C2F1C9
:102DE00078022046FFF7A8FF694620460822FFF731
:102DF000A3FF04F14C0104F15C001022FFF72EFC4C
:102E000040220021601C2AF066FE00230122636438
:102E1000A364227003B030BD8C010020027802B19F
:102E2000704700B583B00190FFF7C8FF019B1846BB
:102E300003B000BD2DE9F0410B788AB007460BB313
:102E40000DF1040801F15B05444609AE204615F872
:102E5000012F1249023428F041FDB442F6D107F1A6
:102E6000080200233A6040468DF824302AF0DEFF45
:102E7000414608EB00023846FFF790FB38460AB09F
:102E8000BDE8F081064A00F1080303601146FFF730
:102E900085FB38460AB0BDE8F08100BF1049030841
:102EA00054700308CB78028122F0004C23F0FF031A
:102EB000CB7081F800C0064B41604FEA1C2C002209
:102EC00081F801C08A701A6802601860704700BFFC
:102ED00008040020F0B5044611F0030F21F00300B0
:102EE00000F10400656808BF0846043087B22A462E
:102EF0001378567892F802E0D17892F903C043EA49
:102F0000062343EA0E43BCF1000F01F07F0E43EAB3
:102F10000E6301DB9F4206D921891A446B189A423D
:102F2000E6D90020F0BD41F08001D1702DD2D11939
:102F30000020CB7823F08003CB705578137843EAD8
:102F40000523957843EA0543D57805F07F0543EAE4
:102F50000563DB1BD355CD78C3F3066C25F07F05E5
:102F600045EA0C05CD701D0A1B0C4D708B70D37893
:102F7000177003F080033E0A90705670D37060683B
:102F80002389091A994200DB00BE101DF0BD00BF65
:102F9000F0B511F8035C11F8042C11F8013C42EA79
:102FA000052211F8025C23F0800301F8013C42EA9B
:102FB000054203F07F0342EA03620C1FA51895F94E
:102FC0000330002B23DB43680689EB1AB34200F37E
:102FD00087806E782B7843EA0623AE78ED7843EA53
:102FE000064305F07F0543EA056313441A0A01F816
:102FF000032C1A0C01F8022C11F8012C01F8043CE6
:1030000022F07F02C3F30663134301F8013CD0F8BA
:1030100004E09EF801209EF8003043EA02239EF867
:10302000022043EA02439EF8032002F07F0243EAB3
:103030000263724614E0038963450EEB03054EDD1F
:1030400013785778967892F803C043EA072343EA47
:1030500006430CF07F0C53EA0C6340D0AA423ED2E8
:10306000A2EB0E0C15461A4494429C44E3D195F908
:103070000320002A33DB11F8036C11F8042C42EA18
:10308000062211F8026C42EA064211F8016C06F0C1
:103090007F0642EA06621344EA782B70C3F30666A1
:1030A00022F07F023243EA701A0A1B0C6A70AB707E
:1030B00011F8032C11F8043C11F8025C43EA0223D6
:1030C00011F8012C416802F07F0243EA054343EA0C
:1030D0000263641A02891C44944200DB00BEF0BD06
:1030E00000BE11F8033C11F8042C42EA032211F847
:1030F000023C42EA034211F8013C03F07F0342EA3A
:10310000036266E7074B1B6853B15A689042FAD3D3
:1031100019890A449042F6D201461846FFF738BF93
:1031200020F0D8BE080400202DE9F04F0A6844685A
:1031300096680289DFF8B0A007460D462346264967
:1031400083B028464FF00009B047C8467B68234E3D
:1031500002E0042A35D9144461782278A07894F9E1
:1031600003C042EA012242EA0042E07800F07F0018
:1031700042EA0062286836EA2C0128BF5146D0F89E
:1031800008B0E31ACDE90012284615492246D8476F
:1031900061782278A078E37842EA012242EA00428C
:1031A00003F07F0342EA036294F903107B683889D5
:1031B0000029A4EB03011144A8BF9144814290442B
:1031C000C7DB2B6807499C6842464B462846A44605
:1031D00003B0BDE8F04F60472849030820490308C1
:1031E000484903086C49030818490308034670B5A9
:1031F0005C681D890020224602E0042B17D91A447E
:1032000051781378967892F803C092F903E043EA74
:10321000012343EA06430CF07F0C43EA0C63111BC5
:10322000BEF1000F1944A8BFC0188D42E5DC70BD87
:10323000704700BF704700BF704700BF704700BFB6
:10324000704700BF704700BF704700BF704700BFA6
:10325000704700BF704700BF704700BF00B583B024
:103260000190FFF74FFF019803B000BD014B0360D1
:10327000704700BFE0900308024B02461868FEF753
:10328000E5BD00BF0404002008280AD80F2908D88B
:10329000DFF810C001225CF820308A4013434CF85C
:1032A000203070473004002008280AD80F2908D899
:1032B000DFF810C001225CF820308A4013434CF83C
:1032C000203070470C04002000231022036082800D
:1032D0008371704730B5D1E90042022A85B00346B8
:1032E0006AD09A79019342F0020200219A71039107
:1032F0000A2203A9204629F041FE039A019BC0B28D
:10330000A24258710AD89A7954481860102122F0C4
:10331000030299809A71184605B030BD0828F2D88A
:1033200020F0E6FD019B4E4C5979039A54F8211088
:10333000196011782E29E6D1531C18460A2203A9D8
:103340001D46039329F01AFE039A019BC0B29542D1
:103350001871D8D20F28D6D8107880B9DBE72D287D
:1033600035D0402805D021286ED1997941F001014E
:10337000997111460132039248780028CBD05E281B
:103380004CD0ECD96F2834D076285DD19979880754
:10339000EFD5597954F821C01979DCF80C004900AF
:1033A000032505FA01FE022520EA0E0005FA01F1C7
:1033B0000143CCF80C10DCE722786E2A91D16278B8
:1033C000632A8ED1827922F002028271A3E7997971
:1033D0008907CED5597954F821C0197949000320BD
:1033E00000FA01F1DCF80C0020EA0101CCF80C1025
:1033F000BFE799798907BCD5597954F82100197923
:10340000D0F804C0012505FA01F141EA0C01416040
:10341000597954F821C01979A940E0E799798D07C5
:10342000A7D5597954F821C01979DCF80C00490066
:10343000032505FA01FE012520EA0E0005FA01F137
:103440000143CCF80C1094E7019301F0C7F8019BFD
:1034500000283FF460AF039A8BE700BF00000240F2
:103460005891030810B5D1E90042022A84B00346FE
:103470004BD09A79019342F0020200219A71039194
:103480000A2203A9204629F079FD039A019BC0B2C4
:10349000A24258710AD89A7921481860102122F066
:1034A000030299809A71184604B010BD0828F2D81A
:1034B0001C4951F82010196011782E29EBD1541CA9
:1034C00003A90A222046039429F058FD039A019B80
:1034D000C0B294421871DED20F28DCD8107850B9EF
:1034E000E1E7997941F001019971114601320392A6
:1034F00048780028D7D02128F3D0019301F06EF846
:10350000019B0028CFD0039AEFE722786E2AB0D132
:103510006278632AADD1827922F002028271C2E719
:10352000000002405891030810B50179407982B03B
:1035300020F0CCFD0A49044622F062FC01300AD09A
:10354000142023F02DFD2146019020F0CFFE019B99
:10355000184602B010BD0023184602B010BD00BFCF
:10356000309E0308704700BF00B583B00190FFF79D
:10357000C9FD019803B000BD00B589B096469DF81D
:103580001CC0ADF812100F490F4A0392ADF810009D
:103590002CF0030C0868ADF814E003AA052106938B
:1035A00001938DF81CC0FEF7ADFC9DF81C2012F0B5
:1035B000010004D0930702D5019B069A1A6009B056
:1035C00000BD00BF040400208491030800B587B04B
:1035D00096469DF814C0ADF80A100C490C4A0192A9
:1035E0002CF0030CADF808004CF0020C0868ADF8A4
:1035F0000CE001AA06218DF814C00493FEF782FCAA
:103600009DF8140000F0010007B000BD0404002084
:103610008491030810B5034B03600446FFF71CFEBA
:10362000204610BD9491030810B5054B0360044675
:10363000FFF712FE2046FFF765FD204610BD00BFD4
:103640009491030810B50446FFF710FE201DFFF704
:103650003BFE002305482060FF214FF0FF32C4E904
:10366000031223766361204610BD00BF94910308C6
:10367000002905DBC3689942A8BF1946016170475C
:1036800000210161704700BF036981F308018B428B
:10369000A8BF0B4623EAE373C0E90313704700BFDA
:1036A000C0687047837A4FF0FF3202619A070DD5E8
:1036B00003F001038B424268017A03D001238B405F
:1036C000936170474FF480338B409361704700BF24
:1036D0000269FF2A2AD830B590F80AE00346CEF3F3
:1036E0004000002A3CD0FF2A2DD05C69B4F5007F51
:1036F000A8BF4FF40074A4466FF0FF051C7EAC45D4
:10370000B8BFAC46A4B962447F2A5A6119DD0122D0
:103710001A76012240B10EF0010E9645187A5A68C9
:1037200018D0012383409361084630BD0846704796
:10373000C2F58072ACEB0202002A5A61E9DC002279
:103740001A760022E6E70028EED01EF0010F187A64
:103750005A68E6D04FF4803383409361084630BD09
:103760000028E1D01EF0010F187A5A68D9D1F1E78C
:103770000321FFF781BD00BF10B504464068054B2B
:10378000236008B1FFF7BEFC2046FFF765FD204629
:1037900010BD00BFCC91030810B504464068064B2D
:1037A000236008B1FFF7AEFC2046FFF755FD204629
:1037B000FFF7A8FC204610BDCC91030810B5124CB1
:1037C000226892F8D020D20782B003460AD50F4A69
:1037D00001901188481C1080C1F300310C48FDF79E
:1037E000EDFE019B72B65A6A12B962B602B010BD04
:1037F0005A6A013A5A6262B620680022042102B075
:10380000BDE81040FEF77EBB040400205C040020ED
:10381000D603002030B583B00446FFF727FD194BCF
:103820000025C4E90035C4E9025504F11800FFF78A
:103830004BFD154B154A019514601A6C144942F062
:1038400010021A641B6C03F0100301930423019A05
:103850000B60104B104A9B68C3F818210F4A104B9D
:1038600012680520920B2061A3FB02039B0841F61E
:10387000FF70636188622046CB622262656203B09A
:1038800030BD00BFCC910308003802406004002026
:103890000010004000ED00E06D390008D00100206C
:1038A000CDCCCCCC054B064A01204FF48001D8602A
:1038B00051601A6802431A60704700BF0010004050
:1038C00000E100E0064B074A1B6841F6FF7C9B0BBA
:1038D000B3FBF1F14161C2F828C0D16203627047C5
:1038E000D001002000100040F8B5D0E90146416940
:1038F0000546A64210D054F8042B53695B1A002BDE
:103900005361F6DA106917681844506157B1002006
:10391000B847A6426969EED12B6A5B1A002B2B626D
:103920000FDBF8BD50680028E3D0D2E9023707F07A
:1039300001027BB100EB670082B9002198476969F9
:10394000D7E709496A6A0968013203EB91332B62B0
:103950006A62F8BD002ACCD000EB67000268002143
:10396000D35898476969C4E7D0010020034A044B43
:103970006FF0010118681161FFF7B6BF0010004039
:103980006004002038B50446084D094B28682360C0
:1039900022460721FEF710FB286822460821FEF781
:1039A0000BFB2046FFF758FC204638BD04040020DE
:1039B0000492030838B504460A4D0B4B286823606F
:1039C00022460721FEF7F8FA224608212868FEF76A
:1039D000F3FA2046FFF740FC2046FFF793FB204612
:1039E00038BD00BF040400200492030801B17047F1
:1039F000837E9A0708D5DB07017E426954BF012305
:103A00004FF480338B40936190F8393023F00203F8
:103A100080F83930704700BF012918D039B1CB0781
:103A200014D490F838200223934019420ED0837E9C
:103A30009A070BD5DB07017E426903D401238B4033
:103A4000936170474FF480338B4093617047837E5E
:103A50009A07FBD5DA0704D5027E43699140996144
:103A60007047017E42694FF480338B409361704709
:103A700010B584B00446CDE902210193FFF7F6FBAF
:103A8000A446039935484CF8040B03C9029A019BDC
:103A90008CE8030092E8030093F806C0C4E9030130
:103AA00093E803001CF0020FC4E9050150D1002285
:103AB000E26294F839302A49226362F3410384F8C0
:103AC000393094F83930A27E616223F00C03254925
:103AD000A16200204FF07E5C43F004039107C4F81C
:103AE00020C0606384F8393009D512F0010F217EBF
:103AF00062690CBF01234FF480338B409361A37A3A
:103B00009A0708D5D807217A62684CBF01234FF481
:103B100080338B409361A37C9A0708D5DB07217C17
:103B2000E2684CBF01234FF480338B40936194F8DB
:103B3000393023F0010384F8393020460721FFF79C
:103B40009BFB20460821FFF797FB204604B010BDE1
:103B500019795879FFF798FBA9E700BF0492030889
:103B6000000048420000C07FD0ED0D7A10B580ED16
:103B7000080A20EE270A044625F062FD2063E06271
:103B800010BD00BFD0ED087A10B580ED0D0A20EE13
:103B9000270A044625F054FD2063E06210BD00BFF3
:103BA00080ED0D0A0163C162704700BF036B80EDB9
:103BB0000D0A0B4403637047D0ED087A10B520EE70
:103BC000270A044625F03CFD236BC01A10BD00BF38
:103BD00038B5837E044698070D4609D56169207E75
:103BE0000A69C24003F0010302F00102934229D1A5
:103BF00094F8393003F00103AB422DD1A37A9A0730
:103C000008D5D807217A626854BF01234FF4803366
:103C10008B409361032022F05FF9A37A9A0708D5BD
:103C2000DB07217A62684CBF01234FF480338B405D
:103C30009361E36A002D0CBF01224FF0FF32134461
:103C4000E36238BD03B3012383408B6194F83930BC
:103C500003F00103AB42D1D094F83930A27C65F374
:103C60000003910784F839300AD502F00102AA4214
:103C7000217CE26814BF01234FF480338B409361B1
:103C8000012022F029F9B9E74FF4803383408B619A
:103C9000AEE700BF034B186883680BB1C3681847D1
:103CA000704700BF64040020F0B5002585B0C0E96E
:103CB0000155354B354A056002954563C563106073
:103CC0001A6CC56042F020021A641A6C304E314FF3
:103CD000DFED317A02F020020292029A2F4A04218B
:103CE000316091680395C1F81C71196C2C4F41F437
:103CF000807119641B6C03F4807303930446039B67
:103D000028480C233B6003685908274B0191A3FB0B
:103D10000113D80800EE100A93682449C3F8F41080
:103D2000B8EEC00A9368224A9A6380EE270AC4ED6F
:103D3000047A25F0FBFCF0EE407A9DED017AFCEE72
:103D4000E77A0E23C4ED057AB8EEC70AB3629FED99
:103D5000197A6369F36220EE070A25F0E7FC94F80C
:103D60004030BCEEC00A65F3440387ED0B0A84F8CB
:103D7000403094F84030656365F30003204684F8D2
:103D80004030A56305B0F0BD003802406404002057
:103D900000140040154200080050C34700ED00E049
:103DA00000200040D001002089888888D93E000882
:103DB000953C0008ACC5A73610B40A4B0A4C0B4A18
:103DC0000121D960E1604FF400044FF400515460C8
:103DD00051600022C2631A6842F0010210BC1A60EE
:103DE000704700BF001400400020004000E100E0E8
:103DF000104B114A1B685B0800B5A2FB0323DB08CC
:103E0000F0EE407A00EE103AB8EEC00A83B080EED1
:103E1000270A0190C0ED047A25F088FC0198074B31
:103E2000BCEEC00A0E2280ED050A9A624269DA628F
:103E300003B000BDD00100208988888800140040AC
:103E40009FED0A7AC0EE077A08B5094B1B685B083C
:103E500000EE103AB8EEC00A20EE270A25F066FC04
:103E6000044BBCEEC00A83ED0B0A08BD0024744964
:103E7000D00100200020004090F8403013F01E0FC9
:103E800030B5C3F3430E1CD000234FF0010C00F1FA
:103E9000180402E00133734513D0426B0CFA03F1AE
:103EA0001142F7D054F82320917A8D07F2D5C90733
:103EB0000AD5117A556801330CFA01F17345A961ED
:103EC000EBD10023436330BD157A51684FF4803243
:103ED000AA408A61DEE700BF034A044B6FF001018C
:103EE00018681161FFF7C8BF00200040640400207B
:103EF0002DE9F843846B002C50D090F8403013F03B
:103F00001E0F0546C3F3430042D00023616D1F46D8
:103F100005F118094FF0010E8A6A0EFA03FC12B37C
:103F200059F82320266D977C1CEA060F14BF4FF02A
:103F300001084FF00008BE0707F0010C06D5C44584
:103F40001DD0177CD6680EFA07F7B76192F839C012
:103F500068F3000C82F839C092F839C04CF0020CBA
:103F6000012782F839C00133DAB2824201F1380107
:103F7000D2D30023EB6367B13846BDE8F88392F8EB
:103F800010C0D6684FF4803707FA0CF7B761DDE749
:103F9000E863044B1B68986904F0EAFE0027384682
:103FA000BDE8F883040400202DE9F04F90F840307C
:103FB000934FD90783B0044640F1B180386890F838
:103FC000D0309A07C3F3400C00F1D28094F840300F
:103FD00013F01E0FC3F3430500F0D680D4E90E6E34
:103FE00001979FED857B736D0090624604F118097F
:103FF0004FF0FF3A6FF0404BB046774617E09E68AF
:104000008E19D9689E6040EB0100B2457BEB000140
:10401000D860C0F2E8809EF83910C1F3400141EA4F
:104020000C0C0132D1B28D4203F1380366D9996A82
:104030000029F6D0196818695E680918586919606E
:1040400046EB00001E6B5860B74242D0012970F168
:10405000000659F822E0D2DA83ED007B00263046D4
:10406000D96A0131D9629EF80A10C3E902608E074D
:104070000BD511F0010F9EF80860DEF804100CBF9C
:1040800001204FF48030B04088619EF8391011F063
:10409000010FDEF82C100CBF01204FF0FF3001445F
:1040A000CEF82C109EF83900062AC0F3400000F22A
:1040B0009D80616B0126964031436163A0B19EF8FB
:1040C0003910C90603D4D3E90A1088420CD0E76B33
:1040D000A1E7D8E9116EB74238D07745B6D193ED54
:1040E000066B83ED046BB1E79EF8391000209862EF
:1040F00060F34101E76B8EF839108CE77B1CE363BA
:10410000636B0098019F23B13E4A136843F001039B
:104110001360BCF1000F3CD003B0BDE8F08F3B68EA
:1041200000F13801986904F0DDFD0028F4D0204644
:10413000FFF7DEFE94F8403060F3000384F840306F
:1041400094F84030DB073FF539AFE5E7D8F84C602D
:104150009FED296B764583ED046BBED9C3F830E043
:10416000E76B7745BBD0196A586A196058606DE7EC
:1041700094F84030002223F00103C4E90E2284F8B1
:10418000403003B0BDE8F08FE36B626B0133E36353
:104190001ABB00238069E36304F0EAFD3B6804F185
:1041A0003801986904F09EFD68B994F84030A06326
:1041B00060F3000384F84030134B4FF080525A6094
:1041C00003B0BDE8F08F2046FFF792FE94F8403030
:1041D00060F3000384F84030EEE70A4A136843F0C6
:1041E00001031360D5E700F1404039E7074908486B
:1041F000072323F08BF800BF000000000000000040
:10420000040400200020004000ED00E08C49030879
:1042100098490308034A044B6FF0010118681161C3
:10422000FFF7C2BE001400406404002090F8403044
:10423000C3F3430202F1010C0CF00F0C00EB8202FD
:104240006CF3440380F840300CF1FF30916170470B
:104250000EB4002003B07047704700BF084629F035
:10426000E5BD00BF00B583B00190FEF74BFF01989C
:1042700003B000BD0EB4F0B594B019AB402153F8B3
:10428000045B039306462A4604A827F009FF411C55
:104290003F2904460ADC3368144A5B69934220D103
:1042A000204614B0BDE8F04003B0704708460191C5
:1042B00022F087FE039B01992A46074627F0F0FE6D
:1042C00033680A4A5B69934205D1002FE8D038462B
:1042D00022F055FEE4E7394630469847002FDFD0FC
:1042E000F5E704A930469847DAE700BF5D420008C9
:1042F000014B024A1A607047680400203C92030890
:1043000030B5531A85B00F2B0D460393044611D8D0
:10431000012B006808D10B780370039B2068636051
:104320000022C25405B030BD6BB900226360C25494
:1043300005B030BD002203A9019323F009F8039AC8
:10434000019B2060A2601A46294629F061FD039B6B
:10435000206863600022C25405B030BD036818783D
:10436000F0B100B50021DFF83CE003F1010C0B4691
:104370001A18AEFB0203DB09C3EB0323D31A19445B
:10438000AEFB0102D209C2EB02221CF8010B8A1A11
:104390009BB291B20028EBD143EA012290B200BD5A
:1043A000704700BF8180808084460078F0B100B5FE
:1043B0000021DFF83CE00CF1010C0B461A18AEFBB3
:1043C0000203DB09C3EB0323D31A1944AEFB01023A
:1043D000D209C2EB02221CF8010B8A1A9BB291B2DD
:1043E0000028EBD143EA012290B200BD704700BF24
:1043F000818080802DE9F04F4B68744C4FF0000AAB
:1044000053458DB00D46C0F800A0A0F804A0A0F15F
:10441000020800F1040B66D9D84564D00123524646
:104420006B49284623F0CFF90DF108090023CDE9A7
:1044300000938DF80830431C6A68064656D09245B2
:10444000A6EB0A0300F2BB802968A2EB0A025144E2
:104450009A4294BF8A18CA1806A808AF0697FFF7B1
:104460004FFF009848456BD0DDE90632BB4274D05F
:10447000CDE90032089B0293002869D00690002302
:1044800003700698B84201D0FEF73CFE009807780A
:10449000002F7BD04FF0000C411C6346DA19A4FBBF
:1044A00002E3DB09C3EB0323D31A9C44A4FB0CE215
:1044B000D209C2EB022211F8017BACEB02029BB2E3
:1044C0001FFA82FC002FE9D143EA0C2228F8022FC0
:1044D000721C30D0484501D0FEF714FE6B6806F11F
:1044E000010A534598D80DB0BDE8F08F924566D8C3
:1044F000296806A80A4408AF51440697FFF700FF51
:104500000098484536D0069BBB4242D00093079B9B
:104510000193089B0293002834D006900023037077
:104520000698B84201D0FEF7EDFD00980778002FFD
:10453000B0D1A8F802704845D5D0FEF7E3FDD2E728
:10454000069BBB4208D00093079B0193089B0293F4
:10455000069708AF384692E7079A32B1012A2AD067
:10456000394629F055FC079A00980192002383549C
:10457000069884E7069BBB420BD00093079B0193F0
:10458000089B0293069708AF3846C7E728F8027FD2
:10459000A0E7079A32B1012A09D0394629F038FC40
:1045A000079A00980192002383540698B6E79DF875
:1045B00020300370F4E79DF820300370D3E71346F2
:1045C00004490548524622F0A1FE00BF8180808048
:1045D000CC49030888460308A0460308202818BFD2
:1045E00009280CBF01200020704700BFF0B500F182
:1045F0000803002683B0C0E900360672D1E90047FF
:104600002744A742054601D10EE06E6814F8010B5D
:1046100025F002FEC0B20090012300223146284658
:1046200022F0A0FFA742F0D1284603B0F0BD00BFA2
:10463000F0B52F4A89B00C460546A2F11C0102A82C
:1046400004AE0296FFF75CFEDDE90213002220466D
:1046500023F0EBF8431C39D0844600276268944568
:104660003FD8A2EB0C02012A28BF01226146214B50
:104670000097204622F0F4FFDDE9021300222046D5
:1046800023F0D3F8B0F1FF3F8446E7D1274605F188
:104690000800286057F8083BBB4210D061682B60C7
:1046A000A368AB60029869600023B042C4E900735C
:1046B000237201D0FEF726FD284609B0F0BD6268DE
:1046C0003946013229F0A4FB6168EBE7274605F182
:1046D00008006168286057F8083B9F420A46DED10F
:1046E000EEE7134604490548624622F00FFE00BF7C
:1046F000EC49030854700308F0490308A046030876
:1047000038B50D460123164904460022284623F0F9
:104710005AF8431C15D06B68421C591C9A42A1EBF5
:10472000000018D804F10801216029689B1A11447F
:10473000834294BFCA180A182046FFF7E1FD2046BD
:1047400038BD084A04F10803204623601146FFF7EC
:10475000D7FD204638BD0449044822F0D7FD00BFEC
:10476000F44A03085470030888460308A046030867
:1047700000207047BFF34F8F0549064BCA6802F40B
:10478000E0621343CB60BFF34F8F00BFFDE700BF74
:1047900000ED00E00400FA052DE9F047D1E90049F9
:1047A000A14582B01AD00746164600200FE02378B4
:1047B0003B54606823F00EFA094ACDE90001711BF1
:1047C000781927F059F808344C45284403D086421C
:1047D00000F10105EBD802B0BDE8F0870020FAE750
:1047E000084A030830B5194A00F1080383B00D46A2
:1047F0000360911E0446FFF783FD052D2846A8BFE0
:1048000005203430C0B200906168012300222046A8
:1048100022F0A8FE052D02DC204603B030BD0C4B73
:1048200062689A420FD00B490122204622F068FFAD
:104830002B35EDB2416800950123002222F092FE53
:10484000204603B030BD044822F05AFD124A030846
:10485000FEFFFF7FCC490308FC47030870B54FF407
:104860007A7303FB00F420F0EDFA084E054602E0EF
:104870003068FDF747FB20F0E5FA401B84424FF01B
:1048800000024FF00301F3D870BD00BF0404002004
:1048900070B5054620F0D6FA074E044602E03068AF
:1048A000FDF730FB20F0CEFA001BA8424FF00002CB
:1048B0004FF00301F3D370BD04040020F0B50C46A3
:1048C000012300224E4993B00546204622F07BFF8B
:1048D000431C626810D105F108032B60216828464B
:1048E000FCF778FD00216268464B0091204622F0DB
:1048F000B7FE284613B0F0BD08A9069121680390C1
:10490000904294BF0A188A1806A8FFF7F9FC039B87
:1049100066685A1CB2426DD8B31A216805930EAE70
:104920000F2B0C9601EB020733D8012B2CD18A5C9C
:104930008DF83820314600220D93CA5423460D9A33
:1049400053F8080B0C99984234D0B1423CD00E9BDE
:10495000A360C4E90012002832D00C900023037039
:104960000C98B04201D0FEF7CDFB069B079C08AA2D
:1049700005F108009342286033D0089A2B60AA60A2
:1049800028466C6013B0F0BD3146002BD3D03046C2
:1049900009E000220CA805A9039322F0D9FC059A8E
:1049A000039B0C900E921A46394629F031FA059B6A
:1049B0000C99C0E7B14207D0C4E900120E9BA36076
:1049C0000C960EAE3046C9E732B1012A0ED0314600
:1049D00029F01EFA0D9A20686260002383540C9817
:1049E000BCE7621C08A929F013FAC9E79DF8383022
:1049F0000370EFE704490548334622F087FC00BF07
:104A0000F44A03085470030888460308A0460308C4
:104A10002DE9F043A24C236891B00D460646D3E938
:104A20000C1206AF04A80497FCF7D4FC6A688AB994
:104A3000236806F108023260D3E90C123046FCF715
:104A4000C9FC0498B84201D0FEF75CFB304611B0B7
:104A5000BDE8F08329680B782F2B00F0E7800CACC1
:104A6000A146A046032A94BF8A18CA1C0AA80A9421
:104A7000FFF746FCDDE90A03032B75D0A04201D005
:104A8000FEF740FBD5E90013022B1A4628BF02228D
:104A9000012B0A9400F0DC80002B40F0C3800B92C5
:104AA0006A44002182F83010DDE90A02022A00F08F
:104AB000FD80A04201D0FEF725FBDDE9043803EBC1
:104AC0000802019312F8012C2F2A00F0C580002261
:104AD0000B928DF8302008F101012F220AA8DFF88F
:104AE000C8910A948DF80C2022F01DFD0B99A9EBBA
:104AF0000101884500F20582019942460AA822F088
:104B0000FFFD0B9B4B4500F0FC81012203A90AA885
:104B100022F0F6FDD5E900120B9BA9EB03039A42A4
:104B200000F2EF810AA822F0EBFD8046454606F12F
:104B30000800306055F8083BAB4200F075813360E7
:104B4000D8F80830B360D8F80420C8F80050002323
:104B5000726088F808300A98C8F80430A0423FF420
:104B600070AFFEF7CFFA6CE703782E2B86D143782F
:104B70002E2B83D183782F2B80D1A04201D0FEF73A
:104B8000C1FA6A68022A40F2B68129680A940A4486
:104B90000AA80331FFF7B4FB2B46DDE90A1253F8EC
:104BA000080B984200F01381A14200F01A810C9B7F
:104BB000AB60C5E90012002800F00F810A900023C5
:104BC00003700A98A04201D0FEF79CFA35490123F0
:104BD0004FF0FF3204A822F010FE059A04990A94BF
:104BE000824294BF8A180A180AA8FFF789FB049822
:104BF000B84200F0E080DDE90A32A34200F0FF8015
:104C0000CDE904320C9B0693002800F0DC800A906A
:104C1000002303700A98A04201D0FEF773FAD5E989
:104C200000121FE70988ADF8301038E72C4606F16E
:104C30000800306054F8083BA34200F0498133601B
:104C4000AB68B36000237260C5E900432B72F8E6DD
:104C500009788DF8301022E7D5E9005900227260FA
:104C6000327206F10802326008EB0901304622F088
:104C70005AFC0D4C7268A21A904500F242810199CB
:104C80004246304622F03CFD7368E41AA14500F22A
:104C900038814A462946304622F032FDD1E600BF2F
:104CA000040400200C490308FEFFFF7F02782E2A2F
:104CB0007FF4FFAE42782E2A7FF4FBAEA04202D0F2
:104CC000FEF720FA6B68012B40F21081A3F1020875
:104CD000B8F10F0FD5F800900A94CDF80C8000F2CF
:104CE000BD80B8F1010F00F0AB80B8F1000F58D1D2
:104CF00022460023CDF82C8002F808302B460A9972
:104D000053F8080B0B9A984200F0B180A14200F0D2
:104D1000C4800C9BAB60C5E90012002800F0AD8098
:104D20000A90002303700A98A04201D0FEF7EAF926
:104D30000123754904A84FF0FF3222F05EFD059B68
:104D4000DDF810900A94834228BF03460F2B984643
:104D500003937AD8012B6ED0D3B922460023CDF825
:104D60002C8002F808300498B84200F08A800A9B30
:104D7000A34200F09F8004930B9B05930C9B06932A
:104D8000002800F086800A90002303700A9890E6BD
:104D900020464246494629F03BF8DDF80C800A9A45
:104DA000DCE72046424609F1020129F031F8DDF83E
:104DB0000C800A9A9DE70A9BA3421FD004930B9B89
:104DC00005930C9B06930A9440464C4620E7A1426B
:104DD00007D0C5E900120C9BAB600A9440464C46D4
:104DE000EDE632B1012A1BD0214629F011F80B9AC9
:104DF00028686A60002383540A98E0E60B9A32B16F
:104E0000012A09D0214629F003F80B9A049805924B
:104E1000002383540A98FBE69DF830300370F4E7D2
:104E20009DF830300370E2E7D8F8042029460132BB
:104E300028F0EEFF87E699F800308DF830308CE7E7
:104E400099F802308DF8303052E7002203A90AA801
:104E500022F07EFA039B0A900C939AE7002203A9A2
:104E60000AA822F075FA039B0A900C939AE7A142D4
:104E700013D0C5E900120C9BAB600A940CAC204621
:104E80004FE70A9BA34215D004930B9B05930C9B01
:104E900006930A940CAC204676E732B1012A1DD065
:104EA000214628F0B5FF0B9A28686A6000238354D6
:104EB0000A9836E70B9A32B1012A13D0214628F01E
:104EC000A7FF0B9A04980592002383540A985BE786
:104ED0000132214628F09CFF6A68B3E69DF8303025
:104EE0000370E0E79DF830300370EAE707490848AF
:104EF000022222F00BFA134604490548032222F04D
:104F000005FA044822F0FCF90C4903088846030816
:104F1000A0460308FC4703082DE9F04FD0E900390B
:104F2000394AA9EB0305EF1002FB07F7374A97420E
:104F300083B066D0012F2CBFFF190137974228BFDD
:104F4000174607EB4707FF000C4683463846009399
:104F500022F026F82146824651F8082BD4F8048026
:104F6000009B461906F108008A424AF805003FD026
:104F70004AF80520A268B26000224B45C6F80480BA
:104F800021606260227224D00AF1180403F108063D
:104F90001D460EE0A96844F8182C44F8101C6A68F5
:104FA00044F8142C1835A94506F1180604F1180424
:104FB00010D0A4F1100044F8180C2A68B242A046A0
:104FC000E8D16A6800930132314628F021FF009B46
:104FD000E5E7D04608F1180413B11846FEF792F839
:104FE0005744CBE900A4CBF8087003B0BDE8F08FBC
:104FF00008F101020193009128F00AFFDDE9001396
:10500000BAE7034822F07CF9ABAAAAAA5555550580
:105010004C4503082DE9F0474FF0000886B0C0E981
:10502000008807461546C0F808800DF108090B787E
:105030009D420C4604D01BB114F8013FAB42FAD19B
:1050400022466846CDE90098FFF75AF9D7E901638F
:105050009E4217D006F108003060DDE9003A4B456A
:105060001AD0029A3360B2607B68C6F804A0183385
:105070007B60214611F8013B002BD8D1384606B0A1
:10508000BDE8F08738466946FFF746FF0098484577
:10509000EFD0FEF737F8ECE70AF10102494628F0B5
:1050A000B7FEE1E72DE9F04F87B005462C2203A8B3
:1050B000FFF7B0FFDDE9038700234745C5E900336B
:1050C000AB6051D046466FF0604905E01836A3EC5E
:1050D000010ABE426B6039D03068002127F06EFEB5
:1050E000D5E901329342F1D129685C1AB9EBA40FDA
:1050F0004FEAA40A42D0BAF1010F2CBFD2440AF100
:10510000010ACA4528BFCA464FEA8A0A50468DEDB1
:10511000010A009121F044FF9DED010A0099031955
:10512000834683ED000A1CB1224628F071FE0099E7
:1051300004345C4411B10846FDF7E4FF18360BEB6C
:105140000A03BE42C5E900B4AB60C5D108F108044A
:10515000464654F8080C844201D0FDF7D3FF1836B8
:10516000B74204F11804F4D1B8F1000F02D0404660
:10517000FDF7C8FF284607B0BDE8F08F014822F0D0
:10518000BFF800BF4C4503082DE9F04F89B0044635
:10519000904605A82C22FFF73DFFDDE905760023A8
:1051A000BE42C4E90033A36054D06FF06049BA46F0
:1051B000039706E045F8040B0AF1180AB24565604A
:1051C00038D0DAF800004246002127F0D7FED4E9B3
:1051D00001539D42EED121686D1AB9EBA50F4FEA3C
:1051E000A50B3FD0BBF1010F2CBFDB440BF1010B32
:1051F000CB4528BFCB464FEA8B0BCDE90110584673
:1052000021F0CEFE029A4251019907461DB12A466D
:1052100028F0FEFD019904353D4411B10846FDF723
:1052200071FF0AF1180A07EB0B02B24565602760AF
:10523000A260C6D1039F07F10805B84655F8080CCF
:10524000854201D0FDF75EFF08F11808464505F1DB
:105250001805F3D117B13846FDF754FF204609B0C1
:10526000BDE8F08F014822F04BF800BF4C45030821
:1052700002299ABF00EB810090ED000A9FED010A20
:10528000704700BF0000C07F90ED017AD1ED027A37
:1052900090ED025A91ED016AD1ED005AD0ED006A0D
:1052A00026EE450A66EEE70A25EEC71AE5EE250A60
:1052B00088B0A6EE261AA7EE270A08B0704700BFEE
:1052C000D1ED017A90ED010AD0ED006A90ED027AFD
:1052D00020EE270AD1ED007AA6EEA70AD1ED027AD8
:1052E000A7EE270A704700BF90ED010A90ED007A03
:1052F000D0ED027A20EE000AA7EE070AA7EEA70A71
:10530000704700BFD0ED010AD1ED016A90ED021A9D
:1053100091ED027A90ED000AD1ED007A70EEE60A86
:1053200031EE471A30EE670A88B008B0704700BF08
:10533000D0ED010A90ED021AD0ED007A60EE200A5D
:1053400020EE011A27EE800A88B008B0704700BF2F
:10535000014820F0CBBC00BF7004002008B5032139
:10536000FDF78AFFBDE80840014820F0BFBC00BF40
:105370007004002008B50A4B1B6893F8D030DB0797
:1053800004D4084820F0BAFC00BE08BD002106483D
:10539000FCF714F9034820F0B1FC00BE08BD00BFC3
:1053A0000404002070040020D403002010B5034B37
:1053B00003600446FDF750FF204610BD60920308CD
:1053C00010B5054B03600446FDF746FF2046FDF788
:1053D00099FE204610BD00BF6092030870B5194EBB
:1053E00082B004461546FDF741FF174A174B22606D
:1053F0000021019133607F21B5FA85F3C6E90211DE
:105400005B09134A4FF4C0705B0270603361136C28
:1054100043F400631364136C03F400630193304698
:10542000019B20F047FC304620F060FC35B9094A6A
:10543000094B91680948086401221A60204602B0AD
:1054400070BD00BF7004002060920308002C004073
:105450000038024000ED00E000E100E07553000874
:105460000B4A1368DB0611D4837C90F811C09C456D
:1054700007D04374D06A013B20F4700C4CEA03530C
:10548000D362034A936843F08043936008467047B1
:1054900000200140164A174BD16C10681B6880062B
:1054A00007D51168002021F032011160D87400BEC8
:1054B000704730B59C69D87C83B04CB15D690122DE
:1054C00082402A4204D089B20193A047019BD87C34
:1054D0005A7C0130C0B28242D87406D804490A68A6
:1054E000002022F010020A60D87403B030BD00BF63
:1054F000002001408404002082B000234FF0FF32DE
:105500001B4903600361C0F801200193C0F8052026
:10551000C0F80920C0F80D204A6C42F480724A6439
:105520004A6CA1F58A31A1F5807102F48072019272
:10553000019A4A6842F440324A600E4A6FF078415C
:10554000D1606FF0404111610B49516040F201415F
:1055500091600A4A0A499268C2F88810094A4FF4D1
:1055600080211160084A8361106002B0704700BF5B
:1055700000380240002001402001000400ED00E05E
:105580009554000800E100E08404002010B50446B2
:105590000846054920F062FC431C1BBFC0F3C32032
:1055A0002318FF20587810BD9CA1030830B50C4685
:1055B00083B0254901920546204620F04FFC019A10
:1055C0002AB3AA7C0F2A22D8431C20D00190C4F30E
:1055D00003101EF08DFC019B016804F00F04C3F35F
:1055E000C32264000323A3400B430360A87CAB18D1
:1055F000411C0528A97458700CD8144900EB80038D
:105600004C6B02FA03F323434B6303B030BDFF201E
:1056100003B030BD0B280CD90F28F9D80B49A0F1E5
:105620000C03CC6A03EB830302FA03F32343CB623C
:10563000EEE70649831F0C6B03EB830302FA03F3C7
:1056400023430B6303B030BD9CA10308002001403D
:1056500009B1037803B17047F0B5384A87B01268D2
:10566000019306461820556A21F09AFC0446FBF780
:10567000B9FF019B0593324B324A1B6866609B0B56
:10568000A2FB03239B0907EE903A2F4A0492F8EEFF
:10569000E77ADDE90401FDEEE77AC4E90201C4ED31
:1056A000047AC4ED057A72B62B69B3F57A7F0BD311
:1056B000D5E902239A420ED042F8044BAA6062B6A2
:1056C0000123337007B0F0BD4FF47A712961284689
:1056D000FEF7F8F8ECE769686FF06040521AB0EB3B
:1056E000A20F4FEAA20326D0012B2CBFDB180133F7
:1056F000834228BF03469800CDE901129F0021F0A4
:105700004FFC029A0199845003462AB1039028F075
:105710007FFBDDE90223019904321A4431B10846C6
:10572000CDE90123FDF7EEFCDDE90123D919C5E937
:105730000132E960C3E7054821F0E2FD04040020DE
:10574000D0010020D34D6210615400084C4503087D
:1057500038B5044608460B49154620F07FFB431C2C
:105760000BD0C0F3C320204442780F2A05DC01236C
:105770006169934015B10B43636138BD21EA0301B0
:10578000616138BD9CA10308816170478088401A1F
:10579000B0FA80F04009704730B5531A85B00F2B2E
:1057A0000D460393044611D8012B006808D10B78ED
:1057B0000370039B206863600022C25405B030BDB3
:1057C0006BB900226360C25405B030BD002203A94A
:1057D000019321F0BDFD039A019B2060A2601A464F
:1057E000294628F015FB039B206863600022C25401
:1057F00005B030BD0346024653F8080F08339842FF
:1058000008D000B583B00192FDF77CFC019A1046E8
:1058100003B000BD10467047034610B5044653F868
:10582000080F0833984201D0FDF76CFC2046FDF7C5
:1058300069FC204610BD00BF70B505460C4B82B018
:1058400045F8083B002605F1080304468360C6605E
:10585000067410460191FEF7A7FD0199A080284625
:1058600021F0FBFD204684F8206002B070BD00BF2F
:1058700098920308F0B5A5B007460D461646832159
:105880001A4603A81C4626F00FFAC8B128F0CEFA33
:105890006844C37A0A2B07D0A6B9204626F086F9B9
:1058A0000A2801D00130F8D103A828F0BFFA6C68AB
:1058B0000090002103AB2246284621F0D1FE0120B2
:1058C00025B0F0BD232103A828F00DF90028E4D16C
:1058D000BA680248314627F099FFDEE71C4A030800
:1058E0002DE9F04FC3B08146019110461C49029248
:1058F00026F02EFB8346584625F0E8FE4FF0010ABD
:1059000014AE044630BB5B46524612A94846CDE968
:1059100012648DF85040FFF7ADFF002800F08B8136
:10592000D9F80030019A9B6912A94846984720B1DE
:10593000038C4AF6E612934214D01298B04201D07A
:10594000FDF7E0FB584625F0C1FE0AF1010A0446C6
:105950000028D8D0584643B0BDE8F04F25F06CBEC3
:105960003C840308076808AB0693002F00F00E8301
:10597000384628F05BFA0F2805463C9000F2678114
:10598000012840F01A813B788DF8203008AA0DF1EB
:10599000F0080023079501985355FBF7DFF93EAF58
:1059A000DDE9061240463C97FBF714FD4046FEF742
:1059B000DFFE05463C98B84201D0FDF7A3FB069CEC
:1059C000002D40F0018123782F2B36D0CDE93C7596
:1059D0008DF8F850079D4046691C21F0A4FDA84BA6
:1059E0003D9A9A4200F0D5820122A649404621F014
:1059F00087FE3D9AA24B9B1A9D4200F2CA822A461C
:105A00002146404621F07CFE069808AB984200F003
:105A10004181DDE93C32BB4200F04181CDE90632F3
:105A20003E9B0893002800F051823C9000230370B5
:105A30003C98B84201D0FDF765FB0EAB0C93029B7E
:105A4000002B00F0A382184628F0F0F90F28044636
:105A50003C9000F2A181012800F09981002840F0DB
:105A600007810EAA00230D942F2113550CA84FF087
:105A7000FF3221F096FEDDE90C12904294BF0A1825
:105A80008A1840463C97FFF787FE0C980EAB984269
:105A900000F0F1813C9BBB4200F0F9810C933D9BEF
:105AA0000D933E9B0E93002800F0ED813C90002367
:105AB00003703C98B84201D0FDF724FB0D9A079C77
:105AC0000592002311193793069A8DF8E03038AD0E
:105AD0000C9B039336A80492369521F024FD684B65
