:020000040800F2
:10000000008001209DD60108F1D60108F1D6010833
:10001000F1D60108F1D60108F1D601080000000070
:10002000000000000000000000000000F1D6010800
:10003000F1D60108000000009D390008F1D6010842
:1000400041470008F1D60108F1D60108F1D60108B0
:10005000F1D60108F1D60108F1D60108F1D6010860
:10006000F1D60108F1D60108F1D60108F1D6010850
:10007000F1D60108F1D60108F1D60108F1D6010840
:10008000F1D60108F1D60108F1D60108F1D6010830
:10009000F1D60108F1D60108F1D60108F1D6010820
:1000A000F1D60108F1D60108F1D60108F1D6010810
:1000B000F1D60108F1D60108F1D60108F1D6010800
:1000C000F1D60108F1D60108F1D60108F1D60108F0
:1000D000F1D60108F1D60108F1D60108F1D60108E0
:1000E000F1D60108F1D60108F1D60108F1D60108D0
:1000F000F1D6010819360008F1D60108F1D6010839
:10010000F1D60108F1D60108F1D60108F1D60108AF
:10011000F1D60108F1D60108493100084D3900082F
:10012000F1D60108F1D60108F1D60108F1D601088F
:10013000F1D60108F1D60108F1D60108F1D601087F
:10014000F1D60108F1D60108F1D60108F1D601086F
:10015000F1D60108F1D60108F1D60108F1D601085F
:10016000F1D60108F1D60108F1D60108F1D601084F
:10017000F1D60108F1D60108F1D60108000000000F
:10018000F1D60108F1D6010810B5054C237833B932
:10019000044B13B10448AFF300800123237010BD5A
:1001A0009002002000000000DC00030808B5064BA8
:1001B0001BB106480649AFF300800648036813B137
:1001C000054B03B1984708BD00000000DC000308A0
:1001D000940200208C0200200000000070B52DED7C
:1001E000028B734884B000F0F9FE0021704800F0E3
:1001F00033FF704800F0F2FE00216E4800F02CFF43
:10020000A8201EF083FA044600F060FF6A4B606885
:100210001D686A4A03686A499B68A2FB0562920CE2
:10022000984701AA674903A81FF05AF803A8616814
:1002300016F0D8FA039B644AA3F10C00904240F0F8
:10024000AB806068614D036861499B6898475421A1
:10025000286802F0FFF9064614F048FC31462046B3
:1002600001F01EFC0821286802F0F4F9064613F09C
:10027000ABF83146204601F013FC1421286802F047
:10028000E9F9064613F0B0F93146204601F008FCC2
:100290001021286802F0DEF9064616F02BF83146E8
:1002A000204601F0FDFB01201EF030FA064612F058
:1002B000F5F9304602F0EAFA4421286802F0CAF95A
:1002C00005460DF015FF2946204601F0E9FB2820E0
:1002D0001EF01CFA0021054613F0ECFB20462946CF
:1002E00001F0DEFB002213464DF2BD11606900F003
:1002F00095F9B2EE040A00F035FE00F0AFFDDFED37
:10030000357AB4EEE70AF1EE10FAB0EE408A3DDD40
:1003100004201EF0FBF9DFED307A68EE277A002228
:10032000FCEEE77A054617EE901A04F037FA2946F4
:10033000204601F0B5FB18EE100A1FF0C9F96568F8
:10034000024628680B46866824492846B0476069FB
:1003500000F01EF994F8A430DB0703D514480121FE
:1003600000F07AFE1E4C2368DA68986992F89C11B6
:1003700006F09CFF2368986A03F05CF82368586ACB
:1003800002F07EFE04B0BDEC028B70BD60681549C2
:1003900003689B689847DAE753F8042C511E002A3B
:1003A00043F8041C3FF74DAF02A91EF0FFFC48E7DD
:1003B000AC020020AE020020D001002083DE1B43EF
:1003C00014AE020824B80208940500201803002087
:1003D00030AE0208CDCCCC3D0024744948AE0208B2
:1003E000C80200206CAE0208F8B50F4CFFF7F6FE0D
:1003F0000025274610E06E1CC5F30031B6B200F0B0
:100400002BFE3868354600210A4601F04FFB206874
:100410000321002201F04AFB2368044893F8A4203A
:10042000D207E8D41846EEE7C8020020AC0200204C
:1004300010B5054C4C21204600F0C4FDA01C4D21F8
:10044000BDE8104000F0BEBDAC020020004870477F
:100450008CAE0208004870479CAE02080D4B0F2876
:1004600010B41B6813DC03EB4002C1F30B01B2F8BC
:10047000044104EBC000013403EB4003A4B2072C99
:10048000A2F80441998084BF0023A2F804315DF8EA
:10049000044B7047B002002038B5094B04461C20BD
:1004A0001C601EF033F9082205464FF47A7104F0FF
:1004B000C9F928462560034904F04AFA204638BDA8
:1004C000B00200205D040008012070470020704742
:1004D0000120704710B5054B0360044640681BF0CF
:1004E000DDFB034B2360204610BD00BFC0AE0208F9
:1004F00030B5020810B5064B0360044640681BF097
:10050000CDFB044B2360204602F0C0F9204610BD0D
:10051000C0AE020830B5020838B540680D460A4939
:1005200021F008F9044670B1284622F0F2F80121C2
:1005300002462346284621F03FFC0546204620F08F
:1005400057FE284638BD38BDB4AE020810B5036862
:100550000A4A0446A3F10C00904282B002D1204620
:1005600002B010BD53F8042C511E002A43F8041C9D
:10057000F5DC01A91EF01AFCF1E700BF940500208C
:100580000B460068114647F2693200F017BB00BF06
:1005900038B5046805462CB1204600F0E1F9204644
:1005A00002F074F900232B6038BD00BFF8B50C468B
:1005B0000546FFF7EDFF0C201EF0A8F8074600F0F7
:1005C00093F92F606CB16C68AE68B44209D03946BB
:1005D00000E0296854F8040B03689B689847A6421A
:1005E000F7D1F8BD10B504684CB1204600F0E2F92F
:1005F00000B110BD064800F023FC0548F9E7054BA3
:1006000005491B68586803689B689847204610BDD9
:10061000B4020020C8020020E0AE020800B583B09A
:10062000ADF800106946ADF80220ADF80430FFF7D0
:10063000D9FF03B05DF804FBF8B542680368D31A2C
:100640009B1004460F4605D05A00934226D96FF0FE
:10065000030600E0042630461EF058F8054694E8EC
:1006600009001B1A9B109A003968AF1807D045F88B
:10067000231094E809001B1A9B109A00AF1823B1AD
:100680000146284621F069FC2068043708B102F0D1
:10069000FDF82E44A66084E8A000F8BDB2F1804FBA
:1006A000D5D2DE00D7E700BF38B543688468A342DF
:1006B000024606D009680BB11960436804335360E1
:1006C00038BDFFF7B9FF38BD2DE9F04106460023DC
:1006D00084B043608360C360054646F8043B102045
:1006E0001EF014F804AC80466E496F4F04F02AFFE8
:1006F00044F8048D30462146FFF7D6FF01AA6B4926
:1007000020461EF0EDFD204603F0B6FB039BA3F14F
:100710000C02BA42804640F0B7802046B8F1000F84
:100720005ED0624901AA1EF0DBFD10201DF0EEFF35
:1007300021465F4A804604F0E1F9039BA3F10C00D7
:10074000B84277D1B8F1000F05D030462146CDF838
:100750000C80FFF7A9FF01AA564920461EF0C0FDF4
:10076000204603F089FB039BA3F10C02BA428046AA
:1007700049D1B8F1000F1ED04E4901AA20461EF003
:10078000AFFD10201DF0C2FF21464B4A804604F009
:10079000B5F9039BA3F10C00B84240D1B8F1000FAA
:1007A00005D030462146CDF80C80FFF77DFF284666
:1007B00004B0BDE8F08101AA404920461EF090FD3A
:1007C000204603F059FB039BA3F10C02BA4280467A
:1007D0004BD1B8F1000FEAD001AA20463749CEE745
:1007E00001AA37491EF07CFD204603F045FB039B20
:1007F000A3F10C02BA42804627D1B8F1000FAAD06B
:1008000020462F498EE753F8041C481E002943F860
:10081000040CAEDC104602A91EF0C8FAA9E753F892
:10082000042C511E002A43F8041CB7DC02A91EF058
:10083000BDFAB3E753F8042C511E002A43F8041CF8
:1008400080DC02A91EF0B2FA7CE753F8041C481EB3
:10085000002943F8040CD0DC104602A91EF0A6FAC9
:10086000B8F1000F3FF477AFCAE753F8041C481EF5
:10087000002943F8040CACDC104602A91EF096FADD
:10088000B8F1000F93D0A7E753F8041C481E0029C5
:1008900043F8040C3FF741AF104602A91EF086FA58
:1008A0003BE700BF1CAF02089405002024AF0208FC
:1008B00034AF020850AF02085CAF020860AF020814
:1008C0003CAF020810B5054C204600F0A3FA2046C4
:1008D0000349044ABDE810401DF03DBFB4020020AA
:1008E0004D050008880100200022026042608260FD
:1008F000704700BF2DE9F04190E86000B54282B03A
:1009000080461CD0154F55F8044B3CB12368A3F129
:100910000C02BA4215D1204601F0B8FFAE42F2D126
:10092000D8F800000023C8F80030C8F80430C8F830
:10093000083008B101F0AAFF02B0BDE8F0812846F6
:10094000F0E753F8041C481E002943F8040CE2DCCD
:10095000104601A91EF02AFADDE700BF9405002029
:1009600010B50446FFF7C6FF206808B101F08EFFFE
:10097000204610BD10B5436853F8044D436082B063
:1009800044B123680A4AA3F10C00904204D12046E6
:1009900001F07CFF02B010BD53F8042C511E002A58
:1009A00043F8041CF3DC01A91EF000FAEFE700BFD6
:1009B00094050020F8B590E85000B4420F4602D1EB
:1009C0000DE0A6420BD054F8045B384605F10C014B
:1009D000062221F0AAFA0028F3D12846F8BD002506
:1009E0002846F8BD2DE9F04790E8200145458AB03A
:1009F0000F4622D0012655F8044BD7F80090E38922
:100A0000B4F80CA00093238A019322680292A37C7D
:100A10000393E37C0493A0681EF05AFECDE906011F
:100A20006268089253463246D9F80840044938466D
:100A3000A047A84506F10106DDD10AB0BDE8F08760
:100A400070AF0208F8B542680368D31A9B100446D9
:100A50000F4605D05A00934226D96FF0030600E0F6
:100A6000042630461DF052FE054694E809001B1A84
:100A70009B109A003968AF1807D045F8231094E806
:100A800009001B1A9B109A00AF1823B10146284693
:100A900021F063FA2068043708B101F0F7FE2E4414
:100AA000A66084E8A000F8BDB2F1804FD5D2DE0088
:100AB000D7E700BF2DE9F04790E8A00084B0BD4221
:100AC0008146019124D08A4601F10C0801E0AF4231
:100AD0001ED02E684046062206F10C012C46043535
:100AE00021F023FA0028F2D156B13368184AA3F155
:100AF0000C00904220D1304601F0C8FEDDF804A081
:100B0000C4F800A0134821F0A9FB04B0BDE8F087A9
:100B1000D9F808309F420AD0019B17B13B60D9F841
:100B200004700437C9F8047004B0BDE8F087484683
:100B300001A9FFF787FFE8E753F8042C511E002AAC
:100B400043F8041CD7DC03A91EF030F9D3E700BF3B
:100B500094050020CCAF0208F8B542680368D31AA8
:100B60005B1004460F4605D05A00934221D96FF01E
:100B7000010600E0022630461DF0C8FD054694E857
:100B800009001B1A5B105A003988AF1818BF25F8E6
:100B9000131043B9023708B101F078FE2E44A66065
:100BA00084E8A000F8BD0146284621F0D6F9206867
:100BB000F0E7B2F1004FDAD29E00DCE72DE9F04118
:100BC00090E89000BC4282B0884602D114E0A7426F
:100BD00012D054F8045B2E8A9642F8D1AE8946456D
:100BE000F5D159689868814209D0881CED8901B116
:100BF0000D80A7425860ECD102B0BDE8F0811846E4
:100C000005F10E0101920093FFF7A6FF009B019AE8
:100C1000DDE700BF014B0360704700BF00B0020872
:100C200010B5034B0360044601F030FE204610BDB2
:100C300000B00208F0B50B681A78232A87B00C467A
:100C400071D053F80C3C022B6DD90846002247495D
:100C500002231EF022F8461C054664D023681B5C64
:100C6000232B60D00223204640492A461DF0E0FF96
:100C7000431C074653D03D4920463A4602231EF006
:100C80000CF806460130216850D08B5D232B4DD0E7
:100C900051F80C2C9542C5EB07034DD82A46214646
:100CA00002A81EF0D9FA02A904A802F041FF1420FC
:100CB0001DF02CFD054600F0ADF8BDF81010BDF894
:100CC0001220BDF81430A9810120A874EA812B827A
:100CD000721C0523204626491DF0AAFF421C2268EB
:100CE00052F80C2C14BFC6EB00030346964223D8DF
:100CF0002146324603A81EF0AFFA284603A91DF08C
:100D000040FF039B1B4CA3F10C00A04217D1029B98
:100D1000A3F10C00A0421DD1284607B0F0BD216808
:100D2000154821F0E7F9002007B0F0BD134821F085
:100D3000E1F9002007B0F0BD11481EF05EFB53F84A
:100D4000042C511E002A43F8041CE0DC01A91EF00B
:100D50002DF8DCE753F8042C511E002A43F8041C3C
:100D6000DADC03A91EF022F8D6E700BF20B00208A3
:100D700080B002089405002024B0020888B0020860
:100D800068B0020838B51546FFF754FF044618B19D
:100D900028462146FFF78EFE204638BDF0B583B0C9
:100DA00014460F4601AA19491E4605461EF098FA38
:100DB00021463846FFF73EFF044660B182893388FA
:100DC0009A420BD02368124AA3F10C00904212D130
:100DD000204601F05BFD284603B0F0BDC289738850
:100DE0009A42EFD1B388028A9A42EBD12846214633
:100DF0001EF0F5F9E6E753F8042C511E002A43F8DB
:100E0000041CE5DC01A91DF0D1FFE1E724B80208CC
:100E10009405002010B50022074B03600021044612
:100E200081608274C2748281C281028242600349FD
:100E30001EF068F8204610BDA005002024B8020866
:100E400000228260002204498274C2748281C281BD
:100E5000028242601EF056B824B80208F0B52DEDAB
:100E6000028B837C87B004460BB9C37C23BB002371
:100E7000214605A803931EF0A6F904A805A902F0CF
:100E800039FF059B214DA3F10C00A84233D1049EEC
:100E900003A9304622F0E4FA039BB342B0EE408A45
:100EA00010D9049BA3F10C00A84219D1B0EE480A56
:100EB00007B0BDEC028BF0BD90ED020A07B0BDECAF
:100EC000028BF0BD124BE7891B68268A586822689E
:100ED0000168A389009701968C680E49A047E0E756
:100EE00053F8042C511E002A43F8041CDEDC05A92B
:100EF0001DF05CFFDAE753F8042C511E002A43F87A
:100F0000041CC4DC02A91DF051FFC0E794050020B9
:100F1000C802002010B1020810B504461EF053F9B3
:100F2000204610BD08B5837C0BB9C37C43B9074983
:100F3000002203231DF07CFE013018BF012008BDF4
:100F40004068003018BF012008BD00BF2CB2020865
:100F500007EE101AF8EEC77A0122C0ED027A41605E
:100F6000C2747047012280ED020AC274704700BF4C
:100F7000837C10B504461BB90123C3741EF02FF9FE
:100F8000204610BD38B5044600781AF095FE227848
:100F90000B4B617853F822200125506805FA01F1C6
:100FA00020EA010151602178627853F82130AA408B
:100FB000D968032000FA02F221EA0202DA6038BDA1
:100FC00030B2020810B5C1F3031301F00F0104465B
:100FD00003704170FFF7D6FF204610BD10B4094BD7
:100FE0000178427853F8213052001C680321914067
:100FF000012024EA010100FA02F20A431A605DF8B6
:10100000044B704730B202080278124BF0B453F828
:1010100022204478176864000326A640012527EAA9
:10102000060605FA04F43443146051B90178427895
:1010300053F821304FF4803101FA02F29A61F0BC8A
:1010400070470178427853F8213095409D61F0BC9B
:10105000704700BF30B2020810B40B4B04784278DE
:1010600053F8243041B94FF4803000FA02F29A610B
:1010700008465DF8044B7047012000FA02F29A61BD
:1010800008465DF8044B704730B202080022026047
:1010900042608260C2607047F8B5046900F10806DA
:1010A000B4420F464FF000050DD020690368394661
:1010B0005B6998478542B8BF054620461DF0C6FBD0
:1010C000B0420446F1D12846F8BD00BFF0B52DED81
:1010D000028BC14B036383B0044600F1440300F16B
:1010E000B001002243F80C2C43F8082C43F8042CE0
:1010F0000C338B42F6D194F8A430B84A03F0F503D0
:101100006FF3451384F8A430212101A81460FFF780
:1011100059FF012101A8FFF777FF4FF48C701DF0F4
:10112000F5FA09210A224FF41653054605F044FC4E
:10113000256010201DF0EAFA0546FFF7C5FA28469B
:1011400065610121FFF732FA206810B103685B681E
:101150009847002525601C201DF0D8FAA0490160A1
:10116000034600F10802026142610572C5608561B3
:101170009C496360012204F130001DF0C3FE9A49CE
:101180002368C8684FF6FF02024042F0BF6242F493
:101190000032CA60002B00F03181944D00221346CA
:1011A00060694CF6DF11FFF739FA0021FFF7D0FE36
:1011B000FFF7B8FE94F8A43080F00100002260F33D
:1011C000000384F8A4306069134648F2AE01FFF7CB
:1011D00025FA0021FFF7BCFEFFF7A4FE94F8A43027
:1011E000002260F3820384F8A4306069134643F65A
:1011F0006621FFF713FA94F8A410C1F38001FFF7FA
:10120000A7FEFFF78FFE94F8A430002260F3451389
:1012100084F8A4306069134645F68B31FFF7FEF978
:101220000121FFF795FEFFF77DFE236894F8A420C7
:10123000196860F3041284F8A42018468A6890475D
:1012400042F6AA220023606944F2ED11FFF7E6F9A5
:101250004FF41651FFF77CFEFFF700FE28684FF4AD
:101260008C71B0EE408A01F0F5F9BDEEC88A0546F2
:101270003521362218EE103A05F09EFB2B682846E1
:101280009B68984728201DF041FA054601F0B0FE02
:101290002B6865629B682846984744201DF036FA03
:1012A000054602F021F9A5624FF492701DF02EFA66
:1012B0004D4D0646FFF7F0F8E9684D4BE6624FF6F4
:1012C000FF020A4042F0BF624FF0200E5021102072
:1012D00042F4003240273026EA6083F837E30022E8
:1012E00083F82D0383F8367385F8226083F80003B2
:1012F00083F8121383F84D1383F8251383F826130C
:1013000083F8271383F834136069134645F29E511E
:10131000FFF784F93749FFF71BFEFFF79FFDBCEE8F
:10132000C00A0022134684ED0D0A60694AF25D513D
:10133000FFF774F90121FFF70BFEFFF78FFDD4EDE6
:101340000D7AA06AB0EE408AB8EE670A02F08CF817
:10135000B0EE480AA06A02F0ABF828201DF0D6F9DA
:10136000054605F081FF2B68A5619B6828469847D4
:1013700018201DF0CBF9054605F022F92B68A56071
:101380009B68284698474FF4D0701DF0BFF905467A
:1013900008F05EFE2B68E5609B68284698470420AD
:1013A0001DF0B4F9054601F02BFB134B2B602846CA
:1013B000256215F0E9F928201DF0A8F9054606F088
:1013C00031F9256101201DF0A1F9E061204603B04B
:1013D000BDEC028BF0BD00BFA0050020C8020020BC
:1013E00060B2020880B2020800ED00E0180300209D
:1013F00000E100E0A086010028E5020842F6AA22EA
:1014000044F2ED1160690D4DFFF708F94FF41651E4
:10141000FFF79EFDFFF722FD4FF48C712868B0EEB8
:10142000408A01F017F9BDEEC88A064618EE103A58
:1014300009210A2205F0C0FA2660AFE61803002051
:101440002DE9F04F2DED048BBC4B0360B3B0074684
:1014500088464FF44C4044F68A5100220DF1230394
:1014600001F078FC08B98DF823003846B449012210
:101470001DF036FE98F8A4309C0700F158819DF8C5
:101480002320002A40F07681180740F1FF8038467B
:10149000AC4904221DF024FED8F80C3093ED448AA8
:1014A0008DED0C8AD3ED438ACDED0D8AD3ED427AD2
:1014B000CDED0E7A93F83430DB0740F12B819FEDB0
:1014C000A29AC7EE897AC8EE898A88EE098A17EE51
:1014D000900A1EF0FDF8044618EE900A0D461EF024
:1014E000F7F802460B4618EE100ACDE90223CDE9C3
:1014F00000451EF0EDF812AECDE90401934A8021BB
:10150000304621F00FF892490446062238461DF075
:10151000E7FD3146802C34BF224680221DF0E0FDDD
:10152000D8F80C1091F89C31032B2EDD9FED868AA4
:1015300003248B6891F8342053F82430D3ED0B7AD0
:1015400093ED087AF8EEE77AD007C7EE877A04F1D0
:10155000010448BFC7EE887A17EE900A1EF0B8F86B
:101560007C4ACDE900018021304620F0DBFF314686
:10157000802834BF0246802238461DF0B1FDD8F8DD
:101580000C1091F89C31A342D3DC0DF13C09484684
:101590000CAA06F065FBD8F80C30DDED117A93F853
:1015A0003430D90740F1A8809FED678AC7EE887A6A
:1015B00017EE900A1EF08CF8DDED107AC7EE887AEF
:1015C00004460D4617EE900A1EF082F8DDED0F7A04
:1015D00087EE888A82468B46CDE90045CDE902AB8D
:1015E00018EE100A1EF074F8584ACDE90401802163
:1015F000304620F097FF58490446062238461DF031
:101600006FFD802C34BF2246802231461DF068FDDC
:10161000D8F80C40204606F0C9FB94F83430DA07BD
:1016200044BFDFED497A80EE270A10EE100A1EF063
:101630004FF8CDE90001D8F80C309FED487AD3ED92
:10164000567AC7EE277A17EE900A1EF041F8444A00
:10165000CDE902018021304620F064FF3146802828
:1016600034BF0246802238461DF03AFD98F8A44067
:10167000C4F38004BCB138463A4902221DF030FD63
:10168000384633B0BDEC048BBDE8F08FD8F81800B5
:1016900005F01CFE002800F0C581384632490422BE
:1016A0001DF01EFDF8E64B4622464AF616404BF268
:1016B000D3110F941094119401F04CFB002840F0CA
:1016C0006681DDF840800F9D454500F0BF81274AC7
:1016D0002C4605F11009631B143459F80330A3F1AB
:1016E0000C00904240F0CC814445F4D10F98002882
:1016F000C1D001F0CBF8BEE717EE900A1DF0E8FF6D
:10170000044610980D461DF0E3FF9DED0F8A8246BA
:101710008B4661E717EE900A1DF0DAFF044618EEDB
:10172000900A0D461DF0D4FF02460B46DBE6384614
:101730000F4905221DF0D4FCAEE600BFA005002035
:1017400084B2020898B202083333CB41ACB202082B
:10175000C0B20208C8B20208D0B202080080BB457D
:10176000F0B2020810B30208A0B2020894050020EB
:1017700088B202083846B74904221DF0B1FCD8F8F7
:101780000C0009A906F03AFAD8F80C00C36933B185
:10179000036A09A9143001229847D8F80C0090F880
:1017A0003430DDED097AD90700F1238117EE900A74
:1017B0001DF08EFF04460A980D461DF089FF9DED31
:1017C0000B8A02460B4618EE100ACDE90223CDE93A
:1017D00000451DF07DFF12AECDE904019E4A802137
:1017E000304620F09FFE9D490446062238461DF0F3
:1017F00077FC3146802C34BF224680221DF070FCDD
:10180000D8F80C1091F89C31032B2EDD9FED948AB3
:1018100003248B6891F8342053F8243093ED0B7A2D
:10182000D3ED087AB8EEC77AD207C7EE277A04F16B
:10183000010448BFC7EE887A17EE900A1DF048FFF2
:10184000884ACDE900018021304620F06BFE314608
:10185000802834BF0246802238461DF041FCD8F86B
:101860000C1091F89C31A342D3DC0B98099B0A9C85
:101870000F900DF13C094A460CA81193109406F004
:10188000EFF9D8F80C30DDED0E7A93F83430DB0741
:1018900040F1CE809FED728AC7EE887A17EE900AEB
:1018A0001DF016FFDDED0D7AC7EE887A04460D4671
:1018B00017EE900A1DF00CFFDDED0C7A87EE888A9A
:1018C00002460B46CDE90223CDE9004518EE100A89
:1018D0001DF0FEFE604ACDE904013046802120F073
:1018E00021FE61490446062238461DF0F9FB802C92
:1018F00034BF2246802231461DF0F2FBD8F80C405E
:10190000D8F81830DFED597AD3ED088A94F83430DE
:10191000DD0768EEA78A48BFDFED517A204648BF51
:10192000C8EEA78A06F042FA94F83430DC0744BFC8
:101930009FED4B8A80EE088A18EE900A58BFB0EEF1
:10194000408A1DF0C5FECDE9000118EE100A1DF019
:10195000BFFECDE90201D8F80C309FED457AD3EDFA
:10196000567AC7EE277A17EE900A1DF0B1FE414A6B
:10197000CDE904013046802120F0D4FD3146802895
:1019800034BF0246802238461DF0AAFB6EE6DDF821
:101990003CA0DDF84080C2455AD00AF114045546F7
:1019A0000AF1100BCAEB050354F8140C5BF8039012
:1019B0001DF08EFECDE9000154F8100C1DF088FEDC
:1019C0004B46CDE902012C4A2021304620F0AAFDE9
:1019D0001435202834BF02462022314638461DF0F7
:1019E0007FFBA84504F11404DCD10F9DDDF8408095
:1019F0006AE69FED1B8AC7EE887A17EE900A1DF003
:101A000067FEDDED0A7AC7EE887A04460D4617EECA
:101A1000900A1DF05DFEDDED0B7A02460B4687EE67
:101A2000888AD0E63846154903221DF059FBA6E600
:101A300017EE900A1DF04CFE04460D980D461DF061
:101A400047FE9DED0C8A02460B463BE728464EE6D4
:101A5000454639E690B20208ACB20208C0B20208AC
:101A60003333CB41C8B20208D0B202080000704242
:101A70000080BB45D8B2020800B30208A8B2020831
:101A800053F8041C01F1FF3E002943F804EC3FF732
:101A90002BAE314607921DF089F9079A24E600BF64
:101AA00008B50B6808469B68984708BD2DE9F04FBC
:101AB000072983B08B46824690463CD00123019390
:101AC0000BEB4B0292000AF1380188188C584668DB
:101AD000B4421CD0244F07EBCB02556805F0010936
:101AE0006D1006E0284457F83B2041469047A64237
:101AF0000DD054F8040BB9F1000FF3D0415957F849
:101B00003B2028448A5841469047A642F1D1BBF178
:101B1000070F02D003B0BDE8F08F9AF8A4309B07FE
:101B200002D5019B002BF5D1DAF80C0003B0BDE81B
:101B3000F04F06F095BB90F8A410D2F1010238BF27
:101B4000002262F3410180F8A41032B9C9B208073B
:101B500044BF62F3C3018AF8A410DAF8180005F054
:101B6000B5FB0190ACE700BFC8B3020801EB41012F
:101B700038B538308B00C518C0586C68A0420DD0FD
:101B80000368934218BF031D03D108E00168914226
:101B900005D0A342184603F10403F7D138BD011D57
:101BA0008C4206D0631A9A1003D0920020F0D5F927
:101BB0006C68043C6C6038BD70B50C46064609B9CB
:101BC0000AE02C463046E168FFF7F6FFA56820469C
:101BD00000F05CFE002DF4D170BD00BF10B5054BC8
:101BE000044640F8043BE168FFF7E6FF024B236040
:101BF000204610BD60B2020830B50208074B10B590
:101C0000044640F8043BE168FFF7D6FF044B23602D
:101C1000204600F03BFE204610BD00BF60B2020827
:101C200030B50208F8B542680368D31A9B10044621
:101C30000F4605D05A00934226D96FF0030600E004
:101C4000042630461CF062FD054694E809001B1A84
:101C50009B109A003968AF1807D045F8231094E814
:101C600009001B1A9B109A00AF1823B101462846A1
:101C700020F073F92068043708B100F007FE2E4405
:101C8000A66084E8A000F8BDB2F1804FD5D2DE0096
:101C9000D7E700BF00B501EB4101383000EB810010
:101CA00083B04368816801928B4207D00BB11A6000
:101CB00043680433436003B05DF804FB01A9FFF7F8
:101CC000B1FFF8E730B4074A074D084C0849C26431
:101CD000002205654465816502704264826430BCFF
:101CE000704700BF0123456789ABCDEFFEDCBA9892
:101CF00076543210F0B492B10C460023A57894F8D3
:101D000001C0CF5CE6782D0445EA0C253D4345EA49
:101D10000665C55004339A4204F10404EED8F0BCC1
:101D2000704700BF30B492B1034600240D680555DA
:101D300051F8045B2D0A5D7031F8025C9D7004342B
:101D400011F8015CDD70A24203F10403EED830BC4F
:101D5000704700BF2DE9F04F834695B004A840229C
:101D60000BF1500494E83001DBF84C90DFF8E0A36D
:101D7000DB4FDC4EFFF7BEFFDB4A0192DB4A0292EB
:101D8000049ADB4BDFF8CCC3DFF8CCE3D948DA495F
:101D900091444B4428EA040205EA040942EA09098D
:101DA0004B4404EB736325EA03020392059A9044C3
:101DB000039A03EA040942EA0909C244069ACA449A
:101DC00003EB3A5A24EA0A090AEA0308154449EAE5
:101DD0000808AC44079AC4440AEBFC3C23EA0C080C
:101DE0000CEA0A051444A64448EA0505089C0A9A28
:101DF00075440CEBB5252AEA050E274405EA0C04C8
:101E00004EEA04043B442344099F05EB736303EA51
:101E100005043E442CEA030756443C4306EB040EFB
:101E200003EB3E5E25EA0E0610440EEA030434433B
:101E300084440CEB04000B9C0D9FDDF838A00EEBE6
:101E4000F03023EA0006214400EA0E04344329441A
:101E50000C9E019D35440195214400EBB121019A6E
:101E6000A64C2EEA010601EA000535431A442A442D
:101E7000029BA34EA34D01EB72621F4420EA0209AC
:101E800002EA0103BE4449EA0309F14402EB39596D
:101E9000AAF5244E21EA090C09EA0208AEF14F0E18
:101EA00070444CEA08080F9F974B804409EBF838C0
:101EB00022EA080E3B4408EA09004EEA00001944F1
:101EC00001441098059F08EBB12C06440CEA080168
:101ED00029EA0C00014332440A4411990CEB726365
:101EE0000C4403EA0C0228EA03010A43A14491448A
:101EF00003EB395E129A6FEA0E0404EA0C011544F2
:101F00000EEA03020A43A84490440EEBF836139DF0
:101F10007E4A7F496FEA060806EA0E002A4408EA6C
:101F2000030594440543654406EBB52505EA0E0216
:101F3000394434400B4414430A987649764ADFF812
:101F40001CC21C44754B05EBF46404EA0607034409
:101F500005EA080847EA08089E440EEB08000F9BB4
:101F6000099F04EBF05000EA050E194424EA05032A
:101F70004EEA03030E44F118049E00EBB14120EA3F
:101F80000403324401EA0406154446EA0302644BA2
:101F9000644E2A4401EB32323B4402EA000E1C44F8
:101FA00021EA00034EEA0303234402EBF36303EA4E
:101FB0000108D44422EA010448EA040460442044AD
:101FC00003EBF05E1398584D0D9FDFF894810EEAF5
:101FD0000204064423EA0200204331440E18089903
:101FE000524C0EEBB64606EA03000D442EEA0301FE
:101FF0002A4440EA0105154406EB35353C4405EA20
:102000000E0C234426EA0E044CEA04041C444848FF
:10201000129B079F4749484A05EBF46404EA060C03
:10202000184425EA06034CEA030386440EEB03003A
:1020300004EBF05000EA050E394424EA05034EEAA9
:1020400003030E44F1180C9B119FDFF818C100EB3D
:10205000B14101EA04061A4420EA0403154446EAA1
:102060000302364B364E2A4401EB32323B4402EA3D
:10207000000E1C4421EA00034EEA03032344314DC1
:10208000069C0B9F02EBF36303EA010E254422EA50
:1020900001044EEA04042844051903EBF55505EA4A
:1020A000020EBC4423EA02004EEA000061440144EF
:1020B00010980C9F05EBB144064425EA030104EA9D
:1020C0000300014332440A4409991F481F4EA1F5F9
:1020D000B82E04EB323284EA050CAEF2BE6E43E059
:1020E000AF0F7CF52AC68747D8988069AFF7448B35
:1020F00078A46AD7134630A8019546FD937198FDE0
:102100002211906B8E4379A6BED75C892108B44911
:1021100062251EF6515A5E26AAC7B6E940B340C0F2
:102120005D102FD681E6A1D8C8FBD3E7E6CDE1212B
:10213000D60737C3870DD5F4ED145A4505E9E3A951
:102140008A4C2A8DF8A3EFFC22619D6D44EABEA45F
:1021500056B7C7E8DB702024EECEBDC1531444024D
:1021600097FF2A43D9026F678CEA020C7344DFF8A9
:1021700038E3BA49634402EB3373BE4482EA040C89
:102180008CEA030C754405EB0C0E0F9D129F03EBBC
:102190007E5E284483EA020585EA0E050444601940
:1021A0000EEB304039448EEA030444400A441119CE
:1021B000059A089FAA4DAB4C00EB7121164480EAAA
:1021C0000E0C8CEA010C3344A74EA84A634401EB81
:1021D00033733E4481EA000C0B9F8CEA030CB64437
:1021E0000EEB0C0603EB76563A4483EA010E8EEAB8
:1021F000060E104400EB0E0206EB3242554486EA0E
:102200000300504029440D181198049FDFF89CE208
:10221000974902EB752582EA060C04448CEA050C0A
:102220001C44644405EB3474BE4485EA020C8CEA19
:10223000040C764406EB0C0E8E48079E0A9F8E4BCC
:1022400004EB7E5E304484EA050686EA0E0602440C
:1022500090190EEB304039448EEA040242400D449E
:10226000A9180D9A109F854E854D00EB712180EACB
:102270000E0C13448CEA010C2344634401EB3373CA
:102280003E4481EA000C139F7E4A7F4C8CEA030C8B
:10229000B6440EEB0C0603EB76563A4483EA010E85
:1022A0008EEA060E104400EB0E0206980B9FDFF834
:1022B00000C2DFF800E206EB3242054486EA030082
:1022C000504029440D180499704802EB75250C44C0
:1022D00065EA060151401C440C4405EBB464B84463
:1022E00064EA020989EA05094644129F6849694B74
:1022F000DFF8C4814E4404EBB656BC4466EA0507D9
:102300006740624402EB070C099A109FDFF8AC911A
:1023100006EB7C4C96446CEA04027240754415440A
:102320000CEBF525384465EA060282EA0C02044407
:10233000A018079C584F05EBB06060EA0C022144DE
:102340006A403144114400EBB151AAF5801A61EAA8
:102350000504AAF6833A4440E244059EDFF860C1D2
:10236000A24401EB7A4262EA000433442B444C401D
:102370001E194A4B0293DFF84CA1494D494C02EB20
:10238000F6230C9E63EA010EB2448EEA020E50441C
:10239000139E704403EBB060B14460EA020A8AEA1B
:1023A000030A49440A9E514400EBB151B04461EA2A
:1023B000030989EA00094244119E4A4401EB724232
:1023C000B44462EA000888EA01086344089E434472
:1023D00002EBF323374463EA010C8CEA020C07EBAF
:1023E000000EE6440F98029F069E03EBBE6E074464
:1023F0006EEA02005840394401440EEBB1513544B5
:1024000061EA030080EA0E002A440D9FDBF84C606D
:10241000DBF85450024401EB724262EA0E003C4485
:10242000DBF8507048402344DBF85840034417441D
:10243000764407EBF32715440C4404A8CBF84C6012
:10244000CBF85070CBF85450CBF8584000214022C4
:102450001FF09EFD15B0BDE8F08F00BF0C38E5FD04
:1024600070BCBFBEC67E9B28A9CFDE4B604BBBF6BF
:10247000051D88048530EFD439D0D4D9E599DBE641
:102480006556ACC4F87CA21F442229F4C3595B658D
:1024900092CC0C8FD15D8485827E53F735F23ABDA4
:1024A000BBD2D72A91D386EB81F67187FA27A1EAAE
:1024B000A72394AB39A093FC144301A3E0E62CFEC0
:1024C000A111084E4F7EA86F2DE9F843446C1746C2
:1024D000D20013199A424364836CC4F3C50488BFC5
:1024E0000133C4F1400603EB5773B74205468846F3
:1024F000836409D20444601C002408EB04013A1BE5
:10250000BDE8F8431FF020BD20443246013005F1FC
:1025100001091FF019FDC4F1800449462846FFF760
:1025200019FCA74202D212E026461C4608EB06011F
:102530002846FFF70FFC04F140039F42F4D24846BF
:1025400008EB04013A1BBDE8F8431FF0FDBC484608
:102550003446D2E730B5037883B00446B3BB00F10C
:102560004405294668460822FFF7DCFB626C1949DE
:10257000C2F3C502372A94BFC2F13802C2F1780211
:102580002046FFF7A1FF204669460822FFF79CFF7F
:1025900004F15C0004F14C011022FFF7C3FB0021A1
:1025A0004022601C1FF0F4FCAB1C002284F8442085
:1025B0006A7003F8012B03F8012B03F8012B03F8D1
:1025C000012B03F8012B01211A702170204603B062
:1025D00030BD00BF8C010020F0B50B788BB00746F2
:1025E000C3B10D4601AC09AE204695F85C200D49FB
:1025F00002341FF0C9FFB44205F10105F4D10023F4
:1026000001A938466A468DF824301CF069FE384628
:102610000BB0F0BD044901AA1CF062FE38460BB0B5
:10262000F0BD00BF14B3020824B80208F0B4084C8F
:1026300041602568028100274FEA122C8F70CF700D
:1026400081F801C00A7005602060F0BC704700BFCF
:10265000CC0200208B0718BF21F003012DE9F00107
:1026600018BF0431456801F1040C1FFA8CFC2B469D
:1026700010E093F801809A7841EA082141EA02418A
:1026800041EA046161450A461EDA018913446A1869
:10269000934215D8DA781978D70902F07F041646E4
:1026A000E7D05E789C7841EA062141EA044102F0D5
:1026B0007F0241EA0262018913446A189342E9D910
:1026C0000020BDE8F001704746F080068C45DE70C2
:1026D00027DA03EB0C02CCEB0101D47803F80C10E1
:1026E00067F3C714C1F3066604F08004C1F307253D
:1026F0003443C1F3074155709170D470DC782CF0ED
:10270000004C04F0800400214FEA1C2583F800C02F
:102710005D70DC70997044680189121B8A4200DB8D
:1027200000BE181DBDE8F001704700BF2DE9F003A1
:1027300011F8013C11F8042C11F8034C11F8025C5B
:102740006FF3C71342EA042444EA054403F07F020E
:102750000F1F44EA02643A1901F8013CD378DD09FD
:1027600026D145680689551BB54200F38D8017F8C0
:1027700004C092F80180967811F8015C4CEA0822B6
:1027800042EA064203F07F0342EA03631C44C4F3B7
:10279000066325F07F051D43C4F30722C4F30743F6
:1027A00001F8044C01F8015C01F8032C01F8023C2B
:1027B00045682B786E78AA78EC7843EA062343EADA
:1027C000024304F07F0443EA04642A4615E00289C8
:1027D000964205EB020C54DA1A7893F801809E7841
:1027E000DC7842EA082242EA064204F07F0452EA18
:1027F000046446D0634544D21A461319561BBB42A3
:102800002644E4D1D378DE09C3F3C01539D111F8D9
:10281000046C11F8039C11F8028C11F801CC46EA03
:10282000092646EA08460CF07F0C46EA0C6634445A
:1028300023F07F08C4F3066CC4F30726C4F30743F0
:102840002E432B432C4348EA0C0C82F803C05670ED
:102850009370147011F8042C11F8036C11F8025CD9
:1028600011F8014C4168038942EA062242EA054216
:1028700004F07F0042EA00627F1A3A449A4200DB89
:1028800000BEBDE8F003704700BE70E7094B1B684F
:10289000014613B90BE01B684BB15A689142FAD359
:1028A000188902449142F6D21846FFF73FBF084606
:1028B00019F0F4B9CC0200202DE9F04F0B68446800
:1028C00002899D68DFF8ACB080460F4683B0254989
:1028D000234638464FF00009A847CA46D8F8046096
:1028E00002E0042D34D92C443B68E2789D681E4BED
:1028F0001E49D20908BF5B460093237894F801E093
:10290000A078E27843EA0E2343EA004302F07F0214
:1029100043EA02620192A31B22463846A847217867
:102920006578E378A278D8F8046041EA052545EA9D
:10293000024503F07F0245EA0265DB09C6EB0402AB
:10294000B8F808302A4408BFA9449A42AA44C8DB10
:102950003B6807499C6852464B463846A04703B03F
:10296000BDE8F08F2CB302081CB302084CB3020878
:1029700070B3020824B302080246F0B45368158904
:1029800000201C4602E0042A14D91344D9785F7849
:102990009E78CA091A7842EA072201F07F0142EACA
:1029A000064242EA0162C4EB0301114408BF8018E9
:1029B000A942E8DBF0BC7047704700BF704700BF1A
:1029C000704700BF704700BF704700BF704700BF2F
:1029D000704700BF704700BF704700BF704700BF1F
:1029E000014B0360704700BF98B3020810B5034B5A
:1029F00003600446FFF74AFF204610BD98B3020863
:102A0000014B0360704700BF98B30208024B0246B7
:102A10001868FFF73FB900BFC8020020082810B4AB
:102A20000AD80F2908D8064B012453F8202004FAAD
:102A300001F10A4343F820205DF8044B704700BFC2
:102A4000F4020020082810B40AD80F2908D8064B31
:102A5000012453F8202004FA01F10A4343F820200E
:102A60005DF8044B704700BFD002002010B4084B43
:102A70004179027953F821300324D968520004FACD
:102A800002F221EA0202DA605DF8044B704700BFEF
:102A900010B402088279102102F0FE0201716FF376
:102AA0004102002182710160704700BF70B50D4680
:102AB00082B004462C4928461CF008F930B9A379A5
:102AC00060F34103A371204602B070BD02AEA3794A
:102AD0002D68002246F8042D43F00203A37131460D
:102AE00028460A2220F058FD019BC0B2AB4260711B
:102AF00008D9082806D81D4A52F8202022601A78E2
:102B00002E2A0ED0A2791A4B236002F0FD02002378
:102B100063F3000210212046A2716371217102B09B
:102B200070BD5D1C0A2231462846019520F034FD17
:102B3000019AC0B295422071E4D20F28E2D81078F1
:102B400050B9C0E7A37943F00103A37113460132E2
:102B5000019258780028B6D02128F3D001F09EF8D1
:102B60000028B0D0019AF1E734B4020810B402088A
:102B70000000024038B583799B0704460CD54179A3
:102B8000064B027953F821300125596805FA02F203
:102B90000A435A60FFF76AFF204638BD10B40208A6
:102BA0002DE9F0410D4682B00446504928461CF0FC
:102BB0008DF838B9A37960F34103A371204602B0C0
:102BC000BDE8F08102AEA3792D68002246F8042DFD
:102BD00043F00203A371314628460A2220F0DCFCB0
:102BE000019BC0B2AB4260710CD908280AD819F019
:102BF00063F83F4D6279019B55F8222022601A78D4
:102C00002E2A0FD0A2793B4B236002F0FD02002355
:102C100063F3000210212046A2716371217102B09A
:102C2000BDE8F0815F1C314638460A22019720F04A
:102C3000B3FC019BC0B29F422071E3D20F28E1D8C0
:102C400018780028BAD003264FF00208012710E0B8
:102C50006F281DD0762837D05E2823D001F01EF8CB
:102C60000028ABD0019B1A4601330193507800280D
:102C7000A4D04028F7D0EBD821280ED02D28EDD1B4
:102C8000A2799207EFD52046FFF7F0FE019BEAE715
:102C90002046FFF76FFF019BE5E7A27942F00102B2
:102CA000A271E0E7A2799007DDD56279217955F824
:102CB00022204900D06806FA01FC20EA0C0007FA3D
:102CC00001F10143D160CEE7A2799107CBD56279BA
:102CD000217955F822204900D06806FA01FC20EA43
:102CE0000C0008FA01F10143D160BCE734B40208DA
:102CF00010B402080000024038B503464079197943
:102D000019F0D4F8084904461AF072FC013008D0D2
:102D100014201BF0FBFC2146054619F0D5F9284686
:102D200038BD002038BD00BF20F20208024A026010
:102D30000022C260704700BF40B4020810B5044BC7
:102D4000036000230446C360FFF7A0FD204610BDCA
:102D500040B4020870B586B0114E9DF81440ADF82D
:102D6000080004F0FE041D46ADF80A10ADF80C2072
:102D700030680C4B049501AA6FF3410405218DF8CE
:102D800014400193FEF792FE9DF8142012F001000A
:102D900003D0930744BF049B2B6006B070BD00BFF7
:102DA000C802002040B4020830B587B00E4C9DF830
:102DB0001450ADF8080005F0FE05ADF80A10ADF8A6
:102DC0000C202068094C049345F00205062101AA55
:102DD0008DF814500194FEF769FE9DF8140000F080
:102DE000010007B030BD00BFC802002040B4020897
:102DF00010B5034B03600446FFF7F2FD204610BDFB
:102E000050B4020810B5054B03600446FFF7E8FD17
:102E10002046FFF73BFD204610BD00BF50B402081E
:102E200010B50446FFF7ECFD201DFFF733FE064BFF
:102E30002360FF2100234FF0FF32E16022612376FF
:102E40006361204610BD00BF50B40208002905DBB5
:102E5000C3689942A8BF194601617047002101610A
:102E6000704700BF036981F30801002BC16004DBD8
:102E70009942B8BF0B460361704700230361704756
:102E8000C0687047837A4FF0FF3202619A070FD50E
:102E900003F001038B42027A436804D0012101FA56
:102EA00002F29A6170474FF4803101FA02F29A619E
:102EB000704700BF0269FF2A30B4034621D86AB3C5
:102EC000FF2A3ED040691C7EB0F5007FA8BF4FF4BA
:102ED00000706FF0FF05A842B8BF284658619CB942
:102EE00002447F2A5A6129DC9A7A900709D502F0B8
:102EF0000102A2421A7A5B6818D0012000FA02F29D
:102F00009A61084630BC7047A2F5807210440028D0
:102F1000D8BF00245861D8BF1C76E5E7827A9507B0
:102F2000EFD512F0010F4368027AE6D14FF48030FA
:102F300000FA02F29A61084630BC704701241C7600
:102F4000D2E7827A9407DCD512F0010F4368027A47
:102F5000D3D0EBE70321FFF759BD00BF10B50446FE
:102F60004068054B236008B1FFF790FC2046FFF74F
:102F700037FD204610BD00BF88B4020838B5104D9B
:102F80002B6893F8A430DB07044608D50D4B0E4898
:102F900019884A1CC1F300311A80FEF75DF872B639
:102FA000636A53B1636A013B636262B604212868B5
:102FB0000022BDE83840FEF779BD62B638BD00BFDB
:102FC000C802002024030020AE02002010B50446F1
:102FD0004068064B236008B1FFF758FC2046FFF716
:102FE000FFFC2046FFF752FC204610BD88B40208C3
:102FF000F0B583B00446FFF703FD194B194E0025C9
:1030000084E82800A560E56004F11800FFF742FDA0
:10301000154A0195176C154B15481C6047F01007B1
:103020001764126C134B1449DFF850C002F0100201
:1030300001920422019F1A6032688068920BA1FB02
:103040000261C0F818C18908052741F6FF762046BD
:10305000276161619E62D9622262656203B0F0BD40
:1030600088B40208D001002000380240200300206C
:1030700000ED00E000100040CDCCCCCC4931000880
:10308000054B064A01204FF48001D86051601A6850
:1030900002431A60704700BF0010004000E100E0EA
:1030A000074A084B1268920B10B4B2FBF1F141F6DB
:1030B000FF7441619C62D9625DF8044B0262704703
:1030C000D001002000100040F8B5446885684169CF
:1030D000AC42064602D112E0A54210D054F8043B9F
:1030E0005A69521A002A5A61F6DA18691F680244AE
:1030F0005A6197B10020B847A5427169EED1336A91
:10310000591A0029316207DA0E4A736A12680133CC
:1031100001EB923131627362F8BD5A68002ADBD04C
:103120009F68D8683FB1C30707D402EB6000002155
:10313000B8477169D0E7C307CED54310D018D3582C
:10314000DF59F4E7D0010020034A044B6FF001017E
:1031500011611868FFF7B8BF00100040200300207D
:1031600038B5094D094B036004460246072128681B
:10317000FEF7FCFC286822460821FEF7F7FC2046F3
:10318000FFF72EFC204638BDC8020020C0B402085C
:1031900010B50446FFF7E4FF2046FFF777FB204613
:1031A00010BD00BF012916D041B1CB0720D490F843
:1031B0003830022202FA03F3194219D0837E9A07AB
:1031C00016D513F0010F027E43690CD1012101FADB
:1031D00002F29A617047837E9A0709D513F0010FB6
:1031E000027E436905D14FF4803101FA02F29A61FF
:1031F000704791409961704701B17047837E9A078B
:103200000AD513F0010F027E43690CBF01214FF470
:10321000803101FA02F29A61038F6FF34923038729
:10322000704700BF2DE9F041044625461E4617466B
:103230008846FFF7E5FB354B45F8043B98E803006B
:1032400085E8030097E8030004F10C0383E803001A
:1032500096E8030004F1140383E80300B3799F07A1
:1032600003D570793179FFF7D9FB0023E362228F10
:10327000A17E274E2748236363F34922228794F8CF
:1032800039206662002542F0040263F3C3026563DD
:103290004FF07E538D0784F83920A062236209D550
:1032A000227E6369C80754BF01214FF4803101FABF
:1032B00002F29A61A37A99070AD513F0010F227AD4
:1032C000636814BF01214FF4803101FA02F29A6160
:1032D000A37C9A070AD513F0010F227CE36814BF80
:1032E00001214FF4803101FA02F29A61238F6FF3CA
:1032F0000823238720460721FFF788FB2046082163
:10330000FFF784FB2046BDE8F08100BFC0B402088F
:10331000000048420000C07FD0ED0D7A10B580ED6E
:10332000080A20EE270A04461CF072FF2063E062C0
:1033300010BD00BFD0ED087A10B580ED0D0A20EE6B
:10334000270A04461CF064FF2063E06210BD00BF42
:10335000036B80ED0D0A194401637047D0ED087AC4
:1033600010B520EE270A04461CF052FF236BC01A4A
:1033700010BD00BF38B5837E9A0704460D460FD5B1
:103380004269017E1069C84003F0010300F00100AA
:10339000984205D0002B47D0012303FA01F1916137
:1033A00094F8393003F00103AB4215D0238FA27C8F
:1033B00065F30823900723870BD502F00102AA4288
:1033C000227CE36814BF01214FF4803101FA02F23C
:1033D0009A6101201AF050F9A37A99070AD513F0DF
:1033E000010F227A63680CBF01214FF4803101FA8A
:1033F00002F29A6103201AF03FF9A37A9A070AD5DC
:1034000013F0010F227A636814BF01214FF4803159
:1034100001FA02F29A61E26A002D0CBF01234FF01B
:10342000FF331344E36238BD4FF4803303FA01F1F4
:103430009161B5E7F0B4094B094A0A4F01214FF4F5
:1034400000064FF400550024D960F96056605560BD
:10345000C4631A680A431A60F0BC70470014004045
:1034600000E100E0002000400E4B0F4A1B6880ED99
:10347000040A5B08A2FB0313DB0807EE103AF8EE20
:10348000C77A10B587EE800A04461CF071FE074B20
:103490000E21BCEEC00A84ED050A996283ED0B0A89
:1034A00010BD00BFD001002089888888001400402A
:1034B000DFED0A7AC0EE277A08B5094B1B685B0876
:1034C00007EE103AB8EE470A20EE270A1CF050FE2D
:1034D000044BBCEEC00A83ED0B0A08BD00247449FE
:1034E000D0010020002000402DE9F04383B00025EA
:1034F000294B2A4A00954563C56310601A6C8560A4
:1035000042F020021A64D3F84080DFF8A8E0244A91
:10351000DFF8A4C0234F244E24499FED250A08F06C
:103520002008CDF800804FF00408DDF80090CEF8B8
:103530000080D2F808E00195CEF81CC1D3F840E035
:103540004EF4807EC3F840E01B6C03F4807301935B
:103550000C23DDF804E03B609368C3F8F4609368E3
:1035600004469963FFF780FF2046B1EE040AFFF797
:103570009FFF94F84030656365F3440384F840305E
:1035800094F84030A56365F30003204684F840308A
:1035900003B0BDE8F08300BF0038024028030020DC
:1035A00000ED00E000200040193600089D390008B9
:1035B0000050C347001400404D39000870B490F823
:1035C0004050C5F3430515B3002301244FF4803662
:1035D00002E00133AB421ADA426B04FA03F1114202
:1035E000F7D000F1180252F82320917A11F0020F5F
:1035F000EFD011F0010F117A526803F1010314BFEB
:1036000004FA01F106FA01F1AB429161E4DB002317
:10361000436370BC704700BF034A044B6FF0010165
:1036200011611868FFF7CABF00200040280300207E
:103630002DE9F843856B002D53D090F84010C1F36D
:103640004301002947D000236C6D1E4601274FF42B
:10365000803C03E00133DBB28B4236DAC3EBC302BA
:1036600004EBC202926A002AF4D000EB83022E6DB2
:10367000926903F01F0992F8128007FA09F919EA12
:10368000060F0CBF4FF000094FF0010918F0020FB0
:1036900008F001060BD092F810804E4514BF07FACF
:1036A00008F60CFA08F6D2F80C80C8F81860168FE5
:1036B00069F308261687168F0133DBB246F40076CD
:1036C0008B4216874FF00106C8DB0023C3631EB18F
:1036D0000120BDE8F883C163034B1B68986903F0C0
:1036E00045FF0020BDE8F883C80200202DE9F04F17
:1036F00090F84030914D0646D80785B040F1E18002
:103700002968039191F8A400C0F34000002858D123
:1037100096F84080C8F34308B8F1000F00F0078125
:10372000D6F838B0D6F83CA0DBF85490029507469E
:1037300022E0DDE90023012A73F100034DDBDCE91F
:103740000245DDE90023121943EB05034FF0FF3476
:103750006FF0404594429D41CCE9022344DB06EBE7
:1037600080039C6994F8393013F0020F18BF0127C9
:103770000130C0B240457CDAC0EBC00C09EBCC0C88
:10378000DCF82830002BF3D0DCE90045DCE9042329
:10379000DCF83010121943EB05035145CDE9002345
:1037A000CCE90023C5D1DBF844105145DBF84810C3
:1037B00000F09E805145BCD1DCE90645CCE90445CA
:1037C000B7E796F8402000236FF3000286F8402008
:1037D000F363B36305B0BDE8F08F00220023CCE9AA
:1037E000002300224FF08043003243F14043CCE9F4
:1037F0000223DCF82C1006EB800301319C69CCF825
:103800002C10A37A9A070CD513F0010F227A636863
:103810000BBF01254FF4803105FA02F201FA02F2E2
:103820009A6194F83930E26A13F0010F0CBF01235A
:103830004FF0FF331344E36294F839200628C2F3B3
:10384000400278D8736B00F01F01012505FA01F1E1
:103850000B4373632AB1DCF82C20DCF828309A4241
:1038600080D10021CCF82810238F6FF349232387C0
:1038700078E7029D736B0AF10102F26323B1304BCA
:103880001A6842F001021A60002FA3D1039AF7636D
:10389000906903F06BFE2B6806F13801986903F01C
:1038A0001BFE002839D196F84030B76367F3000358
:1038B00086F84030234B4FF080525A6005B0BDE887
:1038C000F08F2B6806F13801986903F005FE002897
:1038D00080D03046FFF7ACFE96F8403060F300032E
:1038E00086F8403096F84030D9073FF509AF71E7C8
:1038F000DBF84C4000220023A142CCE90423BFF4B2
:1039000059AF5145CCF830103FF456AFDCE90845CB
:10391000CDE90045CCE900450BE73046FFF788FECE
:1039200096F8403060F3000386F84030C2E747461F
:10393000D6F83CA09EE704481BF05FFDC8020020BB
:103940000020004000ED00E0F0B40208034A044B00
:103950006FF0010111611868FFF7C8BE0014004044
:103960002803002010B490F84020C2F34304631CE5
:1039700003F00F0300EB840463F3440280F840205B
:10398000581EA1615DF8044B704700BF826808B5FE
:1039900012B1C368984708BD1BF032FD08B5034B50
:1039A000186883680BB1FFF7F1FF08BD28030020FA
:1039B000014B0360704700BF30B502080EB4002011
:1039C00003B07047014B0360704700BF30B5020879
:1039D00010B5034B03600446FEF758FF204610BDA8
:1039E00030B5020810B5034B03600446FEF74EFFE6
:1039F000204610BD30B5020808461EF08ABE00BF42
:103A00000EB42DE9F04392B019AB02AE53F8049B0B
:103A1000019305464A463046402121F06BFA471C87
:103A20003F2F04460ADC2B6831465B6928469847DD
:103A3000204612B0BDE8F04303B0704738461AF094
:103A400063FE39464A46019B804621F053FA2B68B3
:103A500041465B6928469847B045E9D0B8F1000F68
:103A6000E6D040461AF07CFEE2E700BF0348044B74
:103A70000449054A03601AF06EBE00BF2C03002003
:103A800008B50208C53900088801002070B405682F
:103A90002878F8B10024104E2146084480FB062304
:103AA000C118C317C3EBE111C1EB0121411A0C444A
:103AB00084FB0623E218E317C3EBE213C3EB0323F3
:103AC00015F8010FE31A89B29CB20028E5D141EA4A
:103AD000042080B270BC70478180808070B402780E
:103AE0000AB30024114E21468D1885FB0623E918E0
:103AF000EB17C3EBE111C1EB0121691A0C4484FB04
:103B00000623E218E317C3EBE213C3EB032310F819
:103B1000012FE31A89B29CB2002AE5D141EA0424BC
:103B2000A0B270BC70471046FBE700BF8180808068
:103B30002DE9F04F0B6887B053F80C3C019000273B
:103B40008846078047808780002B63D04E4CBA465A
:103B5000012340464D4952461BF06AF84C4B0493F2
:103B6000431C05465DD0D8F8003053F80C2C924524
:103B7000CAEB050379D805AE5246304641461BF0E4
:103B80006BFB04A831461AF0FCFF059BDFF8089197
:103B9000A3F10C0048455DD1DDF810C09CF8003061
:103BA00043B34FF0000B5946604601EB030A8AFB12
:103BB00004230AEB03014FEAEA73C3EBE111C1EB03
:103BC0000121C1EB0A018B448BFB04230BEB0302A5
:103BD0004FEAEB73C3EBE212C2EB022210F8013F93
:103BE000C2EB0B0289B21FFA82FB002BDDD141EA46
:103BF0000B218BB2019AD3536A1CACF10C001CD080
:103C0000484505F1010A33D1D8F8003053F80C3C8F
:103C10009A4502D307B0BDE8F08F0237062FF9D0DE
:103C200096E7D8F8003053F80C3C53451DD305AE49
:103C30005246304641462B46A1E74845EAD05CF85B
:103C4000043C5A1E002B4CF8042CE3DC31461BF0DC
:103C5000ADF8DFE753F8042C511E002A43F8041C8A
:103C60009ADC03A91BF0A2F896E70A481BF0C5FBF3
:103C70005CF8043C5A1E002B4CF8042CC4DC314682
:103C80001BF094F8C0E700BF8180808050B5020827
:103C9000A005002068B0020894050020202804D068
:103CA000B0F109035842584170470120704700BFE6
:103CB000F0B50F4E06600C6854F80C7C2744BC42EB
:103CC00083B0054601D10FE02E6814F8010B1FF0F8
:103CD000E9FFC0B256F80C1C0090002228460123D0
:103CE0001BF0E2F8A742EFD1284603B0F0BD00BFB9
:103CF000A005002070B584B00C4602AA1C490646F7
:103D000003A81BF0EDFA03990022204651F80C3C61
:103D10001AF0C3FF421C18BF00250FD00146012234
:103D2000144B009520461BF0FDFA0399204651F8EC
:103D30000C3C00221AF0B1FF431CEFD10E4B039A4A
:103D400021683160A2F10C00A3F10C0188422360CC
:103D500002D1304604B070BD52F8043C591E002B0D
:103D600042F8041CF5DC02A91BF020F8F1E700BFC3
:103D700054B5020824B80208A005002070B50C460E
:103D8000012384B005462149204600221AF050FF45
:103D9000431C06461ED00022334602A821461BF0D3
:103DA0005BFA236853F80C3C721C9A4220D82146D7
:103DB00003A81BF051FA204603A91AF0E2FE039B68
:103DC000134AA3F10C00904215D1029B2B602846A8
:103DD00004B070BD214603A81BF0F5F920460D493B
:103DE00000221BF08FF8039B2B60284604B070BDA7
:103DF00009481BF002FB53F8042C511E002A43F81B
:103E0000041CE2DC01A91AF0D1FFDEE790B602083B
:103E10009405002024B8020868B0020830B50D46A9
:103E2000012383B004461149284600221AF000FFFE
:103E3000431C0FD02B6853F80C1C421C4B1C8A42AD
:103E4000C0EB03030ED8294620461BF005FA204696
:103E500003B030BD2046064901AA1BF041FA2046B6
:103E600003B030BD03481BF0C8FA00BF90B602088B
:103E700024B8020868B0020800207047BFF34F8FD3
:103E8000054A064BD16801F4E0610B43D360BFF3F0
:103E90004F8F00BFFDE700BF00ED00E00400FA0512
:103EA000F0B5A14D2B6885B00C46074603F13001F3
:103EB00002A81BF088F9236853F80C2C002A00F0A4
:103EC0009A8053F8042C002A03DB20461AF0D4FF12
:103ED00023681A782F2A00F0CB80944D0022032308
:103EE000214603A81BF0B8F903A891491AF0EEFE89
:103EF000039BA3F10C02AA42064640F0C780002EA5
:103F000037D1236853F80C3C022B40F2CC804FF0A1
:103F1000FF332146032203A81BF09EF9204603A984
:103F20001AF02FFE039BA3F10C00A84240F0BE80C4
:103F300080494FF0FF32012302A81AF093FE02A934
:103F40000346002203A81BF087F902A803A91AF070
:103F500018FE039BA3F10C00A842BFD053F8042C19
:103F6000511E002A43F8041CB8DC01A91AF01EFFF8
:103F7000B4E700220223214603A81BF06DF903A831
:103F80006D491AF0A3FE039BA3F10C02AA42064658
:103F900040F0BA80002E35D0029B53F8042C53F821
:103FA0000C1C002A01F1FF3603DB02A81AF064FFA3
:103FB000029B9B5D2F2B02A960D003A81BF003F985
:103FC0002F22012103A81BF0C5F803A821461BF0EE
:103FD0005EF85A4A03683B600260039BA3F10C0041
:103FE000A84240F08580029BA3F10C00A84269D151
:103FF000384605B0F0BD29684C4D303138461BF0CD
:10400000E2F8F0E7236853F80C3C012B4BD94FF052
:10401000FF332146022203A81BF01EF9204603A904
:104020001AF0AFFD039BA3F10C00A84255D1414902
:104030004FF0FF32012302A81AF014FE02A9034632
:10404000002203A81BF008F902A803A91AF099FDA1
:10405000039BA3F10C00A8429ED053F8042C511EE0
:10406000002A43F8041C97DC01A91AF09FFE93E78D
:10407000324A3B60A2F10C052260B4E738461BF0DF
:10408000A2F8384621461BF002F8ACE753F8041CAE
:10409000481E002943F8040C3FF731AF104601A930
:1040A0001AF084FE2BE726481BF0A7F953F8042CDE
:1040B000511E002A43F8041C3FF73AAF01A91AF039
:1040C00075FE35E753F8042C511E002A43F8041CF2
:1040D0008EDC03A91AF06AFE8AE753F8042C511EFD
:1040E000002A43F8041CA2DC01A91AF05FFE9EE737
:1040F00053F8042C511E002A43F8041C3FF773AFF9
:1041000001A91AF053FE6EE753F8041C481E00295B
:1041100043F8040C3FF73EAF104601A91AF046FEE3
:10412000002E7FF439AF6DE7C8020020940500200F
:1041300074B5020880B2020878B50208A005002014
:1041400068B002082DE9F04191E81001444582B0C1
:104150000746164621D012B30834002301E09E42E0
:1041600017D914F8082CFA5454F8040C5D1C1BF0F1
:10417000AFFA731B07EB050ECDE90001094A19469A
:1041800070461EF0CFF9A04500EB050304F10804CA
:10419000E5D1184602B0BDE8F0810020FAE71046EC
:1041A000F8E700BF7CB5020830B585B00D4604467F
:1041B00003AA17491BF094F8052D23680CDC34354D
:1041C000EDB253F80C1C00952046002201231AF092
:1041D0006BFE204605B030BD53F80C1C392300930C
:1041E0002046012300221AF05FFE204609490122E1
:1041F0001AF076FF2B350368EDB253F80C1C0095CE
:10420000002201231AF050FE204605B030BD00BF49
:1042100084B5020850B5020870B5054618F088FA52
:10422000074E044602E03068FDF740FC18F080FAC3
:10423000001BA8424FF003014FF00002F3D370BD02
:10424000C80200204FF47A7303FB00F0FFF7E4BFCD
:10425000F8B542680368D31A9B1004460F4605D090
:104260005A00934220D96FF0030600E0042630463E
:104270001AF04CFA054694E809001B1A9B109A00A4
:104280003968AF1818BF396043B9043708B1FEF771
:10429000FDFA2E44A66084E8A000F8BD0146284639
:1042A0001DF05BFE2068F0E7B2F1804FDBD2DE004C
:1042B000DDE700BFF8B542680368D31A9B100446D7
:1042C0000F4605D05A00934221D96FF0030600E053
:1042D000042630461AF01AFA054694E809001B1A1B
:1042E0009B109A003968AF1818BF45F8231043B9DE
:1042F000043708B1FEF7CAFA2E44A66084E8A0008D
:10430000F8BD014628461DF028FE2068F0E7B2F10E
:10431000804FDAD2DE00DCE72DE9F047426803681F
:10432000C3EB02095FEAA90982B007460E4648D0EE
:104330004FEA4903994555D96FF0030948461AF0E9
:10434000E5F997E83000291B891000EB81038046CE
:1043500000F1040A23B13368254A40F82130326065
:10436000AC4231D0231DC3EB050C4FEA9C0C04F189
:1043700008061F4806EB8C06424622B153F8041C7F
:10438000116043F8040C0433B34202F10402F4D187
:1043900008EB8C0C174E0CF1080A54F8043BA3F1FF
:1043A0000C02B24212D1A542F7D1386808B1FEF72B
:1043B0006DFA08EB0903BB6087E8000502B0BDE8B1
:1043C000F0874FF00409B9E72046EFE753F8041CE3
:1043D000481E002943F8040CE5DC104601A91AF038
:1043E000E5FCE0E7B3F1804FA6D24FEAC909A5E7A3
:1043F000A0050020940500202DE9F04FDFF80C8186
:10440000002385B082460F461646036043608360F2
:10441000A8F10C093B78B3424FD0002B4DD07B1C48
:1044200000E024B11D4613F8014BB442F9D1AF426C
:1044300054D0002F3CD0C7EB050B5846002101AAF1
:104440001AF064FCBBF1010F044600F10C0328D103
:104450003A7822734C452C4F44D1DAF80420DAF82C
:10446000081003938A4233D01AB11360274BCDF85A
:104470000C800432CAF80420A3F10C00B84238D1F1
:104480002B786F1C002BC5D1504605B0BDE8F08FCE
:104490002846294601AA1AF039FCAB46044600F129
:1044A0000C03184639465A461DF04EFD0346D1E727
:1044B000002DEDD016481AF09AFFDAF80420DAF849
:1044C0000810124B03938A423D46A3F10C07CBD14F
:1044D000504603A9FFF720FF039BCDE70B4BA3F149
:1044E0000C07BAE70022C4F800B0A26003F80B2062
:1044F000B3E753F8042C511E002A43F8041CBFDC18
:1045000002A91AF053FCBBE794050020A005002087
:1045100088B50208F0B585B004462C2201A8FFF743
:104520006BFF019D029E0023B54223606360A36080
:104530002BD055F8040B00211EF092FF6368A2688F
:104540008DED000A93421BD01A1D0BB183ED000ABA
:104550006260AE42EDD10198029E86420AD0114FB0
:10456000054655F8043BA3F10C00B8420FD1AE420A
:10457000F7D1019808B1FEF789F9204605B0F0BDE2
:1045800020466946FFF764FEE3E72846F2E753F862
:10459000042C511E002A43F8041CE8DC69461AF07A
:1045A00005FCE4E794050020F0B585B00446174605
:1045B00001A82C22FFF720FF019D029E0023B54297
:1045C00023606360A3602AD0002155F8040B3A46AB
:1045D0001EF0E2FF6368A16800908B421AD0191D9B
:1045E00003B118606160AE42EED10198029E86422E
:1045F0000AD0114F054655F8043BA3F10C00B84210
:104600000FD1AE42F7D1019808B1FEF73FF920462D
:1046100005B0F0BD20466946FFF74CFEE3E72846AB
:10462000F2E753F8042C511E002A43F8041CE8DC7E
:1046300069461AF0BBFBE4E79405002002299ABF03
:1046400000EB810191ED000A9FED010A704700BF68
:104650000000C07F90ED015AD1ED007AD1ED025AF1
:1046600090ED027A91ED016AD0ED006A27EEC51A4D
:1046700026EE470A66EEE50AA5EE250A88B0A6EE04
:10468000261AE7EE270A08B0704700BF90ED010A2E
:10469000D1ED015A90ED006AD1ED006A90ED027AF9
:1046A000D1ED027A20EE250AA6EE260AA7EE270A09
:1046B000704700BF90ED010A90ED007AD0ED027ACC
:1046C00020EE000AA7EE070AA7EEA70A704700BF70
:1046D000D0ED010AD1ED016A90ED021A91ED027A56
:1046E00090ED000AD1ED007A70EEE60A31EE471A3D
:1046F00030EE670A88B008B0704700BFD0ED010AFD
:1047000090ED021AD0ED007A60EE200A20EE011A38
:1047100027EE800A88B008B0704700BF014818F043
:1047200003BF00BF3003002008B50321FEF76EF978
:104730000248BDE8084018F0F7BE00BF3003002073
:1047400008B5074B1B6893F8A430DB0703D5054871
:104750000021FCF781FC044818F0EEFE00BE08BD05
:10476000C8020020AC0200203003002010B5034B2B
:1047700003600446FEF734F9204610BDC0B50208B8
:1047800010B5054B03600446FEF72AF92046FEF7F4
:104790007DF8204610BD00BFC0B5020870B50546C3
:1047A00082B0214C1646FEF72BF9204B20492B6096
:1047B0004FF4C0727F2384E80E00E360EEB91D4B16
:1047C00001961A6C42F400621A641B6C03F40063D5
:1047D000019320464FF40073019A236118F090FE74
:1047E000204618F0A1FE144A144B92681449116433
:1047F000284601221A6002B070BD00220D4B0192C2
:10480000196C226141F400621A641B6C03F40063AA
:1048100001932046019B18F073FE204618F084FE99
:10482000284602B070BD00BF30030020C0B50208AA
:10483000002C00400038024000ED00E000E100E004
:10484000414700082DE9F04F0446002583B0A574C8
:104850006574E574FF2100F8015B10221DF098FBE0
:104860001A4A0195D2F8449019491A4BDFF874801E
:10487000DFF874C0184F194E194849F48079C2F80E
:104880004490526C02F480720192019A4A686FF06F
:10489000784A42F4403B6FF0404940F20142C1F88F
:1048A00004B0C3F80CA0C3F81090C3F804809A6059
:1048B000DCF808204FF48023C2F8880020463B60D3
:1048C000A561346003B0BDE8F08F00BF003802403E
:1048D000002301400020014000E100E044030020EB
:1048E000454900082001000400ED00E038B5144BF4
:1048F000D96C1A689206044615D48369C07C23B12A
:10490000626901258540154215D10130637CC0B232
:104910008342E07406D80A4B1968002221F0100186
:104920001960E27438BD1968002221F03201196063
:10493000C27400BE38BD89B29847E07CE5E700BF8D
:1049400000200140014B1868FFF7D0BF440300204E
:1049500081617047F8B542680368D31A9B1004461A
:104960000F4605D05A00934226D96FF0030600E0A7
:104970000426304619F0CAFE054694E809001B1AC1
:104980009B109A003968AF1807D045F8231094E8B7
:1049900009001B1A9B109A00AF1823B10146284644
:1049A0001DF0DBFA2068043708B1FDF76FFF2E44D5
:1049B000A66084E8A000F8BDB2F1804FD5D2DE0039
:1049C000D7E700BF4FF0FF30704700BF704700BF10
:1049D000014B0360704700BFF8B5020810B5034BE8
:1049E00003600446FDF752FF204610BDF8B50208EB
:1049F0008088431A58425841704700BF10B58368F9
:104A00000C4A0D4901600446A3F10C00904282B0AB
:104A100004D10A4B2360204602B010BD53F8042C89
:104A2000511E002A43F8041CF3DC01A91AF0BEF958
:104A3000EFE700BF9405002020B6020800B002088E
:104A400010B583680D4A0E4901600446A3F10C00BD
:104A5000904282B007D10B4B23602046FDF716FF32
:104A6000204602B010BD53F8042C511E002A43F812
:104A7000041CF0DC01A91AF099F9ECE79405002078
:104A800020B6020800B0020870B584B000F1080139
:104A9000044602A81AF097FB02A903A81AF093FB98
:104AA00003A8FFF7E9F9039B134DA3F10C02AA42F7
:104AB00006460AD10EB101232373029BA3F10C0019
:104AC000A8420ED1207B04B070BD53F8041C481ED0
:104AD000002943F8040CEDDC104601A91AF066F930
:104AE000E8E753F8042C511E002A43F8041CE9DCC3
:104AF00003A91AF05BF9E5E79405002038B50446F0
:104B0000084B0948A360206010460D46FEF7E6FFFB
:104B10002946A08004F108001AF061FB00232373EA
:104B2000204638BDA005002020B60208F0B5A3B08D
:104B300007460E46144601A81A4683211D461CF05E
:104B4000EBFC30B31DF0E5FD22AB184410F8853CBA
:104B50000A2B07D08CB928461CF062FC0A2801D029
:104B60000130F8D101A81DF0D4FD01A9024630465C
:104B70001AF0C8F9012023B0F0BD01A823211DF0CF
:104B800096FD0028E7D12146BA6803481DF0B2FA25
:104B9000E1E723B0F0BD00BF40B6020830B50B7BA3
:104BA00083B00D46044673B90846FFF76DFF50B950
:104BB00009481DF053FB2046084901AA1AF090FB52
:104BC000204603B030BD05F1080120461AF0FBFA7B
:104BD000204603B030BD00BF60B6020824B802080A
:104BE0002DE9F043037B8BB0054688469146002BA8
:104BF00076D008A84146FEF79BFF07A82946FFF795
:104C0000CDFF07987D497E4E1CF094FD079B04461E
:104C1000A3F10C00B04240F0E480A3899A062BD4A3
:104C2000784F05A9204604971CF00CFC04A92846DF
:104C300000222346FFF77AFF06A9002859D0204614
:104C40001CF000FC2B6807A8D3F81CC004AA08AB12
:104C50002946E0470798034653F80C2DB34240F02D
:104C60009880002A55D1049BA3F10C00B04240F07B
:104C7000A080A3899B06D4D520461CF0B9FA07A8CA
:104C80002946FFF78BFF07985F491CF053FD079BF0
:104C90000446A3F10C00B04240F0978021460A2060
:104CA0001CF076FD2146D8F800001CF0CFFD23460D
:104CB0000922012155481DF07FF82146D9F800004E
:104CC0001CF0C4FD23460121112251481DF074F847
:104CD00020461CF08DFA012420460BB0BDE8F0837D
:104CE000FFF7D2FE0446002883D120460BB0BDE872
:104CF000F083049BA3F10C00B042BDD053F8042C08
:104D0000511E002A43F8041CB6DC07A91AF04EF81D
:104D1000B2E7D8F80020D9F8003052F80C0C059909
:104D200053F80C2C069B02445B1A0332043B93425B
:104D3000204612D21CF05CFA0024049BA3F10C0064
:104D4000B042C9D053F8042C511E002A43F8041C69
:104D5000C2DC07A91AF02AF8BEE700221CF096FE72
:104D60002146D8F800001CF071FD214620201CF0DF
:104D70000FFD2146D9F800001CF068FD23460121F3
:104D8000022224481DF018F820461CF031FA0124B4
:104D9000D3E750F8041C01F1FF3E002940F804EC71
:104DA0003FF75FAF184603A9019219F0FFFF019A80
:104DB00057E753F8042C511E002A43F8041C3FF710
:104DC00058AF07A919F0F2FF53E753F8042C511E0E
:104DD000002A43F8041C3FF761AF06A919F0E6FF6B
:104DE0005CE753F8042C511E002A43F8041C3FF7DB
:104DF00014AF06A919F0DAFF0FE700BF80B602086A
:104E000094050020A0050020B4AE020888B6020870
:104E100094B6020884B602082DE9F0470C4684B027
:104E20009146434903AA05461AF05AFA237B002B00
:104E300048D003A82146FFF7B1FE03983D493E4EF6
:104E40001CF078FC039B8046A3F10C00B04263D1B8
:104E5000B8F80C309A062ED4DFF8E0A019E02768E5
:104E600003A8FF69B847284603A919F08AFE0399E9
:104E7000A1F10C00B0422ED12B6853F80C3CABB919
:104E8000029BA3F10C00B04230D1B8F80C309B0665
:104E900011D402A9002243462046CDF808A0FFF70E
:104EA00045FE02AA4B4621460028D8D1029BA3F119
:104EB0000C00B04225D140461CF09AF9284604B0B7
:104EC000BDE8F0872046FFF7DFFD0028B1D1284676
:104ED00004B0BDE8F08751F8043C5A1E002B41F89D
:104EE000042CC9DC01A919F061FFC5E753F8042CB3
:104EF000511E002A43F8041CC7DC03A919F056FF11
:104F0000C3E753F8042C511E002A43F8041CD2DCDA
:104F100003A919F04BFFCEE753F8042C511E002AC9
:104F200043F8041C94DC02A919F040FF90E700BF8D
:104F300024B8020894E4020894050020A00500208B
:104F4000F8B50446084615460E461DF0E2FB0A4B2E
:104F500023602B6853F80C1C0746394420461AF08E
:104F600076F831463A4620461AF0BAF820462946E5
:104F70001AF08DF82046F8BDA00500202DE9F04F6D
:104F800089B093460546894607A8114605AA1AF036
:104F9000A7F907A8FEF770FF079BDFF8F882A3F1D7
:104FA0000C024245044640F0378114B909B0BDE80F
:104FB000F08F5846B149DFF8E0A21CF0BBFB012698
:104FC000074605E0049BA3F10C00404540F0318109
:104FD000BB899B0600F1038108AC324644F810AD52
:104FE000284621463B460136FFF7A0FD002800F089
:104FF000E7802B6821469B6928464A469847002847
:10500000E0D082894AF6E6139A42DBD107AA01680A
:1050100005A81AF065F94846FBF7ACFC05A907A8F6
:105020001AF0D1F807A8FEF727FF079BA3F10C029F
:105030004245044640F01581002C40F08480059BD9
:1050400053F8042C002A03DB05A819F015FF059B73
:105050001B782F2B0ED007A8894905AAFFF770FFF0
:1050600005A807A919F08DFD079BA3F10C00404589
:1050700040F03C8106AC594607AA20461AF030F9A8
:105080002F214FF0FF32204619F0BCFD2146034688
:10509000002207A81AF0E0F8204607A919F071FDD0
:1050A000079BA3F10C00404540F0CF80214607A8A4
:1050B0001AF089F805A907A819F0E9FF07A8FEF773
:1050C000DBFE079BA3F10C024245844640F0288199
:1050D000BCF1000F16D105AA07A86A49FFF730FFF7
:1050E00007A8FEF7C9FE079BA3F10C024245044640
:1050F00040F0E38007A8002C7CD0624905AAFFF7A6
:105100001FFF07E0214607A81AF05DF807A805A9C8
:1051100019F0BDFF05A807A919F033FD079BA3F1FE
:105120000C00404540F0D680069BA3F10C004045A2
:1051300009D053F8042C511E002A43F8041C02DC49
:1051400007A919F033FE05A907A81AF03CF807A82B
:10515000FEF792FE079BA3F10C024245044640F085
:10516000D280002C41D0059947481CF0C3FF07A905
:1051700038461CF067F9414905983A461CF076FC20
:1051800028464946059AFFF7F9FE3C4958463A46F3
:105190001CF06CFC384607A91CF01EFD059BA3F112
:1051A0000C0040453FF40EAF53F8042C511E002A6A
:1051B00043F8041C3FF706AF07A919F0F7FD01E714
:1051C000049BA3F10C00404509D053F8042C511E58
:1051D000002A43F8041C02DC07A919F0E7FD384651
:1051E0001CF006F809B0BDE8F08F059927481CF0BF
:1051F00081FFD3E705AA2649FFF7A2FE07A8FEF71D
:105200003BFE079BA3F10C024245044646D1002C0D
:105210008AD007A81E4971E753F8041C481E0029CC
:1052200043F8040C3FF7C1AE104606A919F0BEFDC5
:10523000BBE653F8042C511E002A43F8041C3FF728
:10524000C7AE07A919F0B2FDC2E653F8042C511EEF
:10525000002A43F8041C3FF729AF03A919F0A6FD63
:1052600024E753F8041C481E002943F8040C3FF7B8
:10527000E3AE104606A919F099FDDDE694E40208B4
:1052800080B20208A8B60208B4B60208D0B6020876
:10529000ACB6020894050020A005002053F8041CB9
:1052A000481E002943F8040CB1DC104603A919F08C
:1052B0007DFD002C3FF438AFABE753F8041C481ECB
:1052C000002943F8040C3FF715AF104603A919F065
:1052D0006DFD0FE753F8042C511E002A43F8041CFF
:1052E0003FF722AF03A919F061FD1DE753F8042C25
:1052F000511E002A43F8041C06AC3FF7BCAE214601
:1053000019F054FDB7E653F8041C481E002943F871
:10531000040C3FF726AF104606A919F047FD20E719
:1053200053F8041C481E002943F8040C3FF7D0AE84
:10533000104603A9CDF804C019F038FDDDF804C00B
:10534000BCF1000F3FF4C7AEDCE600BF30B5037B15
:1053500083B004460D4683B101A82146FFF71EFC29
:105360002046019A2946FFF709FE019B0B4AA3F14B
:105370000C00904207D103B030BDFFF785FB002839
:10538000EAD103B030BD53F8042C511E002A43F873
:10539000041CF0DC694619F009FDECE794050020D7
:1053A0008088431A58425841704700BF0020704718
:1053B000014B0360704700BF00B0020810B5034BFB
:1053C00003600446FDF762FA204610BD00B00208F3
:1053D0002DE9F0410F46C5688168A94282B00646B2
:1053E0002AD2A942DFF86C8023D20B780A2B01F174
:1053F000010408BF012204D106E014F8013B0A2B86
:1054000001D0AC42F9D1621A6B4601A819F07DFFB8
:10541000336830469B6901A93A469847019BA3F13E
:105420000C0040450BD1F568AC4205D22146A9429B
:10543000DBD30C460022E7E702B0BDE8F08153F869
:10544000042C511E002A43F8041CECDC694619F0B8
:10545000ADFCE8E7940500202DE9F0470F4684B045
:105460003649924603AA804619F03AFFB968FE68A9
:10547000B14248D2B142DFF8C89032D20B780A2B41
:1054800001F1010408BF012204D106E014F8015B18
:105490000A2D01D0B442F9D1621A03AB02A819F067
:1054A00034FF3B6803A8DD693946534602AAA84782
:1054B000404603A919F065FB039BA3F10C00484586
:1054C00025D1D8F8003053F80C3C6BB9029BA3F1FE
:1054D0000C00484526D1FE68B44214D22146B142A0
:1054E000CCD30C460022D8E7029BA3F10C00484520
:1054F00009D053F8042C511E002A43F8041C02DC86
:1055000003A919F053FC404604B0BDE8F08753F8F6
:10551000042C511E002A43F8041CD2DC01A919F006
:1055200045FCCEE753F8042C511E002A43F8041C16
:10553000D1DC03A919F03AFCCDE700BF24B802087A
:105540009405002010B5064B036004460846FEF79C
:10555000C5FA044A044BA080A260E360204610BD57
:1055600008B702083C6E020813AE020810B50446E4
:105570004068054B236008B11BF03AFE0022034B44
:1055800062602360204610BD30B7020830B50208C3
:1055900010B504464068074B236008B11BF028FE95
:1055A0000022054B626020462360FDF76FF920461C
:1055B00010BD00BF30B7020830B5020870B54468AE
:1055C0000D4654B108461DF0A4F8234602460121B9
:1055D0002846BDE870401CF0EFBB204670BD00BF00
:1055E0000121FDF713BA00BF10B583680C4A0D49BD
:1055F00001600446A3F10C00904282B005D1204620
:10560000FDF7EEF9204602B010BD53F8042C511EF0
:10561000002A43F8041CF2DC01A919F0C7FBEEE7ED
:105620009405002098BB020810B583680E4A0F4904
:1056300001600446A3F10C00904282B008D12046DC
:10564000FDF7CEF92046FDF721F9204602B010BD46
:1056500053F8042C511E002A43F8041CEFDC01A966
:1056600019F0A4FBEBE700BF9405002098BB0208EB
:105670002DE9F04F9BB051F8043B0C9304460DA864
:1056800019F0A1FD0DA908A819F09DFD089E56F876
:105690000C3C002B57D056F8043C002B03DB08A829
:1056A00019F0EAFB089E3578242D00F0C7812846C2
:1056B0001CF0C2FB0746002840F0C081472D59D09E
:1056C0004D2D57D0542D55D0532D53D04E2D00F085
:1056D000EC813B2D78D0282D76D00A2D74D00D2D5D
:1056E00072D008A889490022042319F0A1FAC8B190
:1056F000202D15D00C98864903689B689847089B15
:10570000DFF838B2A3F10C00584540F047860D9BF6
:10571000A3F10C00584540F034861BB0BDE8F08F73
:105720000130E7D006217B4A237D14A81CF0FAFE45
:1057300014A81CF0EEFF14AA0346002108A819F0D3
:1057400019FC089EA7E70C9873490368DFF8ECB1D1
:105750009B689847089EA6F10C005845D7D056F88C
:10576000043C5A1E002B46F8042CD0DC14A919F076
:105770001DFBCCE76368002703F10108022308A89A
:105780006649002219F054FA431C11D0034608A9B7
:10579000002214A819F060FD08A814A919F0F1F965
:1057A000149BDFF898B1A3F10C00584540F0F8863F
:1057B000626801320FB990450DD00C9858490368C2
:1057C0009B689847089B9BE70C98564903689B6821
:1057D0009847089B94E74E2D4FF00002524F08BFA8
:1057E000C4F804800592089B53F80C2C002A87D03B
:1057F0000222134608A84D49DFF844A119F018FA0F
:10580000461C0546CDF824A000F05B8214AE2B4662
:1058100008A9002230460DF1240919F01DFD484663
:10582000314619F0AEF9149BAAF10C0BA3F10C0050
:10583000584540F0A886089B53F80C3C9D4200F266
:105840009F864FF0FF332A4608A9304619F004FD21
:1058500008A8314619F095F9149BA3F10C0058459E
:1058600040F08186637DD80704D522690C9B9A425B
:1058700000F06484182018F049FFDFF8C8800C9A03
:1058800049460123054606F0F1F9D8F800002E7AC2
:1058900090F8A430990757D5B207296822D540F26D
:1058A000E73399421ED107210122FCF7FFF80C983B
:1058B0001F4903689B6898470C981A4903689B68BE
:1058C00098472DB1284606F0C9F82846FCF7DEFFB8
:1058D000DFF868B0099BA3F10C00584540F01C8626
:1058E000089E38E7134B53F8042F91422CD0BB424B
:1058F000F9D190F8A4305B0740F11C820C980E4956
:1059000003689B689847002DDCD1E1E770BB020873
:1059100080BB020878BB02087CB80208BCB702084A
:1059200064BB020800E4020884B70208C0B702089A
:10593000C4B702084CB702080CB80208940500204E
:10594000A0050020C8020020730709D56B68352B1D
:1059500000F02382012B00F0F681032B40F2F58149
:105960002B7A980772D52B68752B00F0968300F27E
:1059700011811E2B00F0EB8100F22382022B00F03C
:10598000BD821C2B62D12DB1284606F067F828464F
:10599000FCF77CFF099B53F80C3C032B04F1080532
:1059A00040F2EE85494604224FF0FF330EA819F06D
:1059B00053FC00218E4ADFF850B204230EA819F0E0
:1059C000D9FA1AAE026846F8182D03463146284621
:1059D000C3F800A019F0D5F8149BA3F10C005845AA
:1059E00040F03B850E9BA3F10C00584540F0288504
:1059F000A06880491BF09EFEE060002800F08F84C4
:105A00000C98657D03687C499B68A26845F0010598
:105A1000657598470C9B2361099BA3F10C005845C1
:105A20003FF4E1AE53F8042C511E002A43F8041C45
:105A30003FF7D9AE14A919F0B9F9D4E6DFF8CCB123
:105A400089E640F2F512934200F0DA82D8F80000BD
:105A5000DFF8B8B12A460221FCF728F82B7ADA06DB
:105A600000F13B81059ABAB9DE0700F19E832A69ED
:105A700052F80C3C002B40F0C183D8F8003093F86A
:105A8000A430D80600F17C82590700F179820C9885
:105A90005A4903689B689847002DBDD0284605F0F9
:105AA000DDFF2846FCF7F2FEB6E714AE3B4608A938
:105AB0000C9A304606F0DAF83A463046294605F0A8
:105AC000FFFFBDEEC00A3A4630462A2110EE108A8A
:105AD00005F0F6FF9DF85830BDEEC00A9A0710EEAB
