:020000040800F2
:100000000080012069DC0108BDDC0108BDDC0108BD
:10001000BDDC0108BDDC0108BDDC010800000000FA
:10002000000000000000000000000000BDDC01082E
:10003000BDDC010800000000CD3A0008BDDC01086D
:1000400071480008BDDC0108BDDC0108BDDC010809
:10005000BDDC0108BDDC0108BDDC0108BDDC010818
:10006000BDDC0108BDDC0108BDDC0108BDDC010808
:10007000BDDC0108BDDC0108BDDC0108BDDC0108F8
:10008000BDDC0108BDDC0108BDDC0108BDDC0108E8
:10009000BDDC0108BDDC0108BDDC0108BDDC0108D8
:1000A000BDDC0108BDDC0108BDDC0108BDDC0108C8
:1000B000BDDC0108BDDC0108BDDC0108BDDC0108B8
:1000C000BDDC0108BDDC0108BDDC0108BDDC0108A8
:1000D000BDDC0108BDDC0108BDDC0108BDDC010898
:1000E000BDDC0108BDDC0108BDDC0108BDDC010888
:1000F000BDDC010849370008BDDC0108BDDC010892
:10010000BDDC0108BDDC0108BDDC0108BDDC010867
:10011000BDDC0108BDDC0108793200087D3A000829
:10012000BDDC0108BDDC0108BDDC0108BDDC010847
:10013000BDDC0108BDDC0108BDDC0108BDDC010837
:10014000BDDC0108BDDC0108BDDC0108BDDC010827
:10015000BDDC0108BDDC0108BDDC0108BDDC010817
:10016000BDDC0108BDDC0108BDDC0108BDDC010807
:10017000BDDC0108BDDC0108BDDC01080000000099
:10018000BDDC0108BDDC010810B5054C237833B98E
:10019000044B13B10448AFF300800123237010BD5A
:1001A00090020020000000008409030808B5064BF7
:1001B0001BB106480649AFF300800648036813B137
:1001C000054B03B1984708BD0000000084090308EF
:1001D000940200208C0200200000000070B55848F6
:1001E000584D2DED028B00F0B3FE0021544800F075
:1001F00007FF554800F0ACFE0021534800F000FF17
:10020000AC201EF069FD044600F034FF542128683C
:1002100002F0B8FA064614F0A9FD3146204601F076
:10022000D7FC0821286802F0ADFA064613F00CFA54
:100230003146204601F0CCFC1421286802F0A2FAD5
:10024000064613F011FB3146204601F0C1FC102197
:10025000286802F097FA064616F088F931462046DB
:1002600001F0B6FC01201EF037FD064612F056FBE9
:10027000304602F0A3FB4421286802F083FA0546C9
:100280000EF06AF82946204601F0A2FC28201EF054
:1002900023FD0021054613F04DFD2046294601F0BF
:1002A00097FC002213464DF2BD11606900F070F911
:1002B000B2EE040A00F010FE00F08AFDDFED237AB2
:1002C000B4EEE70AF1EE10FAB0EE408A31DD042018
:1002D0001EF002FDDFED1E7A28EE278A0546BCEEF1
:1002E000C88A002218EE101A04F0F0FA20462946B7
:1002F00001F06EFC606900F005F994F8A830DB07A6
:1003000003D50F48012100F07BFE124C2368DA6808
:10031000986992F89C1107F0FDF82368986A03F039
:1003200021F9BDEC028B2368BDE87040586A02F0E9
:100330003FBF6068084903689B689847DAE700BFD9
:10034000AC02002018030020AE020020CDCCCC3D32
:1003500000247449C80200203CB60208F8B50F4CCE
:10036000FFF73CFF0025274610E06E1CC5F3003167
:10037000B6B200F045FE3868354600210A4601F065
:100380002DFC20680321002201F028FC236804488A
:1003900093F8A820D207E8D41846EEE7C802002058
:1003A000AC02002010B5054C4C21204600F0C4FDE5
:1003B000A01C4D21BDE8104000F0BEBDAC020020E5
:1003C000004870475CB60208004870476CB60208E7
:1003D0000D4B0F2810B41B6813DC03EB4002C1F374
:1003E0000B01B2F8044104EBC000013403EB4003FD
:1003F000A4B2072CA2F80441998084BF0023A2F87C
:1004000004315DF8044B7047B002002038B5094B49
:1004100004461C201C601EF05FFC082205464FF4B9
:100420007A7104F0A7FA28462560034904F028FBF6
:10043000204638BDB0020020D103000801207047DB
:10044000002070470120704710B5054B036004463B
:1004500040681BF05FFD034B2360204610BD00BFCA
:1004600090B6020868BD020810B5064B036004464A
:1004700040681BF04FFD044B2360204602F09EFABB
:10048000204610BD90B6020868BD020838B5406825
:100490000D460A4921F034FC044670B1284622F08A
:1004A0001EFC012102462346284621F06BFF05462B
:1004B000204621F083F9284638BD38BD84B60208AD
:1004C00010B503680A4A0446A3F10C00904282B0BA
:1004D00002D1204602B010BD53F8042C511E002A50
:1004E00043F8041CF5DC01A91EF046FFF1E700BF4C
:1004F000940500200B460068114647F2693200F06F
:1005000017BB00BF38B5046805462CB1204600F083
:10051000E1F9204602F052FA00232B6038BD00BFFB
:10052000F8B50C460546FFF7EDFF0C201EF0D4FB96
:10053000074600F093F92F606CB16C68AE68B44266
:1005400009D0394600E0296854F8040B03689B6819
:100550009847A642F7D1F8BD10B504684CB12046C3
:1005600000F0E2F900B110BD064800F023FC054898
:10057000F9E7054B05491B68586803689B6898476D
:10058000204610BDB4020020C8020020B0B6020808
:1005900000B583B0ADF800106946ADF80220ADF8A3
:1005A0000430FFF7D9FF03B05DF804FBF8B54268EB
:1005B0000368D31A9B1004460F4605D05A00934295
:1005C00026D96FF0030600E0042630461EF084FBB7
:1005D000054694E809001B1A9B109A003968AF1869
:1005E00007D045F8231094E809001B1A9B109A00C5
:1005F000AF1823B10146284621F095FF2068043743
:1006000008B102F0DBF92E44A66084E8A000F8BD32
:10061000B2F1804FD5D2DE00D7E700BF38B54368CE
:100620008468A342024606D009680BB1196043688A
:100630000433536038BDFFF7B9FF38BD2DE9F041F1
:100640000646002384B043608360C360054646F8D5
:10065000043B10201EF040FB04AC80466E496F4FF7
:1006600005F008F844F8048D30462146FFF7D6FF20
:1006700001AA6B4920461FF019F9204603F094FCAB
:10068000039BA3F10C02BA42804640F0B78020469B
:10069000B8F1000F5ED0624901AA1FF007F91020DF
:1006A0001EF01AFB21465F4A804604F0BFFA039B06
:1006B000A3F10C00B84277D1B8F1000F05D0304655
:1006C0002146CDF80C80FFF7A9FF01AA5649204624
:1006D0001FF0ECF8204603F067FC039BA3F10C022B
:1006E000BA42804649D1B8F1000F1ED04E4901AA46
:1006F00020461FF0DBF810201EF0EEFA21464B4A90
:10070000804604F093FA039BA3F10C00B84240D159
:10071000B8F1000F05D030462146CDF80C80FFF728
:100720007DFF284604B0BDE8F08101AA404920467B
:100730001FF0BCF8204603F037FC039BA3F10C022A
:10074000BA4280464BD1B8F1000FEAD001AA204648
:100750003749CEE701AA37491FF0A8F8204603F031
:1007600023FC039BA3F10C02BA42804627D1B8F1C7
:10077000000FAAD020462F498EE753F8041C481ECC
:10078000002943F8040CAEDC104602A91EF0F4FD6B
:10079000A9E753F8042C511E002A43F8041CB7DCC7
:1007A00002A91EF0E9FDB3E753F8042C511E002AFC
:1007B00043F8041C80DC02A91EF0DEFD7CE753F840
:1007C000041C481E002943F8040CD0DC104602A982
:1007D0001EF0D2FDB8F1000F3FF477AFCAE753F82F
:1007E000041C481E002943F8040CACDC104602A986
:1007F0001EF0C2FDB8F1000F93D0A7E753F8041C18
:10080000481E002943F8040C3FF741AF104602A9E7
:100810001EF0B2FD3BE700BFECB6020894050020D5
:10082000F4B6020804B7020820B702082CB7020881
:1008300030B702080CB7020810B5054C204600F08E
:10084000A3FA20460349044ABDE810401EF069BAE5
:10085000B4020020C10400088801002000220260C8
:1008600042608260704700BF2DE9F04190E860006F
:10087000B54282B080461CD0154F55F8044B3CB1B0
:100880002368A3F10C02BA4215D1204602F096F873
:10089000AE42F2D1D8F800000023C8F80030C8F802
:1008A0000430C8F8083008B102F088F802B0BDE89A
:1008B000F0812846F0E753F8041C481E002943F84D
:1008C000040CE2DC104601A91EF056FDDDE700BF76
:1008D0009405002010B50446FFF7C6FF206808B154
:1008E00002F06CF8204610BD10B5436853F8044D73
:1008F000436082B044B123680A4AA3F10C009042DD
:1009000004D1204602F05AF802B010BD53F8042C6E
:10091000511E002A43F8041CF3DC01A91EF02CFD33
:10092000EFE700BF94050020F8B590E85000B4420E
:100930000F4602D10DE0A6420BD054F8045B3846B6
:1009400005F10C01062221F0D6FD0028F3D128463E
:10095000F8BD00252846F8BD2DE9F04790E82001B4
:1009600045458AB00F4622D0012655F8044BD7F8EA
:100970000090E389B4F80CA00093238A01932268C5
:100980000292A37C0393E37C0493A0681FF086F992
:10099000CDE906016268089253463246D9F808400C
:1009A00004493846A047A84506F10106DDD10AB042
:1009B000BDE8F08740B70208F8B542680368D31A6B
:1009C0009B1004460F4605D05A00934226D96FF07B
:1009D000030600E0042630461EF07EF9054694E842
:1009E00009001B1A9B109A003968AF1807D045F808
:1009F000231094E809001B1A9B109A00AF1823B12A
:100A00000146284621F08FFD2068043708B101F027
:100A1000D5FF2E44A66084E8A000F8BDB2F1804F57
:100A2000D5D2DE00D7E700BF2DE9F04790E8A0005F
:100A300084B0BD428146019124D08A4601F10C0860
:100A400001E0AF421ED02E684046062206F10C019E
:100A50002C46043521F04FFD0028F2D156B1336801
:100A6000184AA3F10C00904220D1304601F0A6FFB5
:100A7000DDF804A0C4F800A0134821F0D5FE04B0AE
:100A8000BDE8F087D9F808309F420AD0019B17B122
:100A90003B60D9F804700437C9F8047004B0BDE8AD
:100AA000F087484601A9FFF787FFE8E753F8042CD1
:100AB000511E002A43F8041CD7DC03A91EF05CFC7D
:100AC000D3E700BF940500209CB70208F8B5426840
:100AD0000368D31A5B1004460F4605D05A009342B0
:100AE00021D96FF0010600E0022630461EF0F4F82E
:100AF000054694E809001B1A5B105A003988AF18A4
:100B000018BF25F8131043B9023708B101F056FF9A
:100B10002E44A66084E8A000F8BD0146284621F0D6
:100B200002FD2068F0E7B2F1004FDAD29E00DCE768
:100B30002DE9F04190E89000BC4282B0884602D195
:100B400014E0A74212D054F8045B2E8A9642F8D1E2
:100B5000AE894645F5D159689868814209D0881C0C
:100B6000ED8901B10D80A7425860ECD102B0BDE81B
:100B7000F081184605F10E0101920093FFF7A6FFE0
:100B8000009B019ADDE700BF014B0360704700BF87
:100B9000D0B7020810B5034B0360044601F00EFF06
:100BA000204610BDD0B70208F0B50B681A78232A8A
:100BB00087B00C4671D053F80C3C022B6DD9084617
:100BC0000022474902231EF04EFB461C054664D016
:100BD00023681B5C232B60D00223204640492A4611
:100BE0001EF00CFB431C074653D03D4920463A46B5
:100BF00002231EF038FB06460130216850D08B5D81
:100C0000232B4DD051F80C2C9542C5EB07034DD842
:100C10002A46214602A81EF005FE02A904A803F0F8
:100C20001FF814201EF058F8054600F0ADF8BDF886
:100C30001010BDF81220BDF81430A9810120A8744D
:100C4000EA812B82721C0523204626491EF0D6FA23
:100C5000421C226852F80C2C14BFC6EB000303465A
:100C6000964223D82146324603A81EF0DBFD2846D3
:100C700003A91EF06CFA039B1B4CA3F10C00A042CD
:100C800017D1029BA3F10C00A0421DD1284607B04A
:100C9000F0BD2168154821F013FD002007B0F0BD1C
:100CA000134821F00DFD002007B0F0BD11481EF0E3
:100CB0008AFE53F8042C511E002A43F8041CE0DC81
:100CC00001A91EF059FBDCE753F8042C511E002A41
:100CD00043F8041CDADC03A91EF04EFBD6E700BF84
:100CE000F0B7020850B8020894050020F4B70208D3
:100CF00058B8020838B8020838B51546FFF754FF4F
:100D0000044618B128462146FFF78EFE204638BD1E
:100D1000F0B583B014460F4601AA19491E46054690
:100D20001EF0C4FD21463846FFF73EFF044660B181
:100D3000828933889A420BD02368124AA3F10C00AF
:100D4000904212D1204601F039FE284603B0F0BD92
:100D5000C28973889A42EFD1B388028A9A42EBD152
:100D6000284621461EF021FDE6E753F8042C511ECB
:100D7000002A43F8041CE5DC01A91EF0FDFAE1E7B6
:100D8000B4C002089405002010B50022074B036090
:100D90000021044681608274C2748281C281028211
:100DA000426003491EF094FB204610BDA0050020C0
:100DB000B4C0020800228260002204498274C27416
:100DC0008281C281028242601EF082BBB4C00208EE
:100DD000F0B52DED028B837C87B004460BB9C37C44
:100DE00023BB0023214605A803931EF0D2FC04A8D0
:100DF00005A903F017F8059B214DA3F10C00A842AB
:100E000033D1049E03A9304622F012FE039BB34265
:100E1000B0EE408A10D9049BA3F10C00A84219D16E
:100E2000B0EE480A07B0BDEC028BF0BD90ED020AAF
:100E300007B0BDEC028BF0BD124BE7891B68268A18
:100E4000586822680168A389009701968C680E494A
:100E5000A047E0E753F8042C511E002A43F8041C75
:100E6000DEDC05A91EF088FADAE753F8042C511EDF
:100E7000002A43F8041CC4DC02A91EF07DFAC0E776
:100E800094050020C8020020E0B8020810B504460E
:100E90001EF07FFC204610BD08B5837C0BB9C37CD7
:100EA00043B90749002203231EF0A8F9013018BFF7
:100EB000012008BD4068003018BF012008BD00BFF8
:100EC000FCB9020807EE101AF8EEC77A0122C0ED4D
:100ED000027A4160C2747047012280ED020AC27436
:100EE000704700BF837C10B504461BB90123C3744F
:100EF0001EF05BFC204610BD38B5044600781BF0A0
:100F000017F822780B4B617853F82220012550689E
:100F100005FA01F120EA010151602178627853F865
:100F20002130AA40D968032000FA02F221EA020225
:100F3000DA6038BD00BA020810B5C1F3031301F03E
:100F40000F01044603704170FFF7D6FF204610BD25
:100F500010B4094B0178427853F8213052001C68D4
:100F600003219140012024EA010100FA02F20A4320
:100F70001A605DF8044B704700BA02080278124B01
:100F8000F0B453F822204478176864000326A64082
:100F9000012527EA060605FA04F43443146051B922
:100FA0000178427853F821304FF4803101FA02F28F
:100FB0009A61F0BC70470178427853F8213095402F
:100FC0009D61F0BC704700BF00BA02080178044B75
:100FD000427853F82130012101FA02F29A617047F8
:100FE00000BA02080178054B427853F821304FF4DB
:100FF000803101FA02F29A61704700BF00BA02081C
:1010000010B40B4B0478427853F8243041B94FF4B4
:10101000803000FA02F29A6108465DF8044B70478E
:10102000012000FA02F29A6108465DF8044B70470D
:1010300000BA02080022026042608260C26070470B
:10104000F8B5046900F10806B4420F464FF00005F8
:101050000DD02069036839465B6998478542B8BF5F
:10106000054620461DF0D8FEB0420446F1D1284680
:10107000F8BD00BF2DE9F0412DED028BC64B036397
:10108000436384B0044600F1480300F1B401002238
:1010900043F80C2C43F8082C43F8042C0C338B42F7
:1010A000F6D1BE4A94F8A830556F03F0D50343F04B
:1010B0004003AF0184F8A83000F1D4816E0100F143
:1010C000CA81280100F1C081E90000F1B681AA00BF
:1010D00000F1AC816B0000F19981002DC0F29F817D
:1010E000AE4B5B6F13F0006305D194F8A82063F357
:1010F000861284F8A820A94AA94B4FF08071516745
:1011000003A821211C60FFF717FF012103A8FFF7A7
:1011100035FF10201DF0E0FD06460025FFF78EFA92
:10112000012130466661FFF7FBF925601C201DF0A8
:10113000D3FD9C490160034600F10802026142614F
:101140000572C560856198496360012204F1300031
:101150001EF0BEF9954A6069D1684FF6FF030B4057
:1011600043F0BF6343F40033D36046F20F612A4675
:101170002B46FFF70DFA2946FFF7A4FEFFF728FEDE
:10118000BCEEC00A2A4610EE103A4CF6DF1184F885
:10119000A93060692B46FFF7FBF92946FFF792FE5D
:1011A000FFF77AFE94F8A83080F0010060F30003A6
:1011B0002A4684F8A83048F2AE012B466069FFF752
:1011C000E7F92946FFF77EFEFFF766FE94F8A830A0
:1011D00060F382032A4684F8A83043F666212B4642
:1011E0006069FFF7D5F994F8A810C1F38001FFF703
:1011F00069FEFFF751FE94F8A83060F345132A46C4
:1012000084F8A83045F68B312B466069FFF7C0F9AA
:101210000121FFF757FEFFF73FFE94F8A83094F83E
:10122000A92060F30413012A84F8A83000F06B8130
:10123000C0F01F81022A00F0C380206803689B6809
:10124000984728201DF048FD054601F069FF2B68EE
:1012500065629B682846984744201DF03DFD054681
:1012600002F0DAF9A5624FF492701DF035FD4F4D92
:101270000646FFF7CBF8E9684D4BE6624FF6FF02F2
:101280000A4042F0BF624FF0200C4FF0400E602148
:101290001026502042F400323027EA6083F837C32A
:1012A000002283F82D6383F836E385F8227083F8F3
:1012B000006383F8120383F84D0383F8251383F842
:1012C000261383F83A1383F810136069134645F226
:1012D0009E51FFF75DF93749FFF7F4FDFFF778FD01
:1012E000BCEEC00A0022134684ED0E0A60694AF281
:1012F0005D51FFF74DF90121FFF7E4FDFFF768FDB0
:10130000D4ED0E7AA06AB0EE408AB8EE670A02F019
:1013100043F9B0EE480AA06A02F062F928201DF0F5
:10132000DBFC054606F0D4F82B68A5619B682846CF
:10133000984718201DF0D0FC054605F03DFA2B68B3
:10134000A5609B68284698474FF4D0701DF0C4FCF8
:10135000054608F0B1FF2B68E5609B682846984772
:1013600004201DF0B9FC054601F0E2FB124B2B6096
:101370002846256215F044FB28201DF0ADFC0546EB
:1013800006F084FA256101201DF0A6FCE0612046EC
:1013900004B0BDEC028B11E0A00500200038024033
:1013A000C802002030BA0208B8BA020800ED00E016
:1013B00000E100E0A086010070ED0208BDE8F081C8
:1013C0002B4642F6AA2244F2ED116069FFF7E0F8DD
:1013D0004FF4E131FFF776FDFFF7FAFC5C4B4FF479
:1013E00006711868B0EE408A01F0CCF9BDEEC88AEB
:1013F0004FF0FF33054600938DED018A09210A2243
:10140000352305F0E7FA2560284617E704F1340094
:10141000504910221EF04AF9002DBFF661AE04F1CA
:1014200034004D490A221EF041F959E604F1340016
:101430004A4915221EF03AF94CE604F134004849B5
:101440000F221EF033F942E604F134004549092227
:101450001EF02CF938E604F13400434904221EF052
:1014600025F92EE604F1340040490A221EF01EF947
:1014700024E62B4642F6AA226069354F44F2ED116C
:10148000FFF786F84FF4E131FFF71CFDFFF7A0FCF2
:1014900038684FF40671B0EE408A01F073F9BDEE82
:1014A000C88A4FF0FF3680468DED018A00960921EB
:1014B0000A22352305F08EFA2B4642F6AA22C4F8FA
:1014C0000080606944F2ED11FFF762F84FF4E131FA
:1014D000FFF7F8FCFFF77CFC38684FF40671B0EEBC
:1014E000408A01F04FF9BDEEC88A054633460096A2
:1014F0008DED018A3521362205F06CFA2B682846DD
:101500009B68984799E62B4642F6AA2244F2ED11D1
:101510006069FFF73DF84FF4E131FFF7D3FCFFF7C7
:1015200057FC0B4B4FF406711868B0EE408A01F07F
:1015300029F9BDEEC88A0B23054600938DED018A7B
:1015400009210A220C2305F045FA2560284675E694
:101550001803002098BA0208ACBA020880BA020840
:1015600070BA020864BA02085CBA020850BA0208EB
:101570002DE9F04F2DED048BBC4B0360B3B0074653
:1015800088464FF44C4044F68A5100220DF1230363
:1015900001F078FC08B98DF823003846B4490122DF
:1015A0001EF084F898F8A8309C0700F158819DF847
:1015B0002320002A40F07681180740F1FF8038464A
:1015C000AC4904221EF072F8D8F80C3093ED448A2E
:1015D0008DED0C8AD3ED438ACDED0D8AD3ED427AA1
:1015E000CDED0E7A93F83430DB0740F12B819FED7F
:1015F000A29AC7EE897AC8EE898A88EE098A17EE20
:10160000900A1EF04BFB044618EE900A0D461EF0A1
:1016100045FB02460B4618EE100ACDE90223CDE940
:1016200000451EF03BFB12AECDE90401934A802138
:10163000304621F05DFA92490446062238461EF0F3
:1016400035F83146802C34BF224680221EF02EF819
:10165000D8F80C1091F89C31032B2EDD9FED868A73
:1016600003248B6891F8342053F82430D3ED0B7A9F
:1016700093ED087AF8EEE77AD007C7EE877A04F19F
:10168000010448BFC7EE887A17EE900A1EF006FBE9
:101690007C4ACDE900018021304621F029FA31460B
:1016A000802834BF0246802238461DF0FFFFD8F85C
:1016B0000C1091F89C31A342D3DC0DF13C09484653
:1016C0000CAA06F001FCD8F80C30DDED117A93F885
:1016D0003430D90740F1A8809FED678AC7EE887A39
:1016E00017EE900A1EF0DAFADDED107AC7EE887A6E
:1016F00004460D4617EE900A1EF0D0FADDED0F7A83
:1017000087EE888A82468B46CDE90045CDE902AB5B
:1017100018EE100A1EF0C2FA584ACDE904018021E1
:10172000304621F0E5F958490446062238461DF0B6
:10173000BDFF802C34BF2246802231461DF0B6FF0B
:10174000D8F80C40204606F065FC94F83430DA07EF
:1017500044BFDFED497A80EE270A10EE100A1EF032
:101760009DFACDE90001D8F80C309FED487AD3ED11
:10177000567AC7EE277A17EE900A1EF08FFA444A7F
:10178000CDE902018021304621F0B2F931468028AE
:1017900034BF0246802238461DF088FF98F8A840E2
:1017A000C4F38004BCB138463A4902221DF07EFFE2
:1017B000384633B0BDEC048BBDE8F08FD8F8180084
:1017C00005F0B8FE002800F0C581384632490422F1
:1017D0001DF06CFFF8E64B4622464AF616404BF2E7
:1017E000D3110F941094119401F04CFB002840F099
:1017F0006681DDF840800F9D454500F0BF81274A96
:101800002C4605F11009631B143459F80330A3F179
:101810000C00904240F0CC814445F4D10F98002850
:10182000C1D001F0CBF8BEE717EE900A1EF036FAF1
:10183000044610980D461EF031FA9DED0F8A82463F
:101840008B4661E717EE900A1EF028FA044618EE60
:10185000900A0D461EF022FA02460B46DBE6384699
:101860000F4905221DF022FFAEE600BFA0050020B3
:10187000BCBA0208D0BA02083333CB41E4BA02083A
:10188000F8BA020800BB020808BB02080080BB458A
:1018900028BB020848BB0208D8BA020894050020F9
:1018A000C0BA02083846B74904221DF0FFFED8F836
:1018B0000C0009A906F0D6FAD8F80C00C36933B1B8
:1018C000036A09A9143001229847D8F80C0090F84F
:1018D0003430DDED097AD90700F1238117EE900A43
:1018E0001EF0DCF904460A980D461EF0D7F99DED6E
:1018F0000B8A02460B4618EE100ACDE90223CDE909
:1019000000451EF0CBF912AECDE904019E4A8021BC
:10191000304621F0EDF89D490446062238461DF078
:10192000C5FE3146802C34BF224680221DF0BEFE0B
:10193000D8F80C1091F89C31032B2EDD9FED948A82
:1019400003248B6891F8342053F8243093ED0B7AFC
:10195000D3ED087AB8EEC77AD207C7EE277A04F13A
:10196000010448BFC7EE887A17EE900A1EF096F978
:10197000884ACDE900018021304621F0B9F831468E
:10198000802834BF0246802238461DF08FFED8F8EA
:101990000C1091F89C31A342D3DC0B98099B0A9C54
:1019A0000F900DF13C094A460CA81193109406F0D3
:1019B0008BFAD8F80C30DDED0E7A93F83430DB0773
:1019C00040F1CE809FED728AC7EE887A17EE900ABA
:1019D0001EF064F9DDED0D7AC7EE887A04460D46F7
:1019E00017EE900A1EF05AF9DDED0C7A87EE888A20
:1019F00002460B46CDE90223CDE9004518EE100A58
:101A00001EF04CF9604ACDE904013046802121F0F6
:101A10006FF861490446062238461DF047FE802CC7
:101A200034BF2246802231461DF040FED8F80C40DB
:101A3000D8F81830DFED597AD3ED088A94F83430AD
:101A4000DD0768EEA78A48BFDFED517A204648BF20
:101A5000C8EEA78A06F0DEFA94F83430DC0744BFFB
:101A60009FED4B8A80EE088A18EE900A58BFB0EEC0
:101A7000408A1EF013F9CDE9000118EE100A1EF09D
:101A80000DF9CDE90201D8F80C309FED457AD3ED80
:101A9000567AC7EE277A17EE900A1EF0FFF8414AF1
:101AA000CDE904013046802121F022F8314680281A
:101AB00034BF0246802238461DF0F8FD6EE6DDF8A0
:101AC0003CA0DDF84080C2455AD00AF114045546C6
:101AD0000AF1100BCAEB050354F8140C5BF80390E1
:101AE0001EF0DCF8CDE9000154F8100C1EF0D6F819
:101AF0004B46CDE902012C4A2021304620F0F8FF68
:101B00001435202834BF02462022314638461DF0C5
:101B1000CDFDA84504F11404DCD10F9DDDF8408013
:101B20006AE69FED1B8AC7EE887A17EE900A1EF0D0
:101B3000B5F8DDED0A7AC7EE887A04460D4617EE51
:101B4000900A1EF0ABF8DDED0B7A02460B4687EEED
:101B5000888AD0E63846154903221DF0A7FDA6E67F
:101B600017EE900A1EF09AF804460D980D461EF0E6
:101B700095F89DED0C8A02460B463BE728464EE65B
:101B8000454639E6C8BA0208E4BA0208F8BA0208BB
:101B90003333CB4100BB020808BB0208000070428F
:101BA0000080BB4510BB020838BB0208E0BA02083F
:101BB00053F8041C01F1FF3E002943F804EC3FF701
:101BC0002BAE314607921DF0D7FB079A24E600BFE3
:101BD00008B50B6808469B68984708BD2DE9F04F8B
:101BE000072983B08B46824690463CD0012301935F
:101BF0000BEB4B0292000AF13C0188188C584668A6
:101C0000B4421CD0244F07EBCB02556805F0010904
:101C10006D1006E0284457F83B2041469047A64205
:101C20000DD054F8040BB9F1000FF3D0415957F817
:101C30003B2028448A5841469047A642F1D1BBF147
:101C4000070F02D003B0BDE8F08F9AF8A8309B07C9
:101C500002D5019B002BF5D1DAF80C0003B0BDE8EA
:101C6000F04F06F031BC90F8A810D2F1010238BF55
:101C7000002262F3410180F8A81032B9C9B2080706
:101C800044BF62F3C3018AF8A810DAF8180005F01F
:101C900051FC0190ACE700BF00BC020801EB410120
:101CA00038B53C308B00C518C0586C68A0420DD0C8
:101CB0000368934218BF031D03D108E001689142F5
:101CC00005D0A342184603F10403F7D138BD011D26
:101CD0008C4206D0631A9A1003D0920020F023FCA5
:101CE0006C68043C6C6038BD70B50C46064609B99A
:101CF0000AE02C463046E168FFF7F6FFA56820466B
:101D000000F05CFE002DF4D170BD00BF10B5054B96
:101D1000044640F8043BE168FFF7E6FF024B23600E
:101D2000204610BD30BA020868BD0208074B10B546
:101D3000044640F8043BE168FFF7D6FF044B2360FC
:101D4000204600F03BFE204610BD00BF30BA02081E
:101D500068BD0208F8B542680368D31A9B100446B0
:101D60000F4605D05A00934226D96FF0030600E0D3
:101D7000042630461CF0B0FF054694E809001B1A03
:101D80009B109A003968AF1807D045F8231094E8E3
:101D900009001B1A9B109A00AF1823B10146284670
:101DA00020F0C1FB2068043708B100F007FE2E4484
:101DB000A66084E8A000F8BDB2F1804FD5D2DE0065
:101DC000D7E700BF00B501EB41013C3000EB8100DB
:101DD00083B04368816801928B4207D00BB11A60CF
:101DE00043680433436003B05DF804FB01A9FFF7C7
:101DF000B1FFF8E730B4074A074D084C0849C26400
:101E0000002205654465816502704264826430BCCD
:101E1000704700BF0123456789ABCDEFFEDCBA9860
:101E200076543210F0B492B10C460023A57894F8A1
:101E300001C0CF5CE6782D0445EA0C253D4345EA18
:101E40000665C55004339A4204F10404EED8F0BC90
:101E5000704700BF30B492B1034600240D680555A9
:101E600051F8045B2D0A5D7031F8025C9D700434FA
:101E700011F8015CDD70A24203F10403EED830BC1E
:101E8000704700BF2DE9F04F834695B004A840226B
:101E90000BF1500494E83001DBF84C90DFF8E0A33C
:101EA000DB4FDC4EFFF7BEFFDB4A0192DB4A0292BA
:101EB000049ADB4BDFF8CCC3DFF8CCE3D948DA492E
:101EC00091444B4428EA040205EA040942EA09095C
:101ED0004B4404EB736325EA03020392059A904492
:101EE000039A03EA040942EA0909C244069ACA4469
:101EF00003EB3A5A24EA0A090AEA0308154449EAB4
:101F00000808AC44079AC4440AEBFC3C23EA0C08DA
:101F10000CEA0A051444A64448EA0505089C0A9AF6
:101F200075440CEBB5252AEA050E274405EA0C0496
:101F30004EEA04043B442344099F05EB736303EA20
:101F400005043E442CEA030756443C4306EB040ECA
:101F500003EB3E5E25EA0E0610440EEA030434430A
:101F600084440CEB04000B9C0D9FDDF838A00EEBB5
:101F7000F03023EA0006214400EA0E0434432944E9
:101F80000C9E019D35440195214400EBB121019A3D
:101F9000A64C2EEA010601EA000535431A442A44FC
:101FA000029BA34EA34D01EB72621F4420EA02097B
:101FB00002EA0103BE4449EA0309F14402EB39593C
:101FC000AAF5244E21EA090C09EA0208AEF14F0EE7
:101FD00070444CEA08080F9F974B804409EBF8388F
:101FE00022EA080E3B4408EA09004EEA00001944C0
:101FF00001441098059F08EBB12C06440CEA080137
:1020000029EA0C00014332440A4411990CEB726333
:102010000C4403EA0C0228EA03010A43A144914458
:1020200003EB395E129A6FEA0E0404EA0C011544C0
:102030000EEA03020A43A84490440EEBF836139DBF
:102040007E4A7F496FEA060806EA0E002A4408EA3B
:10205000030594440543654406EBB52505EA0E02E5
:10206000394434400B4414430A987649764ADFF8E1
:102070001CC21C44754B05EBF46404EA06070344D8
:1020800005EA080847EA08089E440EEB08000F9B83
:10209000099F04EBF05000EA050E194424EA0503F9
:1020A0004EEA03030E44F118049E00EBB14120EA0E
:1020B0000403324401EA0406154446EA0302644B71
:1020C000644E2A4401EB32323B4402EA000E1C44C7
:1020D00021EA00034EEA0303234402EBF36303EA1D
:1020E0000108D44422EA010448EA0404604420447C
:1020F00003EBF05E1398584D0D9FDFF894810EEAC4
:102100000204064423EA0200204331440E180899D1
:10211000524C0EEBB64606EA03000D442EEA0301CC
:102120002A4440EA0105154406EB35353C4405EAEE
:102130000E0C234426EA0E044CEA04041C444848CE
:10214000129B079F4749484A05EBF46404EA060CD2
:10215000184425EA06034CEA030386440EEB030009
:1021600004EBF05000EA050E394424EA05034EEA78
:1021700003030E44F1180C9B119FDFF818C100EB0C
:10218000B14101EA04061A4420EA0403154446EA70
:102190000302364B364E2A4401EB32323B4402EA0C
:1021A000000E1C4421EA00034EEA03032344314D90
:1021B000069C0B9F02EBF36303EA010E254422EA1F
:1021C00001044EEA04042844051903EBF55505EA19
:1021D000020EBC4423EA02004EEA000061440144BE
:1021E00010980C9F05EBB144064425EA030104EA6C
:1021F0000300014332440A4409991F481F4EA1F5C8
:10220000B82E04EB323284EA050CAEF2BE6E43E027
:10221000AF0F7CF52AC68747D8988069AFF7448B03
:1022200078A46AD7134630A8019546FD937198FDAE
:102230002211906B8E4379A6BED75C892108B449E0
:1022400062251EF6515A5E26AAC7B6E940B340C0C1
:102250005D102FD681E6A1D8C8FBD3E7E6CDE121FA
:10226000D60737C3870DD5F4ED145A4505E9E3A920
:102270008A4C2A8DF8A3EFFC22619D6D44EABEA42E
:1022800056B7C7E8DB702024EECEBDC1531444021C
:1022900097FF2A43D9026F678CEA020C7344DFF878
:1022A00038E3BA49634402EB3373BE4482EA040C58
:1022B0008CEA030C754405EB0C0E0F9D129F03EB8B
:1022C0007E5E284483EA020585EA0E05044460190F
:1022D0000EEB304039448EEA030444400A4411199D
:1022E000059A089FAA4DAB4C00EB7121164480EA79
:1022F0000E0C8CEA010C3344A74EA84A634401EB50
:1023000033733E4481EA000C0B9F8CEA030CB64405
:102310000EEB0C0603EB76563A4483EA010E8EEA86
:10232000060E104400EB0E0206EB3242554486EADC
:102330000300504029440D181198049FDFF89CE2D7
:10234000974902EB752582EA060C04448CEA050CD9
:102350001C44644405EB3474BE4485EA020C8CEAE8
:10236000040C764406EB0C0E8E48079E0A9F8E4B9B
:1023700004EB7E5E304484EA050686EA0E060244DB
:1023800090190EEB304039448EEA040242400D446D
:10239000A9180D9A109F854E854D00EB712180EA9A
:1023A0000E0C13448CEA010C2344634401EB337399
:1023B0003E4481EA000C139F7E4A7F4C8CEA030C5A
:1023C000B6440EEB0C0603EB76563A4483EA010E54
:1023D0008EEA060E104400EB0E0206980B9FDFF803
:1023E00000C2DFF800E206EB3242054486EA030051
:1023F000504029440D180499704802EB75250C448F
:1024000065EA060151401C440C4405EBB464B84431
:1024100064EA020989EA05094644129F6849694B42
:10242000DFF8C4814E4404EBB656BC4466EA0507A7
:102430006740624402EB070C099A109FDFF8AC91E9
:1024400006EB7C4C96446CEA0402724075441544D9
:102450000CEBF525384465EA060282EA0C020444D6
:10246000A018079C584F05EBB06060EA0C022144AD
:102470006A403144114400EBB151AAF5801A61EA77
:102480000504AAF6833A4440E244059EDFF860C1A1
:10249000A24401EB7A4262EA000433442B444C40EC
:1024A0001E194A4B0293DFF84CA1494D494C02EBEF
:1024B000F6230C9E63EA010EB2448EEA020E5044EB
:1024C000139E704403EBB060B14460EA020A8AEAEA
:1024D000030A49440A9E514400EBB151B04461EAF9
:1024E000030989EA00094244119E4A4401EB724201
:1024F000B44462EA000888EA01086344089E434441
:1025000002EBF323374463EA010C8CEA020C07EB7D
:10251000000EE6440F98029F069E03EBBE6E074432
:102520006EEA02005840394401440EEBB151354483
:1025300061EA030080EA0E002A440D9FDBF84C603C
:10254000DBF85450024401EB724262EA0E003C4454
:10255000DBF8507048402344DBF8584003441744EC
:10256000764407EBF32715440C4404A8CBF84C60E1
:10257000CBF85070CBF85450CBF858400021402293
:102580001FF0ECFF15B0BDE8F08F00BF0C38E5FD83
:1025900070BCBFBEC67E9B28A9CFDE4B604BBBF68E
:1025A000051D88048530EFD439D0D4D9E599DBE610
:1025B0006556ACC4F87CA21F442229F4C3595B655C
:1025C00092CC0C8FD15D8485827E53F735F23ABD73
:1025D000BBD2D72A91D386EB81F67187FA27A1EA7D
:1025E000A72394AB39A093FC144301A3E0E62CFE8F
:1025F000A111084E4F7EA86F2DE9F843446C174691
:10260000D20013199A424364836CC4F3C50488BF93
:102610000133C4F1400603EB5773B74205468846C1
:10262000836409D20444601C002408EB04013A1BB3
:10263000BDE8F8431FF06EBF20443246013005F17B
:1026400001091FF067FFC4F1800449462846FFF7DF
:1026500019FCA74202D212E026461C4608EB0601EE
:102660002846FFF70FFC04F140039F42F4D248468E
:1026700008EB04013A1BBDE8F8431FF04BBF484686
:102680003446D2E730B5037883B00446B3BB00F1DB
:102690004405294668460822FFF7DCFB626C1949AD
:1026A000C2F3C502372A94BFC2F13802C2F17802E0
:1026B0002046FFF7A1FF204669460822FFF79CFF4E
:1026C00004F15C0004F14C011022FFF7C3FB002170
:1026D0004022601C1FF042FFAB1C002284F8442003
:1026E0006A7003F8012B03F8012B03F8012B03F8A0
:1026F000012B03F8012B01211A702170204603B031
:1027000030BD00BF8C010020F0B50B788BB00746C0
:10271000C3B10D4601AC09AE204695F85C200D49C9
:10272000023420F017FAB44205F10105F4D1002378
:1027300001A938466A468DF824301DF0B7F83846AE
:102740000BB0F0BD044901AA1DF0B0F838460BB03B
:10275000F0BD00BF4CBB0208B4C00208F0B4084C86
:1027600041602568028100274FEA122C8F70CF70DC
:1027700081F801C00A7005602060F0BC704700BF9E
:10278000CC0200208B0718BF21F003012DE9F001D6
:1027900018BF0431456801F1040C1FFA8CFC2B466C
:1027A00010E093F801809A7841EA082141EA024159
:1027B00041EA046161450A461EDA018913446A1838
:1027C000934215D8DA781978D70902F07F041646B3
:1027D000E7D05E789C7841EA062141EA044102F0A4
:1027E0007F0241EA0262018913446A189342E9D9DF
:1027F0000020BDE8F001704746F080068C45DE7091
:1028000027DA03EB0C02CCEB0101D47803F80C10AF
:1028100067F3C714C1F3066604F08004C1F307250B
:102820003443C1F3074155709170D470DC782CF0BB
:10283000004C04F0800400214FEA1C2583F800C0FE
:102840005D70DC70997044680189121B8A4200DB5C
:1028500000BE181DBDE8F001704700BF2DE9F00370
:1028600011F8013C11F8042C11F8034C11F8025C2A
:102870006FF3C71342EA042444EA054403F07F02DD
:102880000F1F44EA02643A1901F8013CD378DD09CC
:1028900026D145680689551BB54200F38D8017F88F
:1028A00004C092F80180967811F8015C4CEA082285
:1028B00042EA064203F07F0342EA03631C44C4F386
:1028C000066325F07F051D43C4F30722C4F30743C5
:1028D00001F8044C01F8015C01F8032C01F8023CFA
:1028E00045682B786E78AA78EC7843EA062343EAA9
:1028F000024304F07F0443EA04642A4615E0028997
:10290000964205EB020C54DA1A7893F801809E780F
:10291000DC7842EA082242EA064204F07F0452EAE6
:10292000046446D0634544D21A461319561BBB4271
:102930002644E4D1D378DE09C3F3C01539D111F8A8
:10294000046C11F8039C11F8028C11F801CC46EAD2
:10295000092646EA08460CF07F0C46EA0C66344429
:1029600023F07F08C4F3066CC4F30726C4F30743BF
:102970002E432B432C4348EA0C0C82F803C05670BC
:102980009370147011F8042C11F8036C11F8025CA8
:1029900011F8014C4168038942EA062242EA0542E5
:1029A00004F07F0042EA00627F1A3A449A4200DB58
:1029B00000BEBDE8F003704700BE70E7094B1B681E
:1029C000014613B90BE01B684BB15A689142FAD328
:1029D000188902449142F6D21846FFF73FBF0846D5
:1029E00019F098BACC0200202DE9F04F0B6844682A
:1029F00002899D68DFF8ACB080460F4683B0254958
:102A0000234638464FF00009A847CA46D8F8046064
:102A100002E0042D34D92C443B68E2789D681E4BBB
:102A20001E49D20908BF5B460093237894F801E061
:102A3000A078E27843EA0E2343EA004302F07F02E3
:102A400043EA02620192A31B22463846A847217836
:102A50006578E378A278D8F8046041EA052545EA6C
:102A6000024503F07F0245EA0265DB09C6EB04027A
:102A7000B8F808302A4408BFA9449A42AA44C8DBDF
:102A80003B6807499C6852464B463846A04703B00E
:102A9000BDE8F08F64BB020854BB020884BB020887
:102AA000A8BB02085CBB02080246F0B45368158953
:102AB00000201C4602E0042A14D91344D9785F7818
:102AC0009E78CA091A7842EA072201F07F0142EA99
:102AD000064242EA0162C4EB0301114408BF8018B8
:102AE000A942E8DBF0BC7047704700BF704700BFE9
:102AF000704700BF704700BF704700BF704700BFFE
:102B0000704700BF704700BF704700BF704700BFED
:102B1000014B0360704700BFD0BB020810B5034BE8
:102B200003600446FFF74AFF204610BDD0BB0208F1
:102B3000014B0360704700BFD0BB0208024B024646
:102B40001868FFF73FB900BFC8020020082810B47A
:102B50000AD80F2908D8064B012453F8202004FA7C
:102B600001F10A4343F820205DF8044B704700BF91
:102B7000F4020020082810B40AD80F2908D8064B00
:102B8000012453F8202004FA01F10A4343F82020DD
:102B90005DF8044B704700BFD002002010B4084B12
:102BA0004179027953F821300324D968520004FA9C
:102BB00002F221EA0202DA605DF8044B704700BFBE
:102BC00048BC02088279102102F0FE0201716FF305
:102BD0004102002182710160704700BF70B50D464F
:102BE00082B004462C4928461CF056FB30B9A37924
:102BF00060F34103A371204602B070BD02AEA37919
:102C00002D68002246F8042D43F00203A3713146DB
:102C100028460A2220F0A8FF019BC0B2AB42607197
:102C200008D9082806D81D4A52F8202022601A78B0
:102C30002E2A0ED0A2791A4B236002F0FD02002347
:102C400063F3000210212046A2716371217102B06A
:102C500070BD5D1C0A2231462846019520F084FF94
:102C6000019AC0B295422071E4D20F28E2D81078C0
:102C700050B9C0E7A37943F00103A37113460132B1
:102C8000019258780028B6D02128F3D001F09EF8A0
:102C90000028B0D0019AF1E76CBC020848BC0208D9
:102CA0000000024038B583799B0704460CD5417972
:102CB000064B027953F821300125596805FA02F2D2
:102CC0000A435A60FFF76AFF204638BD48BC020835
:102CD0002DE9F0410D4682B00446504928461CF0CB
:102CE000DBFA38B9A37960F34103A371204602B03F
:102CF000BDE8F08102AEA3792D68002246F8042DCC
:102D000043F00203A371314628460A2220F02CFF2B
:102D1000019BC0B2AB4260710CD908280AD819F0E7
:102D200007F93F4D6279019B55F8222022601A78FD
:102D30002E2A0FD0A2793B4B236002F0FD02002324
:102D400063F3000210212046A2716371217102B069
:102D5000BDE8F0815F1C314638460A22019720F019
:102D600003FF019BC0B29F422071E3D20F28E1D83C
:102D700018780028BAD003264FF00208012710E087
:102D80006F281DD0762837D05E2823D001F01EF89A
:102D90000028ABD0019B1A460133019350780028DC
:102DA000A4D04028F7D0EBD821280ED02D28EDD183
:102DB000A2799207EFD52046FFF7F0FE019BEAE7E4
:102DC0002046FFF76FFF019BE5E7A27942F0010281
:102DD000A271E0E7A2799007DDD56279217955F8F3
:102DE00022204900D06806FA01FC20EA0C0007FA0C
:102DF00001F10143D160CEE7A2799107CBD5627989
:102E0000217955F822204900D06806FA01FC20EA11
:102E10000C0008FA01F10143D160BCE76CBC020868
:102E200048BC02080000024038B5034640791979D1
:102E300019F078F9084904461AF0C0FE013008D0AC
:102E400014201BF049FF2146054619F079FA28465F
:102E500038BD002038BD00BF68FA0208024A02608F
:102E60000022C260704700BF78BC020810B5044B56
:102E7000036000230446C360FFF7A0FD204610BD99
:102E800078BC020870B586B0114E9DF81440ADF8BC
:102E9000080004F0FE041D46ADF80A10ADF80C2041
:102EA00030680C4B049501AA6FF3410405218DF89D
:102EB00014400193FEF792FE9DF8142012F00100D9
:102EC00003D0930744BF049B2B6006B070BD00BFC6
:102ED000C802002078BC020830B587B00E4C9DF8BF
:102EE0001450ADF8080005F0FE05ADF80A10ADF875
:102EF0000C202068094C049345F00205062101AA24
:102F00008DF814500194FEF769FE9DF8140000F04E
:102F1000010007B030BD00BFC802002078BC020825
:102F200010B5034B03600446FFF7F2FD204610BDC9
:102F300088BC020810B5054B03600446FFF7E8FDA6
:102F40002046FFF73BFD204610BD00BF88BC0208AD
:102F500010B50446FFF7ECFD201DFFF733FE064BCE
:102F60002360FF2100234FF0FF32E16022612376CE
:102F70006361204610BD00BF88BC0208002905DB44
:102F8000C3689942A8BF19460161704700210161D9
:102F9000704700BF036981F30801002BC16004DBA7
:102FA0009942B8BF0B460361704700230361704725
:102FB000C0687047837A4FF0FF3202619A070FD5DD
:102FC00003F001038B42027A436804D0012101FA25
:102FD00002F29A6170474FF4803101FA02F29A616D
:102FE000704700BF0269FF2A30B4034621D86AB394
:102FF000FF2A3ED040691C7EB0F5007FA8BF4FF489
:1030000000706FF0FF05A842B8BF284658619CB910
:1030100002447F2A5A6129DC9A7A900709D502F086
:103020000102A2421A7A5B6818D0012000FA02F26B
:103030009A61084630BC7047A2F58072104400289F
:10304000D8BF00245861D8BF1C76E5E7827A95077F
:10305000EFD512F0010F4368027AE6D14FF48030C9
:1030600000FA02F29A61084630BC704701241C76CF
:10307000D2E7827A9407DCD512F0010F4368027A16
:10308000D3D0EBE70321FFF759BD00BF10B50446CD
:103090004068054B236008B1FFF790FC2046FFF71E
:1030A00037FD204610BD00BFC0BC020838B5104D2A
:1030B0002B6893F8A830DB07044608D50D4B0E4863
:1030C00019884A1CC1F300311A80FDF799FF72B6C6
:1030D000636A53B1636A013B636262B60421286884
:1030E0000022BDE83840FEF779BD62B638BD00BFAA
:1030F000C802002024030020AE02002010B50446C0
:103100004068064B236008B1FFF758FC2046FFF7E4
:10311000FFFC2046FFF752FC204610BDC0BC020851
:10312000F0B583B00446FFF703FD194B194E002597
:1031300084E82800A560E56004F11800FFF742FD6F
:10314000154A0195176C154B15481C6047F0100780
:103150001764126C134B1449DFF850C002F01002D0
:1031600001920422019F1A6032688068920BA1FBD1
:103170000261C0F818C18908052741F6FF7620468C
:10318000276161619E62D9622262656203B0F0BD0F
:10319000C0BC0208D00100200038024020030020FB
:1031A00000ED00E000100040CDCCCCCC793200081E
:1031B000054B064A01204FF48001D86051601A681F
:1031C00002431A60704700BF0010004000E100E0B9
:1031D000074A084B1268920B10B4B2FBF1F141F6AA
:1031E000FF7441619C62D9625DF8044B02627047D2
:1031F000D001002000100040F8B54468856841699E
:10320000AC42064602D112E0A54210D054F8043B6D
:103210005A69521A002A5A61F6DA18691F6802447C
:103220005A6197B10020B847A5427169EED1336A5F
:10323000591A0029316207DA0E4A736A126801339B
:1032400001EB923131627362F8BD5A68002ADBD01B
:103250009F68D8683FB1C30707D402EB6000002124
:10326000B8477169D0E7C307CED54310D018D358FB
:10327000DF59F4E7D0010020034A044B6FF001014D
:1032800011611868FFF7B8BF00100040200300204C
:1032900038B5094D094B03600446024607212868EA
:1032A000FEF7FCFC286822460821FEF7F7FC2046C2
:1032B000FFF72EFC204638BDC8020020F8BC0208EB
:1032C00010B50446FFF7E4FF2046FFF777FB2046E2
:1032D00010BD00BF012916D041B1CB0720D490F812
:1032E0003830022202FA03F3194219D0837E9A077A
:1032F00016D513F0010F027E43690CD1012101FAAA
:1033000002F29A617047837E9A0709D513F0010F84
:10331000027E436905D14FF4803101FA02F29A61CD
:10332000704791409961704701B17047837E9A0759
:103330000AD513F0010F027E43690CBF01214FF43F
:10334000803101FA02F29A61038F6FF349230387F8
:10335000704700BF2DE9F041044625461E4617463A
:103360008846FFF7E5FB354B45F8043B98E803003A
:1033700085E8030097E8030004F10C0383E80300E9
:1033800096E8030004F1140383E80300B3799F0770
:1033900003D570793179FFF7D9FB0023E362228FDF
:1033A000A17E274E2748236363F34922228794F89E
:1033B00039206662002542F0040263F3C3026563AC
:1033C0004FF07E538D0784F83920A062236209D51F
:1033D000227E6369C80754BF01214FF4803101FA8E
:1033E00002F29A61A37A99070AD513F0010F227AA3
:1033F000636814BF01214FF4803101FA02F29A612F
:10340000A37C9A070AD513F0010F227CE36814BF4E
:1034100001214FF4803101FA02F29A61238F6FF398
:103420000823238720460721FFF788FB2046082131
:10343000FFF784FB2046BDE8F08100BFF8BC02081E
:10344000000048420000C07FD0ED0D7A10B580ED3D
:10345000080A20EE270A04461DF0C0F92063E06246
:1034600010BD00BFD0ED087A10B580ED0D0A20EE3A
:10347000270A04461DF0B2F92063E06210BD00BFC8
:10348000036B80ED0D0A194401637047D0ED087A93
:1034900010B520EE270A04461DF0A0F9236BC01AD0
:1034A00010BD00BF38B5837E9A0704460D460FD580
:1034B0004269017E1069C84003F0010300F0010079
:1034C000984205D0002B47D0012303FA01F1916106
:1034D00094F8393003F00103AB4215D0238FA27C5E
:1034E00065F30823900723870BD502F00102AA4257
:1034F000227CE36814BF01214FF4803101FA02F20B
:103500009A6101201AF09EFBA37A99070AD513F05D
:10351000010F227A63680CBF01214FF4803101FA58
:1035200002F29A6103201AF08DFBA37A9A070AD55A
:1035300013F0010F227A636814BF01214FF4803128
:1035400001FA02F29A61E26A002D0CBF01234FF0EA
:10355000FF331344E36238BD4FF4803303FA01F1C3
:103560009161B5E7F0B4094B094A0A4F01214FF4C4
:1035700000064FF400550024D960F960566055608C
:10358000C4631A680A431A60F0BC70470014004014
:1035900000E100E0002000400E4B0F4A1B6880ED68
:1035A000040A5B08A2FB0313DB0807EE103AF8EEEF
:1035B000C77A10B587EE800A04461DF0BFF8074BA6
:1035C0000E21BCEEC00A84ED050A996283ED0B0A58
:1035D00010BD00BFD00100208988888800140040F9
:1035E000DFED0A7AC0EE277A08B5094B1B685B0845
:1035F00007EE103AB8EE470A20EE270A1DF09EF8B3
:10360000044BBCEEC00A83ED0B0A08BD00247449CC
:10361000D0010020002000402DE9F04383B00025B8
:10362000294B2A4A00954563C56310601A6C856072
:1036300042F020021A64D3F84080DFF8A8E0244A60
:10364000DFF8A4C0234F244E24499FED250A08F03B
:103650002008CDF800804FF00408DDF80090CEF887
:103660000080D2F808E00195CEF81CC1D3F840E004
:103670004EF4807EC3F840E01B6C03F4807301932A
:103680000C23DDF804E03B609368C3F8F4609368B2
:1036900004469963FFF780FF2046B1EE040AFFF766
:1036A0009FFF94F84030656365F3440384F840302D
:1036B00094F84030A56365F30003204684F8403059
:1036C00003B0BDE8F08300BF0038024028030020AB
:1036D00000ED00E00020004049370008CD3A000826
:1036E0000050C347001400407D3A000870B490F8C1
:1036F0004050C5F3430515B3002301244FF4803631
:1037000002E00133AB421ADA426B04FA03F11142D0
:10371000F7D000F1180252F82320917A11F0020F2D
:10372000EFD011F0010F117A526803F1010314BFB9
:1037300004FA01F106FA01F1AB429161E4DB0023E6
:10374000436370BC704700BF034A044B6FF0010134
:1037500011611868FFF7CABF00200040280300204D
:103760002DE9F843856B002D53D090F84010C1F33C
:103770004301002947D000236C6D1E4601274FF4FA
:10378000803C03E00133DBB28B4236DAC3EBC30289
:1037900004EBC202926A002AF4D000EB83022E6D81
:1037A000926903F01F0992F8128007FA09F919EAE1
:1037B000060F0CBF4FF000094FF0010918F0020F7F
:1037C00008F001060BD092F810804E4514BF07FA9E
:1037D00008F60CFA08F6D2F80C80C8F81860168FB4
:1037E00069F308261687168F0133DBB246F400769C
:1037F0008B4216874FF00106C8DB0023C3631EB15E
:103800000120BDE8F883C163034B1B68986903F08E
:10381000E1FF0020BDE8F883C80200202DE9F04F49
:1038200090F84030914D0646D80785B040F1E180D0
:103830002968039191F8A800C0F34000002858D1EE
:1038400096F84080C8F34308B8F1000F00F00781F4
:10385000D6F838B0D6F83CA0DBF85490029507466D
:1038600022E0DDE90023012A73F100034DDBDCE9EE
:103870000245DDE90023121943EB05034FF0FF3445
:103880006FF0404594429D41CCE9022344DB06EBB6
:1038900080039C6994F8393013F0020F18BF012798
:1038A0000130C0B240457CDAC0EBC00C09EBCC0C57
:1038B000DCF82830002BF3D0DCE90045DCE90423F8
:1038C000DCF83010121943EB05035145CDE9002314
:1038D000CCE90023C5D1DBF844105145DBF8481092
:1038E00000F09E805145BCD1DCE90645CCE9044599
:1038F000B7E796F8402000236FF3000286F84020D7
:10390000F363B36305B0BDE8F08F00220023CCE978
:10391000002300224FF08043003243F14043CCE9C2
:103920000223DCF82C1006EB800301319C69CCF8F3
:103930002C10A37A9A070CD513F0010F227A636832
:103940000BBF01254FF4803105FA02F201FA02F2B1
:103950009A6194F83930E26A13F0010F0CBF012329
:103960004FF0FF331344E36294F839200628C2F382
:10397000400278D8736B00F01F01012505FA01F1B0
:103980000B4373632AB1DCF82C20DCF828309A4210
:1039900080D10021CCF82810238F6FF3492323878F
:1039A00078E7029D736B0AF10102F26323B1304B99
:1039B0001A6842F001021A60002FA3D1039AF7633C
:1039C000906903F007FF2B6806F13801986903F04E
:1039D000B7FE002839D196F84030B76367F300038B
:1039E00086F84030234B4FF080525A6005B0BDE856
:1039F000F08F2B6806F13801986903F0A1FE0028CA
:103A000080D03046FFF7ACFE96F8403060F30003FC
:103A100086F8403096F84030D9073FF509AF71E796
:103A2000DBF84C4000220023A142CCE90423BFF480
:103A300059AF5145CCF830103FF456AFDCE908459A
:103A4000CDE90045CCE900450BE73046FFF788FE9D
:103A500096F8403060F3000386F84030C2E74746EE
:103A6000D6F83CA09EE704481BF0ADFFC80200203A
:103A70000020004000ED00E028BD0208034A044B8E
:103A80006FF0010111611868FFF7C8BE0014004013
:103A90002803002010B490F84020C2F34304631CB4
:103AA00003F00F0300EB840463F3440280F840202A
:103AB000581EA1615DF8044B704700BF826808B5CD
:103AC00012B1C368984708BD1BF080FF08B5034BCF
:103AD000186883680BB1FFF7F1FF08BD28030020C9
:103AE000014B0360704700BF68BD02080EB40020A0
:103AF00003B07047014B0360704700BF68BD020808
:103B000010B5034B03600446FEF758FF204610BD76
:103B100068BD020810B5034B03600446FEF74EFF74
:103B2000204610BD68BD020808461FF0D8B800BF87
:103B30000EB42DE9F04392B019AB02AE53F8049BDA
:103B4000019305464A463046402121F0BBFC471C04
:103B50003F2F04460ADC2B6831465B6928469847AC
:103B6000204612B0BDE8F04303B0704738461BF062
:103B7000B1F839464A46019B804621F0A3FC2B68E8
:103B800041465B6928469847B045E9D0B8F1000F37
:103B9000E6D040461BF0CAF8E2E700BF0348044BFA
:103BA0000449054A03601BF0BCB800BF2C03002089
:103BB00040BD0208F53A00088801002070B405688D
:103BC0002878F8B10024104E2146084480FB0623D3
:103BD000C118C317C3EBE111C1EB0121411A0C4419
:103BE00084FB0623E218E317C3EBE213C3EB0323C2
:103BF00015F8010FE31A89B29CB20028E5D141EA19
:103C0000042080B270BC70478180808070B40278DC
:103C10000AB30024114E21468D1885FB0623E918AE
:103C2000EB17C3EBE111C1EB0121691A0C4484FBD2
:103C30000623E218E317C3EBE213C3EB032310F8E8
:103C4000012FE31A89B29CB2002AE5D141EA04248B
:103C5000A0B270BC70471046FBE700BF8180808037
:103C60002DE9F04F0B6887B053F80C3C019000270A
:103C70008846078047808780002B63D04E4CBA4629
:103C8000012340464D4952461BF0B8FA4C4B049371
:103C9000431C05465DD0D8F8003053F80C2C9245F3
:103CA000CAEB050379D805AE5246304641461BF0B3
:103CB000B9FD04A831461BF04AFA059BDFF80891CC
:103CC000A3F10C0048455DD1DDF810C09CF8003030
:103CD00043B34FF0000B5946604601EB030A8AFBE1
:103CE00004230AEB03014FEAEA73C3EBE111C1EBD2
:103CF0000121C1EB0A018B448BFB04230BEB030274
:103D00004FEAEB73C3EBE212C2EB022210F8013F61
:103D1000C2EB0B0289B21FFA82FB002BDDD141EA14
:103D20000B218BB2019AD3536A1CACF10C001CD04E
:103D3000484505F1010A33D1D8F8003053F80C3C5E
:103D40009A4502D307B0BDE8F08F0237062FF9D0AD
:103D500096E7D8F8003053F80C3C53451DD305AE18
:103D60005246304641462B46A1E74845EAD05CF82A
:103D7000043C5A1E002B4CF8042CE3DC31461BF0AB
:103D8000FBFADFE753F8042C511E002A43F8041C09
:103D90009ADC03A91BF0F0FA96E70A481BF013FE21
:103DA0005CF8043C5A1E002B4CF8042CC4DC314651
:103DB0001BF0E2FAC0E700BF8180808088BD020866
:103DC000A005002038B8020894050020202804D05F
:103DD000B0F109035842584170470120704700BFB5
:103DE000F0B50F4E06600C6854F80C7C2744BC42BA
:103DF00083B0054601D10FE02E6814F8010B20F0C6
:103E000039FAC0B256F80C1C009000222846012353
:103E10001BF030FBA742EFD1284603B0F0BD00BF36
:103E2000A005002070B584B00C4602AA1C490646C5
:103E300003A81BF03BFD03990022204651F80C3CDF
:103E40001BF011FA421C18BF00250FD001460122B9
:103E5000144B009520461BF04BFD0399204651F86A
:103E60000C3C00221BF0FFF9431CEFD10E4B039AD0
:103E700021683160A2F10C00A3F10C01884223609B
:103E800002D1304604B070BD52F8043C591E002BDC
:103E900042F8041CF5DC02A91BF06EFAF1E700BF42
:103EA0008CBD0208B4C00208A005002070B50C4605
:103EB000012384B005462149204600221BF09EF9CB
:103EC000431C06461ED00022334602A821461BF0A2
:103ED000A9FC236853F80C3C721C9A4220D8214656
:103EE00003A81BF09FFC204603A91BF030F9039B9D
:103EF000134AA3F10C00904215D1029B2B60284677
:103F000004B070BD214603A81BF043FC20460D49B8
:103F100000221BF0DDFA039B2B60284604B070BD25
:103F200009481BF050FD53F8042C511E002A43F899
:103F3000041CE2DC01A91BF01FFADEE7C8BE020880
:103F400094050020B4C0020838B8020830B50D4608
:103F5000012383B004461149284600221BF04EF984
:103F6000431C0FD02B6853F80C1C421C4B1C8A427C
:103F7000C0EB03030ED8294620461BF053FC204615
:103F800003B030BD2046064901AA1BF08FFC204635
:103F900003B030BD03481BF016FD00BFC8BE0208C9
:103FA000B4C0020838B8020800207047BFF34F8F32
:103FB000054A064BD16801F4E0610B43D360BFF3BF
:103FC0004F8F00BFFDE700BF00ED00E00400FA05E1
:103FD000F0B5A14D2B6885B00C46074603F13001C2
:103FE00002A81BF0D6FB236853F80C2C002A00F023
:103FF0009A8053F8042C002A03DB20461BF022FA97
:1040000023681A782F2A00F0CB80944D00220323D6
:10401000214603A81BF006FC03A891491BF03CF9BC
:10402000039BA3F10C02AA42064640F0C780002E73
:1040300037D1236853F80C3C022B40F2CC804FF070
:10404000FF332146032203A81BF0ECFB204603A903
:104050001BF07DF8039BA3F10C00A84240F0BE804A
:1040600080494FF0FF32012302A81BF0E1F802A9BA
:104070000346002203A81BF0D5FB02A803A91BF0EE
:1040800066F8039BA3F10C00A842BFD053F8042CA0
:10409000511E002A43F8041CB8DC01A91BF06CF97E
:1040A000B4E700220223214603A81BF0BBFB03A8B0
:1040B0006D491BF0F1F8039BA3F10C02AA420646DE
:1040C00040F0BA80002E35D0029B53F8042C53F8F0
:1040D0000C1C002A01F1FF3603DB02A81BF0B2F929
:1040E000029B9B5D2F2B02A960D003A81BF051FB04
:1040F0002F22012103A81BF013FB03A821461BF06C
:10410000ACFA5A4A03683B600260039BA3F10C00BF
:10411000A84240F08580029BA3F10C00A84269D11F
:10412000384605B0F0BD29684C4D303138461BF09B
:1041300030FBF0E7236853F80C3C012B4BD94FF0D0
:10414000FF332146022203A81BF06CFB204603A983
:104150001AF0FDFF039BA3F10C00A84255D1414981
:104160004FF0FF32012302A81BF062F802A90346B8
:10417000002203A81BF056FB02A803A91AF0E7FFD0
:10418000039BA3F10C00A8429ED053F8042C511EAF
:10419000002A43F8041C97DC01A91BF0EDF893E713
:1041A000324A3B60A2F10C052260B4E738461BF0AE
:1041B000F0FA384621461BF050FAACE753F8041CDD
:1041C000481E002943F8040C3FF731AF104601A9FF
:1041D0001BF0D2F82BE726481BF0F5FB53F8042C14
:1041E000511E002A43F8041C3FF73AAF01A91BF007
:1041F000C3F835E753F8042C511E002A43F8041C79
:104200008EDC03A91BF0B8F88AE753F8042C511E82
:10421000002A43F8041CA2DC01A91BF0ADF89EE7BC
:1042200053F8042C511E002A43F8041C3FF773AFC7
:1042300001A91BF0A1F86EE753F8041C481E0029E1
:1042400043F8040C3FF73EAF104601A91BF094F869
:10425000002E7FF439AF6DE7C802002094050020DE
:10426000ACBD0208B8BA0208B0BD0208A005002023
:1042700038B802082DE9F04191E81001444582B0B8
:104280000746164621D012B30834002301E09E42AF
:1042900017D914F8082CFA5454F8040C5D1C1BF0C0
:1042A000FDFC731B07EB050ECDE90001094A194619
:1042B00070461EF01DFCA04500EB050304F1080448
:1042C000E5D1184602B0BDE8F0810020FAE71046BB
:1042D000F8E700BFB4BD020830B585B00D4604460E
:1042E00003AA17491BF0E2FA052D23680CDC3435CC
:1042F000EDB253F80C1C00952046002201231BF060
:10430000B9F8204605B030BD53F80C1C3923009392
:104310002046012300221BF0ADF820460949012266
:104320001BF0C4F92B350368EDB253F80C1C009553
:10433000002201231BF09EF8204605B030BD00BFCF
:10434000BCBD020888BD020870B5054618F0D6FC51
:10435000074E044602E03068FDF740FC18F0CEFC42
:10436000001BA8424FF003014FF00002F3D370BDD1
:10437000C80200204FF47A7303FB00F0FFF7E4BF9C
:10438000F8B542680368D31A9B1004460F4605D05F
:104390005A00934220D96FF0030600E0042630460D
:1043A0001AF09AFC054694E809001B1A9B109A0023
:1043B0003968AF1818BF396043B9043708B1FEF740
:1043C000FDFA2E44A66084E8A000F8BD0146284608
:1043D0001EF0A9F82068F0E7B2F1804FDBD2DE00D2
:1043E000DDE700BFF8B542680368D31A9B100446A6
:1043F0000F4605D05A00934221D96FF0030600E022
:10440000042630461AF068FC054694E809001B1A99
:104410009B109A003968AF1818BF45F8231043B9AC
:10442000043708B1FEF7CAFA2E44A66084E8A0005B
:10443000F8BD014628461EF076F82068F0E7B2F194
:10444000804FDAD2DE00DCE72DE9F04742680368EE
:10445000C3EB02095FEAA90982B007460E4648D0BD
:104460004FEA4903994555D96FF0030948461AF0B8
:1044700033FC97E83000291B891000EB810380464C
:1044800000F1040A23B13368254A40F82130326034
:10449000AC4231D0231DC3EB050C4FEA9C0C04F158
:1044A00008061F4806EB8C06424622B153F8041C4E
:1044B000116043F8040C0433B34202F10402F4D156
:1044C00008EB8C0C174E0CF1080A54F8043BA3F1CE
:1044D0000C02B24212D1A542F7D1386808B1FEF7FA
:1044E0006DFA08EB0903BB6087E8000502B0BDE880
:1044F000F0874FF00409B9E72046EFE753F8041CB2
:10450000481E002943F8040CE5DC104601A91AF006
:1045100033FFE0E7B3F1804FA6D24FEAC909A5E720
:10452000A0050020940500202DE9F04FDFF80C8154
:10453000002385B082460F461646036043608360C1
:10454000A8F10C093B78B3424FD0002B4DD07B1C17
:1045500000E024B11D4613F8014BB442F9D1AF423B
:1045600054D0002F3CD0C7EB050B5846002101AAC0
:104570001AF0B2FEBBF1010F044600F10C0328D182
:104580003A7822734C452C4F44D1DAF80420DAF8FB
:10459000081003938A4233D01AB11360274BCDF829
:1045A0000C800432CAF80420A3F10C00B84238D1C0
:1045B0002B786F1C002BC5D1504605B0BDE8F08F9D
:1045C0002846294601AA1AF087FEAB46044600F1A8
:1045D0000C03184639465A461DF09CFF0346D1E7A6
:1045E000002DEDD016481BF0E8F9DAF80420DAF8CF
:1045F0000810124B03938A423D46A3F10C07CBD11E
:10460000504603A9FFF720FF039BCDE70B4BA3F117
:104610000C07BAE70022C4F800B0A26003F80B2030
:10462000B3E753F8042C511E002A43F8041CBFDCE6
:1046300002A91AF0A1FEBBE794050020A005002006
:10464000C0BD0208F0B585B004462C2201A8FFF7D2
:104650006BFF019D029E0023B54223606360A3604F
:104660002BD055F8040B00211FF0E2F96368A26813
:104670008DED000A93421BD01A1D0BB183ED000A89
:104680006260AE42EDD10198029E86420AD0114F7F
:10469000054655F8043BA3F10C00B8420FD1AE42D9
:1046A000F7D1019808B1FEF789F9204605B0F0BDB1
:1046B00020466946FFF764FEE3E72846F2E753F831
:1046C000042C511E002A43F8041CE8DC69461AF049
:1046D00053FEE4E794050020F0B585B00446174684
:1046E00001A82C22FFF720FF019D029E0023B54266
:1046F00023606360A3602AD0002155F8040B3A467A
:104700001FF032FA6368A16800908B421AD0191D1D
:1047100003B118606160AE42EED10198029E8642FC
:104720000AD0114F054655F8043BA3F10C00B842DE
:104730000FD1AE42F7D1019808B1FEF73FF92046FC
:1047400005B0F0BD20466946FFF74CFEE3E728467A
:10475000F2E753F8042C511E002A43F8041CE8DC4D
:1047600069461AF009FEE4E79405002002299ABF81
:1047700000EB810191ED000A9FED010A704700BF37
:104780000000C07F90ED015AD1ED007AD1ED025AC0
:1047900090ED027A91ED016AD0ED006A27EEC51A1C
:1047A00026EE470A66EEE50AA5EE250A88B0A6EED3
:1047B000261AE7EE270A08B0704700BF90ED010AFD
:1047C000D1ED015A90ED006AD1ED006A90ED027AC8
:1047D000D1ED027A20EE250AA6EE260AA7EE270AD8
:1047E000704700BF90ED010A90ED007AD0ED027A9B
:1047F00020EE000AA7EE070AA7EEA70A704700BF3F
:10480000D0ED010AD1ED016A90ED021A91ED027A24
:1048100090ED000AD1ED007A70EEE60A31EE471A0B
:1048200030EE670A88B008B0704700BFD0ED010ACB
:1048300090ED021AD0ED007A60EE200A20EE011A07
:1048400027EE800A88B008B0704700BF014819F011
:1048500051B900BF3003002008B50321FEF76EF9FF
:104860000248BDE8084019F045B900BF30030020F8
:1048700008B5074B1B6893F8A830DB0703D505483C
:104880000021FCF7BDFB044819F03CF900BE08BD4F
:10489000C8020020AC0200203003002010B5034BFA
:1048A00003600446FEF734F9204610BDF8BD020847
:1048B00010B5054B03600446FEF72AF92046FEF7C3
:1048C0007DF8204610BD00BFF8BD020870B5054652
:1048D00082B0214C1646FEF72BF9204B20492B6065
:1048E0004FF4C0727F2384E80E00E360EEB91D4BE5
:1048F00001961A6C42F400621A641B6C03F40063A4
:10490000019320464FF40073019A236119F0DEF8F9
:10491000204619F0EFF8144A144B926814491164B8
:10492000284601221A6002B070BD00220D4B019290
:10493000196C226141F400621A641B6C03F4006379
:1049400001932046019B19F0C1F8204619F0D2F8D6
:10495000284602B070BD00BF30030020F8BD020839
:10496000002C00400038024000ED00E000E100E0D3
:10497000714800082DE9F04F0446002583B0A57466
:104980006574E574FF2100F8015B10221DF0E6FD5F
:104990001A4A0195D2F8449019491A4BDFF87480ED
:1049A000DFF874C0184F194E194849F48079C2F8DD
:1049B0004490526C02F480720192019A4A686FF03E
:1049C000784A42F4403B6FF0404940F20142C1F85E
:1049D00004B0C3F80CA0C3F81090C3F804809A6028
:1049E000DCF808204FF48023C2F8880020463B60A2
:1049F000A561346003B0BDE8F08F00BF003802400D
:104A0000002301400020014000E100E044030020B9
:104A1000754A00082001000400ED00E038B5144B91
:104A2000D96C1A689206044615D48369C07C23B1F8
:104A3000626901258540154215D10130637CC0B201
:104A40008342E07406D80A4B1968002221F0100155
:104A50001960E27438BD1968002221F03201196032
:104A6000C27400BE38BD89B29847E07CE5E700BF5C
:104A700000200140014B1868FFF7D0BF440300201D
:104A800081617047F8B542680368D31A9B100446E9
:104A90000F4605D05A00934226D96FF0030600E076
:104AA000042630461AF018F9054694E809001B1A46
:104AB0009B109A003968AF1807D045F8231094E886
:104AC00009001B1A9B109A00AF1823B10146284613
:104AD0001DF029FD2068043708B1FDF76FFF2E4453
:104AE000A66084E8A000F8BDB2F1804FD5D2DE0008
:104AF000D7E700BF4FF0FF30704700BF704700BFDF
:104B0000014B0360704700BF30BE020810B5034B75
:104B100003600446FDF752FF204610BD30BE020878
:104B20008088431A58425841704700BF10B58368C7
:104B30000C4A0D4901600446A3F10C00904282B07A
:104B400004D10A4B2360204602B010BD53F8042C58
:104B5000511E002A43F8041CF3DC01A91AF00CFCD6
:104B6000EFE700BF9405002058BE0208D0B7020846
:104B700010B583680D4A0E4901600446A3F10C008C
:104B8000904282B007D10B4B23602046FDF716FF01
:104B9000204602B010BD53F8042C511E002A43F8E1
:104BA000041CF0DC01A91AF0E7FBECE794050020F7
:104BB00058BE0208D0B7020870B584B000F10801F1
:104BC000044602A81AF0E5FD02A903A81AF0E1FDC7
:104BD00003A8FFF7E9F9039B134DA3F10C02AA42C6
:104BE00006460AD10EB101232373029BA3F10C00E8
:104BF000A8420ED1207B04B070BD53F8041C481E9F
:104C0000002943F8040CEDDC104601A91AF0B4FBAE
:104C1000E8E753F8042C511E002A43F8041CE9DC91
:104C200003A91AF0A9FBE5E79405002038B504466E
:104C3000084B0948A360206010460D46FEF7E6FFCA
:104C40002946A08004F108001AF0AFFD0023237369
:104C5000204638BDA005002058BE0208F0B5A3B01C
:104C600007460E46144601A81A4683211D461CF02D
:104C700039FF30B31EF033F822AB184410F8853CEE
:104C80000A2B07D08CB928461CF0B0FE0A2801D0A8
:104C90000130F8D101A81EF022F801A902463046E1
:104CA0001AF016FC012023B0F0BD01A823211DF04D
:104CB000E4FF0028E7D12146BA6803481DF000FD53
:104CC000E1E723B0F0BD00BF78BE020830B50B7B32
:104CD00083B00D46044673B90846FFF76DFF50B91F
:104CE00009481DF0A1FD2046084901AA1AF0DEFD81
:104CF000204603B030BD05F1080120461AF049FDF9
:104D0000204603B030BD00BF98BE0208B4C0020800
:104D10002DE9F043037B8BB0054688469146002B76
:104D200076D008A84146FEF79BFF07A82946FFF763
:104D3000CDFF07987D497E4E1CF0E2FF079B04469D
:104D4000A3F10C00B04240F0E480A3899A062BD472
:104D5000784F05A9204604971CF05AFE04A928465E
:104D600000222346FFF77AFF06A9002859D02046E3
:104D70001CF04EFE2B6807A8D3F81CC004AA08AB91
:104D80002946E0470798034653F80C2DB34240F0FC
:104D90009880002A55D1049BA3F10C00B04240F04A
:104DA000A080A3899B06D4D520461CF007FD07A848
:104DB0002946FFF78BFF07985F491CF0A1FF079B6F
:104DC0000446A3F10C00B04240F0978021460A202F
:104DD0001CF0C4FF2146D8F800001DF01DF8234642
:104DE0000922012155481DF0CDFA2146D9F80000CD
:104DF0001DF012F823460121112251481DF0C2FA7C
:104E000020461CF0DBFC012420460BB0BDE8F083FB
:104E1000FFF7D2FE0446002883D120460BB0BDE840
:104E2000F083049BA3F10C00B042BDD053F8042CD6
:104E3000511E002A43F8041CB6DC07A91AF09CFA9C
:104E4000B2E7D8F80020D9F8003052F80C0C0599D8
:104E500053F80C2C069B02445B1A0332043B93422A
:104E6000204612D21CF0AAFC0024049BA3F10C00E3
:104E7000B042C9D053F8042C511E002A43F8041C38
:104E8000C2DC07A91AF078FABEE700221DF0E4F8A8
:104E90002146D8F800001CF0BFFF214620201CF05E
:104EA0005DFF2146D9F800001CF0B6FF2346012122
:104EB000022224481DF066FA20461CF07FFC0124E3
:104EC000D3E750F8041C01F1FF3E002940F804EC40
:104ED0003FF75FAF184603A901921AF04DFA019A05
:104EE00057E753F8042C511E002A43F8041C3FF7DF
:104EF00058AF07A91AF040FA53E753F8042C511E93
:104F0000002A43F8041C3FF761AF06A91AF034FAEF
:104F10005CE753F8042C511E002A43F8041C3FF7A9
:104F200014AF06A91AF028FA0FE700BFB8BE0208AE
:104F300094050020A005002084B60208C0BE020827
:104F4000CCBE0208BCBE02082DE9F0470C4684B076
:104F50009146434903AA05461AF0A8FC237B002B7F
:104F600048D003A82146FFF7B1FE03983D493E4EC5
:104F70001CF0C6FE039B8046A3F10C00B04263D137
:104F8000B8F80C309A062ED4DFF8E0A019E02768B4
:104F900003A8FF69B847284603A91AF0D8F803996F
:104FA000A1F10C00B0422ED12B6853F80C3CABB9E8
:104FB000029BA3F10C00B04230D1B8F80C309B0634
:104FC00011D402A9002243462046CDF808A0FFF7DD
:104FD00045FE02AA4B4621460028D8D1029BA3F1E8
:104FE0000C00B04225D140461CF0E8FB284604B036
:104FF000BDE8F0872046FFF7DFFD0028B1D1284645
:1050000004B0BDE8F08751F8043C5A1E002B41F86B
:10501000042CC9DC01A91AF0AFF9C5E753F8042C38
:10502000511E002A43F8041CC7DC03A91AF0A4F996
:10503000C3E753F8042C511E002A43F8041CD2DCA9
:1050400003A91AF099F9CEE753F8042C511E002A4F
:1050500043F8041C94DC02A91AF08EF990E700BF13
:10506000B4C00208DCEC020894050020A005002072
:10507000F8B50446084615460E461DF030FE0A4BAC
:1050800023602B6853F80C1C0746394420461AF05D
:10509000C4FA31463A4620461AF008FB2046294613
:1050A0001AF0DBFA2046F8BDA00500202DE9F04FEC
:1050B00089B093460546894607A8114605AA1AF005
:1050C000F5FB07A8FEF770FF079BDFF8F882A3F156
:1050D0000C024245044640F0378114B909B0BDE8DE
:1050E000F08F5846B149DFF8E0A21CF009FE012616
:1050F000074605E0049BA3F10C00404540F03181D8
:10510000BB899B0600F1038108AC324644F810AD20
:10511000284621463B460136FFF7A0FD002800F057
:10512000E7802B6821469B6928464A469847002815
:10513000E0D082894AF6E6139A42DBD107AA0168D9
:1051400005A81AF0B3FB4846FBF7CEFB05A907A854
:105150001AF01FFB07A8FEF727FF079BA3F10C021D
:105160004245044640F01581002C40F08480059BA8
:1051700053F8042C002A03DB05A81AF063F9059BF9
:105180001B782F2B0ED007A8894905AAFFF770FFBF
:1051900005A807A919F0DBFF079BA3F10C00404508
:1051A00040F03C8106AC594607AA20461AF07EFB27
:1051B0002F214FF0FF3220461AF00AF8214603460D
:1051C000002207A81AF02EFB204607A919F0BFFFFE
:1051D000079BA3F10C00404540F0CF80214607A873
:1051E0001AF0D7FA05A907A81AF037FA07A8FEF7A8
:1051F000DBFE079BA3F10C024245844640F0288168
:10520000BCF1000F16D105AA07A86A49FFF730FFC5
:1052100007A8FEF7C9FE079BA3F10C02424504460E
:1052200040F0E38007A8002C7CD0624905AAFFF774
:105230001FFF07E0214607A81AF0ABFA07A805A947
:105240001AF00BFA05A807A919F081FF079BA3F133
:105250000C00404540F0D680069BA3F10C00404571
:1052600009D053F8042C511E002A43F8041C02DC18
:1052700007A91AF081F805A907A81AF08AFA07A861
:10528000FEF792FE079BA3F10C024245044640F054
:10529000D280002C41D0059947481DF011FA07A98A
:1052A00038461CF0B5FB414905983A461CF0C4FE4F
:1052B00028464946059AFFF7F9FE3C4958463A46C2
:1052C0001CF0BAFE384607A91CF06CFF059BA3F141
:1052D0000C0040453FF40EAF53F8042C511E002A39
:1052E00043F8041C3FF706AF07A91AF045F801E799
:1052F000049BA3F10C00404509D053F8042C511E27
:10530000002A43F8041C02DC07A91AF035F83846D5
:105310001CF054FA09B0BDE8F08F059927481DF03C
:10532000CFF9D3E705AA2649FFF7A2FE07A8FEF7A3
:105330003BFE079BA3F10C024245044646D1002CDC
:105340008AD007A81E4971E753F8041C481E00299B
:1053500043F8040C3FF7C1AE104606A91AF00CF84A
:10536000BBE653F8042C511E002A43F8041C3FF7F7
:10537000C7AE07A91AF000F8C2E653F8042C511E74
:10538000002A43F8041C3FF729AF03A919F0F4FFE2
:1053900024E753F8041C481E002943F8040C3FF787
:1053A000E3AE104606A919F0E7FFDDE6DCEC0208E3
:1053B000B8BA0208E0BE0208ECBE020808BF020844
:1053C000E4BE020894050020A005002053F8041C48
:1053D000481E002943F8040CB1DC104603A919F05B
:1053E000CBFF002C3FF438AFABE753F8041C481E4A
:1053F000002943F8040C3FF715AF104603A919F034
:10540000BBFF0FE753F8042C511E002A43F8041C7D
:105410003FF722AF03A919F0AFFF1DE753F8042CA3
:10542000511E002A43F8041C06AC3FF7BCAE2146CF
:1054300019F0A2FFB7E653F8041C481E002943F8F0
:10544000040C3FF726AF104606A919F095FF20E798
:1054500053F8041C481E002943F8040C3FF7D0AE53
:10546000104603A9CDF804C019F086FFDDF804C08A
:10547000BCF1000F3FF4C7AEDCE600BF30B5037BE4
:1054800083B004460D4683B101A82146FFF71EFCF8
:105490002046019A2946FFF709FE019B0B4AA3F11A
:1054A0000C00904207D103B030BDFFF785FB002808
:1054B000EAD103B030BD53F8042C511E002A43F842
:1054C000041CF0DC694619F057FFECE79405002056
:1054D0008088431A58425841704700BF00207047E7
:1054E000014B0360704700BFD0B7020810B5034BF3
:1054F00003600446FDF762FA204610BDD0B70208EB
:105500002DE9F0410F46C5688168A94282B0064680
:105510002AD2A942DFF86C8023D20B780A2B01F142
:10552000010408BF012204D106E014F8013B0A2B54
:1055300001D0AC42F9D1621A6B4601A81AF0CBF93E
:10554000336830469B6901A93A469847019BA3F10D
:105550000C0040450BD1F568AC4205D22146A9426A
:10556000DBD30C460022E7E702B0BDE8F08153F838
:10557000042C511E002A43F8041CECDC694619F087
:10558000FBFEE8E7940500202DE9F0470F4684B0C4
:105590003649924603AA80461AF088F9B968FE682F
:1055A000B14248D2B142DFF8C89032D20B780A2B10
:1055B00001F1010408BF012204D106E014F8015BE7
:1055C0000A2D01D0B442F9D1621A03AB02A81AF035
:1055D00082F93B6803A8DD693946534602AAA84709
:1055E000404603A919F0B3FD039BA3F10C00484505
:1055F00025D1D8F8003053F80C3C6BB9029BA3F1CD
:105600000C00484526D1FE68B44214D22146B1426E
:10561000CCD30C460022D8E7029BA3F10C004845EE
:1056200009D053F8042C511E002A43F8041C02DC54
:1056300003A919F0A1FE404604B0BDE8F08753F875
:10564000042C511E002A43F8041CD2DC01A919F0D5
:1056500093FECEE753F8042C511E002A43F8041C95
:10566000D1DC03A919F088FECDE700BFB4C0020861
:105670009405002010B5064B036004460846FEF76B
:10568000C5FA044A044BA080A260E360204610BD26
:1056900040BF02080C7402083BB6020810B504466D
:1056A0004068054B236008B11CF088F80022034BCA
:1056B00062602360204610BD68BF020868BD020812
:1056C00010B504464068074B236008B11CF076F81B
:1056D0000022054B626020462360FDF76FF92046EB
:1056E00010BD00BF68BF020868BD020870B54468FD
:1056F0000D4654B108461DF0F2FA23460246012138
:105700002846BDE870401CF03DBE204670BD00BF7D
:105710000121FDF713BA00BF10B583680C4A0D498B
:1057200001600446A3F10C00904282B005D12046EE
:10573000FDF7EEF9204602B010BD53F8042C511EBF
:10574000002A43F8041CF2DC01A919F015FEEEE76B
:105750009405002038C4020810B583680E4A0F492A
:1057600001600446A3F10C00904282B008D12046AB
:10577000FDF7CEF92046FDF721F9204602B010BD15
:1057800053F8042C511E002A43F8041CEFDC01A935
:1057900019F0F2FDEBE700BF9405002038C40208C1
:1057A0002DE9F04F9DB051F8043B7C4C0E9305461B
:1057B0000FA819F0EEFF0FA90AA819F0EAFF216857
:1057C00091F8A8305E0618D498077ED5DFF8F0B1BE
:1057D00091F8A8300A9E43F0400381F8A830A6F162
:1057E0000C00584540F0CE800F9BA3F10C005845AB
:1057F00040F077861DB0BDE8F08F0A9E56F80C3C4D
:10580000002B59D056F8043C002B03DB0AA819F0F2
:1058100019FE0A9E3778242F00F0B18038461CF01C
:10582000F1FD8046002840F0AA80472F73D04D2F0D
:1058300071D0542F6FD0532F6DD04E2F00F0268291
:105840003B2F00F09580282F00F092800A2F00F067
:105850008F800D2F00F08C800AA85149002204236C
:1058600019F0CCFCB8B1202F13D00E984D49036825
:105870009B6898470A9BDFF848B1A3F10C00584594
:10588000B2D053F8042C511E002A43F8041CABDCA0
:1058900080E00130E9D00621434A2B7D16A81DF097
:1058A00027F916A81DF01BFA16AA034600210AA81C
:1058B00019F046FE0A9EA5E70E983C490368DFF8FA
:1058C00000B19B6898470A9E89E7343110A819F007
:1058D00060FF0E9D21682B68DFF8E4B09F6816AE6C
:1058E0003431304619F055FF28463149169AB847E9
:1058F000169BA3F10C00584540F044862068072110
:105900000022FCF76BF9109BA3F10C00584540F006
:10591000038721685CE76B684FF0000803F1010919
:1059200002230AA82349002219F068FC431C11D065
:1059300003460AA9002216A819F074FF0AA816A99E
:1059400019F005FC169BDFF878B0A3F10C00584560
:1059500040F0EF866A680132B8F1000F01D191453D
:1059600030D00E98144903689B6898470A9B82E7D9
:105970000E98124903689B6898470A9B7BE7DFF8FB
:1059800040B02CE756F8043C5A1E002B46F8042C75
:105990003FF72AAF16A919F0EFFC25E7C80200204F
:1059A00010C4020818C4020828C402080CC1020866
:1059B000F0BF02084CC0020804C4020848EC020808
:1059C000940500204E2F4FF00002DFF8B08208BF90
:1059D000C5F8049007920A9B53F80C2C002A3FF458
:1059E0004AAF022213460AA89A49DFF894A219F096
:1059F00005FC461C0746CDF82CA000F0458216AEEB
:105A00003B460AA9002230460DF12C0919F00AFF85
:105A10004846314619F09BFB169BAAF10C0BA3F1EB
:105A20000C00584540F0B8860A9B53F80C3C9F4246
:105A300000F2F2854FF0FF333A460AA9304619F0DA
:105A4000F1FE0AA8314619F082FB169BA3F10C0067
:105A5000584540F0D4856B7DD80704D52A690E9B44
:105A60009A4200F04E84182019F036F94946012375
:105A70000E9A074606F02EFA20683E7A90F8A83073
:105A8000990729D5B207396804D540F2E73399421E
:105A900000F04B85704B53F8042F91421CD04345C6
:105AA000F9D190F8A8305B0740F138850E986B4922
:105AB00003689B6898472FB1384606F003F93846CB
:105AC000FCF77CFFDFF8BCB10B9BA3F10C00584541
:105AD00040F088850A9E82E6730709D57B68352BDE
